:020000040800F2
:100000003026002089010008AB220008151C0008DA
:10001000A922000847040008672500080000000026
:10002000000000000000000000000000E5230008C0
:100030004904000800000000AD220008E723000882
:10004000A3010008A3010008A3010008A301000800
:10005000A3010008A3010008A3010008A3010008F0
:10006000A3010008A3010008A3010008A3010008E0
:10007000A3010008A3010008A3010008A3010008D0
:10008000A3010008A3010008A3010008A3010008C0
:10009000A3010008A3010008A3010008A3010008B0
:1000A000A3010008A3010008A3010008A3010008A0
:1000B0004D240008A301000869240008A3010008DA
:1000C000A3010008A3010008A3010008A301000880
:1000D000A3010008A3010008A3010008A301000870
:1000E000A3010008A3010008A301000800F002F822
:1000F00000F03AF80AA090E8000C82448344AAF188
:100100000107DA4501D100F02FF8AFF2090EBAE885
:100110000F0013F0010F18BFFB1A43F0010318473B
:10012000C8400000E8400000103A24BF78C878C1F9
:10013000FAD8520724BF30C830C144BF04680C60ED
:10014000704700000023002400250026103A28BF35
:1001500078C1FBD8520728BF30C148BF0B60704739
:100160001FB51FBD10B510BD00F038F91146FFF7DF
:10017000F7FF02F0E7FE00F056F903B4FFF7F2FFD5
:1001800003BC00F059F900000948804709480047BE
:10019000FEE7FEE7FEE7FEE7FEE7FEE7FEE7FEE737
:1001A000FEE7FEE704480549054A064B7047000094
:1001B00049240008ED0000083020002030260020EF
:1001C0003022002030220020032A40F2308010F03C
:1001D000030C00F0158011F8013BBCF1020F6244E2
:1001E00098BF11F801CB00F8013B38BF11F8013B73
:1001F000A2F1040298BF00F801CB38BF00F8013B20
:1002000011F0030300F02580083AC0F0088051F88F
:10021000043B083A51F804CBA0E80810F5E7121D9A
:100220005CBF51F8043B40F8043BAFF30080D207B9
:1002300024BF11F8013B11F801CB48BF11F8012B85
:1002400024BF00F8013B00F801CB48BF00F8012BA8
:10025000704710B5203AC0F00B80B1E81850203A32
:10026000A0E81850B1E81850A0E81850BFF4F5AF56
:100270005FEA027C24BFB1E81850A0E8185044BFE0
:1002800018C918C0BDE810405FEA827C24BF51F84D
:10029000043B40F8043B08BF7047D20728BF31F841
:1002A000023B48BF11F8012B28BF20F8023B48BF92
:1002B00000F8012B704702F0FF0343EA032242EAF1
:1002C000024200F062B84FF0000200B513469446B7
:1002D0009646203922BFA0E80C50A0E80C50B1F19E
:1002E0002001BFF4F7AF090728BFA0E80C5048BFB2
:1002F0000CC05DF804EB890028BF40F8042B08BF50
:10030000704748BF20F8022B11F0804F18BF00F84B
:10031000012B704710B5044610F0030F08BF11F011
:10032000030F40F015804FF0013E121FC0F20E8007
:1003300051F8043BA3EB0E0C2CEA030C1CEACE1C78
:1003400008BF40F8043BF0D0A1F1040102F104021F
:10035000521E08DB11F8013B002B00F8013BF7D1DE
:10036000114600F010F8204610BD704770477047E6
:1003700010B500F02BF8006810BD10B5044600F071
:1003800025F8046010BD4FF000020429C0F012806F
:1003900010F0030C3FF499AFCCF1040CBCF1020F48
:1003A00018BF00F8012BA8BF20F8022BA1EB0C010D
:1003B000FFF78BBF5FEAC17C24BF00F8012B00F878
:1003C000012B48BF00F8012B704700000048704720
:1003D000D01F002000487047D01F00207546FFF74F
:1003E000F9FFAE4605006946534620F007008546F2
:1003F00018B020B5FFF7D6FEBDE820404FF000064C
:100400004FF000074FF000084FF0000B21F00701FC
:10041000AC46ACE8C009ACE8C009ACE8C009ACE83F
:10042000C0098D46704710B50446AFF300802046E2
:10043000BDE81040FFF7A1BE01491820ABBEFEE7A2
:10044000260002007047FEE77047000070B50446C2
:1004500000F010F90546601C02D0044800780444FE
:1004600000F008F9401BA042FAD370BD2C00002018
:100470002DE9F84FDFF8B8910024A9F1040B2346C9
:100480000F2709F1040AABF1040EC9E00125A540CC
:100490002A40AA427DD1674ED1F804C0ACEB0608D1
:1004A000B44532D014DCBCF1030F3AD009DCBCF106
:1004B000000F2AD0BCF1010F1CD0BCF1020F31D1CA
:1004C0001DE0BCF1110F17D0BCF1120F2AD119E0B9
:1004D000B8F5881F19D006DCB8F5803F15D0B8F5FF
:1004E000801F1FD111E0B8F5001F0ED0B8F5041F12
:1004F00018D10AE0CB6815E0CB681B1D12E0CB6871
:1005000008330FE0CB680C330CE08B682BB1012B68
:100510004FF0080303D0456104E0042302E00561C5
:1005200000E00023FF2A01D8064601E000F104069E
:100530004FEA840501D9A5F12005D6F8008007FA15
:1005400005FC28EA0C0803FA05F548EA0508C6F890
:1005500000804D68ED0062D5374DAE6946F001066A
:10056000AE61AD6924F0030605F001050095334D39
:1005700006EB050CDCF80850A607360F07FA06F85C
:1005800025EA0805DFF8B880404503D14FF00008A0
:1005900017E044E0DFF8AC80404502D14FF001089D
:1005A0000FE0DFF8A480404502D14FF0020808E0D8
:1005B000DFF89880404502D14FF0030801E04FF08A
:1005C000040808FA06F848EA0508CCF808804D68DF
:1005D000D9F80060ED024D4601D5164300E0964380
:1005E0002E604D68DAF80060AD02554601D516431D
:1005F00000E096432E604D68DBF80060AD035D4679
:1006000001D5164300E096432E604D68DEF8006089
:10061000ED03754601D5164300E096432E60641C39
:100620000D682A46E5407FF431AFBDE8F88F000041
:1006300008040140000011100010024000000140B9
:1006400000080140000C014000100140001401406E
:100650008068084000D001207047C26821EA020388
:100660000A4043EA0241016170470AB101617047E3
:100670000904FBE701488068704700002C00002057
:1006800070B5040025D094F83D00002520B984F809
:100690003C50204600F078FA242084F83D00206881
:1006A000016821F0010101602068016841F4004106
:1006B00001602068016821F40041016000F0CAFB7C
:1006C0004D4A6168914201D84C4900E04C4988424A
:1006D00001D2012070BD4B492368B0FBF1F15E6887
:1006E00026F03F060E435E606368934206D94FF4DE
:1006F000967359434FF47A73B1FBF3F12368491CA5
:100700001E6A26F03F06314319626168914210D893
:100710004900401EB0FBF1F2521CC2F30B02042A46
:1007200001D2042022E0B0FBF1F0401CC0F30B002A
:100730001CE0A268F2B301EBC10303EB0116431EF8
:10074000B3FBF6F35B1C43F480431B0549D092B323
:1007500001EBC10202EB0111401EB0FBF1F0401CA5
:10076000C0F30B0040F4804040F400402168CA69A7
:100770004CF6FF739A431043C861D4E90710014354
:100780002068026822F0C00211430160D4E903012D
:1007900001432068826848F2FF339A431143816025
:1007A000D4E9050108432168CA6822F0FF0210431A
:1007B000C86001E00EE016E02068016841F0010128
:1007C00001602564202084F83D00256384F83E50B4
:1007D000002070BD01EB4106431EB3FBF6F35B1C2A
:1007E000B3E70120C2E701EB4101401EB0FBF1F08D
:1007F000401CC0F30B00B7E7A086010080841E00F8
:1008000000093D0040420F002DE9FF4F83B0002555
:10081000DDE910799A4693460446DDF84880009554
:10082000FFF728FF064694F83D0020287CD11923C5
:10083000012285492046009601F002FB0028F5D1EF
:1008400094F83C0001286FD0012084F83C00206817
:100850000168C90703D1016841F001010160206806
:10086000016821F400610160222084F83D004020ED
:1008700084F83E0025646762A4F82A90608D208584
:100880007248E062CDE9008653465A4620460499F4
:1008900001F0D8F900287DD1208DDFF8B491202710
:1008A00068B1012814D00228206801681ED041F4E4
:1008B000806101602068416980690090B6E020682D
:1008C000416981690091016841F400710160ADE006
:1008D0002068016821F48061016072B62068416976
:1008E00081690091016841F400710AE041F40061FE
:1008F000016072B62068416981690091016821F444
:100900008061016062B691E0032868D801280CD0AC
:10091000022843464FF000024946204600960FD079
:1009200001F08EFAB0BB10E08BE032464146204623
:1009300001F02CFB70BB20680069616A08706CE0F4
:1009400001F07EFA30BB72B634E02068016821F411
:100950008061016072B620680069616A0870606A2F
:10096000401C6062208D401E2085608D401E608589
:10097000384846F2A8110068B0FBF1F0C0EBC000A7
:1009800000EB80000090401E009008D02068406975
:10099000C04300E029E040070CD50098F3E744F895
:1009A000305F6773A573206940F02000206162B654
:1009B00025731AE02068016841F400710160206825
:1009C0000069616A0870606A401C6062218D491E7E
:1009D0002185618D491E618562B621681BE0324622
:1009E0004146204601F0D2FA18B1012007B0BDE817
:1009F000F08F20680069616A0870606A401C60625C
:100A0000218D491E2185618D491E618521684A69B4
:100A1000D24352070AD409690170606A401C6062BF
:100A2000208D401E2085608D401E6085208D002811
:100A30007FF46AAF84F83D7084F83E5084F83C50EF
:100A4000D4E70220D2E70000020010000000FFFF00
:100A500004000100380000202DE9FF4F83B09A46C2
:100A6000DDE9119793460446DDF84080FFF702FE6A
:100A7000054694F83D0020287FD1192301224049E2
:100A80002046009501F0DCF9002876D194F83C006E
:100A9000012872D0012084F83C0020680168C90751
:100AA00003D1016841F0010101602068016821F46F
:100AB00000610160212084F83D00402084F83E0060
:100AC00000262664C4F82480A4F82A90608D20852E
:100AD0002C48E062CDE9007553465A4620460499F9
:100AE00001F02EF970B930E02A463946204601F06F
:100AF00085FA58B1206C042804D12068016841F4BB
:100B000000710160012007B0BDE8F08F606A2168C4
:100B100000780861606A401C6062218D491E89B2BC
:100B20002185628D521E628522685369DB435B0713
:100B30000BD469B100781061606A401C6062208D3E
:100B4000401E2085608D401E6085208D0028CBD101
:100B50002A463946204601F047F90028CAD154F800
:100B60003D0B016841F400710160202004F81E096A
:100B7000E67766770020C6E7FFE70220C3E70000BC
:100B8000020010000000FFFF10B586B000210091A8
:100B900001910291039100681349884222D1134CBC
:100BA000A06940F00800A061A069694600F0080053
:100BB00004904FF4407000901220019003200390A5
:100BC0000B48FFF755FC0B48416841F0E06141F0EC
:100BD00002014160E06940F40010E061E06900F466
:100BE0000010049006B010BD0054004000100240F8
:100BF000000C014000000140024881680278114465
:100C0000816070472C000020074810B5016841F052
:100C100010010160032000F075F80F2000F006F8C5
:100C200000F024F8002010BD0020024070B50D4DEA
:100C300004464FF47A712878B1FBF0F00A4909684C
:100C4000B1FBF0F000F0B7FD48B9102C07D200223C
:100C50002146501E00F036F800206C6070BD012067
:100C600070BD00002C000020380000200C4808B5A2
:100C7000816941F001018161816901F00101009107
:100C8000C16941F08051C161C06900F0805000909D
:100C90000448416821F0E06141F00071416008BD05
:100CA0000010024000000140002809DB00F01F0294
:100CB000012191404009800000F1E020C0F80011BE
:100CC00070470000F0B40E4B1B680C46C3F30223C0
:100CD000C3F10705042D00D90425191D072901D2E8
:100CE000002300E0DB1E012606FA05F1491E214023
:100CF00099409E40761E16403143F0BC01F034BC52
:100D00000CED00E0064900F0070208684FF6FF030B
:100D1000184040EA0220034A104308607047000070
:100D20000CED00E00000FA052DE9F0470F46050044
:100D300061D0434E306800F00700B84209D23068F5
:100D400020F0070038433060306800F00700B842F8
:100D500051D128683B4C810712D5400703D5606804
:100D600040F4E06060602878000703D5606840F4D4
:100D7000605060606068A96820F0F000084360601F
:100D80002878C00728D06868012810D02168022878
:100D900010D0890700292EDA616821F00301014390
:100DA0006160FFF767FC804641F288390DE02168F9
:100DB0008903EFE78901EDE7FFF75CFCA0EB080191
:100DC000494502D90320BDE8F0876068696800F0F2
:100DD0000C00B0EB810FEFD1306800F00700B84293
:100DE0000BD9306820F0070038433060306800F0DD
:100DF0000700B84201D00120E5E72878400705D573
:100E00006068E96820F4E0600843606028780007C3
:100E100006D56068296920F4605040EAC10060602E
:100E200000F028F86168084AC1F30311515CC8401A
:100E30000649086006480068FFF7F8FE0020C2E790
:100E400000200240001002408E41000838000020BF
:100E5000300000200448054900684968044AC1F38D
:100E60000221515CC8407047380000200010024049
:100E70009E4100080E4A51680E4801F00C03042BF5
:100E800011D0082B0FD10C48C1F38343C903C05CB8
:100E90000AD55168084AC1F34041921E515C054A87
:100EA0005043B0FBF1F070470449484370470000DD
:100EB0000010024000127A007E41000800093D0047
:100EC0002DE9F84F040070D02078C04DC00749D0FC
:100ED0006868C0F38100012807D06868C0F381000A
:100EE000022809D16868C00306D52868800339D56F
:100EF00060680028E7D035E06068B0F5803F0BD02F
:100F000010B1B0F5A02F11D0286820F480302860EF
:100F1000286820F4802002E0286840F480302860AF
:100F2000606890B1FFF7A6FB06460AE0286840F427
:100F300080202860F0E700BFFFF79CFB801B64283F
:100F400073D828688003F7D50CE0FFF793FB0646BB
:100F500005E000BFFFF78EFB801B6428F0D82868EF
:100F60008003F7D420789A4E80074FF001094FF0A4
:100F7000000839D5686810F00C0F07D06868C0F316
:100F80008100022809D16868C00306D42868800758
:100F900014D52069012808D110E02069B0B1C6F845
:100FA0000090FFF767FB074605E00AE1FFF762FBE9
:100FB000C01B0228C4D828688007F7D52868616953
:100FC00020F0F80040EAC10028600DE0C6F800807B
:100FD000FFF750FB074604E0FFF74CFBC01B02285D
:100FE00023D828688007F7D4207800072CD57948C3
:100FF000A169D9B1C0F80090FFF73CFB074604E0B7
:10100000FFF738FBC01B02280FD8686A8007F7D5A6
:1010100071484FF4FA510068B0FBF1F0009000BF46
:101020000098411E0091FAD20EE080E0C0F80080E6
:10103000FFF720FB074604E0FFF71CFBC01B02285C
:1010400075D8686A8007F7D42078400760D5E869CA
:101050000027C00008D4E86940F08050E861E869E2
:10106000012700F0805000905C480168C90513D446
:101070000168834641F480710160FFF7FBFA824604
:1010800006E000BFFFF7F6FAA0EB0A0064284ED88E
:10109000DBF80000C005F5D5E06801280AD008B1EA
:1010A000052813D0286A20F001002862286A20F061
:1010B000040002E0286A40F001002862E06841F282
:1010C000883B98B1FFF7D6FA82460BE0286A40F0D9
:1010D00004002862EEE700BFFFF7CCFAA0EB0A019C
:1010E00059455AD8286A8007F6D50CE0FFF7C2FAAE
:1010F000824605E0FFF7BEFAA0EB0A0159454CD83D
:10110000286A8007F6D41FB1E86920F08050E861B2
:10111000E06988B36968C1F38101022944D00228DB
:10112000C6F8608004D0FFF7A5FA044638E034E042
:10113000FFF7A0FA074604E0FFF79CFAC01B02285D
:101140002BD828688001F7D4206AB0F5803F05D1FC
:101150006868A16820F4003008436860D4E9080199
:101160000843696821F4741108436860C6F8609008
:10117000FFF780FA044606E025E000BFFFF77AFAA1
:10118000001B022809D828688001F7D51BE000BFA2
:10119000FFF770FA001B022802D90320BDE8F88F80
:1011A00028688001F4D40EE00128F7D06868226A2C
:1011B00000F48031914204D1616A00F470108842D9
:1011C00001D00120EAE70020E8E70000001002401B
:1011D000000042428004424238000020007000407B
:1011E00070B5040009D0606A002540B125616561D1
:1011F000A56294F8510040B10CE0012070BD606818
:10120000B0F5827FF4D0E561F2E784F850502046D3
:1012100000F040F8022084F851002068016821F0B5
:1012200040010160A088218900F4827001F404412A
:101230000843A18901F400610843217C01F0020107
:101240000843217D01F001010843218B01F4007165
:101250000843217F01F03801084394F8201001F081
:1012600080010843218D01F4005108432168086082
:10127000A069042101EA1040216848602068C16922
:1012800021F40061C1616565012084F851000020EE
:1012900070BD000030B585B0002400940194029424
:1012A000039400681449884223D11448816941F4A9
:1012B00080518161816901F480510491816941F01B
:1012C0000401816180690E4D00F004000490A020AB
:1012D0000090022001900320039069462846FFF702
:1012E000C7F84020CDE90004694628460294FFF77C
:1012F000BFF805B030BD00000030014000100240D2
:10130000000801402DE9F84F044690F85100984636
:1013100016460F460025012801D0022598E0606896
:101320004FF0040BB0F5827F01D1A068F8B194F8BA
:101330005000012826D04FF0010984F85090FFF7A3
:1013400099F98246002F7FD0002E7DD084F851B0CD
:1013500000206065A763A687E6872063A086E086F5
:1013600020646064A068B0F5004F0DD016E084F8EA
:1013700051B013460A462046CDF8008000F024F90B
:10138000BDE8F88F0220FBE72068016821F04001EA
:1013900001602068016821F48041016020680168D3
:1013A000490603D4016841F040010160E068D8B10A
:1013B0003BE020688168C90709D0007BA16B0870F9
:1013C000A06B401CA063E08F401EE0870CE0FFF79D
:1013D00051F9A0EB0A01414503D3B8F1FF3F03D017
:1013E00006E0B8F1000F03D0E08F0028E1D11FE044
:1013F00003252BE020688168C90709D0C068A16B6C
:101400000880A06B801CA063E08F401EE0870CE08A
:10141000FFF730F9A0EB0A01414503D3B8F1FF3FD4
:1014200003D0E5E7B8F1000FE2D0E08F0028E1D16A
:1014300052464146204600F03AFF08B12020606540
:10144000606D00E000E008B1012501E084F85190F2
:10145000002084F85000284692E72DE9F84F044612
:1014600090F850000026984615468A4601280CD070
:10147000012784F85070FFF7FDF8814694F8510079
:10148000B346012804D002269AE00220BDE8F88F76
:10149000BAF1000F6FD0002D6DD0032084F85100F9
:1014A000C4F854B0C4F830A0A586E586C4F838B0B6
:1014B000A4F83CB0A4F83EB0C4F844B0C4F840B0BE
:1014C000A068B0F5004F09D12068016821F0400103
:1014D00001602068016841F4804101602068016872
:1014E000490603D4016841F040010160E068B0F5AD
:1014F000006F606803D058B3012D29D049E008B1CE
:10150000012D1FD1206B21680088C86006E020688B
:101510008168890709D5216B0988C160206B801C0F
:101520002063E08E401EE0860CE0FFF7A3F8A0EBFE
:101530000901414503D3B8F1FF3F03D006E0B8F1FC
:10154000000F03D0E08E0028E1D125E0032635E02E
:10155000206B21680078087306E02068816889079D
:101560000AD5216B09780173206B401C2063E08E43
:10157000401EE0860DE01FE0FFF77CF8A0EB0901BC
:10158000414503D3B8F1FF3F03D0DFE7B8F1000FC7
:10159000DCD0E08E0028E0D14A464146204600F0EB
:1015A000B4FE08B120206065A06818B92068C16841
:1015B00080680090606D08B1012601E084F85170E8
:1015C00084F850B0304661E72DE9FF4F81B0044602
:1015D00090F8500000260E9F1D4693464FF00109DB
:1015E00001280FD04FF0010A84F850A0FFF742F80D
:1015F000804694F85100616801280DD0B1F5827FD2
:1016000008D103E0022005B0BDE8F08FA16809B958
:10161000042801D00226C9E00298002865D0BBF159
:10162000000FFBD0002DF9D094F85100042802D00F
:10163000052084F8510000206065C4F838B0E587C3
:10164000A58702992163E586A586206460642068E9
:101650000168490603D4016841F040010160E06877
:10166000B0F5006F606803D0F0B3012D47D081E082
:1016700008B1012D3CD1206B21680088C860206B27
:10168000801C2063E08E401EE08631E02068816887
:1016900089070FD5E18E69B1B9F1010F0AD1216B2C
:1016A0000988C160206B801C2063E08E401EE086AC
:1016B0004FF0000920688168C9070CD0E18F51B153
:1016C000C068A16B0880A06B801CA063E08F401EE7
:1016D000E0874FF00109FEF7CDFFA0EB0800B8420C
:1016E00006D3781C04D001E009E05BE003265BE050
:1016F000E08E0028CAD1E08F0028C7D140E0206BDF
:10170000216800780873206B401C2063E08E401E27
:10171000E0862FE02068816889070FD5E18E69B1E6
:10172000B9F1010F0AD1216B09780173206B401CBC
:101730002063E08E401EE0864FF00009206881683B
:10174000C9070CD0E18F51B1C068A16B0870A06BC4
:10175000401CA063E08F401EE0874FF00109FEF7B8
:1017600089FFA0EB0800B84202D3781C02D0BAE788
:10177000002FB8D0E08E0028CCD1E08F0028C9D14E
:1017800042463946204600F0C0FD18B1012620200F
:1017900060650BE0A06818B92068C1688068009097
:1017A000606D08B1012601E084F851A0002084F8A2
:1017B0005000304627E710B5401EB0F1807F01D3BE
:1017C000012010BD4FF0E02460610F21601700F090
:1017D000CBFE0020A06107202061002010BD7047D3
:1017E0007047000070B590F83C20012A26D00124F3
:1017F00080F83C40022280F83D2003685A689D68CA
:1018000022F070060A6832435A600D4B02689A4211
:1018100008D0B2F1804F05D00A4B9A4202D00A4B51
:101820009A4204D1496825F080031943916080F8F9
:101830003D40002180F83C10084670BD022070BD7C
:10184000002C0140000400400008004010B50400D6
:1018500003D094F83D0010B107E0012010BD002036
:1018600084F83C00204600F01FF8022084F83D0078
:10187000211D206800F00CFE012084F8460084F849
:101880003E0084F83F0084F8400084F8410084F86A
:10189000420084F8430084F8440084F8450084F84A
:1018A0003D00002010BD000008B501681948B1F1E5
:1018B000804F0BD0184A914217D1C16941F0020103
:1018C000C161C06900F00200009008BDC16941F02B
:1018D0000101C161C069002200F0010000901146C1
:1018E0001C20FFF7EFF91C2010E00C4A9142ECD1CC
:1018F000C16941F00401C161C069002200F0040027
:10190000009011461E20FFF7DDF91E20BDE80840BB
:10191000FFF7CAB900100240000400400008004070
:1019200090F83D10012901D001207047022180F874
:101930003D1000680B49884208D0B0F1804F05D0B7
:101940000949884202D00949884204D1816801F0DE
:101950000701062903D0016841F001010160002060
:1019600070470000002C01400004004000080040C7
:1019700090F83D10012901D001207047022180F824
:101980003D100168CA6842F00102CA6000680B4954
:10199000884208D0B0F1804F05D00949884202D072
:1019A0000849884204D1816801F00701062903D063
:1019B000016841F00101016000207047002C0140E6
:1019C000000400400008004070B5044690F83C0058
:1019D0000025012817D0012684F83C60022084F8F5
:1019E0003D002068826822F0770222F47F42826004
:1019F0000868502838D00DDC20284FD005DC90B383
:101A0000102811D14AE0022070BD302846D040286D
:101A10000AD13BE060282FD070280DD0B0F5805F50
:101A200003D0B0F5005F12D0012584F83D6000209E
:101A300084F83C00284670BDCB68D1E901212068BC
:101A400000F05CFD2068816841F0770109E0CB6817
:101A5000D1E90121206800F051FD2068816841F43E
:101A600080418160E1E719E0CA684968206800F0B8
:101A700057FD5021206806E0CA684968206800F0D8
:101A800060FD6021206800F043FDCEE7CA68496828
:101A9000206800F045FD40212068F4E722680146F7
:101AA0001046F0E7704770B50446006801694FF0D2
:101AB0000005C943890715D4C168C943890711D4F2
:101AC000E91E016101202077206880698007204697
:101AD00002D0FFF7E7FF04E000F098F8204600F09E
:101AE00096F8257720680169C943490717D4C1686A
:101AF000C943490713D46FF0040101610220207724
:101B00002068806910F4407F204602D0FFF7CAFFAA
:101B100004E000F07BF8204600F079F82577206893
:101B20000169C943090716D4C168C943090712D41A
:101B30006FF008010161042020772068C0698007E8
:101B4000204602D0FFF7AEFF04E000F05FF8204629
:101B500000F05DF8257720680169C943C90617D4EC
:101B6000C168C943C90613D46FF010010161082090
:101B700020772068C06910F4407F204602D0FFF72C
:101B800091FF04E000F042F8204600F040F825778D
:101B900020680169C943C90708D1C168C943C90799
:101BA00004D1891E0161204600F032F820680169E5
:101BB000C943090609D4C168C943090605D46FF0B1
:101BC000800101612046FFF70AFE20680169C943D0
:101BD000490609D4C168C943490605D46FF04001DC
:101BE0000161204600F015F820680169C9438906A3
:101BF0000BD4C168C943890607D46FF02001016185
:101C00002046BDE87040FFF7EBBD70BD70477047E0
:101C100070477047FEE701684A69D24352050FD406
:101C20006FF480624A61002140F8301F2022427325
:101C30008173026942F0040202610173012070475E
:101C4000002070472DE9F84F0446006889460B9D37
:101C500001689846174641F4806101602068016878
:101C600041F48071016000954FF0011B002259463C
:101C700020460A9B00F0E4F84FF4007A40B1206857
:101C80000068C00501D5C4F840A00320BDE8F88F66
:101C9000216809F0FE0008612B46284920460A9A6F
:101CA00000F016F9F0BB20684169806900902A466F
:101CB00020460A9900F0A2F940B1206C04283AD1DC
:101CC0002068016841F40071016034E0FEB2B8F1AF
:101CD000010F09D02168380A08612A4620460A996E
:101CE00000F08CF90028E8D1206806612A462046D9
:101CF0000A9900F083F90028DFD12068016841F4D7
:101D00008071016000950022594620460A9B00F030
:101D100097F80028B3D1216809F0FF0040F00100D6
:101D2000086100E007E02B46044920460A9A00F0CB
:101D3000CFF80028AAD00120A8E700000200010087
:101D40002DE9F843044600680D46DDE9089701686F
:101D50009846164641F4807101604B4600224FF0D0
:101D600001112046009700F06BF848B12068006828
:101D7000C00502D54FF4007020640320BDE8F8834D
:101D8000216805F0FE0008613B464A461549204699
:101D900000F09EF888B920684169806900903A4651
:101DA0004946204600F02AF948B1206C042804D1A5
:101DB0002068016841F4007101600120DEE7F5B29E
:101DC000B8F1010F09D02168300A08613A46494646
:101DD000204600F013F90028E7D1206805610020B3
:101DE000CCE700000200010070B516460D4604461F
:101DF0001EE02046FFF70FFF08B1012070BD681CF0
:101E000016D0FEF737FC801BA84200D885B92068A1
:101E10004069C04340070BD5002044F8300F202113
:101E20006173A073216941F0200121612073E4E70F
:101E300020684069C0434007DBD4002070BD00002B
:101E40002DE9F047984617460D460446C1F307466C
:101E5000DDF820902AE000BFB8F1FF3F26D0FEF762
:101E600009FCA0EB0901414502D8B8F1000F1DD1D2
:101E70002068012E16D0806925EA00000004000CBD
:101E800012D00020B84211D1002044F8300F202198
:101E90006173A073216941F0200121612073012049
:101EA000BDE8F0874069E7E70120EBE72068012EF5
:101EB0000AD0806925EA00000004000C06D000204A
:101EC000B842C9D00020EBE74069F3E70120F7E70B
:101ED0002DE9F047984616460D4604464FF0000996
:101EE0004FF0200AC1F3074723E020684069C04350
:101EF000400515D42068016841F400710160216833
:101F00006FF480604861C4F8309084F83DA084F894
:101F10003E90216C41F00401216484F83C9021E062
:101F2000701C06D0FEF7A6FBA0EB0800B04203D859
:101F300016B1012F1FD021E02068012F15D0806934
:101F400025EA00000004000C18D000BF44F8309FC0
:101F500084F80DA084F80E90216941F020012161E0
:101F600084F80C900120BDE8F087406925EA000064
:101F70000004000CEAD12068406901E02068806913
:101F800025EA00000004000CAFD1ECE72DE9F04198
:101F9000002590460E460446202728E04069C043AD
:101FA000C0060CD454F8301B6FF01000486144F8A0
:101FB00010596777A577206A2062257714E0FEF72D
:101FC00059FBA0EB0800B04200D886B920684069F0
:101FD000C04340060BD544F8305F6773A573206992
:101FE00040F02000206125730120BDE8F0812068C9
:101FF0004169C9434906D1D40020F6E770B51646B9
:102000000D4604461EE02046FFF705FE08B10120FC
:1020100070BD681C16D0FEF72DFB801BA84200D8AF
:1020200085B920684069C04300060BD5002044F8FC
:10203000300F20216173A073216941F020012161DB
:102040002073E4E720684069C0430006DBD4002029
:1020500070BD00002DE9F04186B000242F480094A7
:10206000019402940394816941F0200181618169A6
:1020700001F020010491816941F0040181618169CD
:1020800001F004010491816941F0080181618069D6
:10209000234F00F008000490002204213846FEF788
:1020A000E4FA012210213846FEF7DFFADFF87480E7
:1020B000012211464046FEF7D8FA142001250226D7
:1020C000CDE90005CDE9024669463846FEF7D0F96C
:1020D00048F60870CDE90004694638460294FEF7D8
:1020E000C7F903960095CDE9015469464046FEF7CD
:1020F000BFF90D480096CDE9010469464046FEF758
:10210000B7F94FF47040CDE90004694640460294A7
:10211000FEF7AEF906B0BDE8F08100000010024005
:1021200000080140000C0140000011100F4810B5DC
:102130000D4901604FF48271416000218160C160EE
:102140004FF400720161C0E905121022C0E90721B5
:10215000416281620A21C162FFF742F8002801D082
:1021600072B6FEE710BD000000300140A01E002046
:1021700010B586B00024174800940194029403948B
:1021800004944FF080410594016040F61461C0E969
:10219000011447F22F51C0E903148461FFF756FB85
:1021A00008B172B6FEE74FF48050009069460948C6
:1021B000FFF70AFC08B172B6FEE72020CDE904045F
:1021C00004A90448FFF70EFB002801D072B6FEE711
:1021D00006B010BDF81E002010B586B000241748C8
:1021E00000940194029403940494134905940160AB
:1021F0002321C0E901144FF6FF71C0E90314846183
:10220000FFF724FB08B172B6FEE74FF48050009050
:1022100069460A48FFF7D8FB08B172B6FEE7049496
:1022200004A906480594FFF7DDFA002801D072B62C
:10223000FEE706B010BD000000040040401F002073
:1022400010B586B0002417480094019402940394BA
:10225000049413490594016041F61F41C0E901143B
:1022600042F20F71C0E903148461FFF7EFFA08B17D
:1022700072B6FEE74FF48050009069460948FFF7B8
:10228000A3FB08B172B6FEE7049404A905480594BF
:10229000FFF7A8FA002801D072B6FEE706B010BD1D
:1022A00000080040881F0020FEE7FEE77047F8B5F1
:1022B000044640684FF48273984217D1A0684FF4E7
:1022C0008065B0F5004F01D0A8420FD120680668A4
:1022D00026F0400606606068984207D1A068A842D0
:1022E00004D100920B460022012103E000920B462C
:1022F00000228021204600F019F8002804D0606DEB
:1023000040F0200060650320F8BD38B50B46009210
:1023100004460022802100F009F8002804D0606DF6
:1023200040F020006065032038BD00002DE9F8432F
:102330001E46914688460446089DFEF79BF9401BC1
:10234000351AFEF797F9074625480068C0F3CB30E9
:10235000684338E0701C37D0FEF78CF9C01BA842E8
:1023600003D215B1009860B32CE02068416821F0D9
:10237000E00141606068B0F5827F0BD1A068B0F5E4
:10238000004F02D0B0F5806F04D12068016821F0C1
:1023900040010160A06AB0F5005F09D120680168C2
:1023A00021F4005101602068016841F4005101608E
:1023B000012084F85100002084F850000320BDE87B
:1023C000F8830025401E00902068816838EA0100EB
:1023D00004D000214945BDD10020F0E70121F9E7F3
:1023E000380000207047FEF707BC30B58FB02821B9
:1023F0006846FDF768FF14210AA8FDF764FF012174
:102400000804CDE900100024029402250491CDE9CE
:1024100007504FF4E01009906846FEF751FD08B1EF
:1024200072B6FEE70F20CDE90A054FF48060CDE9D2
:102430000C4002210AA80E94FEF776FC002801D079
:1024400072B6FEE70FB030BD7047000010B504480B
:10245000FFF729FB03490020096881F86D0010BDD2
:10246000F81E00202000002010B50648FFF71BFBD7
:10247000054901200870BDE8104004210348FEF71B
:10248000ECB80000881F0020280000200008014050
:10249000F0B50268164B174C174D4FF08047984225
:1024A00005D0B84203D0A04201D0A84203D122F007
:1024B00070064A683243984205D0B84203D0A04221
:1024C00001D0A84203D122F44074CA6822434C6967
:1024D00022F08002224302608A68C2620A68826235
:1024E000984201D10969016301214161F0BD0000F9
:1024F000002C0140000400400008004010B5846832
:1025000042EA032224F47F440A432243826010BD3E
:10251000826822F070020A4342F00701816070472E
:1025200010B5036A046A24F001040462846924F08B
:10253000F00444EA021423F00A020A4384610262AE
:1025400010BD10B5036A046A24F0100404628469A3
:1025500023F0A00324F4704444EA023243EA011158
:102560008261016210BDFEE70907090E002804DB45
:1025700000F1E02080F80014704700F00F0000F137
:10258000E02080F8141D70472DE9F0414F1E00EB4C
:10259000C7010446D1E9000115461E4637F0060280
:1025A0000DD02A46334601F07DFB7F1E04EBC703A6
:1025B000D3E9002301F0E0F837F00602F1D1022F51
:1025C00025D0042F13D0062F18BFBDE8F0812A466E
:1025D000334601F067FBD4E90A2301F0CDF82A461F
:1025E000334601F05FFBD4E9082301F0C5F82A4621
:1025F000334601F057FBD4E9062301F0BDF82A4623
:10260000334601F04FFBD4E9042301F0B5F82A4624
:10261000334601F047FBD4E9022301F0ADF82A4626
:10262000334601F03FFBD4E90023BDE8F04101F05F
:10263000A3B80000002213461046014901F058B922
:102640000000F03F012201F053BD00221346104666
:10265000114601F04DB900002DE9FF4F85B09046BD
:10266000DDF848900C4601281DD002284AD1A2204E
:10267000039000204FF0804100F0B6FA06460D4668
:102680000020224900F0B0FA32462B4601F030F922
:1026900001F0C2FA834609EB080104EB911080B205
:1026A000890602D003E0A020E2E7401E80B2001BB2
:1026B000401C00261FFA80FA354621E004FA0BF090
:1026C00040EA080080B204904146484600F082F893
:1026D000074608980A213044CDE900070291DDE958
:1026E000031202230A48FEF78FF8A9EB07001FFA2E
:1026F00080F9641CF019A4B24FF0000886B26D1C7A
:102700005545DBDB09B0BDE8F08F0000000050400C
:102710004C1E00202DE9FF4F85B09046DDF8489013
:102720000C4601281DD002284DD1A2200390002084
:102730004FF0804100F058FA06460D46002023492C
:1027400000F052FA32462B4601F0D2F801F064FA5A
:10275000834609EB080104EB911080B2890602D090
:1027600003E0A020E2E7401E80B2001B401C0026D0
:102770001FFA80FA354624E004FA0BF040EA08001C
:1027800080B204904146484600F024F80746089875
:102790000A213044CDE900070291DDE9031202234A
:1027A0000B48FEF759F9A9EB07001FFA80F9F01959
:1027B000641C86B2A4B24FF000080520FDF746FE67
:1027C0006D1C5545D8DB09B0BDE8F08F00005040C6
:1027D0004C1E00204218402A02D3C1F1400080B2B2
:1027E0007047000010B54FF0FF32074B08E000BF04
:1027F00010F8014B5440E4B253F8244084EA12220A
:10280000491EF5D2D04310BDB0000020044900227B
:102810000B685A6209684A6A8242FCD3704700001A
:10282000401F00202DE9F0412148224A012600687E
:10283000224C02F21645C16C491CC164D3791E4872
:1028400002F10C01072B22D2DFE803F021040C1364
:1028500019232A0011895689014432462846FDF77A
:10286000B3FC13E0138952891844FDF7ADFC022232
:1028700008E01089528900F0FBF8032202E000F022
:102880001FF9042201212846FDF715FD2660BDE849
:10289000F081202208492846FDF796FC202005E01B
:1028A000712205492846FDF78FFC71202060EEE774
:1028B00000000020B00400203C0000201C0000208C
:1028C00010B5044600F016F808B1012010BD74B927
:1028D000CC2000F05DF84E2000F05AF8642000F0A3
:1028E00057F89E2000F054F87F2000F051F80020A7
:1028F00010BD000010B5144C0821204600F077FCF4
:10290000002208212046FDF7B0FE40F2E510FFF757
:102910007DFF012208212046FDF7A7FE4120FFF799
:1029200075FF0821204600F057FC08212046FDF7DE
:102930008FFE04464FF4FA70FFF768FF0CB10120D8
:1029400010BD002010BD00000008014070B50F4D03
:1029500004460821284600F04AFC002208212846A7
:10296000FDF783FE0CB1032000E04120FFF74EFF8E
:10297000012208212846FDF778FE0CB1412000E035
:102980000320BDE87040FFF741BF00000008014090
:1029900070B505465FF0000425FA04F000F0010070
:1029A000FFF7D4FF0520FFF731FF641CE4B2082CC9
:1029B000F2D370BDF0B593B00E4601282AD002289C
:1029C00026D1A22500204FF0804100F00DF90446E9
:1029D0000F460020104900F007F922463B4600F060
:1029E00087FF01F019F98640B4B2FF22402103A805
:1029F000FDF761FC0A22402103A88DE807000223AD
:102A0000224629460548FEF727F80520FDF71EFD5A
:102A100013B0F0BDA025D5E7000050404C1E0020AB
:102A20002DE9F843884684096142154600EB811080
:102A30001FFA80F2C2F14007AF420FDAB8B200903D
:102A400008EB060321460120FFF706FEE81B641C85
:102A50000022403685B2A4B2B6B2EBE708EB06031B
:102A6000214601200095FFF7F7FDBDE8F88300003F
:102A70002DE9F843884684096142154600EB811030
:102A80001FFA80F2C2F14007AF420FDAB8B20090ED
:102A900008EB060321460120FFF73CFEE81B641CFF
:102AA0000022403685B2A4B2B6B2EBE708EB0603CB
:102AB000214601200095FFF72DFEBDE8F8830000B8
:102AC00000B593B0102210A16846FDF723FC124810
:102AD0000168089141680A9181680B91C1680F9162
:102AE00001690C91808AADF8340000210120FFF7C4
:102AF00061FF01210846FFF75DFF4822694600207B
:102B0000FFF7B6FF13B000BD5765617468657220AA
:102B100053746174696F6E000400002030B50A4B75
:102B20000A4C002108460022C50702D083EA500063
:102B300000E04008521C082AF6DB44F82100491C3A
:102B4000FF29EFDD30BD00002083B8EDB00000208C
:102B500070B50546092040EA4110C4B22922214639
:102B6000284600F0A3FC064628222146284600F00D
:102B70009DFC46EA002070BD70B50546092040EA7C
:102B80004110C4B227222146284600F08FFC064699
:102B900026222146284600F089FC46EA002070BD26
:102BA000092242EA4111C9B2032200F07FBC70B58C
:102BB0000546092040EA4110C4B225222146284694
:102BC00000F074FC064624222146284600F06EFCE4
:102BD00046EA002070BD092242EA41110223C9B22F
:102BE000012200F079BD00002DE9F04DC84A002413
:102BF00090B0914205DA21F00043934201D805D10B
:102C000020B110B0BDE8F04DFFF71CBDB1F5801F3D
:102C10001BDA53EA000209D0002911DA0120FDF77E
:102C2000ACFB10B0BDE8F04DFFF70FBD0220FDF783
:102C3000A4FBFFF7FFFC10B081F00041BDE8F08D70
:102C40006FF03504362201F053FA04EB2152C1F340
:102C50001308B049A2F2FF33414401F4801282F01C
:102C60007F6103EB225281F04051009241EA08015A
:102C70000022A94B01F020F9044608F10200A74EFA
:102C8000C0F313000D467E44032867D2D6E9002323
:102C9000204600F085FF1ED10098002802BFD6E92B
:102CA000000110B0BDE8F08D00F0E5FF07460C46CE
:102CB0009B4A9C4B00F0F6FF06460D469A4A9B4BFA
:102CC0003846214600F0EEFF10B032462B46BDE8F4
:102CD000F04D00F051BD4FF05532954B204629463E
:102CE00000F0E0FF0022934B01F0DAF806460F46B1
:102CF00022462B461046194600F0D4FF32463B468A
:102D000000F0D0FF064600980F46F0B100F0B3FF88
:102D100080468A46824A834B00F0C4FF32463B46D7
:102D200001F0BEF822462B4601F0C6F805460C46D7
:102D30007D4A7E4B4046514600F0B4FF10B02A4613
:102D40002346BDE8F04D01F0B7B80B4610B032464F
:102D500020462946BDE8F04D01F0AEB800224FF004
:102D60008043204600F008FD02460B4620462946D7
:102D700000F0BEFD06460F46009800F07CFFCDE94E
:102D8000040132463B461046394600F08BFF0C905A
:102D900069480C9A4044019009910B46104600F096
:102DA00081FF8246024665488B46C8F151080B46B2
:102DB00008F5D72803217844FFF7E6FB52465B4627
:102DC00000F070FF0A905E480D9152465B46042168
:102DD0007844FFF7D9FB099B0C9A00F063FF844607
:102DE00001980D9B40EA080860460A9A00F0C4FC6E
:102DF00083460891B8F1000F4EDD4FF0FF322046B8
:102E0000294601F075F922462B4600F04BFF80461B
:102E100000988A4660B3DDE90401414A414B00F065
:102E200041FF099100905A4640465146089B00F0E8
:102E3000A3FC32463B4600F035FF099B009A00F0A8
:102E40009BFC4246534601F02BF822462B4601F0EC
:102E500033F804460D46DDE90401334A334B00F0F4
:102E600021FF10B022462B46BDE8F04D01F024B8FA
:102E70005A464046089B00F07FFC32463B4600F035
:102E800011FF4246534601F00BF810B022462B4684
:102E9000BDE8F04D01F004B8009840B3DDE904014D
:102EA0001F4A204B00F0FEFE80468A465A462046C6
:102EB0002946089B01F000F832463B4600F0F2FE3E
:102EC0004246534600F0F8FF22462B4600F0F4FF3E
:102ED00004460D46DDE90401134A144B00F0E2FEFE
:102EE00010B022462B46BDE8F04D00F0E5BF0B4682
:102EF0005A462046294600F0DFFF32463B4600F0A6
:102F0000D1FE10B022462B46BDE8F04D00F0C8BF00
:102F10000000F07F645F09000000F03F56150000DC
:102F2000763C7935EF39EA3D0000E0FE422EE63F7F
:102F30005555D53F0000E03F86EBF9FFEE1300004A
:102F4000EC130000FDF760FEFFF74FFAFFF782F881
:102F50004F484E49002501604E49C0E901154FF424
:102F60008041C0E9035145618561C5610562FDF796
:102F700087FB08B172B6FEE7FFF7D8F8FFF7F8F85D
:102F8000FFF75EF9FFF728F9FFF7C8FD424848222E
:102F900001680020FFF744FD404C414920680A6A5F
:102FA000C0F85E208A6AC0F86220CA6AC0F866204B
:102FB0008A8FA0F86A200A6B8265898EA0F85C105F
:102FC000334980F86C5036225431FDF742F9304EC7
:102FD0005436F18E2068C18606F12C01CA688263DE
:102FE000098A8187F18FC187112206F140014030A3
:102FF000FDF72FF996F85110206880F85110716D87
:1030000041653D2206F158017030FDF722F906F1C5
:10301000580111F83D2F206800F8AD2F4A78427012
:103020008A788270CA78C2700A7902714A794271CC
:103030008A798271CA79C2710A7A0272497A4172B6
:1030400006F15800FEF794FC06F1E800FEF790FC4C
:1030500006F1A000FEF764FC0020FFF731FC114EE2
:1030600001273078012800D13570206890F86D1064
:10307000012904D000F098F9206880F86D7020686C
:1030800090F86C1000F08EF8EBE700000054004060
:103090004C1E0020801A06000000002020000020A6
:1030A0003C0000202800002070B50546092040EAB9
:1030B0004110C4B2D3B200222146284600F00CFBD6
:1030C00021462846BDE8704001231A4600F004BBA3
:1030D00038B50D460446FFF763FD172853D129463E
:1030E0002046FFF749FDC4F8B808E8B32946204652
:1030F000FFF72EFDB4F8B818084482B229462046DE
:1031000000F081F829462046FFF722FD0246B4F878
:10311000B80804F1B80380B200902946204600F0B8
:1031200007FA1A4DD4E92E01C5E90001287855287F
:1031300029D1B5F8052004F1C00105F108000B3ACA
:10314000FDF787F8B5F80510B5340A1905F5806064
:103150001368836092888281B5F80C04A0F52A4236
:10316000AA3A10D1681C00E00DE0091FFFF73AFBF6
:10317000D5F80814814206D105480068816C491CC5
:103180008164002038BD012038BD0000B00400205B
:1031900000000020092242EA41114023C9B2012265
:1031A00000F09ABA70B50D460446FFF791FF08B1DA
:1031B000012070BDFFF736FB2946204600F07EF85F
:1031C000216F0020486270BD092242EA411120238C
:1031D000C9B2012200F080BA1FB50022CDE9001269
:1031E0000121CDE902126946FDF742F91FBD1FB565
:1031F000002200910121CDE90112022103916946CB
:10320000FDF736F91FBD70B50646092040EA4110AA
:10321000C5B21446130A28222946304600F05CFA4B
:10322000E3B229463046BDE87040292200F054BA86
:1032300070B50646092040EA4110C5B21446130A8B
:1032400004222946304600F047FAE3B229463046C8
:10325000BDE87040052200F03FBA70B5064609206F
:1032600040EA4110C5B21446130A242229463046CA
:1032700000F032FAE3B229463046BDE8704025221C
:1032800000F02ABA70B50546092040EA4110C4B2E0
:1032900003222146284600F009F91328F8D170BD11
:1032A00070B50546092040EA4110C4B20322214608
:1032B000284600F0FBF81428F8D170BD2DE9F8433A
:1032C000344C0546552004F8010B33488846334EEC
:1032D000B0F80310218030F8011F61808079A0715F
:1032E00030682C4902460B30A0800E39E81C51F89A
:1032F0000E3FC5F8BB344968C5F8BF1425490746D9
:1033000005F2C3400831FCF75FFFA18807F2B9401E
:10331000091FFFF767FA0146C4F807044AF6AA2016
:10332000A4F80B0430681E4B384400F59062C0F8D6
:10333000C014588BA2F84400306841460E30C5F8DE
:10334000BC082846FFF733FCB5F8BC18084482B225
:1033500041462846FFF781FF41462846FFF727FCF4
:103360000246308805F59763113080B200904146DF
:10337000284600F0F1F941462846FFF70BFF414689
:103380002846FFF721FFBDE8F84304210548FDF773
:1033900064B90000BE080020B00400201C0000201A
:1033A000B00C00200018014010B5044600F04EF9A2
:1033B00004F15801204600F020F904F16201204692
:1033C00000F0C4F804F16601204600F0F9F804F1B9
:1033D0005E01204600F0D7F8B4F86A2094F86C102B
:1033E0002046FFF725FF94F86C1001222046FFF7D6
:1033F0005BFE94F86C102046FFF744FF94F86C10C5
:103400002046FFF7E8FB94F86C102046FFF748FFD2
:103410004FF4FA70FDF71AF894F86C102046BDE8E6
:103420001040FFF7BDBB00002DE9F05F1C4D0446C6
:103430001C4E2868DFF8709092468B464FF48058F7
:10344000844203D100221021304605E0686884429E
:1034500004D1002241464846FDF707F94FF0FF37F7
:103460003B46032259462046FDF7F7FF3B465246AE
:1034700059462046FDF746FF2868844203D10122C1
:103480001021304605E06868844206D10122414699
:103490004846BDE8F05FFDF7E8B8BDE8F09F0000E2
:1034A0002000002000080140000C01402DE9FE43EF
:1034B000044600200190100A8DF80400194D8DF883
:1034C00005208DF80610184E2868B714DFF85C80C8
:1034D000844203D100221021304605E0686884420E
:1034E00004D1002239464046FDF7BFF84FF0FF30C7
:1034F0000090042302AA01A92046FEF765F8286877
:10350000844203D101221021304605E068688442DC
:1035100004D1012239464046FDF7A7F89DF80B007B
:10352000BDE8FE832000002000080140000C01409F
:1035300030B40C461946182343EA4413029D8B709D
:1035400052BA0A802A4630BCFFF76EBF70B50C46EF
:1035500000250B7806460122294600F0BDF8637865
:1035600002222946304600F0B7F8A3780322294604
:10357000304600F0B1F8E37829463046BDE87040A7
:10358000042200F0A9B870B50C4600250B78064659
:103590000F22294600F0A0F8637810222946304611
:1035A00000F09AF8A37811222946304600F094F8EA
:1035B000E37829463046BDE87040122200F08CB80E
:1035C00070B50C4600250B7806460522294600F00A
:1035D00083F8637806222946304600F07DF8A37808
:1035E00007222946304600F077F8E378294630462E
:1035F000BDE87040082200F06FB870B50C46002599
:103600000B7806460922294600F066F863780A22FC
:103610002946304600F060F8A3780B222946304650
:1036200000F05AF8E3780C222946304600F054F8AE
:1036300023790D222946304600F04EF86379294659
:103640003046BDE870400E2200F046B810B50121AA
:103650008023002200F040F8BDE810406420FCF711
:10366000F5BE00002DE9F047184D0446184E2868B5
:10367000B714DFF8608091468A46844203D1002265
:103680001021304605E06868844204D100223946A2
:103690004046FCF7EAFF4FF0FF334A4651462046CA
:1036A000FDF7DBFE2868844203D101221021304659
:1036B00005E06868844206D1012239464046BDE8EB
:1036C000F047FCF7D2BFBDE8F087000020000020E3
:1036D00000080140000C01402DE9F8430446100A9F
:1036E0008DF800008DF8012041F00400174D8DF891
:1036F00002008DF80330164E2868B714DFF85480A6
:10370000844203D100221021304605E068688442DB
:1037100004D1002239464046FCF7A7FF4FF0FF33A3
:10372000042269462046FDF798FE2868844203D1AA
:1037300001221021304605E06868844204D101224C
:1037400039464046FCF791FFBDE8F8832000002091
:1037500000080140000C014030B40C461946142307
:1037600043EA4413029D8B7052BA0A80ED1CAAB240
:1037700030BCFFF777BF000010B591EA030F48BFD8
:1037800083F0004300F1A083841A71EB030C05D28F
:10379000121943EB0C03001B61EB0C01DFF824E171
:1037A0004FEA1154A4EB135C1EEA430F18BF9EEAC4
:1037B000445F73D023EA0E03DCF1200E21EA0451AA
:1037C00043F4801332D322FA0CFE10EB0E0023FADE
:1037D0000CFE41EB0E01CCF1200E03FA0EFE10EBB5
:1037E0000E0051F10001B1F5801FCCF1200E32D254
:1037F00001EB045112FA0EF2BDE8104058BF7047B9
:10380000401C38BF5FEA420218BF7047002814BF4F
:1038100020F0010041F100014FEA410313F5001FC0
:1038200038BF7047A1F1C04100F034BB012A43EB1F
:103830000302ACF1200CDCF11F0E32BF4FF0000E82
:1038400023FA0CF310EB030041EB0451B4EB115FCE
:10385000D0D0A1EB045101F5801149085FEA300096
:1038600001EB04510ED350F1000038BF12FA0EFEE6
:1038700008D1BDE81040C9E7401C38BF5FEA4202EA
:10388000CAD1C3E7BDE810404FEA410313F5001F5A
:1038900038BF7047A1F1C04100F0FCBA9EEA445F16
:1038A00008D011EA5E0FBDE8104004BF01F00041EE
:1038B00000207047BDE8104070B500F09DFA00BFD1
:1038C00064FBBE3E0000E0FF02494FF0000000F044
:1038D000DDBB00BF0000F87F491058BFC1F1404177
:1038E0005B1058BFC3F140438B42EFF30080704739
:1038F0002DE9C04130B4DFF8A0C23CEA111418BF72
:103900003CEA131400F0EC8081EA03051CEA111470
:1039100044EAD57418BF1CEA131500F0C780A4EB65
:1039200005044FF0004545EAC12145EAC32341EAB9
:10393000505143EA525304F17F74994204F5003424
:103940004FEAC0204FEAC22208BF904200F09C809C
:103950004FEA13650FF24016765D4FEA134506FBFA
:1039600005F7C7F1807706FB07F74FEAD737A7FBC4
:1039700003687642C8F58038A7FB06CE38BFA8F1A9
:10398000010807FB08E64FF0000EA6FB028CE6FBE1
:1039900003CEDCF1000CCEF1004E38BFAEF1010ECB
:1039A000A6FB0C584FF000074FF00005E6FB0E8712
:1039B000A1FB08C6A0FB07CE16EB0E0645F10005DD
:1039C000E1FB076515F1E04E7EBFA4F580345FEAA8
:1039D00046066D4116F1800745F100054FEA1727AD
:1039E0004FEA066647EA0567A6F1DE46B6F1805F54
:1039F0004FEA15251FD9384624F0010C05EBC47198
:103A0000BCF1FE6F01EB0C1102D8F0BCBDE80081E7
:103A100024425CBF01F5801E9EEAC47F02D4F0BC44
:103A2000BDE80081244238D4F0BCA1F1C041BDE81A
:103A3000004100F02FBA4FEAD22242EA43524FEA45
:103A4000D323A7FB02864FEAD02040EA415007FB70
:103A500003661EEA0E0F4FEAD12105FB026658BF2E
:103A6000A6EB0056B6EB00564FEA520E4EEAC37E66
:103A700018EB0E0E56EB530EBDD518EB02085E4147
:103A80007F1C55F10005B6E74FF480154FF0000795
:103A90004FF000064FF00008ADE7F0BC4FF000001B
:103AA00001F1C04101F00041BDE8008111EA0C1FA5
:103AB0000CEA131500D00CE013EA0C1F00F025806F
:103AC0004FF00000F0BC81EA030101F00041BDE8C5
:103AD0000081F0BCBDE8004181EA030100F0DAB9E1
:103AE000F0BCBDE8004170B500F086F9097EFC3EEF
:103AF00000F007B881EA03014FF0000001F0004137
:103B0000704781EA030100F0C5B9F0BCBDE800418F
:103B10004FF0000021497047FFFDFBF9F7F5F4F283
:103B2000F0EEEDEBE9E8E6E4E3E1E0DEDDDBDAD858
:103B3000D7D5D4D3D1D0CFCDCCCBCAC8C7C6C5C4B6
:103B4000C2C1C0BFBEBDBCBBBAB9B8B7B6B5B4B3CD
:103B5000B2B1B0AFAEADACABAAA9A8A8A7A6A5A4B8
:103B6000A3A3A2A1A09F9F9E9D9C9C9B9A9999987C
:103B70009797969595949393929191908F8F8E8E1F
:103B80008D8C8C8B8B8A89898888878786858584AC
:103B900084838382828181800000FF070000F87F98
:103BA00051EA030C17D41CF5801F58BFBCF5801FC9
:103BB00000F10680994218BF704708BF90427047D5
:103BC00007D711F5801F58BF13F5801F19D49942EC
:103BD0007047894270471CF5801F08D5BCF5801FCF
:103BE000F7D58B4218BF704708BF824270474FF429
:103BF000001C1CEB410F38BF1CEB430F01D28B4262
:103C0000704770B500F0F8F8922449004FF0005169
:103C10004FF08053FFF760BE4FEA41034FEA535322
:103C2000A3F58063D3F11E03C8BFD3F1210C0CDDD3
:103C30004FF0004242EAC12242EA505232FA03FCFB
:103C40008CEAE17CACEBE1707047102BC4BF002024
:103C5000704703F5787CBCF1FF3F04D06FF0004261
:103C600082EA2100704770B500F0C6F849922480BE
:103C700000207047F2E710F0004248BF4042B0FA1F
:103C800080F310FA03F10AD0C3F11D0303F580633A
:103C90004FEA415002EB035202EBD12170474FF043
:103CA00000007047DFF848C170B51CEA111E1EBF46
:103CB0001CEA13159EEA0C0F95EA0C0F00F06F80BA
:103CC00081EA030423EA4C134EEAD47E21EA4C1124
:103CD00041F4801143F48013AE44A1FB024CA0FBDD
:103CE0000365AEF17F7E361955EB0C05A1FB034C45
:103CF0004CF10003A0FB021C16EB0C06654153F1CE
:103D00000003094218BF46F0010613F4007F0BD1EF
:103D10004FEA03314FEA0530340341EA155140EAD6
:103D200016506FF003020AE04FEAC3214FEAC520A4
:103D3000F40241EA555140EA56506FF0020202EB9C
:103D40002E4201EB025585EACE710AD05FEA440C9F
:103D500018BF24F0004450F1000041F1000120EAB6
:103D6000D47040F2FE7C624500D270BDA84214BF00
:103D70004FF080444FF04044002E08BF0024BEF1B5
:103D8000806FA8BFA1F1C041BDE8704080F2828081
:103D90004FF0000001F1C04101F0004170479EEA80
:103DA0000C0F0CEA131518BF95EA0C0F06D04FF054
:103DB000000081EA030E0EF0004170BD00F01CF817
:103DC0008900013E00F007B800F009B84FEA430C43
:103DD0005FEA5C5C08D081EA030100F05BB84FEA5F
:103DE000410C5FEA5C5CF6D14FF00000014970477E
:103DF0000000FF070000F87F0EF1020E2EF0030E08
:103E00005EF8046B364205D4012A43EB030515F531
:103E1000001F12D8012841EB010C1CF5001F0CD823
:103E20000ED14FEAD17C15F5001F0CEB4C0C0CF1B8
:103E3000020C08BF4CEBD37C04E04FF0080C01E00F
:103E40004FEAD37C0CEB4C0526FA05F606F0070684
:103E5000B6F1040C06D20EEB860CBDE870404CF0B7
:103E6000010C6047DFE80CF0090B02024FF0004143
:103E70004FF00000A1F5002170BD19461046012841
:103E800051EB010418BFD4F5001484BF002001F0E9
:103E9000004170BD0808A0F500114FEA31017047DC
:103EA00091EA030F10B581F000413FF56DAC83F04E
:103EB000004300F009B8000010B591EA030F48BFB5
:103EC00083F000433FF560AC841A71EB030C07D21A
:103ED00012198CF0004C43EB0C03001B61EB0C013E
:103EE000DFF8A4E14FEA1154A4EB135C1EEA430F80
:103EF00018BF9EEA445F00F0B08023EA6E0352428E
:103F000021EA0451C3EB6E0338BF5B1EDCF1200EC7
:103F100025D322FA0CFE10EB0E0043FA0CFE41EB07
:103F20000E01CCF1200E03FA0EFE10EB0E0051F143
:103F30000001CCF1200E29D412FA0EF201EB04514B
:103F4000BDE8104058BF7047401C1CBFB2F1004F85
:103F5000704700280CBF491C20F00100704712EB8D
:103F6000020E43EB030218BF4FF0010E4EEA42026D
:103F7000ACF1200CDCF11E0E54D943FA0CFE10EB10
:103F80000E0051F1FF31CCF11E0ED5D50EF1010E10
:103F900012FA0EFE404141EB010101EB445C5FEA85
:103FA0005C5C10D910EBDE7001EB045138BFBEF140
:103FB000004FBDE8104018BF704700280CBF491CD7
:103FC00020F00100704730D24FEAD42C11F50011D7
:103FD00024F400641BD0B1FA81F20B3AA41AA41E97
:103FE000D2F12003914030FA03F31943904001EBE2
:103FF000CC71002C01EB0451BDE81040A8BF704704
:1040000001F1C0414FF0000001F000417047B0FAEB
:1040100080F310FA03F100D110BDE41A173C4805F3
:10402000C90AE4E701EB045110BD491001EB04514A
:10403000BDE810404FEA300002E04FF00001704749
:104040004A0008BF0042F8D0B2F5001F28BF7047F1
:1040500001F000414FF0000070479EEA445F07D036
:1040600011EA5E0FBDE8104004BF00210020704738
:10407000BDE8104070B5FFF7BFFE00BF40DFF63E61
:1040800083F00041104670470000E0FF0CF00F0382
:10409000092B08BF082000F059800A2B0BD0082BF1
:1040A00018BF704708BF1CF0400F0AD04FF0000047
:1040B0004FF0000170471CF0400F18BF4FF0004058
:1040C00070471CF0100F08D020F0704300F07F42C2
:1040D00042EAD3014FEA4370704700F0604021F09C
:1040E0007F4242EA000201F07F4040EA727070476E
:1040F0004FF0FF0C4CF4E06C1CEA11531CBF9CEA1F
:10410000030C9445C2BFDA4201EB02517047002B09
:104110000DD0BCF1000F0FD0002A01F00041A4BF68
:1041200041F0E04141F07F614FF00000704701F045
:1041300000414FF00000704750EA01334FF09B0CF4
:1041400018BF4CF0806C7FF4BFAB70471CF4801F2D
:1041500011D01CF4E02F03D06FEACC314900704736
:104160004FF04050EFF3008222F0704242EA00022A
:1041700082F3008870474FF000007047010202038D
:104180000405060708090A0B0C0D0E0F101000009D
:1041900000000000000001020304060708090000F7
:1041A000000001020304000004FA97999999D93F8D
:1041B000AF788E1DC571CC3F9FC678D0099AC33F9A
:1041C000935555555555E53F599322942449D23F6F
:1041D000DE03CB966446C73F44523EDF12F1C23F36
:1041E000000000000000000008420008000000205D
:1041F0003C00000028010008444200083C00002068
:10420000F4250000440100083C000020C0A8012162
:10421000C0A80101FFFFFF001F140000001542BFEE
:10422000F033000000000000CC0C00208C150020B2
:10423000000000000100000010000000000000006D
:044240000024F40062
:04000005080000ED02
:00000001FF
