:020000040800F2
:10000000801D002089010008AB220008151C000893
:10001000A922000847040008672500080000000026
:10002000000000000000000000000000E5230008C0
:100030004904000800000000AD220008E723000882
:10004000A3010008A3010008A3010008A301000800
:10005000A3010008A3010008A3010008A3010008F0
:10006000A3010008A3010008A3010008A3010008E0
:10007000A3010008A3010008A3010008A3010008D0
:10008000A3010008A3010008A3010008A3010008C0
:10009000A3010008A3010008A3010008A3010008B0
:1000A000A3010008A3010008A3010008A3010008A0
:1000B0004D240008A301000869240008A3010008DA
:1000C000A3010008A3010008A3010008A301000880
:1000D000A3010008A3010008A3010008A301000870
:1000E000A3010008A3010008A301000800F002F822
:1000F00000F03AF80AA090E8000C82448344AAF188
:100100000107DA4501D100F02FF8AFF2090EBAE885
:100110000F0013F0010F18BFFB1A43F0010318473B
:100120004844000068440000103A24BF78C878C1F1
:10013000FAD8520724BF30C830C144BF04680C60ED
:10014000704700000023002400250026103A28BF35
:1001500078C1FBD8520728BF30C148BF0B60704739
:100160001FB51FBD10B510BD00F038F91146FFF7DF
:10017000F7FF02F0B5FF00F056F903B4FFF7F2FF06
:1001800003BC00F059F900000948804709480047BE
:10019000FEE7FEE7FEE7FEE7FEE7FEE7FEE7FEE737
:1001A000FEE7FEE704480549054A064B7047000094
:1001B00049240008ED00000880170020801D002061
:1001C0008019002080190020032A40F2308010F0AE
:1001D000030C00F0158011F8013BBCF1020F6244E2
:1001E00098BF11F801CB00F8013B38BF11F8013B73
:1001F000A2F1040298BF00F801CB38BF00F8013B20
:1002000011F0030300F02580083AC0F0088051F88F
:10021000043B083A51F804CBA0E80810F5E7121D9A
:100220005CBF51F8043B40F8043BAFF30080D207B9
:1002300024BF11F8013B11F801CB48BF11F8012B85
:1002400024BF00F8013B00F801CB48BF00F8012BA8
:10025000704710B5203AC0F00B80B1E81850203A32
:10026000A0E81850B1E81850A0E81850BFF4F5AF56
:100270005FEA027C24BFB1E81850A0E8185044BFE0
:1002800018C918C0BDE810405FEA827C24BF51F84D
:10029000043B40F8043B08BF7047D20728BF31F841
:1002A000023B48BF11F8012B28BF20F8023B48BF92
:1002B00000F8012B704702F0FF0343EA032242EAF1
:1002C000024200F062B84FF0000200B513469446B7
:1002D0009646203922BFA0E80C50A0E80C50B1F19E
:1002E0002001BFF4F7AF090728BFA0E80C5048BFB2
:1002F0000CC05DF804EB890028BF40F8042B08BF50
:10030000704748BF20F8022B11F0804F18BF00F84B
:10031000012B704710B5044610F0030F08BF11F011
:10032000030F40F015804FF0013E121FC0F20E8007
:1003300051F8043BA3EB0E0C2CEA030C1CEACE1C78
:1003400008BF40F8043BF0D0A1F1040102F104021F
:10035000521E08DB11F8013B002B00F8013BF7D1DE
:10036000114600F010F8204610BD704770477047E6
:1003700010B500F02BF8006810BD10B5044600F071
:1003800025F8046010BD4FF000020429C0F012806F
:1003900010F0030C3FF499AFCCF1040CBCF1020F48
:1003A00018BF00F8012BA8BF20F8022BA1EB0C010D
:1003B000FFF78BBF5FEAC17C24BF00F8012B00F878
:1003C000012B48BF00F8012B704700000048704720
:1003D0002017002000487047201700207546FFF7BF
:1003E000F9FFAE4605006946534620F007008546F2
:1003F00018B020B5FFF7D6FEBDE820404FF000064C
:100400004FF000074FF000084FF0000B21F00701FC
:10041000AC46ACE8C009ACE8C009ACE8C009ACE83F
:10042000C0098D46704710B50446AFF300802046E2
:10043000BDE81040FFF7A1BE01491820ABBEFEE7A2
:10044000260002007047FEE77047000070B50446C2
:1004500000F010F90546601C02D0044800780444FE
:1004600000F008F9401BA042FAD370BD280000201C
:100470002DE9F84FDFF8B8910024A9F1040B2346C9
:100480000F2709F1040AABF1040EC9E00125A540CC
:100490002A40AA427DD1674ED1F804C0ACEB0608D1
:1004A000B44532D014DCBCF1030F3AD009DCBCF106
:1004B000000F2AD0BCF1010F1CD0BCF1020F31D1CA
:1004C0001DE0BCF1110F17D0BCF1120F2AD119E0B9
:1004D000B8F5881F19D006DCB8F5803F15D0B8F5FF
:1004E000801F1FD111E0B8F5001F0ED0B8F5041F12
:1004F00018D10AE0CB6815E0CB681B1D12E0CB6871
:1005000008330FE0CB680C330CE08B682BB1012B68
:100510004FF0080303D0456104E0042302E00561C5
:1005200000E00023FF2A01D8064601E000F104069E
:100530004FEA840501D9A5F12005D6F8008007FA15
:1005400005FC28EA0C0803FA05F548EA0508C6F890
:1005500000804D68ED0062D5374DAE6946F001066A
:10056000AE61AD6924F0030605F001050095334D39
:1005700006EB050CDCF80850A607360F07FA06F85C
:1005800025EA0805DFF8B880404503D14FF00008A0
:1005900017E044E0DFF8AC80404502D14FF001089D
:1005A0000FE0DFF8A480404502D14FF0020808E0D8
:1005B000DFF89880404502D14FF0030801E04FF08A
:1005C000040808FA06F848EA0508CCF808804D68DF
:1005D000D9F80060ED024D4601D5164300E0964380
:1005E0002E604D68DAF80060AD02554601D516431D
:1005F00000E096432E604D68DBF80060AD035D4679
:1006000001D5164300E096432E604D68DEF8006089
:10061000ED03754601D5164300E096432E60641C39
:100620000D682A46E5407FF431AFBDE8F88F000041
:1006300008040140000011100010024000000140B9
:1006400000080140000C014000100140001401406E
:100650008068084000D001207047C26821EA020388
:100660000A4043EA0241016170470AB101617047E3
:100670000904FBE70148806870470000280000205B
:1006800070B5040025D094F83D00002520B984F809
:100690003C50204600F078FA242084F83D00206881
:1006A000016821F0010101602068016841F4004106
:1006B00001602068016821F40041016000F0CAFB7C
:1006C0004D4A6168914201D84C4900E04C4988424A
:1006D00001D2012070BD4B492368B0FBF1F15E6887
:1006E00026F03F060E435E606368934206D94FF4DE
:1006F000967359434FF47A73B1FBF3F12368491CA5
:100700001E6A26F03F06314319626168914210D893
:100710004900401EB0FBF1F2521CC2F30B02042A46
:1007200001D2042022E0B0FBF1F0401CC0F30B002A
:100730001CE0A268F2B301EBC10303EB0116431EF8
:10074000B3FBF6F35B1C43F480431B0549D092B323
:1007500001EBC10202EB0111401EB0FBF1F0401CA5
:10076000C0F30B0040F4804040F400402168CA69A7
:100770004CF6FF739A431043C861D4E90710014354
:100780002068026822F0C00211430160D4E903012D
:1007900001432068826848F2FF339A431143816025
:1007A000D4E9050108432168CA6822F0FF0210431A
:1007B000C86001E00EE016E02068016841F0010128
:1007C00001602564202084F83D00256384F83E50B4
:1007D000002070BD01EB4106431EB3FBF6F35B1C2A
:1007E000B3E70120C2E701EB4101401EB0FBF1F08D
:1007F000401CC0F30B00B7E7A086010080841E00F8
:1008000000093D0040420F002DE9FF4F83B0002555
:10081000DDE910799A4693460446DDF84880009554
:10082000FFF728FF064694F83D0020287CD11923C5
:10083000012285492046009601F002FB0028F5D1EF
:1008400094F83C0001286FD0012084F83C00206817
:100850000168C90703D1016841F001010160206806
:10086000016821F400610160222084F83D004020ED
:1008700084F83E0025646762A4F82A90608D208584
:100880007248E062CDE9008653465A4620460499F4
:1008900001F0D8F900287DD1208DDFF8B491202710
:1008A00068B1012814D00228206801681ED041F4E4
:1008B000806101602068416980690090B6E020682D
:1008C000416981690091016841F400710160ADE006
:1008D0002068016821F48061016072B62068416976
:1008E00081690091016841F400710AE041F40061FE
:1008F000016072B62068416981690091016821F444
:100900008061016062B691E0032868D801280CD0AC
:10091000022843464FF000024946204600960FD079
:1009200001F08EFAB0BB10E08BE032464146204623
:1009300001F02CFB70BB20680069616A08706CE0F4
:1009400001F07EFA30BB72B634E02068016821F411
:100950008061016072B620680069616A0870606A2F
:10096000401C6062208D401E2085608D401E608589
:10097000384846F2A8110068B0FBF1F0C0EBC000A7
:1009800000EB80000090401E009008D02068406975
:10099000C04300E029E040070CD50098F3E744F895
:1009A000305F6773A573206940F02000206162B654
:1009B00025731AE02068016841F400710160206825
:1009C0000069616A0870606A401C6062218D491E7E
:1009D0002185618D491E618562B621681BE0324622
:1009E0004146204601F0D2FA18B1012007B0BDE817
:1009F000F08F20680069616A0870606A401C60625C
:100A0000218D491E2185618D491E618521684A69B4
:100A1000D24352070AD409690170606A401C6062BF
:100A2000208D401E2085608D401E6085208D002811
:100A30007FF46AAF84F83D7084F83E5084F83C50EF
:100A4000D4E70220D2E70000020010000000FFFF00
:100A500004000100340000202DE9FF4F83B09A46C6
:100A6000DDE9119793460446DDF84080FFF702FE6A
:100A7000054694F83D0020287FD1192301224049E2
:100A80002046009501F0DCF9002876D194F83C006E
:100A9000012872D0012084F83C0020680168C90751
:100AA00003D1016841F0010101602068016821F46F
:100AB00000610160212084F83D00402084F83E0060
:100AC00000262664C4F82480A4F82A90608D20852E
:100AD0002C48E062CDE9007553465A4620460499F9
:100AE00001F02EF970B930E02A463946204601F06F
:100AF00085FA58B1206C042804D12068016841F4BB
:100B000000710160012007B0BDE8F08F606A2168C4
:100B100000780861606A401C6062218D491E89B2BC
:100B20002185628D521E628522685369DB435B0713
:100B30000BD469B100781061606A401C6062208D3E
:100B4000401E2085608D401E6085208D0028CBD101
:100B50002A463946204601F047F90028CAD154F800
:100B60003D0B016841F400710160202004F81E096A
:100B7000E67766770020C6E7FFE70220C3E70000BC
:100B8000020010000000FFFF10B586B000210091A8
:100B900001910291039100681349884222D1134CBC
:100BA000A06940F00800A061A069694600F0080053
:100BB00004904FF4407000901220019003200390A5
:100BC0000B48FFF755FC0B48416841F0E06141F0EC
:100BD00002014160E06940F40010E061E06900F466
:100BE0000010049006B010BD0054004000100240F8
:100BF000000C014000000140024881680278114465
:100C00008160704728000020074810B5016841F056
:100C100010010160032000F075F80F2000F006F8C5
:100C200000F024F8002010BD0020024070B50D4DEA
:100C300004464FF47A712878B1FBF0F00A4909684C
:100C4000B1FBF0F000F0B7FD48B9102C07D200223C
:100C50002146501E00F036F800206C6070BD012067
:100C600070BD000028000020340000200C4808B5AA
:100C7000816941F001018161816901F00101009107
:100C8000C16941F08051C161C06900F0805000909D
:100C90000448416821F0E06141F00071416008BD05
:100CA0000010024000000140002809DB00F01F0294
:100CB000012191404009800000F1E020C0F80011BE
:100CC00070470000F0B40E4B1B680C46C3F30223C0
:100CD000C3F10705042D00D90425191D072901D2E8
:100CE000002300E0DB1E012606FA05F1491E214023
:100CF00099409E40761E16403143F0BC01F034BC52
:100D00000CED00E0064900F0070208684FF6FF030B
:100D1000184040EA0220034A104308607047000070
:100D20000CED00E00000FA052DE9F0470F46050044
:100D300061D0434E306800F00700B84209D23068F5
:100D400020F0070038433060306800F00700B842F8
:100D500051D128683B4C810712D5400703D5606804
:100D600040F4E06060602878000703D5606840F4D4
:100D7000605060606068A96820F0F000084360601F
:100D80002878C00728D06868012810D02168022878
:100D900010D0890700292EDA616821F00301014390
:100DA0006160FFF767FC804641F288390DE02168F9
:100DB0008903EFE78901EDE7FFF75CFCA0EB080191
:100DC000494502D90320BDE8F0876068696800F0F2
:100DD0000C00B0EB810FEFD1306800F00700B84293
:100DE0000BD9306820F0070038433060306800F0DD
:100DF0000700B84201D00120E5E72878400705D573
:100E00006068E96820F4E0600843606028780007C3
:100E100006D56068296920F4605040EAC10060602E
:100E200000F028F86168084AC1F30311515CC8401A
:100E30000649086006480068FFF7F8FE0020C2E790
:100E4000002002400010024010450008340000203D
:100E50002C0000200448054900684968044AC1F391
:100E60000221515CC840704734000020001002404D
:100E7000204500080E4A51680E4801F00C03042B6F
:100E800011D0082B0FD10C48C1F38343C903C05CB8
:100E90000AD55168084AC1F34041921E515C054A87
:100EA0005043B0FBF1F070470449484370470000DD
:100EB0000010024000127A000045000800093D00C1
:100EC0002DE9F84F040070D02078C04DC00749D0FC
:100ED0006868C0F38100012807D06868C0F381000A
:100EE000022809D16868C00306D52868800339D56F
:100EF00060680028E7D035E06068B0F5803F0BD02F
:100F000010B1B0F5A02F11D0286820F480302860EF
:100F1000286820F4802002E0286840F480302860AF
:100F2000606890B1FFF7A6FB06460AE0286840F427
:100F300080202860F0E700BFFFF79CFB801B64283F
:100F400073D828688003F7D50CE0FFF793FB0646BB
:100F500005E000BFFFF78EFB801B6428F0D82868EF
:100F60008003F7D420789A4E80074FF001094FF0A4
:100F7000000839D5686810F00C0F07D06868C0F316
:100F80008100022809D16868C00306D42868800758
:100F900014D52069012808D110E02069B0B1C6F845
:100FA0000090FFF767FB074605E00AE1FFF762FBE9
:100FB000C01B0228C4D828688007F7D52868616953
:100FC00020F0F80040EAC10028600DE0C6F800807B
:100FD000FFF750FB074604E0FFF74CFBC01B02285D
:100FE00023D828688007F7D4207800072CD57948C3
:100FF000A169D9B1C0F80090FFF73CFB074604E0B7
:10100000FFF738FBC01B02280FD8686A8007F7D5A6
:1010100071484FF4FA510068B0FBF1F0009000BF46
:101020000098411E0091FAD20EE080E0C0F80080E6
:10103000FFF720FB074604E0FFF71CFBC01B02285C
:1010400075D8686A8007F7D42078400760D5E869CA
:101050000027C00008D4E86940F08050E861E869E2
:10106000012700F0805000905C480168C90513D446
:101070000168834641F480710160FFF7FBFA824604
:1010800006E000BFFFF7F6FAA0EB0A0064284ED88E
:10109000DBF80000C005F5D5E06801280AD008B1EA
:1010A000052813D0286A20F001002862286A20F061
:1010B000040002E0286A40F001002862E06841F282
:1010C000883B98B1FFF7D6FA82460BE0286A40F0D9
:1010D00004002862EEE700BFFFF7CCFAA0EB0A019C
:1010E00059455AD8286A8007F6D50CE0FFF7C2FAAE
:1010F000824605E0FFF7BEFAA0EB0A0159454CD83D
:10110000286A8007F6D41FB1E86920F08050E861B2
:10111000E06988B36968C1F38101022944D00228DB
:10112000C6F8608004D0FFF7A5FA044638E034E042
:10113000FFF7A0FA074604E0FFF79CFAC01B02285D
:101140002BD828688001F7D4206AB0F5803F05D1FC
:101150006868A16820F4003008436860D4E9080199
:101160000843696821F4741108436860C6F8609008
:10117000FFF780FA044606E025E000BFFFF77AFAA1
:10118000001B022809D828688001F7D51BE000BFA2
:10119000FFF770FA001B022802D90320BDE8F88F80
:1011A00028688001F4D40EE00128F7D06868226A2C
:1011B00000F48031914204D1616A00F470108842D9
:1011C00001D00120EAE70020E8E70000001002401B
:1011D000000042428004424234000020007000407F
:1011E00070B5040009D0606A002540B125616561D1
:1011F000A56294F8510040B10CE0012070BD606818
:10120000B0F5827FF4D0E561F2E784F850502046D3
:1012100000F040F8022084F851002068016821F0B5
:1012200040010160A088218900F4827001F404412A
:101230000843A18901F400610843217C01F0020107
:101240000843217D01F001010843218B01F4007165
:101250000843217F01F03801084394F8201001F081
:1012600080010843218D01F4005108432168086082
:10127000A069042101EA1040216848602068C16922
:1012800021F40061C1616565012084F851000020EE
:1012900070BD000030B585B0002400940194029424
:1012A000039400681449884223D11448816941F4A9
:1012B00080518161816901F480510491816941F01B
:1012C0000401816180690E4D00F004000490A020AB
:1012D0000090022001900320039069462846FFF702
:1012E000C7F84020CDE90004694628460294FFF77C
:1012F000BFF805B030BD00000030014000100240D2
:10130000000801402DE9F84F044690F85100984636
:1013100016460F460025012801D0022598E0606896
:101320004FF0040BB0F5827F01D1A068F8B194F8BA
:101330005000012826D04FF0010984F85090FFF7A3
:1013400099F98246002F7FD0002E7DD084F851B0CD
:1013500000206065A763A687E6872063A086E086F5
:1013600020646064A068B0F5004F0DD016E084F8EA
:1013700051B013460A462046CDF8008000F024F90B
:10138000BDE8F88F0220FBE72068016821F04001EA
:1013900001602068016821F48041016020680168D3
:1013A000490603D4016841F040010160E068D8B10A
:1013B0003BE020688168C90709D0007BA16B0870F9
:1013C000A06B401CA063E08F401EE0870CE0FFF79D
:1013D00051F9A0EB0A01414503D3B8F1FF3F03D017
:1013E00006E0B8F1000F03D0E08F0028E1D11FE044
:1013F00003252BE020688168C90709D0C068A16B6C
:101400000880A06B801CA063E08F401EE0870CE08A
:10141000FFF730F9A0EB0A01414503D3B8F1FF3FD4
:1014200003D0E5E7B8F1000FE2D0E08F0028E1D16A
:1014300052464146204600F03AFF08B12020606540
:10144000606D00E000E008B1012501E084F85190F2
:10145000002084F85000284692E72DE9F84F044612
:1014600090F850000026984615468A4601280CD070
:10147000012784F85070FFF7FDF8814694F8510079
:10148000B346012804D002269AE00220BDE8F88F76
:10149000BAF1000F6FD0002D6DD0032084F85100F9
:1014A000C4F854B0C4F830A0A586E586C4F838B0B6
:1014B000A4F83CB0A4F83EB0C4F844B0C4F840B0BE
:1014C000A068B0F5004F09D12068016821F0400103
:1014D00001602068016841F4804101602068016872
:1014E000490603D4016841F040010160E068B0F5AD
:1014F000006F606803D058B3012D29D049E008B1CE
:10150000012D1FD1206B21680088C86006E020688B
:101510008168890709D5216B0988C160206B801C0F
:101520002063E08E401EE0860CE0FFF7A3F8A0EBFE
:101530000901414503D3B8F1FF3F03D006E0B8F1FC
:10154000000F03D0E08E0028E1D125E0032635E02E
:10155000206B21680078087306E02068816889079D
:101560000AD5216B09780173206B401C2063E08E43
:10157000401EE0860DE01FE0FFF77CF8A0EB0901BC
:10158000414503D3B8F1FF3F03D0DFE7B8F1000FC7
:10159000DCD0E08E0028E0D14A464146204600F0EB
:1015A000B4FE08B120206065A06818B92068C16841
:1015B00080680090606D08B1012601E084F85170E8
:1015C00084F850B0304661E72DE9FF4F81B0044602
:1015D00090F8500000260E9F1D4693464FF00109DB
:1015E00001280FD04FF0010A84F850A0FFF742F80D
:1015F000804694F85100616801280DD0B1F5827FD2
:1016000008D103E0022005B0BDE8F08FA16809B958
:10161000042801D00226C9E00298002865D0BBF159
:10162000000FFBD0002DF9D094F85100042802D00F
:10163000052084F8510000206065C4F838B0E587C3
:10164000A58702992163E586A586206460642068E9
:101650000168490603D4016841F040010160E06877
:10166000B0F5006F606803D0F0B3012D47D081E082
:1016700008B1012D3CD1206B21680088C860206B27
:10168000801C2063E08E401EE08631E02068816887
:1016900089070FD5E18E69B1B9F1010F0AD1216B2C
:1016A0000988C160206B801C2063E08E401EE086AC
:1016B0004FF0000920688168C9070CD0E18F51B153
:1016C000C068A16B0880A06B801CA063E08F401EE7
:1016D000E0874FF00109FEF7CDFFA0EB0800B8420C
:1016E00006D3781C04D001E009E05BE003265BE050
:1016F000E08E0028CAD1E08F0028C7D140E0206BDF
:10170000216800780873206B401C2063E08E401E27
:10171000E0862FE02068816889070FD5E18E69B1E6
:10172000B9F1010F0AD1216B09780173206B401CBC
:101730002063E08E401EE0864FF00009206881683B
:10174000C9070CD0E18F51B1C068A16B0870A06BC4
:10175000401CA063E08F401EE0874FF00109FEF7B8
:1017600089FFA0EB0800B84202D3781C02D0BAE788
:10177000002FB8D0E08E0028CCD1E08F0028C9D14E
:1017800042463946204600F0C0FD18B1012620200F
:1017900060650BE0A06818B92068C1688068009097
:1017A000606D08B1012601E084F851A0002084F8A2
:1017B0005000304627E710B5401EB0F1807F01D3BE
:1017C000012010BD4FF0E02460610F21601700F090
:1017D000CBFE0020A06107202061002010BD7047D3
:1017E0007047000070B590F83C20012A26D00124F3
:1017F00080F83C40022280F83D2003685A689D68CA
:1018000022F070060A6832435A600D4B02689A4211
:1018100008D0B2F1804F05D00A4B9A4202D00A4B51
:101820009A4204D1496825F080031943916080F8F9
:101830003D40002180F83C10084670BD022070BD7C
:10184000002C0140000400400008004010B50400D6
:1018500003D094F83D0010B107E0012010BD002036
:1018600084F83C00204600F01FF8022084F83D0078
:10187000211D206800F00CFE012084F8460084F849
:101880003E0084F83F0084F8400084F8410084F86A
:10189000420084F8430084F8440084F8450084F84A
:1018A0003D00002010BD000008B501681948B1F1E5
:1018B000804F0BD0184A914217D1C16941F0020103
:1018C000C161C06900F00200009008BDC16941F02B
:1018D0000101C161C069002200F0010000901146C1
:1018E0001C20FFF7EFF91C2010E00C4A9142ECD1CC
:1018F000C16941F00401C161C069002200F0040027
:10190000009011461E20FFF7DDF91E20BDE80840BB
:10191000FFF7CAB900100240000400400008004070
:1019200090F83D10012901D001207047022180F874
:101930003D1000680B49884208D0B0F1804F05D0B7
:101940000949884202D00949884204D1816801F0DE
:101950000701062903D0016841F001010160002060
:1019600070470000002C01400004004000080040C7
:1019700090F83D10012901D001207047022180F824
:101980003D100168CA6842F00102CA6000680B4954
:10199000884208D0B0F1804F05D00949884202D072
:1019A0000849884204D1816801F00701062903D063
:1019B000016841F00101016000207047002C0140E6
:1019C000000400400008004070B5044690F83C0058
:1019D0000025012817D0012684F83C60022084F8F5
:1019E0003D002068826822F0770222F47F42826004
:1019F0000868502838D00DDC20284FD005DC90B383
:101A0000102811D14AE0022070BD302846D040286D
:101A10000AD13BE060282FD070280DD0B0F5805F50
:101A200003D0B0F5005F12D0012584F83D6000209E
:101A300084F83C00284670BDCB68D1E901212068BC
:101A400000F05CFD2068816841F0770109E0CB6817
:101A5000D1E90121206800F051FD2068816841F43E
:101A600080418160E1E719E0CA684968206800F0B8
:101A700057FD5021206806E0CA684968206800F0D8
:101A800060FD6021206800F043FDCEE7CA68496828
:101A9000206800F045FD40212068F4E722680146F7
:101AA0001046F0E7704770B50446006801694FF0D2
:101AB0000005C943890715D4C168C943890711D4F2
:101AC000E91E016101202077206880698007204697
:101AD00002D0FFF7E7FF04E000F098F8204600F09E
:101AE00096F8257720680169C943490717D4C1686A
:101AF000C943490713D46FF0040101610220207724
:101B00002068806910F4407F204602D0FFF7CAFFAA
:101B100004E000F07BF8204600F079F82577206893
:101B20000169C943090716D4C168C943090712D41A
:101B30006FF008010161042020772068C0698007E8
:101B4000204602D0FFF7AEFF04E000F05FF8204629
:101B500000F05DF8257720680169C943C90617D4EC
:101B6000C168C943C90613D46FF010010161082090
:101B700020772068C06910F4407F204602D0FFF72C
:101B800091FF04E000F042F8204600F040F825778D
:101B900020680169C943C90708D1C168C943C90799
:101BA00004D1891E0161204600F032F820680169E5
:101BB000C943090609D4C168C943090605D46FF0B1
:101BC000800101612046FFF70AFE20680169C943D0
:101BD000490609D4C168C943490605D46FF04001DC
:101BE0000161204600F015F820680169C9438906A3
:101BF0000BD4C168C943890607D46FF02001016185
:101C00002046BDE87040FFF7EBBD70BD70477047E0
:101C100070477047FEE701684A69D24352050FD406
:101C20006FF480624A61002140F8301F2022427325
:101C30008173026942F0040202610173012070475E
:101C4000002070472DE9F84F0446006889460B9D37
:101C500001689846174641F4806101602068016878
:101C600041F48071016000954FF0011B002259463C
:101C700020460A9B00F0E4F84FF4007A40B1206857
:101C80000068C00501D5C4F840A00320BDE8F88F66
:101C9000216809F0FE0008612B46284920460A9A6F
:101CA00000F016F9F0BB20684169806900902A466F
:101CB00020460A9900F0A2F940B1206C04283AD1DC
:101CC0002068016841F40071016034E0FEB2B8F1AF
:101CD000010F09D02168380A08612A4620460A996E
:101CE00000F08CF90028E8D1206806612A462046D9
:101CF0000A9900F083F90028DFD12068016841F4D7
:101D00008071016000950022594620460A9B00F030
:101D100097F80028B3D1216809F0FF0040F00100D6
:101D2000086100E007E02B46044920460A9A00F0CB
:101D3000CFF80028AAD00120A8E700000200010087
:101D40002DE9F843044600680D46DDE9089701686F
:101D50009846164641F4807101604B4600224FF0D0
:101D600001112046009700F06BF848B12068006828
:101D7000C00502D54FF4007020640320BDE8F8834D
:101D8000216805F0FE0008613B464A461549204699
:101D900000F09EF888B920684169806900903A4651
:101DA0004946204600F02AF948B1206C042804D1A5
:101DB0002068016841F4007101600120DEE7F5B29E
:101DC000B8F1010F09D02168300A08613A46494646
:101DD000204600F013F90028E7D1206805610020B3
:101DE000CCE700000200010070B516460D4604461F
:101DF0001EE02046FFF70FFF08B1012070BD681CF0
:101E000016D0FEF737FC801BA84200D885B92068A1
:101E10004069C04340070BD5002044F8300F202113
:101E20006173A073216941F0200121612073E4E70F
:101E300020684069C0434007DBD4002070BD00002B
:101E40002DE9F047984617460D460446C1F307466C
:101E5000DDF820902AE000BFB8F1FF3F26D0FEF762
:101E600009FCA0EB0901414502D8B8F1000F1DD1D2
:101E70002068012E16D0806925EA00000004000CBD
:101E800012D00020B84211D1002044F8300F202198
:101E90006173A073216941F0200121612073012049
:101EA000BDE8F0874069E7E70120EBE72068012EF5
:101EB0000AD0806925EA00000004000C06D000204A
:101EC000B842C9D00020EBE74069F3E70120F7E70B
:101ED0002DE9F047984616460D4604464FF0000996
:101EE0004FF0200AC1F3074723E020684069C04350
:101EF000400515D42068016841F400710160216833
:101F00006FF480604861C4F8309084F83DA084F894
:101F10003E90216C41F00401216484F83C9021E062
:101F2000701C06D0FEF7A6FBA0EB0800B04203D859
:101F300016B1012F1FD021E02068012F15D0806934
:101F400025EA00000004000C18D000BF44F8309FC0
:101F500084F80DA084F80E90216941F020012161E0
:101F600084F80C900120BDE8F087406925EA000064
:101F70000004000CEAD12068406901E02068806913
:101F800025EA00000004000CAFD1ECE72DE9F04198
:101F9000002590460E460446202728E04069C043AD
:101FA000C0060CD454F8301B6FF01000486144F8A0
:101FB00010596777A577206A2062257714E0FEF72D
:101FC00059FBA0EB0800B04200D886B920684069F0
:101FD000C04340060BD544F8305F6773A573206992
:101FE00040F02000206125730120BDE8F0812068C9
:101FF0004169C9434906D1D40020F6E770B51646B9
:102000000D4604461EE02046FFF705FE08B10120FC
:1020100070BD681C16D0FEF72DFB801BA84200D8AF
:1020200085B920684069C04300060BD5002044F8FC
:10203000300F20216173A073216941F020012161DB
:102040002073E4E720684069C0430006DBD4002029
:1020500070BD00002DE9F04186B000242F480094A7
:10206000019402940394816941F0200181618169A6
:1020700001F020010491816941F0040181618169CD
:1020800001F004010491816941F0080181618069D6
:10209000234F00F008000490002204213846FEF788
:1020A000E4FA012210213846FEF7DFFADFF87480E7
:1020B000012211464046FEF7D8FA142001250226D7
:1020C000CDE90005CDE9024669463846FEF7D0F96C
:1020D00048F60870CDE90004694638460294FEF7D8
:1020E000C7F903960095CDE9015469464046FEF7CD
:1020F000BFF90D480096CDE9010469464046FEF758
:10210000B7F94FF47040CDE90004694640460294A7
:10211000FEF7AEF906B0BDE8F08100000010024005
:1021200000080140000C0140000011100F4810B5DC
:102130000D4901604FF48271416000218160C160EE
:102140004FF400720161C0E905121022C0E90721B5
:10215000416281620A21C162FFF742F8002801D082
:1021600072B6FEE710BD0000003001409400002070
:1021700010B586B00024174800940194029403948B
:1021800004944FF080410594016040F61461C0E969
:10219000011447F22F51C0E903148461FFF756FB85
:1021A00008B172B6FEE74FF48050009069460948C6
:1021B000FFF70AFC08B172B6FEE72020CDE904045F
:1021C00004A90448FFF70EFB002801D072B6FEE711
:1021D00006B010BDEC00002010B586B000241748F2
:1021E00000940194029403940494134905940160AB
:1021F0002321C0E901144FF6FF71C0E90314846183
:10220000FFF724FB08B172B6FEE74FF48050009050
:1022100069460A48FFF7D8FB08B172B6FEE7049496
:1022200004A906480594FFF7DDFA002801D072B62C
:10223000FEE706B010BD000000040040340100209D
:1022400010B586B0002417480094019402940394BA
:10225000049413490594016041F61F41C0E901143B
:1022600042F20F71C0E903148461FFF7EFFA08B17D
:1022700072B6FEE74FF48050009069460948FFF7B8
:10228000A3FB08B172B6FEE7049404A905480594BF
:10229000FFF7A8FA002801D072B6FEE706B010BD1D
:1022A000000800407C010020FEE7FEE77047F8B51B
:1022B000044640684FF48273984217D1A0684FF4E7
:1022C0008065B0F5004F01D0A8420FD120680668A4
:1022D00026F0400606606068984207D1A068A842D0
:1022E00004D100920B460022012103E000920B462C
:1022F00000228021204600F019F8002804D0606DEB
:1023000040F0200060650320F8BD38B50B46009210
:1023100004460022802100F009F8002804D0606DF6
:1023200040F020006065032038BD00002DE9F8432F
:102330001E46914688460446089DFEF79BF9401BC1
:10234000351AFEF797F9074625480068C0F3CB30E9
:10235000684338E0701C37D0FEF78CF9C01BA842E8
:1023600003D215B1009860B32CE02068416821F0D9
:10237000E00141606068B0F5827F0BD1A068B0F5E4
:10238000004F02D0B0F5806F04D12068016821F0C1
:1023900040010160A06AB0F5005F09D120680168C2
:1023A00021F4005101602068016841F4005101608E
:1023B000012084F85100002084F850000320BDE87B
:1023C000F8830025401E00902068816838EA0100EB
:1023D00004D000214945BDD10020F0E70121F9E7F3
:1023E000340000207047FEF707BC30B58FB02821BD
:1023F0006846FDF768FF14210AA8FDF764FF012174
:102400000804CDE900100024029402250491CDE9CE
:1024100007504FF4E01009906846FEF751FD08B1EF
:1024200072B6FEE70F20CDE90A054FF48060CDE9D2
:102430000C4002210AA80E94FEF776FC002801D079
:1024400072B6FEE70FB030BD7047000010B504480B
:10245000FFF729FB03490020096881F87B0010BDC4
:10246000EC0000203C00002010B50648FFF71BFBE5
:10247000054901200870BDE8104004210348FEF71B
:10248000ECB800007C0100200000002000080140A2
:10249000F0B50268164B174C174D4FF08047984225
:1024A00005D0B84203D0A04201D0A84203D122F007
:1024B00070064A683243984205D0B84203D0A04221
:1024C00001D0A84203D122F44074CA6822434C6967
:1024D00022F08002224302608A68C2620A68826235
:1024E000984201D10969016301214161F0BD0000F9
:1024F000002C0140000400400008004010B5846832
:1025000042EA032224F47F440A432243826010BD3E
:10251000826822F070020A4342F00701816070472E
:1025200010B5036A046A24F001040462846924F08B
:10253000F00444EA021423F00A020A4384610262AE
:1025400010BD10B5036A046A24F0100404628469A3
:1025500023F0A00324F4704444EA023243EA011158
:102560008261016210BDFEE70907090E002804DB45
:1025700000F1E02080F80014704700F00F0000F137
:10258000E02080F8141D70472DE9F0414F1E00EB4C
:10259000C7010446D1E9000115461E4637F0060280
:1025A0000DD02A46334601F0DDFB7F1E04EBC70346
:1025B000D3E9002301F040F937F00602F1D1022FF0
:1025C00025D0042F13D0062F18BFBDE8F0812A466E
:1025D000334601F0C7FBD4E90A2301F02DF92A465E
:1025E000334601F0BFFBD4E9082301F025F92A4660
:1025F000334601F0B7FBD4E9062301F01DF92A4662
:10260000334601F0AFFBD4E9042301F015F92A4663
:10261000334601F0A7FBD4E9022301F00DF92A4665
:10262000334601F09FFBD4E90023BDE8F04101F0FF
:1026300003B90000002213461046014901F0B8B961
:102640000000F03F012201F0EEBE002213461046CA
:10265000114601F0ADB900002DE9FF4F85B0984655
:10266000DDF84C90144601291DD002294BD1A2203F
:10267000834600204FF0804100F084FB05460E4663
:102680000020224900F07EFB2A46334601F090F9F3
:1026900001F022FB09EB0801049004EB911080B2D9
:1026A000890602D003E0A020E2E7401E80B2001BB2
:1026B000401C00261FFA80FA354622E0049904FAED
:1026C00001F040EA080080B203904146484600F01D
:1026D0007FF8074612980A213044CDE9000702919D
:1026E00002235946039A0598FEF78EF8A9EB0700D6
:1026F0001FFA80F9641CF019A4B24FF0000886B2EA
:102700006D1C5545DADB09B0BDE8F08F0000504084
:102710002DE9FF4F85B09846DDF84C90144601290D
:102720001DD002294ED1A220834600204FF08041C7
:1027300000F028FB05460E460020244900F022FB4D
:102740002A46334601F034F901F0C6FA09EB0801D4
:10275000049004EB911080B2890602D003E0A0201F
:10276000E2E7401E80B2001B401C00261FFA80FAE0
:10277000354625E0049904FA01F040EA080080B2E9
:1027800003904146484600F023F8074612980A2174
:102790003044CDE90007029102235946039A059877
:1027A000FEF75AF9A9EB07001FFA80F9F019641C2B
:1027B00086B2A4B24FF000080520FDF747FE6D1C5D
:1027C0005545D7DB09B0BDE8F08F00000000504050
:1027D0004218402A02D3C1F1400080B27047000085
:1027E00010B54FF0FF32074B08E000BF10F8014B67
:1027F0005440E4B253F8244084EA1222491EF5D230
:10280000D04310BD38020020044900220B685A62F0
:1028100009684A6A8242FCD37047000034010020F4
:102820002DE9F0412348244B01260068244C03F293
:102830001645C16C491CC164DA79204803F10C01CA
:10284000072A26D2DFE802F025040C131C272E00ED
:1028500019895E89014432462846FDF7B5FC17E028
:102860001F895A893844FDF7AFFC02220CE0188911
:102870000A4601465B89134800F0A7F9032203E0EA
:10288000104800F0CDF9042201212846FDF713FD80
:102890002660BDE8F081202208492846FDF794FC17
:1028A000202005E0712205492846FDF78DFC7120A6
:1028B0002060EEE72400002038060020C40100203C
:1028C000380000204000002070B51546C2F3061005
:1028D00001F0A4FC044605F00F0001F09FFC6FF02E
:1028E000030101F0CEFD2146BDE8704001F02EBC91
:1028F000FEB500230D4606461A4600F039F80020C2
:102900000246009001AB2946304600F07EF8BDF843
:102910000440294622463046FFF7D6FF210501D55F
:1029200080F00040FEBD70B514460D46064600F02E
:102930008BF808B1012070BDC4B9CC2229463046BD
:1029400000F0C8F84E222946304600F0C3F8642251
:102950002946304600F0BEF89E222946304600F057
:10296000B9F87F222946304600F0B4F8002070BD47
:1029700070B514460D46064600F066F824B9CC2220
:102980002946304600F0A6F829463046BDE870409A
:10299000442200F09FB870B50C46054600F017FDC4
:1029A000002221462846FDF760FE0220FFF72CFF9B
:1029B000012221462846FDF758FE0D20FFF724FF8F
:1029C0002146284600F0F8FC21462846FDF740FE47
:1029D00008B1012400E000242D20FFF715FF204658
:1029E00070BD2DE9F04100250E4607462C463146C4
:1029F0003846FFF7D0FFA040641C2844E4B2C5B2BB
:102A0000072CF4D92846BDE8F0812DE9F0411D4698
:102A100014460E46074600F017F824B9CC2231467A
:102A2000384600F057F8BE223146384600F052F8DA
:102A3000002431463846FFF7D4FF2855641CE4B221
:102A4000082CF6D3BDE8F08170B50C46054600F0C1
:102A5000BEFC002221462846FDF707FE40F2E510A5
:102A6000FFF7D2FE012221462846FDF7FEFD412058
:102A7000FFF7CAFE2146284600F09EFC2146284664
:102A8000FDF7E6FD04464FF4FA70FFF7BDFE0CB10A
:102A9000012070BD002070BD70B514460D4606467D
:102AA00000F095FC002229463046FDF7DEFD0CB112
:102AB000032000E04120FFF7A7FE0122294630460F
:102AC000FDF7D3FD0CB1412000E00320BDE87040CC
:102AD000FFF79ABE2DE9F04115460E460746002441
:102AE00025FA04F000F0010231463846FFF7D4FF22
:102AF0000520FFF789FE641CE4B2082CF0D3BDE882
:102B0000F08100002DE9F04194B01646804601297D
:102B10002BD0022926D1A22500204FF0804100F0C1
:102B200031F904460F460020114900F02BF92246E6
:102B30003B4600F03DFF01F0CFF88640B4B2FF22E3
:102B4000402103A8FDF7B7FB0A22402103A88DE826
:102B500007000223224629464046FDF77DFF052057
:102B6000FDF774FC14B0BDE8F081A025D4E70000A7
:102B7000000050402DE9FC4781468C0960421D460B
:102B800001EB8010904683B2C3F14007AF4211DAE7
:102B9000B9B208EB0600CDE9000122460121484602
:102BA000FFF75AFDE81B641C0023403685B2A4B22F
:102BB000B6B2E9E708EB0600CDE90005224601219F
:102BC0004846FFF749FDBDE8FC872DE9FC478146F3
:102BD0008C0960421D4601EB8010904683B2C3F120
:102BE0004007AF4211DAB9B208EB0600CDE90001A7
:102BF000224601214846FFF78BFDE81B641C002399
:102C0000403685B2A4B2B6B2E9E708EB0600CDE9DA
:102C10000005224601214846FFF77AFDBDE8FC8702
:102C200010B592B00446102218A16846FDF772FB59
:102C30001A4800220068089019480068099019484D
:102C400000680A90184800680B90184800680F90B8
:102C5000174801680C918088ADF834001548016868
:102C6000CDF836108088ADF83A0001212046FFF7F4
:102C700049FF012211462046FFF744FF48236A46D8
:102C800000212046FFF7A1FF12B010BD5765617407
:102C90006865722053746174696F6E0001000020D2
:102CA00005000020090000200D0000202000002069
:102CB000110000201700002030B50A4B0A4C0021FB
:102CC00008460022C50702D083EA500000E0400811
:102CD000521C082AF6DB44F82100491CFF29EFDDCD
:102CE00030BD00002083B8ED3802002070B50546E5
:102CF000092040EA4110C4B229222146284600F0AA
:102D0000A8FC064628222146284600F0A2FC46EAF6
:102D1000002070BD70B50546092040EA4110C4B2DC
:102D200027222146284600F094FC0646262221460A
:102D3000284600F08EFC46EA002070BD092242EAD7
:102D40004111C9B2032200F084BC70B505460920C8
:102D500040EA4110C4B225222146284600F079FC01
:102D6000064624222146284600F073FC46EA00204D
:102D700070BD092242EA41110223C9B2012200F0CA
:102D800030BD00002DE9F04DC84A002490B09142BA
:102D900005DA21F00043934201D805D120B110B0EB
:102DA000BDE8F04DFFF74EBCB1F5801F1BDA53EACA
:102DB000000209D0002911DA0120FDF7DEFA10B077
:102DC000BDE8F04DFFF741BC0220FDF7D6FAFFF752
:102DD00031FC10B081F00041BDE8F08D6FF035049A
:102DE000362201F020FB04EB2152C1F31308B04955
:102DF000A2F2FF33414401F4801282F07F6103EBC1
:102E0000225281F04051009241EA08010022A94B70
:102E100001F0B2F8044608F10200A74EC0F3130017
:102E20000D467E44032867D2D6E90023204600F0F1
:102E300017FF1ED10098002802BFD6E9000110B08C
:102E4000BDE8F08D00F077FF07460C469B4A9C4B8F
:102E500000F088FF06460D469A4A9B4B38462146AD
:102E600000F080FF10B032462B46BDE8F04D00F078
:102E7000E3BC4FF05532954B2046294600F072FFD7
:102E80000022934B01F06CF806460F4622462B4673
:102E90001046194600F066FF32463B4600F062FFDE
:102EA000064600980F46F0B100F045FF80468A467E
:102EB000824A834B00F056FF32463B4601F050F801
:102EC00022462B4601F058F805460C467D4A7E4BBB
:102ED0004046514600F046FF10B02A462346BDE862
:102EE000F04D01F049B80B4610B032462046294655
:102EF000BDE8F04D01F040B800224FF0804320467D
:102F000000F09AFC02460B462046294600F050FD90
:102F100006460F46009800F00EFFCDE90401324648
:102F20003B461046394600F01DFF0C9069480C9A4C
:102F30004044019009910B46104600F013FF824671
:102F4000024665488B46C8F151080B4608F5D7285C
:102F500003217844FFF718FB52465B4600F002FF5E
:102F60000A905E480D9152465B4604217844FFF773
:102F70000BFB099B0C9A00F0F5FE844601980D9B13
:102F800040EA080860460A9A00F056FC8346089119
:102F9000B8F1000F4EDD4FF0FF322046294601F018
:102FA00042FA22462B4600F0DDFE804600988A4613
:102FB00060B3DDE90401414A414B00F0D3FE0991C1
:102FC00000905A4640465146089B00F035FC324678
:102FD0003B4600F0C7FE099B009A00F02DFC4246DC
:102FE000534600F0BDFF22462B4600F0C5FF0446C5
:102FF0000D46DDE90401334A334B00F0B3FE10B057
:1030000022462B46BDE8F04D00F0B6BF5A4640467A
:10301000089B00F011FC32463B4600F0A3FE4246FE
:10302000534600F09DFF10B022462B46BDE8F04D00
:1030300000F096BF009840B3DDE904011F4A204B21
:1030400000F090FE80468A465A4620462946089B54
:1030500000F092FF32463B4600F084FE4246534663
:1030600000F08AFF22462B4600F086FF04460D46FC
:10307000DDE90401134A144B00F074FE10B022463F
:103080002B46BDE8F04D00F077BF0B465A46204670
:10309000294600F071FF32463B4600F063FE10B057
:1030A00022462B46BDE8F04D00F05ABF0000F07FED
:1030B000645F09000000F03F3A170000763C793564
:1030C000EF39EA3D0000E0FE422EE63F5555D53F80
:1030D0000000E03F86EBF9FFD2150000D01500009C
:1030E000FDF792FDFFF781F9FEF7B4FF5D485C49FB
:1030F000002501605C49C0E901154FF48041C0E939
:10310000035145618561C5610562FDF7B9FA08B1F2
:1031100072B6FEE7FFF70AF8FFF72AF8FFF790F814
:10312000FFF75AF8FFF7C8FDDFF840814823002178
:103130004C48D8F80020FFF71DFD4D4C4D49206844
:103140000A6AC2668A6A0267CA6A42678A8FA0F8F8
:1031500078200A6BC0F86620898EA0F86A10414971
:1031600080F87A5036225431FDF773F83D4E5436CC
:10317000F18E2068C18606F12C01CA688263098A33
:103180008187F18FC187112206F140014030FDF7A0
:1031900060F896F85110206880F85110716D416503
:1031A0003D2206F158017C30FDF753F806F1580135
:1031B00011F83D2F206880F8B9204A7880F8BA20AD
:1031C0008A7880F8BB20CA7880F8BC200A7980F819
:1031D000BD204A7980F8BE208A7980F8BF20CA795C
:1031E00080F8C0200A7A80F8C120497A80F8C2109D
:1031F000214E40F8586F10218180204901278160BD
:1032000087811848AC30FEF7B3FB1D48FEF7B0FBD2
:103210001B484838FEF784FB002208213046FFF7A0
:1032200082FBA9464546B046164E3078012807D1A4
:1032300008214046FFF75CFB2968086686F8009085
:10324000206890F87B10012904D000F0A9F92068CB
:1032500080F87B70206890F87A1000F093F8E4E72B
:103260000054004040000020801A06002400002086
:103270003C000020C401002000080140000C014077
:103280007C0100200000002070B50546092040EABE
:103290004110C4B2D3B200222146284600F0A1FA60
:1032A00021462846BDE8704001231A4600F099BA2D
:1032B00038B50D460446FFF741FD172853D129467E
:1032C0002046FFF727FDC4F8C408E8B32946204686
:1032D000FFF70CFDB4F8C418084482B22946204612
:1032E00000F081F829462046FFF700FD0246B4F8B9
:1032F000C40804F1C40380B200902946204600F0BF
:10330000C5F91A4DD4E93101C5E9000128785528DD
:1033100029D1B5F8052004F1CC0105F108000B3ADC
:10332000FCF797FFB5F80510C1340A1905F5806060
:103330001368836092888281B5F80C04A0F52A4254
:10334000AA3A10D1681C00E00DE0091FFFF748FA07
:10335000D5F80814814206D105480068816C491CE3
:103360008164002038BD012038BD000038060020EF
:1033700024000020092242EA41114023C9B201225F
:1033800000F02FBA70B50D460446FFF791FF08B163
:10339000012070BDFFF744FA2946204600F08AF864
:1033A000E16F0020486270BD092242EA41112023EA
:1033B000C9B2012200F015BA1FB50022CDE90012F2
:1033C0000121CDE902126946FDF752F81FBD1FB574
:1033D000002200910121CDE90112022103916946E9
:1033E000FDF746F81FBD70B50646092040EA4110BA
:1033F000C5B21446130A28222946304600F0F1F9D6
:10340000E3B229463046BDE87040292200F0E9B910
:1034100070B50646092040EA4110C5B21446130AA9
:1034200004222946304600F0DCF9E3B22946304652
:10343000BDE87040052200F0D4B970B506460920F9
:1034400040EA4110C5B21446130A242229463046E8
:1034500000F0C7F9E3B229463046BDE870402522A6
:1034600000F0BFB970B50546092040EA4110C4B26A
:1034700003222146284600F0ECF81328F8D170BD4D
:1034800070B50546092040EA4110C4B20322214626
:10349000284600F0DEF81428F8D170BDB0F85C10B2
:1034A000806D0122FDF7E1B8B0F85C10806D00225C
:1034B000FDF7DBB82DE9F843344C0546552004F8F8
:1034C000010B33488846334EB0F80310218030F8A2
:1034D000011F61808079A07130682C4902460B3051
:1034E000A0800E39E81C51F80E3FC5F8C734496872
:1034F000C5F8CB142549074605F2CF400831FCF743
:1035000063FEA18807F2C540091FFFF769F901466C
:10351000C4F807044AF6AA20A4F80B0430681E4B2E
:10352000384400F59062C0F8CC14588BA2F85000D3
:10353000306841460E30C5F8C8082846FFF705FC3C
:10354000B5F8C818084482B241462846FFF775FF0F
:1035500041462846FFF7F9FB0246308805F2C4438E
:10356000113080B200904146284600F055F941469E
:103570002846FFF7FFFE41462846FFF715FFBDE846
:10358000F84304210548FDF768B80000460A00200A
:103590003806002038000020380E002000180140B6
:1035A00010B5044600F000F904F16601204600F071
:1035B000D2F804F17001204600F076F804F17401AD
:1035C000204600F0ABF804F16C01204600F089F8C9
:1035D000B4F8782094F87A102046FFF719FF94F891
:1035E0007A1001222046FFF74FFE94F87A10204609
:1035F000FFF738FF94F87A102046FFF7BAFB94F8EB
:103600007A102046FFF73CFF4FF4FA70FCF71EFFDC
:1036100094F87A102046BDE81040FFF78FBB2DE9E3
:10362000F04115460E460746FFF73EFF4FF0FF34C8
:103630002346032231463846FDF70FFF23462A462C
:1036400031463846FDF75EFE3846BDE8F041FFF7EB
:1036500025BF3EB5044600200190100A8DF80400F5
:103660008DF805208DF806102046FFF71DFF4FF05E
:10367000FF300090042302AA01A92046FDF7A4FF11
:103680002046FFF70BFF9DF80B003EBD30B40C4603
:103690001946182343EA4413029D8B7052BA0A80DC
:1036A0002A4630BCFFF7BBBF70B50C4600250B782F
:1036B00006460122294600F094F863780222294642
:1036C000304600F08EF8A37803222946304600F0F9
:1036D00088F8E37829463046BDE87040042200F0BF
:1036E00080B870B50C4600250B7806460F22294697
:1036F00000F077F8637810222946304600F071F820
:10370000A37811222946304600F06BF8E378294669
:103710003046BDE87040122200F063B870B50C4628
:1037200000250B7806460522294600F05AF86378F2
:1037300006222946304600F054F8A378072229468D
:10374000304600F04EF8E37829463046BDE8704038
:10375000082200F046B870B50C4600250B780646E6
:103760000922294600F03DF863780A2229463046AE
:1037700000F037F8A3780B222946304600F031F8E4
:10378000E3780C222946304600F02BF823790D22ED
:103790002946304600F025F8637929463046BDE8D1
:1037A00070400E2200F01DB810B5012180230022C8
:1037B00000F017F8BDE810406420FCF747BE70B574
:1037C00014460D460646FFF76FFE4FF0FF332246C4
:1037D00029463046FDF741FE3046BDE87040FFF710
:1037E0005DBE38B50446100A8DF800008DF8012042
:1037F00041F004008DF802008DF803302046FFF7F9
:1038000053FE4FF0FF33042269462046FDF725FEA4
:103810002046FFF743FE38BD30B40C46194614234A
:1038200043EA4413029D8B7052BA0A80ED1CAAB27F
:1038300030BCFFF7C4BF000010B591EA030F48BFCA
:1038400083F0004300F1A083841A71EB030C05D2CE
:10385000121943EB0C03001B61EB0C01DFF824E1B0
:103860004FEA1154A4EB135C1EEA430F18BF9EEA03
:10387000445F73D023EA0E03DCF1200E21EA0451E9
:1038800043F4801332D322FA0CFE10EB0E0023FA1D
:103890000CFE41EB0E01CCF1200E03FA0EFE10EBF4
:1038A0000E0051F10001B1F5801FCCF1200E32D293
:1038B00001EB045112FA0EF2BDE8104058BF7047F8
:1038C000401C38BF5FEA420218BF7047002814BF8F
:1038D00020F0010041F100014FEA410313F5001F00
:1038E00038BF7047A1F1C04100F034BB012A43EB5F
:1038F0000302ACF1200CDCF11F0E32BF4FF0000EC2
:1039000023FA0CF310EB030041EB0451B4EB115F0D
:10391000D0D0A1EB045101F5801149085FEA3000D5
:1039200001EB04510ED350F1000038BF12FA0EFE25
:1039300008D1BDE81040C9E7401C38BF5FEA420229
:10394000CAD1C3E7BDE810404FEA410313F5001F99
:1039500038BF7047A1F1C04100F0FCBA9EEA445F55
:1039600008D011EA5E0FBDE8104004BF01F000412D
:1039700000207047BDE8104070B500F09DFA00BF10
:1039800064FBBE3E0000E0FF02494FF0000000F083
:1039900018BD00BF0000F87F491058BFC1F1404179
:1039A0005B1058BFC3F140438B42EFF30080704778
:1039B0002DE9C04130B4DFF8A0C23CEA111418BFB1
:1039C0003CEA131400F0EC8081EA03051CEA1114B0
:1039D00044EAD57418BF1CEA131500F0C780A4EBA5
:1039E00005044FF0004545EAC12145EAC32341EAF9
:1039F000505143EA525304F17F74994204F5003464
:103A00004FEAC0204FEAC22208BF904200F09C80DB
:103A10004FEA13650FF24016765D4FEA134506FB39
:103A200005F7C7F1807706FB07F74FEAD737A7FB03
:103A300003687642C8F58038A7FB06CE38BFA8F1E8
:103A4000010807FB08E64FF0000EA6FB028CE6FB20
:103A500003CEDCF1000CCEF1004E38BFAEF1010E0A
:103A6000A6FB0C584FF000074FF00005E6FB0E8751
:103A7000A1FB08C6A0FB07CE16EB0E0645F100051C
:103A8000E1FB076515F1E04E7EBFA4F580345FEAE7
:103A900046066D4116F1800745F100054FEA1727EC
:103AA0004FEA066647EA0567A6F1DE46B6F1805F93
:103AB0004FEA15251FD9384624F0010C05EBC471D7
:103AC000BCF1FE6F01EB0C1102D8F0BCBDE8008127
:103AD00024425CBF01F5801E9EEAC47F02D4F0BC84
:103AE000BDE80081244238D4F0BCA1F1C041BDE85A
:103AF000004100F02FBA4FEAD22242EA43524FEA85
:103B0000D323A7FB02864FEAD02040EA415007FBAF
:103B100003661EEA0E0F4FEAD12105FB026658BF6D
:103B2000A6EB0056B6EB00564FEA520E4EEAC37EA5
:103B300018EB0E0E56EB530EBDD518EB02085E4186
:103B40007F1C55F10005B6E74FF480154FF00007D4
:103B50004FF000064FF00008ADE7F0BC4FF000005A
:103B600001F1C04101F00041BDE8008111EA0C1FE4
:103B70000CEA131500D00CE013EA0C1F00F02580AE
:103B80004FF00000F0BC81EA030101F00041BDE804
:103B90000081F0BCBDE8004181EA030100F0DAB920
:103BA000F0BCBDE8004170B500F086F9097EFC3E2E
:103BB00000F007B881EA03014FF0000001F0004176
:103BC000704781EA030100F0C5B9F0BCBDE80041CF
:103BD0004FF0000021497047FFFDFBF9F7F5F4F2C3
:103BE000F0EEEDEBE9E8E6E4E3E1E0DEDDDBDAD898
:103BF000D7D5D4D3D1D0CFCDCCCBCAC8C7C6C5C4F6
:103C0000C2C1C0BFBEBDBCBBBAB9B8B7B6B5B4B30C
:103C1000B2B1B0AFAEADACABAAA9A8A8A7A6A5A4F7
:103C2000A3A3A2A1A09F9F9E9D9C9C9B9A999998BB
:103C30009797969595949393929191908F8F8E8E5E
:103C40008D8C8C8B8B8A89898888878786858584EB
:103C500084838382828181800000FF070000F87FD7
:103C600051EA030C17D41CF5801F58BFBCF5801F08
:103C700000F10680994218BF704708BF9042704714
:103C800007D711F5801F58BF13F5801F19D499422B
:103C90007047894270471CF5801F08D5BCF5801F0E
:103CA000F7D58B4218BF704708BF824270474FF468
:103CB000001C1CEB410F38BF1CEB430F01D28B42A1
:103CC000704770B500F0F8F8922449004FF00051A9
:103CD0004FF08053FFF760BE4FEA41034FEA535362
:103CE000A3F58063D3F11E03C8BFD3F1210C0CDD13
:103CF0004FF0004242EAC12242EA505232FA03FC3B
:103D00008CEAE17CACEBE1707047102BC4BF002063
:103D1000704703F5787CBCF1FF3F04D06FF00042A0
:103D200082EA2100704770B500F0C6F849922480FD
:103D300000207047F2E710F0004248BF4042B0FA5E
:103D400080F310FA03F10AD0C3F11D0303F5806379
:103D50004FEA415002EB035202EBD12170474FF082
:103D600000007047DFF848C170B51CEA111E1EBF85
:103D70001CEA13159EEA0C0F95EA0C0F00F06F80F9
:103D800081EA030423EA4C134EEAD47E21EA4C1163
:103D900041F4801143F48013AE44A1FB024CA0FB1C
:103DA0000365AEF17F7E361955EB0C05A1FB034C84
:103DB0004CF10003A0FB021C16EB0C06654153F10D
:103DC0000003094218BF46F0010613F4007F0BD12F
:103DD0004FEA03314FEA0530340341EA155140EA16
:103DE00016506FF003020AE04FEAC3214FEAC520E4
:103DF000F40241EA555140EA56506FF0020202EBDC
:103E00002E4201EB025585EACE710AD05FEA440CDE
:103E100018BF24F0004450F1000041F1000120EAF5
:103E2000D47040F2FE7C624500D270BDA84214BF3F
:103E30004FF080444FF04044002E08BF0024BEF1F4
:103E4000806FA8BFA1F1C041BDE8704080F28280C0
:103E50004FF0000001F1C04101F0004170479EEABF
:103E60000C0F0CEA131518BF95EA0C0F06D04FF093
:103E7000000081EA030E0EF0004170BD00F01CF856
:103E80008900013E00F007B800F009B84FEA430C82
:103E90005FEA5C5C08D081EA030100F05BB84FEA9E
:103EA000410C5FEA5C5CF6D14FF0000001497047BD
:103EB0000000FF070000F87F0EF1020E2EF0030E47
:103EC0005EF8046B364205D4012A43EB030515F571
:103ED000001F12D8012841EB010C1CF5001F0CD863
:103EE0000ED14FEAD17C15F5001F0CEB4C0C0CF1F8
:103EF000020C08BF4CEBD37C04E04FF0080C01E04F
:103F00004FEAD37C0CEB4C0526FA05F606F00706C3
:103F1000B6F1040C06D20EEB860CBDE870404CF0F6
:103F2000010C6047DFE80CF0090B02024FF0004182
:103F30004FF00000A1F5002170BD19461046012880
:103F400051EB010418BFD4F5001484BF002001F028
:103F5000004170BD0808A0F500114FEA310170471B
:103F600091EA030F10B581F000413FF56DAC83F08D
:103F7000004300F009B8000010B591EA030F48BFF4
:103F800083F000433FF560AC841A71EB030C07D259
:103F900012198CF0004C43EB0C03001B61EB0C017D
:103FA000DFF8A4E14FEA1154A4EB135C1EEA430FBF
:103FB00018BF9EEA445F00F0B08023EA6E035242CD
:103FC00021EA0451C3EB6E0338BF5B1EDCF1200E07
:103FD00025D322FA0CFE10EB0E0043FA0CFE41EB47
:103FE0000E01CCF1200E03FA0EFE10EB0E0051F183
:103FF0000001CCF1200E29D412FA0EF201EB04518B
:10400000BDE8104058BF7047401C1CBFB2F1004FC4
:10401000704700280CBF491C20F00100704712EBCC
:10402000020E43EB030218BF4FF0010E4EEA4202AC
:10403000ACF1200CDCF11E0E54D943FA0CFE10EB4F
:104040000E0051F1FF31CCF11E0ED5D50EF1010E4F
:1040500012FA0EFE404141EB010101EB445C5FEAC4
:104060005C5C10D910EBDE7001EB045138BFBEF17F
:10407000004FBDE8104018BF704700280CBF491C16
:1040800020F00100704730D24FEAD42C11F5001116
:1040900024F400641BD0B1FA81F20B3AA41AA41ED6
:1040A000D2F12003914030FA03F31943904001EB21
:1040B000CC71002C01EB0451BDE81040A8BF704743
:1040C00001F1C0414FF0000001F000417047B0FA2B
:1040D00080F310FA03F100D110BDE41A173C480533
:1040E000C90AE4E701EB045110BD491001EB04518A
:1040F000BDE810404FEA300002E04FF00001704789
:104100004A0008BF0042F8D0B2F5001F28BF704730
:1041100001F000414FF0000070479EEA445F07D075
:1041200011EA5E0FBDE8104004BF00210020704777
:10413000BDE8104070B5FFF7BFFE00BF40DFF63EA0
:1041400083F00041104670470000E0FF90EA010F45
:1041500048BF81F0004100F1C680421A3CBF801A7E
:1041600089184FEAD0524FF07F4C1CEA410FA2EB66
:10417000D15318BF9CEA026F00F03B804FF0004C17
:104180004CEA00204CEA012121FA03FC10EB0C0C54
:104190001ED202F1FF325FEA1C2040EBC25038BF52
:1041A00070471CF07F0F4FEA400C18BFBCF17F4FE7
:1041B00038BF7047C3F12003994008BF20F00100C9
:1041C000BCF17F4F38BF7047A0F1C04000F07FB80E
:1041D0004FEA3C00000A40EBC25028BF1CF0FF0F22
:1041E0004FEA400CE6D018BFBCF17F4F38BF704794
:1041F000EAE79CEA026F05D010EA5C0F08BF00F006
:104200000040704710B500F01CF800BF64FBBE3ED4
:10421000014800F0D6B800BF0000C07FB0FA80F3BC
:1042200010FA03F2C3F19D030AD0D90501EB122065
:10423000530638BF704700F1010008BF20F00100AD
:1042400070470EF1020E2EF0030E5EF8044B24426E
:1042500004D44FEA4102B2F17F4F11D84FEA400334
:10426000B3F17F4F0CD80ED14FEAD07CB2F17F4F23
:104270000CEB4C0C0CF1020C08BF4CEBD17C04E0B5
:104280004FF0080C01E04FEAD17C0CEB4C0324FA10
:1042900003F404F00704B4F1040C06D20EEB840C12
:1042A000BDE810404CF0010C6047DFE80CF0070857
:1042B00002024FF00040A0F5800010BD0846420009
:1042C00018BFD2F1807288BF00F0004010BDFF21FE
:1042D00041EAD050C005704790EA010F48BF81F015
:1042E00000413FF53AAF421A04D882F00042A0EBF9
:1042F000020011444FEAD0524FF07F4C1CEA410FAC
:10430000A2EBD15318BF9CEA026F4AD04FF0004C89
:104310004CEA00204CEA012121FA03FCB0EB0C0C22
:104320000FD412F0FE0F36D05FEA4C001DD50012FC
:1043300040EBC25038BF70471CF03F0F18BF7047AA
:104340000BE0A2F101025FEA1C2040EBC25038BF33
:1043500070471CF07F0F18BF7047C3F120039940CE
:1043600014BF401E20F00100704780084FEA12235E
:1043700008BF7047B0FA80FCA2EB0C02CCF1280C0D
:1043800060FA0CF093EA122F04BF00EBC2507047A2
:104390004FEAC3707047130A5FEADC1008BF70472A
:1043A000F6E79CEA026F04D010EA5C0F08BF002019
:1043B000704710B5FFF745FF40DFF63E81F0004043
:1043C00070470CF00F03092B08BF082000F07F8016
:1043D0000A2B0BD0082B18BF704708BF1CF0400FEA
:1043E0000AD04FF000004FF0000170471CF0400F62
:1043F00018BF4FF0004070471CF0100F08D020F09D
:10440000704300F07F4242EAD3014FEA43707047A5
:1044100000F0604021F07F4242EA000201F07F405C
:1044200040EA727070474FF0FF0C4CF4E06C1CEAED
:1044300011531CBF9CEA030C9445C2BFDA4201EB46
:1044400002517047002B0DD0BCF1000F0FD0002A95
:1044500001F00041A4BF41F0E04141F07F614FF025
:104460000000704701F000414FF00000704750EA33
:1044700001334FF09B0C18BF4CF0806C7FF484AA82
:1044800070474FF0FF0212EAD0521CBF92F0FF03B8
:104490008B42C2BFD14200EBC1507047002A0AD004
:1044A000002B0BD0002900F00040A4BF40F0FE40DC
:1044B00040F40000704700F00040704743024FF0A6
:1044C0000B0C18BF4CF0806C7FF4A2AE70471CF44C
:1044D000801F11D01CF4E02F03D06FEACC314900CB
:1044E00070474FF04050EFF3008222F0704242EAF2
:1044F000000282F3008870474FF00000704701020D
:1045000002030405060708090A0B0C0D0E0F101014
:104510000000000000000000010203040607080973
:10452000000000000102030404FA97999999D93F09
:10453000AF788E1DC571CC3F9FC678D0099AC33F16
:10454000935555555555E53F599322942449D23FEB
:10455000DE03CB966446C73F44523EDF12F1C23FB2
:104560000000000000000000884500080000002056
:104570004000000028010008C84500084000002055
:10458000401D00004401000800C0A80121C0A8018E
:1045900021C0A80101FFFFFF00001542BFF033005A
:1045A0001542BFF0330000001F140000C4010020BA
:1045B0000100000010000000000000000024F400D2
:0845C00000000000540E002071
:04000005080000ED02
:00000001FF
