:020000040800F2
:10000000E81D002029020008712F00087126000851
:100010006D2F0008D3050008C5350008000000005A
:100020000000000000000000000000005131000846
:10003000D705000800000000752F000853310008A4
:10004000430200084302000843020008430200087C
:10005000430200084302000843020008430200086C
:10006000430200084302000843020008430200085C
:10007000430200084302000843020008430200084C
:10008000430200084302000843020008430200083C
:10009000430200084302000843020008430200082C
:1000A000430200084302000843020008430200081C
:1000B00025320008430200084302000843020008FA
:1000C00043020008430200084302000843020008FC
:1000D00043020008430200084302000843020008EC
:1000E00043020008430200084302000843020008DC
:1000F00043020008430200084302000843020008CC
:1001000043020008430200084302000843020008BB
:1001100043020008430200084302000843020008AB
:10012000430200084302000843020008430200089B
:10013000430200084302000843020008430200088B
:10014000430200084302000843020008430200087B
:10015000430200084302000843020008430200086B
:10016000430200084302000843020008430200085B
:100170004302000843020008430200080000000098
:10018000430200084302000800F002F800F03CF8C7
:100190000AA090E8000C82448344AAF10107DA45E2
:1001A00001D100F031F8AFF2090EBAE80F0013F0F8
:1001B000010F18BFFB1A43F0010318470C5200004F
:1001C0002C520000103A24BF78C878C1FAD85207E0
:1001D00024BF30C830C144BF04680C6070470000C1
:1001E0000023002400250026103A28BF78C1FBD840
:1001F000520728BF30C148BF0B6070471FB505F0DC
:10020000AFF81FBD10B510BD00F0AEF91146FFF7F5
:10021000F5FF03F0E9FF00F0CCF903B4FFF7F2FFBC
:1002200003BC00F0CFF900000948804709480047A7
:10023000FEE7FEE7FEE7FEE7FEE7FEE7FEE7FEE796
:10024000FEE7FEE704480549054A064B70470000F3
:100250001132000889010008E8170020E81D00207D
:10026000E8190020E819002053EA020C00F0698028
:100270002DE9F04B4FF00006002B1FBFB3FA83F5BA
:1002800003FA05F424FA05F65E4012BF1643B2FAEB
:1002900082F502FA05F4C5F120051EBF22FA05FC1D
:1002A00044EA0C04203556EA044C4FEA144418BFC3
:1002B000641C4FF000084FF00009904271EB030CF2
:1002C00039D3002919BFB1FA81F701FA07F6B0FA5C
:1002D00080F700FA07F6C7F120071EBF20FA07FCD7
:1002E00046EA0C062037B6FBF4FCA7EB0507103FE7
:1002F00007F01F0BCBF120060CFA0BFB2CFA06F6CD
:1003000044BFB3460026202FA4BF5E464FF0000B2B
:100310005BEA060C08BF4FF0010B19EB0B09ABFBB6
:10032000027C48EB0608C01B06FB02CC0BFB03CC8F
:1003300071EB0C01C1E70B46024641464846BDE859
:10034000F08B13B54FF000004FF00001AFF30080C9
:10035000BDE81C407047032A40F2308010F0030CC7
:1003600000F0158011F8013BBCF1020F624498BF08
:1003700011F801CB00F8013B38BF11F8013BA2F1A5
:10038000040298BF00F801CB38BF00F8013B11F020
:10039000030300F02580083AC0F0088051F8043BC0
:1003A000083A51F804CBA0E80810F5E7121D5CBF2D
:1003B00051F8043B40F8043BAFF30080D20724BF60
:1003C00011F8013B11F801CB48BF11F8012B24BFF4
:1003D00000F8013B00F801CB48BF00F8012B704743
:1003E00010B5203AC0F00B80B1E81850203AA0E8D0
:1003F0001850B1E81850A0E81850BFF4F5AF5FEA04
:10040000027C24BFB1E81850A0E8185044BF18C9B6
:1004100018C0BDE810405FEA827C24BF51F8043B5D
:1004200040F8043B08BF7047D20728BF31F8023BB1
:1004300048BF11F8012B28BF20F8023B48BF00F845
:10044000012B704702F0FF0343EA032242EA024213
:1004500000F062B84FF0000200B51346944696468D
:10046000203922BFA0E80C50A0E80C50B1F12001C7
:10047000BFF4F7AF090728BFA0E80C5048BF0CC075
:100480005DF804EB890028BF40F8042B08BF7047D3
:1004900048BF20F8022B11F0804F18BF00F8012B45
:1004A000704710B5044610F0030F08BF11F0030F9A
:1004B00040F015804FF0013E121FC0F20E8051F83F
:1004C000043BA3EB0E0C2CEA030C1CEACE1C08BF69
:1004D00040F8043BF0D0A1F1040102F10402521EE5
:1004E00008DB11F8013B002B00F8013BF7D1114666
:1004F00000F010F8204610BD70477047704710B5E7
:1005000000F02AF8006810BD10B5044600F024F889
:10051000046010BD4FF000020429C0F0128010F0FA
:10052000030C3FF499AFCCF1040CBCF1020F18BFDF
:1005300000F8012BA8BF20F8022BA1EB0C01FFF75C
:100540008BBF5FEAC17C24BF00F8012B00F8012BB0
:1005500048BF00F8012B70470048704788170020FB
:1005600000487047881700207546FFF7F9FFAE4630
:1005700005006946534620F00700854618B020B5AF
:10058000FFF760FEBDE820404FF000064FF0000787
:100590004FF000084FF0000B21F00701AC46ACE82B
:1005A000C009ACE8C009ACE8C009ACE8C0098D4698
:1005B000704710B50446AFF300802046BDE81040F8
:1005C000FFF72BBE01491820ABBEFEE72600020054
:1005D000704700BFFEE7704772B600BFFEE700003D
:1005E00070B5044600F01AF906462546681C10B19D
:1005F00004480078054400BF00F010F9801BA842B1
:10060000FAD370BD34000020F8B502460B46002531
:10061000002400200021D6E0012606FA01F51E681C
:1006200006EA0504AC4274D11E7906F00306012ED9
:1006300004D01E7906F00306022E13D190684F00F5
:100640000326BE40B0434F00DE68BE40304390609A
:10065000506801268E40B0431E79C6F300168E40C6
:10066000304350601E7906F00306032E09D0D0688F
:100670004F000326BE40B0434F009E68BE4030434B
:10068000D0601E7906F00306022E13D1CF0802F1C6
:10069000200656F827004E07F70E0F26BE40B0433F
:1006A0004F07FF0E1E69BE403043CF0802F12006FF
:1006B00046F8270010684F000326BE40B0431E795D
:1006C00006F003064F00BE40304310605E6806F43B
:1006D0004036002E76D000BF002600963C4E36688D
:1006E00046F480463A4F3E603E46366806F4804601
:1006F000009600BF00BF374E8F0856F827008E07C0
:10070000370F0F26BE40B043334EB24202D100260F
:1007100024E057E0314EB24201D101261EE0304EB6
:10072000B24201D1022619E02E4EB24201D1032677
:1007300014E02D4EB24201D104260FE02B4EB242FE
:1007400001D105260AE02A4EB24201D1062605E073
:10075000284EB24201D1072600E008268F073F0F3E
:10076000BE4030431B4E8F0846F82700224E3068AB
:10077000A0435E6806F4801606B120431E4E30602A
:10078000361D3068A0435E6806F4001606B12043AB
:10079000194E361D3060184E361F3068A0435E6813
:1007A00006F4003606B12043134E361F3060361F64
:1007B0003068A0435E6806F4803606B120430E4ED2
:1007C000083E3060491C1029FFF426AFF8BD000038
:1007D0004438024008380140000002400004024052
:1007E00000080240000C02400010024000140240C9
:1007F00000180240001C0240083C014010B542694C
:1008000021EA020302EA010443EA0443836110BDC2
:100810000AB1816101E00B048361704701480068FF
:10082000704700002C00002070B504460CB9012070
:1008300070BD94F83D0028B9002084F83C002046A3
:1008400000F006FB242084F83D002068006820F0BA
:100850000100216808602068006840F400402168B9
:1008600008602068006820F400402168086000F0FB
:10087000D1FC05465C496068884206D85B488542E1
:1008800001D2012007E0002005E05948854201D24D
:10089000012000E00020012800D1C9E75548B5FB40
:1008A000F0F62068406820F03F003043216848603F
:1008B0004D496068884201D8701C07E04FF496707B
:1008C00070434FF47A71B0FBF1F0401C2168096A63
:1008D00021F03F010843216808624349606888426B
:1008E00014D8681E61684900B0FBF1F0401CC0F3E9
:1008F0000B00042801D204203DE0681E6168490015
:10090000B0FBF1F0401CC0F30B0034E0A06838B934
:10091000681E616801EB4101B0FBF1F0401C0AE088
:10092000681E616801EBC10202EB0111B0FBF1F03E
:10093000401C40F48040C0F30B0008B901201AE0CD
:10094000A06848B9681E616801EB4101B0FBF1F095
:10095000401CC0F30B000CE0681E616801EBC10293
:1009600002EB0111B0FBF1F0401CC0F30B0040F4AE
:10097000804040F400402168C9694CF6FF72914301
:1009800008432168C861D4E9070108432168096860
:1009900021F0C001084321680860D4E9031008432E
:1009A0002168896848F2FF329143084321688860D2
:1009B000D4E9050108432168C96821F0FF01084313
:1009C0002168C8602068006840F001002168086064
:1009D00000202064202084F83D000020206384F85B
:1009E0003E0000BF24E70000A086010080841E00B6
:1009F00000093D0040420F002DE9FC5F04460F4610
:100A000090469946DDE90CAB0E9EFFF707FF0546C1
:100A100094F83D00202870D119230122B0492046C6
:100A2000009501F095FF10B10220BDE8FC9F00BFCA
:100A300094F83C00012801D10220F6E7012084F857
:100A40003C0000BF2068006800F0010028B9206861
:100A5000006840F00100216808602068006820F408
:100A6000006021680860222084F83D00402084F85E
:100A70003E0000202064C4F824A0A4F82AB0608DB1
:100A800020859848E0624B46424639462046CDE9EB
:100A9000006501F00FFE08B10120C6E7208D88B97E
:100AA00000BF0020019020684069019020688069A3
:100AB000019000BF00BF2068006840F4007021680A
:100AC000086040E0208D012818D12068006820F4DB
:100AD00080602168086000BF0020019020684069A4
:100AE000019020688069019000BF00BF2068006805
:100AF00040F400702168086025E0EFE0208D0228B6
:100B000016D12068006820F48060216808602068A1
:100B1000006840F400602168086000BF0020019078
:100B200020684069019020688069019000BF0AE058
:100B300000BF002001902068406901902068806912
:100B4000019000BF00BFBAE0208D03287ED8208D21
:100B5000012815D12A463146204601F09EFF08B1F2
:100B6000012062E720680069616A0870606A401CC1
:100B70006062208D401E2085608D401E60859EE055
:100B8000208D02282AD1334600225749204600955D
:100B900001F0DEFE08B1012047E72068006840F45C
:100BA00000702168086020680069616A0870606AE6
:100BB000401C6062208D401E2085608D401E608537
:100BC00020680069616A0870606A401C6062208D5C
:100BD000401E2085608D401E608570E033460022F7
:100BE00041492046009501F0B3FE08B101201CE701
:100BF0002068006820F4806021680860206800692F
:100C0000616A0870606A401C6062208D401E208509
:100C1000608D401E60853346002233492046009592
:100C200001F096FE08B10120FFE62068006840F45C
:100C300000702168086020680069616A0870606A55
:100C4000401C6062208D401E208500E010E0608D19
:100C5000401E608520680069616A0870606A401CF7
:100C60006062208D401E2085608D401E608526E0DC
:100C70002A463146204601F010FF08B10120D4E693
:100C800020680069616A0870606A401C6062208D9B
:100C9000401E2085608D401E608520684069C0F33D
:100CA000800060B120680069616A0870606A401C59
:100CB0006062208D401E2085608D401E6085208DE5
:100CC00000287FF441AF202084F83D00002084F804
:100CD0003E0000BF84F83C0000BFA6E60220A4E668
:100CE000020010000000FFFF040001002DE9FC5F7E
:100CF00004460F4690469946DDE90CAB0E9EFFF781
:100D00008DFD054694F83D0020287DD11923012250
:100D10004D492046009501F01BFE10B10220BDE8B0
:100D2000FC9F00BF94F83C00012801D10220F6E7A7
:100D3000012084F83C0000BF2068006800F001003A
:100D400028B92068006840F0010021680860206828
:100D5000006820F4006021680860212084F83D00CC
:100D6000402084F83E0000202064C4F824A0A4F8A9
:100D70002AB0608D20853548E0624B4642463946B0
:100D80002046CDE9006501F045FD08B10120C6E728
:100D900031E02A463146204601F0BFFE50B1206CBA
:100DA000042805D12068006840F4007021680860BC
:100DB0000120B4E7606A007821680861606A401C1D
:100DC0006062208D401E2085608D401E60852068F9
:100DD0004069C0F3800070B1208D60B1606A007816
:100DE00021680861606A401C6062208D401E208579
:100DF000608D401E6085208D0028CAD12A4631466C
:100E0000204601F077FD00E01CE050B1206C042882
:100E100005D12068006840F4007021680860012056
:100E20007DE72068006840F4007021680860202099
:100E300084F83D00002084F83E0000BF84F83C00A8
:100E400000BF6CE702206AE7020010000000FFFF0D
:100E500010B586B00446142101A8FFF7FBFA1B4920
:100E6000206888422FD100BF0020009018480068F9
:100E700040F00200164908600846006800F00200D1
:100E8000009000BF00BFC0200190122002900120FE
:100E90000390032004900420059001A90D48FFF75A
:100EA000B3FB00BF0020009009481030006840F4F8
:100EB00000100749103108600846006800F400106F
:100EC000009000BF00BF06B010BD000000540040FD
:100ED00030380240000402400348006803490978A2
:100EE00008440149086070472C00002034000020AD
:100EF00010B50D48006840F400700B4908600846C2
:100F0000006840F4806008600846006840F4807023
:100F10000860032000F0A2F80F2000F007F800F0AE
:100F20002BF8002010BD0000003C024070B50446C4
:100F30000E4800784FF47A71B1FBF0F00C49096863
:100F4000B1FBF0F5284601F00BF808B1012070BDA7
:100F5000102C07D200222146501E00F041F805480F
:100F6000046001E00120F2E70020F0E734000020F7
:100F7000380000203000002008B500BF002000909D
:100F80000E48006840F480400C490860084600683C
:100F900000F48040009000BF00BF00BF0020009020
:100FA000081F006840F08050091F0860084600686C
:100FB00000F08050009000BF00BF08BD44380240E0
:100FC00001460846002809DB00F01F0301229A4071
:100FD00043099B0003F1E023C3F8002100BF7047E1
:100FE0002DE9F05F80460D461646002702F0ECFA28
:100FF000074639462A46334601F00700C0F1070A82
:10100000BAF1040F02D94FF0040A01E0C0F1070A57
:10101000D14600F1040ABAF1070F02D24FF0000ADC
:1010200001E0A0F1030AD4464FF0010A0AFA09FAD6
:10103000AAF1010A0AEA020A0AFA0CFA4FF0010BB5
:101040000BFA0CFBABF1010B0BEA030B4AEA0B04A6
:101050002146404602F0C0FABDE8F09F00BF00F014
:101060000702064B19684FF6FF031940044B0B4368
:1010700043EA0221014B196000BF70470CED00E00C
:101080000000FA0570B504460D460CB9012070BD8C
:101090005848006800F00700A84209D255490D7071
:1010A0000846006800F00700A84201D00120EEE7E2
:1010B000207800F0020002281DD1207800F0040002
:1010C000042805D14C48006840F4E0504A490860C3
:1010D000207800F00800082805D14748006840F44F
:1010E0006040454908604448006820F0F000A1686D
:1010F000084341490860207800F00100A8B3606807
:10110000012807D13C4808380068C0F34040B8B90E
:101110000120BCE76068022802D06068032807D17C
:10112000354808380068C0F3406048B90120AEE790
:10113000314808380068C0F3400008B90120A6E72C
:101140002D48006820F00300616808432A490860C0
:10115000FFF764FB064609E0FFF760FB801B41F2E6
:101160008831884202D9032091E707E022480068CD
:1011700000F00C006168B0EB810FEDD11D480068F4
:1011800000F00700A84209D91A490D700846006806
:1011900000F00700A84201D0012078E7207800F095
:1011A0000400042807D11448006820F4E050E168E6
:1011B000084311490860207800F00800082808D189
:1011C0000D48006820F46040216940EAC1000A49E6
:1011D000086000F03FF808490968C1F30311074AA5
:1011E000515CC8400649086006480068FFF79EFE4B
:1011F00000204CE7003C0240083802406A530008D7
:1012000038000020300000200148006870470000CE
:101210003800002000B5FFF7F7FF04490968C1F363
:101220008221034A515CC84000BD000008380240DA
:101230007A53000800B5FFF7E7FF04490968C1F3D6
:101240004231034A515CC84000BD000008380240EA
:101250007A5300082DE9F047002400250026A14616
:101260002548006800F00C0020B1042805D00828AB
:101270003AD105E0DFF8849039E0DFF8849036E079
:101280001D48001F006800F03F041B48001F006855
:1012900000F4800078B11A481749091F0968C1F3A2
:1012A0008811A0FB01700146224600233846FEF754
:1012B000DBFF05460EE011480F49091F0968C1F31D
:1012C0008811A0FB01700146224600233846FEF734
:1012D000CBFF05460848001F0068C0F30140401CD2
:1012E0004600B5FBF6F902E0DFF8109000BF00BF42
:1012F0004846BDE8F0870000083802400024F400AA
:1013000000127A00F8B504460CB90120F8BD207827
:1013100000F00100002874D0F948006800F00C00CB
:1013200004280DD0F648006800F00C00082813D1FE
:10133000F348001F006800F48000B0F5800F0BD167
:10134000EF4808380068C0F34040002859D0606872
:10135000002856D10120D9E700BF6068B0F5803F72
:1013600008D1E7480838006840F48030E44908397B
:1013700008601EE06068B0F5A02F0DD1E048083885
:10138000006840F48020DE4908390860084600689B
:1013900040F4803008600CE0D9480838006820F438
:1013A0008030D749083908600846006820F480205A
:1013B000086000BF606890B1FFF730FA054606E0AC
:1013C000FFF72CFA401B642801D903209EE7CC4884
:1013D00008380068C0F340400028F1D011E0FFF762
:1013E0001DFA054606E0FFF719FA401B642801D9EB
:1013F00003208BE7C24808380068C0F3404000284B
:10140000F1D1207800F0020002285FD1BC480068CA
:1014100000F00C0058B1BA48006800F00C00082831
:101420001CD1B748001F006800F48000B0B9B44870
:1014300008380068C0F3400020B1E068012801D0FE
:10144000012063E7AE480838006820F0F800216901
:1014500040EAC100AA490839086037E0E06800B3F3
:101460000120A8490860FFF7D9F9054606E0FFF713
:10147000D5F9401B022801D9032047E7A0480838C6
:101480000068C0F340000028F1D09D48083800688B
:1014900020F0F800216940EAC10099490839086044
:1014A00014E0002097490860FFF7B8F9054606E008
:1014B000FFF7B4F9401B022801D9032026E7904822
:1014C00008380068C0F340000028F1D1207800F00F
:1014D000080008282CD16069A8B101208A49086059
:1014E000FFF79CF9054606E0FFF798F9401B022834
:1014F00001D903200AE782486C300068C0F340003D
:101500000028F1D014E000207F490860FFF786F939
:10151000054606E0FFF782F9401B022801D90320A7
:10152000F4E677486C300068C0F340000028F1D141
:10153000207800F00400042870D10027704838306B
:10154000006800F0805090B900BF002000906C4807
:101550003830006840F080506949383108600846EA
:10156000006800F08050009000BF00BF012767486E
:10157000006800F48070B0B96448006840F480707E
:1015800062490860FFF74AF9054606E0FFF746F9A9
:10159000401B022801D90320B8E65C48006800F42B
:1015A00080700028F2D000BFA068012808D15448FC
:1015B0006830006840F001005149683108601DE062
:1015C000A06805280DD14E486830006840F004003E
:1015D0004B49683108600846006840F00100086027
:1015E0000CE047486830006820F001004449683149
:1015F00008600846006820F00400086000BFA0688A
:10160000A8B1FFF70BF9054609E0FFF707F9401B02
:1016100041F28831884202D9032077E626E0384833
:1016200068300068C0F340000028EED013E0FFF7F8
:10163000F5F8054608E0FFF7F1F8401B41F2883164
:10164000884201D9032061E62D4868300068C0F364
:1016500040000028EFD1012F07D129483830006819
:1016600020F0805026493831086000BFA06900286A
:1016700045D02348006800F00C0008285DD0A06920
:10168000022845D100201F490866FFF7C7F8054624
:1016900006E0FFF7C3F8401B022801D9032035E616
:1016A000174808380068C0F340600028F1D1D4E939
:1016B00007010843616A40EA81110122A06AC2EB76
:1016C000500041EA00412C20005D41EA00600C49D5
:1016D000091F086001200B490866FFF79FF80546BF
:1016E00006E0FFF79BF8401B022801D903200DE616
:1016F000034808380068C0F340600028F1D049E092
:101700000838024000004742800E47420070004007
:10171000002021490866FFF781F8054606E0FFF73B
:101720007DF8401B022801D90320EFE51B48006823
:10173000C0F340600028F2D12CE0A069012800D15C
:10174000E4E51648001D0668A069012820D006F4CB
:101750008001E06981421BD106F03F01206A81428D
:1017600016D147F6C0703040616AB0EB811F0FD1CF
:1017700006F440310122A06AC2EB5000B1EB004FE9
:1017800006D106F070612C20005DB1EB006F01D036
:101790000120BBE50020B9E50000474200380240C7
:1017A00010B504460CB9012010BD606A38B96068F4
:1017B000B0F5827F00D105E00021E16102E0002167
:1017C000216161610021A16294F8510028B90020D3
:1017D00084F85000204600F047F8022084F85100B9
:1017E0002068006820F0400021680860A08800F4AC
:1017F0008270218901F404410843A18901F4006148
:101800000843217C01F002010843217D01F0010120
:101810000843218B01F400710843217F01F0380156
:1018200008432021095D01F080010843218D01F466
:1018300000510843216808600421A06901EA1040B2
:1018400094F8241001F010010843216848602068D2
:10185000C06920F400602168C86100206065012033
:1018600084F8510000209FE710B586B0044614218B
:1018700001A8FEF7EFFD61492068884230D100BF22
:10188000002000905E48006840F480505C49086089
:101890000846006800F48050009000BF00BF00BF01
:1018A0000020009056481438006840F00100544968
:1018B000143908600846006800F00100009000BF7D
:1018C00000BFE0200190022002900020039002203F
:1018D00004900520059001A94A48FEF795FE8BE08B
:1018E00049492068884250D100BF002000904448F8
:1018F000001F006840F480404149091F0860084605
:10190000006800F48040009000BF00BF00BF0020CE
:1019100000903B481438006840F0040038491439FE
:1019200008600846006800F00400009000BF00BF97
:1019300000BF002000900846006840F002000860E8
:101940000846006800F00200009000BF00BF0C20B5
:1019500001900220029000200390022004900520B4
:10196000059001A92948FEF74FFE4FF480600190D1
:101970000220029000200390022004900520059090
:1019800001A92348FEF740FE36E02249206888423C
:1019900032D100BF002000901948001F006840F4B9
:1019A00000401749091F08600846006800F400401D
:1019B000009000BF00BF00BF002000901048143806
:1019C000006840F004000E491439086008460068B9
:1019D00000F00400009000BF00BF4FF4E050019001
:1019E000022002900020039002200490062005901F
:1019F00001A90648FEF708FE06B010BD0030014000
:101A00004438024000000240003800400008024014
:101A100000040240003C00402DE9F843044688469B
:101A200016461D464FF000096068B0F5827F0DD163
:101A3000A06858B9042084F8510033464246414614
:101A40002046009500F077F9BDE8F88300BF94F8D0
:101A50005000012801D10220F6E7012084F850004F
:101A600000BFFEF7DBFE074694F85100012802D0C4
:101A70004FF002097EE0B8F1000F00D016B94FF028
:101A8000010977E0042084F8510000206065C4F863
:101A90003880A687E6872063A086E086206460649D
:101AA000A068B0F5004F0BD12068006820F040001E
:101AB000216808602068006820F480402168086080
:101AC0002068006800F04000402805D020680068C9
:101AD00040F0400021680860E068F8B91AE020682A
:101AE000806800F0010050B12068007BA16B087095
:101AF000A06B401CA063E08F401EE0870AE0FEF769
:101B00008DFEC01BA84201D3681C00B915B94FF067
:101B100003092FE0E08F0028E1D11EE01AE02068E1
:101B2000806800F0010050B12068C068A16B088097
:101B3000A06B801CA063E08F401EE0870AE0FEF7E8
:101B40006DFEC01BA84201D3681C00B915B94FF047
:101B500003090FE0E08F0028E1D13A4629462046EC
:101B600001F009FA08B120206065606D08B14FF0FE
:101B7000010900BF012084F8510000BF002084F853
:101B8000500000BF48465FE72DE9F84F04468846FD
:101B900016461D464FF0000A00BF94F85000012879
:101BA00002D10220BDE8F88F012084F8500000BF68
:101BB000FEF734FE0746B14694F85100012802D0E2
:101BC0004FF0020AADE0B8F1000F00D016B94FF0A7
:101BD000010AA6E0032084F8510000206065C4F8E3
:101BE0003080A686E686A063A087E08760642064D4
:101BF000A068B0F5004F0BD12068006820F04000CD
:101C0000216808602068006840F48040216808600E
:101C10002068006800F04000402805D02068006877
:101C200040F0400021680860E068B0F5006F2FD1F7
:101C3000606810B1B9F1010F09D1206B00882168EB
:101C4000C860206B801C2063E08E401EE0861BE095
:101C50002068806800F0020002280AD1206B00880A
:101C60002168C860206B801C2063E08E401EE086E7
:101C70000AE0FEF7D3FDC01BA84201D3681C00B9DF
:101C800015B94FF0030A4CE0E08E0028E0D12EE0B9
:101C9000606810B1B9F1010F09D1206B007821689B
:101CA0000873206B401C2063E08E401EE0861BE022
:101CB0002068806800F0020002280AD1206B0078BA
:101CC00021680873206B401C2063E08E401EE08674
:101CD0000AE0FEF7A3FDC01BA84201D3681C00B9AF
:101CE00015B94FF0030A1CE0E08E0028E0D13A4617
:101CF0002946204601F08AF908B120206065A068D5
:101D000050B900BF002000902068C0680090206893
:101D10008068009000BF00BF606D08B14FF0010AFD
:101D200000BF012084F8510000BF002084F850005B
:101D300000BF504636E72DE9FF5F044688469146CE
:101D40001D460E9E012002900020019000BF94F8D5
:101D50005000012803D1022004B0BDE8F09F01200B
:101D600084F8500000BFFEF759FD074694F851B0C3
:101D700060680390AA46BBF1010F0BD00398B0F541
:101D8000827F04D1A06810B9BBF1040F02D00220F9
:101D90000190DBE0B8F1000F03D0B9F1000F00D0E3
:101DA00015B901200190D1E094F85100042802D027
:101DB000052084F8510000206065C4F83890E5875C
:101DC000A587C4F83080E586A58620646064206815
:101DD000006800F04000402805D02068006840F00E
:101DE000400021680860E068B0F5006F4AD1606883
:101DF00010B1BAF1010F09D1206B00882168C860C9
:101E0000206B801C2063E08E401EE08633E020685B
:101E1000806800F00200022810D1E08E70B10298B4
:101E200001280BD1206B00882168C860206B801CC2
:101E30002063E08E401EE0860020029020688068CB
:101E400000F0010068B1E08F58B12068C068A16B54
:101E50000880A06B801CA063E08F401EE0870120FB
:101E60000290FEF7DBFCC01BB04204D3701C10B123
:101E7000032001906AE0E08E0028C8D1E08F00289E
:101E8000C5D14AE0606810B1BAF1010F09D1206BE9
:101E9000007821680873206B401C2063E08E401E90
:101EA000E08634E02068806800F00200022810D14B
:101EB000E08E70B1029801280BD1206B0078216868
:101EC0000873206B401C2063E08E401EE0860020DB
:101ED00002902068806800F0010068B1E08F58B17E
:101EE0002068C068A16B0870A06B401CA063E08FE5
:101EF000401EE08701200290FEF790FCC01BB0421C
:101F000001D3701C00B916B9032001901EE0E08EC9
:101F10000028C7D1E08F0028C4D13A463146204678
:101F200001F074F820B101200190202060650DE0DF
:101F3000A06850B900BF002000902068C0680090E1
:101F400020688068009000BF00BF00BF012084F8B7
:101F5000510000BF002084F8500000BF0198FBE64C
:101F600070B504462546681EB0F1807F01D301207C
:101F70000FE0681E4FF0E02148610F214FF0FF3065
:101F800001F02AFB00204FF0E02188610720086162
:101F9000002070BD7047704730B502460B4600BF49
:101FA00092F83C00012801D1022030BD012082F8C6
:101FB0003C0000BF022082F83D00106844681068B1
:101FC000816824F070041868044310684460184D58
:101FD0001068A8421BD01068B0F1804F17D0154D83
:101FE0001068A84213D0144D1068A8420FD0134DAA
:101FF0001068A8420BD0124D1068A84207D0114DAE
:102000001068A84203D0104D1068A84205D121F0F5
:1020100080015868014310688160012082F83D000A
:1020200000BF002082F83C0000BF00BFBDE70000F9
:10203000000001400004004000080040000C004087
:1020400000040140004001400018004010B5044663
:102050000CB9012010BD94F83D0028B9002084F887
:102060003C00204600F026F8022084F83D00211DA7
:10207000206801F0E9F8012084F8460000BF84F8E8
:102080003E0001213F2001554020015541200155CE
:1020900000BF00BF012084F84200432001554420C6
:1020A00001554520015500BF012084F83D00002066
:1020B000D0E7000038B504462068B0F1804F17D152
:1020C00000BF002000900B48006840F00100094963
:1020D00008600846006800F00100009000BF00BFE3
:1020E000002211461C20FEF77BFF1C20FEF768FF34
:1020F00038BD000040380240014691F83D000128FB
:1021000001D001207047022081F83D000868C068B6
:1021100040F001000B68D8601A4B086898421BD049
:102120000868B0F1804F17D0174B0868984213D059
:10213000164B086898420FD0154B086898420BD090
:10214000144B0868984207D0134B0868984203D094
:10215000124B086898420CD10868806800F00702AA
:10216000062A0CD00868006840F001000B6818606F
:1021700005E00868006840F001000B681860002066
:10218000C0E70000000001400004004000080040DB
:10219000000C0040000401400040014000180040D5
:1021A0002DE9F04104460D46002700BF94F83C009D
:1021B000012802D10220BDE8F081012084F83C0012
:1021C00000BF022084F83D002068866826F077066C
:1021D00026F47F46206886602868502833D00CDCBF
:1021E000202850D004DC00284BD0102851D149E0E1
:1021F000302849D040284CD139E060282DD07028B3
:1022000007D0B0F5805F03D0B0F5005F41D10DE09D
:1022100041E0D5E902136A68206801F081F820687E
:10222000866846F077062068866034E0D5E90213B8
:102230006A68206801F074F82068806840F4804083
:102240002168886027E0EA686968206801F07CF806
:102250005021206801F06FF81DE0EA686968206885
:1022600001F085F86021206801F065F813E0EA6864
:102270006968206801F068F84021206801F05BF887
:1022800009E000BF00BF00BF2968206801F053F8D3
:1022900001E0012700BF00BF012084F83D0000BF1E
:1022A000002084F83C0000BF384684E7704710B532
:1022B000044620680069C0F34000D8B12068C068B7
:1022C000C0F34000B0B16FF0020021680861012046
:1022D00020772068806900F0030018B12046FFF7DE
:1022E000E5FF05E0204600F0ADF8204600F0ABF831
:1022F0000020207720680069C0F38000D8B12068F2
:10230000C068C0F38000B0B16FF0040021680861BC
:10231000022020772068806900F4407018B12046C0
:10232000FFF7C4FF05E0204600F08CF8204600F0DF
:102330008AF80020207720680069C0F3C000D8B177
:102340002068C068C0F3C000B0B16FF00800216819
:102350000861042020772068C06900F0030018B1EC
:102360002046FFF7A3FF05E0204600F06BF820466B
:1023700000F069F80020207720680069C0F30010A1
:10238000D8B12068C068C0F30010B0B16FF0100081
:1023900021680861082020772068C06900F4407037
:1023A00018B12046FFF782FF05E0204600F04AF80A
:1023B000204600F048F8002020772068006900F0EF
:1023C000010058B12068C06800F0010030B16FF022
:1023D000010021680861204600F036F82068006995
:1023E000C0F3C01058B12068C068C0F3C01030B14D
:1023F0006FF08000216808612046FFF7CBFD206860
:102400000069C0F3801058B12068C068C0F3801024
:1024100030B16FF0400021680861204600F015F8E7
:1024200020680069C0F3401058B12068C068C0F34C
:10243000401030B16FF02000216808612046FFF79E
:10244000AAFD10BD704770477047704710B504462D
:102450000CB9012010BDA06900B100E000BF94F8E4
:102460003D0028B9002084F83C00204600F028F800
:10247000242084F83D002068C06820F400502168C2
:10248000C860204600F088FF2068006920F4904072
:10249000216808612068406920F02A0021684861AD
:1024A0002068C06840F400502168C86000202064A3
:1024B000202084F83D0084F83E000020CAE7000098
:1024C00010B586B00446142101A8FDF7C3FF614989
:1024D0002068884231D100BF002000905E4800682B
:1024E00040F010005C4908600846006800F01000E9
:1024F000009000BF00BF00BF002000905648143875
:10250000006840F00100544914390860084600682A
:1025100000F00100009000BF00BF4FF4C0600190C8
:1025200002200290002003900320049007200590D1
:1025300001A94A48FEF768F88AE0494920688842BC
:1025400032D100BF002000904348001F006840F4D3
:1025500000304149091F08600846006800F4003057
:10256000009000BF00BF00BF002000903A48143820
:10257000006840F0010038491439086008460068D6
:1025800000F00100009000BF00BF0C20019002206D
:10259000029000200390032004900720059001A9D9
:1025A0002E48FEF731F853E02E49206888424FD17B
:1025B00000BF002000902848001F006840F48020E1
:1025C0002549091F08600846006800F48020009033
:1025D00000BF00BF00BF002000901F4814380068F3
:1025E00040F002001C49143908600846006800F0F9
:1025F0000200009000BF00BF00BF0020009008460E
:10260000006840F0080008600846006800F0080014
:10261000009000BF00BFC81401900220029000206B
:102620000390032004900720059001A90E48FDF7B0
:10263000EBFF4FF480700190022002900020039085
:10264000032004900720059001A90848FDF7DCFF4E
:1026500006B010BD001001404438024000000240A6
:10266000004400400048004000040240000C0240CA
:1026700000BFFEE7014608684069C0F38020B0B1A2
:102680006FF480600A68506100200863202081F8A0
:102690003D00002081F83E00086C40F00400086412
:1026A00000BF002081F83C0000BF012070470020DF
:1026B000FCE700002DE9F84304460F46154699460D
:1026C000DDE908862068006840F4806021680860C1
:1026D0002068006840F4807021680860434600224A
:1026E0004FF001112046009600F032F960B12068E9
:1026F000006800F48070B0F5807F02D14FF4007064
:1027000020640320BDE8F88307F0FE00216808611B
:10271000334642463E49204600F05DF908B10120AB
:10272000F0E700BF0020009020684069009020681A
:102730008069009000BF00BF32464146204600F04D
:10274000ECF950B1206C042805D12068006840F4F1
:102750000070216808600120D4E7B9F1010F03D1AE
:10276000E8B22168086117E0C5F307202168086115
:1027700032464146204600F0D0F950B1206C042882
:1027800005D12068006840F40070216808600120CD
:10279000B8E7E8B22168086132464146204600F0B9
:1027A000BCF950B1206C042805D12068006840F4C1
:1027B0000070216808600120A4E72068006840F4E8
:1027C000807021680860434600224FF001112046C6
:1027D000009600F0BDF858B12068006800F48070E1
:1027E000B0F5807F02D14FF400702064032089E7A8
:1027F000F8B240F0010021680861334642460449BE
:10280000204600F0E8F808B101207BE7002079E7D6
:10281000020001002DE9F843044688461546994612
:10282000DDE908672068006840F48070216808606E
:10283000334600224FF001112046009700F088F83F
:1028400060B12068006800F48070B0F5807F02D12C
:102850004FF4007020640320BDE8F88308F0FE0008
:10286000216808613B4632462149204600F0B3F812
:1028700008B10120F0E700BF002000902068406907
:10288000009020688069009000BF00BF3A46314642
:10289000204600F042F950B1206C042805D1206890
:1028A000006840F40070216808600120D4E7B9F1A5
:1028B000010F03D1E8B22168086117E0C5F30720D2
:1028C000216808613A463146204600F026F950B1A9
:1028D000206C042805D12068006840F4007021684D
:1028E00008600120B8E7E8B2216808610020B3E77A
:1028F0000200010070B504460D46164620E0204651
:10290000FFF7B8FE08B1012070BD681CC0B1FDF72B
:1029100085FF801BA84200D895B9002020632020A5
:1029200084F83D00002084F83E00206C40F0200038
:10293000206400BF002084F83C0000BF0120E3E7D2
:1029400020684069C0F380000028D8D00020DBE771
:102950002DE9F04104460D4617461E46DDF8188065
:102960001CE0701CD0B1FDF759FFA0EB0800B0428D
:1029700000D89EB900202063202084F83D0000206C
:1029800084F83E00206C40F02000206400BF00204E
:1029900084F83C0000BF0120BDE8F081C5F307408A
:1029A00001280AD120684069A9B20840A9B288422A
:1029B00001D101200BE0002009E020688069A9B264
:1029C0000840A9B2884201D1012000E00020B842AD
:1029D000C7D00020E0E72DE9F04104460D46164639
:1029E0001F463DE020684069C0F38020E8B12068C0
:1029F000006840F40070216808606FF4806021680E
:102A0000486100202063202084F83D00002084F8E5
:102A10003E00206C40F00400206400BF002084F8D9
:102A20003C0000BF0120BDE8F081701CC0B1FDF783
:102A3000F5FEC01BB04200D896B9002020632020CC
:102A400084F83D00002084F83E00206C40F0200017
:102A5000206400BF002084F83C0000BF0120E2E7B2
:102A6000C5F3074001280AD120684069A9B208408F
:102A7000A9B2884201D101200BE0002009E02068C2
:102A80008069A9B20840A9B2884201D1012000E0C2
:102A900000200028A6D00020C5E770B504460D46EA
:102AA000164632E020684069C0F30010A0B16FF014
:102AB00010002168486100202063202084F83D0038
:102AC000002084F83E00206C206400BF002084F8C1
:102AD0003C0000BF012070BDFDF7A0FE801BA84296
:102AE00000D895B900202063202084F83D00002004
:102AF00084F83E00206C40F02000206400BF0020DD
:102B000084F83C0000BF0120E5E720684069C0F37D
:102B100080100028C6D00020DDE770B504460D46C1
:102B2000164620E02046FFF7A5FD08B1012070BD44
:102B3000681CC0B1FDF772FE801BA84200D895B991
:102B400000202063202084F83D00002084F83E000F
:102B5000206C40F02000206400BF002084F83C007E
:102B600000BF0120E3E720684069C0F3C0100028DF
:102B7000D8D00020DBE7000000B587B0142102A800
:102B8000FDF768FC00BF002001906A48006840F033
:102B90001000684908600846006800F010000190C5
:102BA00000BF00BF00BF002001900846006840F051
:102BB000800008600846006800F08000019000BFB7
:102BC00000BF00BF002001900846006840F00400EC
:102BD00008600846006800F00400019000BF00BFD4
:102BE00000BF002001900846006840F00100086026
:102BF0000846006800F00100019000BF00BF00BF60
:102C0000002001900846006840F002000860084675
:102C1000006800F00200019000BF00BF00BF00206C
:102C200001900846006840F0080008600846006807
:102C300000F00800019000BF00BF00227C213E4848
:102C4000FDF7E6FD012210213C48FDF7E1FD0122E0
:102C500010213B48FDF7DCFD01224FF4405139487B
:102C6000FDF7D6FD002242F202013748FDF7D0FD04
:102C700000224FF400413148FDF7CAFD7C2002904C
:102C80000120039000200490059002A92A48FDF736
:102C9000BBFC22200290C00303900020049002A9F4
:102CA0002748FDF7B1FC48F2100002900120039084
:102CB00000200490059002A92048FDF7A5FC1020F3
:102CC00002900120039000200490059002A91C4866
:102CD000FDF79AFC4FF44050029001200390002031
:102CE0000490059002A91748FDF78EFC42F20200FD
:102CF00002900120039000200490059002A9124840
:102D0000FDF782FC4FF440400290002003900490B5
:102D100002A90D48FDF778FC012002904FF48810BD
:102D200003900020049002A90748FDF76DFC07B04E
:102D300000BD000030380240001002400000024098
:102D40000008024000040240000C024010B50B488D
:102D50000B4908600B484860002109488160C16048
:102D60004FF480410161002141618161C1610162D3
:102D7000FDF75AFD08B1FDF72FFC10BD00540040CF
:102D800018150020801A060010B50E480E4908607C
:102D90004FF48270486000210B488160C16001617E
:102DA00041614FF4007181611021C1610021016214
:102DB000416281620A21C162FEF7F2FC08B1FDF7AF
:102DC0000BFC10BD003001406C15002010B50E4802
:102DD0000E4908604FF48270486000210B48816002
:102DE000C160016141614FF4007181610821C161DD
:102DF00000210162416281620A21C162FEF7D0FCBA
:102E000008B1FDF7E9FB10BD00380040C4150020F3
:102E100010B50E480E4908604FF4827048600021DA
:102E20000B488160C160016141614FF400718161B3
:102E30000021C1610162416281620A21C162FEF723
:102E4000AFFC08B1FDF7C8FB10BD0000003C00401E
:102E50001C16002000B587B0002003900490059058
:102E60000690019002904FF080401449086042F2B1
:102E7000CF0048600021114881601149C1600021E4
:102E800001618161FFF7E2F808B1FDF7A5FB4FF49E
:102E90008050039003A90948FFF782F908B1FDF7B4
:102EA0009BFB202001900020029001A90348FFF71E
:102EB00073F808B1FDF790FB07B000BD7416002051
:102EC0009F86010010B50B480B4908604FF4E130B4
:102ED0004860002108488160C16001610C214161A6
:102EE00000218161C161FFF7B1FA08B1FDF774FB00
:102EF00010BD000000100140BC16002010B50B48AA
:102F00000B4908604FF4E1304860002108488160B7
:102F1000C16001610C21416100218161C161FFF744
:102F200095FA08B1FDF758FB10BD000000440040C1
:102F30000017002010B50B480B4908604FF4E13032
:102F40004860002108488160C16001610C21416135
:102F500000218161C161FFF779FA08B1FDF73CFBFF
:102F600010BD0000004800404417002000BFFEE7ED
:102F700000BFFEE77047F8B504460E461546606888
:102F8000B0F5827F0DD1A068B0F5004F03D0A068E6
:102F9000B0F5806F05D12068006820F040002168FE
:102FA00008606068B0F5827F1FD1A068B0F5806FBF
:102FB0000DD03346002280212046009500F05CF8B9
:102FC00008B3606D40F0200060650320F8BD334613
:102FD000002201212046009500F04EF898B1606D66
:102FE00040F0200060650320F0E733460022012115
:102FF0002046009500F040F828B1606D40F02000B8
:1030000060650320E2E70020E0E700007CB50446AD
:103010000D461646164800681821B0FBF1F0154918
:10302000B0FBF1F04FF47A71484301906068B0F55D
:10303000827F0DD12B46002280212046009600F091
:103040001BF898B1606D40F02000606503207CBDE6
:1030500000BF019800B908E00198401E0190206867
:103060008068C0F3C0100028F3D100BF0020EEE755
:103070003800002040420F002DE9F84F04460D466D
:1030800090461E46DDF82890FDF7C8FBA0EB09002E
:10309000371AFDF7C3FB82462C480068C0F3CB30DB
:1030A0007843009045E0701C002842D0FDF7B6FB45
:1030B000A0EB0A00B84200D2A7BB2068406820F00D
:1030C000E000216848606068B0F5827F0DD1A0689B
:1030D000B0F5004F03D0A068B0F5806F05D120682F
:1030E000006820F0400021680860A06AB0F5005F29
:1030F0000DD100BF2068006820F4005021680860EE
:103100002068006840F400502168086000BF01207A
:1031100084F8510000BF002084F8500000BF032055
:10312000BDE8F88FFFE7009800B900270098401E1F
:103130000090206880682840A84201D1012000E06A
:1031400000204045AFD10020EAE700003800002011
:10315000704710B5FDF7C0FE10BD000000B593B07C
:10316000302107A8FDF776F9142102A8FDF772F9BE
:1031700000BF002001902448006840F080502249A0
:1031800008600846006800F08050019000BF00BF52
:1031900000BF002001901D48006840F480401B499A
:1031A00008600846006800F48040019000BF00BF3E
:1031B000012007900004089002200D9041050E9117
:1031C00004210F91A8211091022111910421129143
:1031D00007A8FEF797F808B1FDF7FEF90F20029057
:1031E00002200390002004904FF4A05005904FF46B
:1031F00080500690052102A8FDF744FF08B1FDF7B5
:10320000EBF913B000BD00004038024000700040F0
:103210000348006840F470000149086070470000EE
:1032200088ED00E010B50548FFF741F8402104485B
:10323000FDF7E4FA00200349087010BD7416002061
:10324000001002402400002010B50268294B98426B
:103250000ED0B0F1804F0BD0274B984208D0274BAF
:10326000984205D0264B984202D0264B984203D173
:1032700022F070024B681A431E4B984220D0B0F1E6
:10328000804F1DD01C4B98421AD01C4B984217D02F
:103290001B4B984214D01B4B984211D01A4B9842AA
:1032A0000ED01A4B98420BD0194B984208D0194BAC
:1032B000984205D0184B984202D0184B984203D13F
:1032C00022F44072CB681A4322F080034C6943EA2F
:1032D000040202608B68C3620B688362054B9842EC
:1032E00002D0084B984201D10B690363012343616B
:1032F00010BD000000000140000400400008004034
:10330000000C004000040140004001400044014026
:103310000048014000180040001C00400020004010
:1033200030B50C46816821F47F4142EA03252543EC
:103330002943816030BD0A46816821F0700142F066
:10334000070319438160704730B50B461446026A83
:10335000056A25F001050562816921F0F00141EA65
:10336000041122F00A021A438161026230BD30B5B5
:103370000B461446056A25F0100505628169026A4C
:1033800021F4704141EA043122F0A00242EA031222
:103390008161026230BD00002DE9F84F04462068CB
:1033A000006920F44050E168084321680861216900
:1033B000A068084361690843E169084300902068F8
:1033C000C06849F20C618843009908432168C860CD
:1033D0002068406920F44070A16908432168486171
:1033E00076492068884203D075492068884203D115
:1033F000FDF720FF814602E0FDF70CFF8146E06902
:10340000B0F5004F6CD102206168A0FB015003466B
:103410001920A9FB007001462A463846FCF724FF14
:103420006421B0FBF1F04FEA001A02206168A0FBB2
:1034300001510B461920A9FB00712A463846FCF7BA
:1034400013FF834602206168A0FB01500346192048
:10345000A9FB00712A463846FCF706FF6421B0FB41
:10346000F1F000EBC00101EB0010ABEB800032216A
:1034700001EBC0006421B0FBF1F000F0F8000AEBB2
:10348000400A02206168A0FB015003461920A9FBF5
:10349000007001462A463846FCF7E6FE83460220C5
:1034A0006168A0FB015003461920A9FB00712A4660
:1034B0003846FCF7D9FE6421B0FBF1F000EBC00107
:1034C00001EB0010ABEB8000322101EBC000642166
:1034D000B0FBF1F000F007005044216888606AE01A
:1034E00004206168A0FB015003461920A9FB00706D
:1034F00001462A463846FCF7B7FE8246042061683A
:10350000A0FB015003461920A9FB007001462A4682
:103510003846FCF7A9FE6421B0FBF1F000EBC001D6
:1035200001EB0010AAEB8000322101EB00106421B6
:10353000B0FBF1F000F0F00A04206168A0FB01701C
:1035400003461920A9FB00513A462846FCF78CFE99
:103550006421B0FBF1F00AEB001A04206168A0FBC3
:1035600001510B461920A9FB00712A463846FCF789
:103570007BFE834604206168A0FB015003461920AE
:10358000A9FB007001462A463846FCF76DFE64210F
:10359000B0FBF1F000EBC00101EB0010ABEB8000E1
:1035A000322101EB00106421B0FBF1F000F00F00BC
:1035B000504421688860BDE8F88F00000010014089
:1035C0000014014000BFFEE702480068C0F302207B
:1035D000704700000CED00E010B5002804DB0A077E
:1035E000130E054A135406E00A07140E034A00F0AE
:1035F0000F031B1FD45410BD00E400E018ED00E0E1
:1036000070B5D94B00242DED020B2DED108BDDE9AB
:103610001010984205DA20F000429A4201D809D1F0
:1036200041B19DED100BBDEC108B02B0BDE87040B8
:1036300000F05EBAB0F5801F26DA11430BD00028E7
:1036400013DA0120FCF760FFBDEC108B02B0BDE87F
:10365000704000F059BA0220FCF756FF00F030FA33
:1036600051EC100B01F0EEF99EE06FF035049FED88
:10367000C00B53EC102B9DED100B51EC100B01F017
:103680007BFCCDE91001084604EB2051C0F3130484
:10369000B948A1F2FF31204400F4801080F07F622D
:1036A00082F04052224301EB20559FEDB50B119261
:1036B00053EC102B9DED100B51EC100B01F066FD3F
:1036C00041EC180BA01CC0F313009FEDAFDB9FED86
:1036D000B0EBB14E7E4403286CD296ED000B51EC5A
:1036E000180B53EC102B01F0C5FB1DD1002D01BFB1
:1036F00096ED000BBDEC108B02B070BD284601F0BA
:1037000024FC41EC180B53EC1D2B01F035FC41EC73
:10371000190B53EC1E2B51EC180B01F02DFC53EC44
:10372000192B01F09BF93FE09FED9D0B51EC180B1D
:1037300053EC102B01F020FC9FED9B1B53EC112B45
:1037400001F018FD41EC190B53EC182B51EC180B40
:1037500001F012FC53EC192B01F00EFC41EC190B9B
:10376000002D04BF53EC192B51EC180B1AD028462E
:1037700001F0EBFB41EC1A0B53EC1D2B01F0FCFBB1
:1037800053EC192B01F0F6FC53EC182B01F0FEFC66
:1037900041EC180B53EC1E2B51EC1A0B01F0ECFB17
:1037A00053EC182B01F0F2FCBDEC108B02B041EC95
:1037B000100B70BD9FED7E0B51EC180B53EC102BD2
:1037C00001F04CF941EC100B51EC180B53EC102BA1
:1037D00001F0F8F941EC190B284601F0B6FB41EC79
:1037E0001B0B53EC192B51EC190B01F0C5FB41ECF1
:1037F0001A0B714853EC1A2B261851EC1A0B01F0D6
:10380000BBFB41EC1F0B6D48C4F1510404F5D724F8
:10381000B0EE4F0AF0EE6F0A0321784400F0D2F8C0
:1038200053EC1F2B51EC100B01F0A6FB41EC1C0BD1
:103830006348B0EE4F0AF0EE6F0A0421784400F0BE
:10384000C1F853EC1A2B51EC100B01F095FB3443EB
:1038500053EC1C2B01F002F941EC1C0B002C4CDD4D
:103860009FED510B51EC180B53EC102B01F084FB26
:1038700053EC182B01F080FB41EC1A0B55B353ECC1
:103880001D2B51EC1B0B01F077FB41EC1D0B53EC96
:103890001C2B51EC1A0B01F0E1F853EC192B01F041
:1038A0006BFB53EC1D2B01F0D9F853EC1A2B01F0F4
:1038B00061FC53EC182B01F069FC41EC180B53EC44
:1038C0001E2B51EC1B0B01F057FB53EC182B01F096
:1038D0005DFC69E753EC1C2B51EC1A0B01F0BEF8B0
:1038E00053EC192B01F048FB53EC1A2B01F042FC6E
:1038F00053EC182B01F03EFC56E735B353EC1D2B6F
:1039000051EC1B0B01F038FB41EC1A0B53EC1C2B58
:1039100051EC180B01F03AFC53EC192B01F02CFB85
:1039200053EC1A2B01F032FC53EC182B01F02EFC57
:1039300041EC180B53EC1E2B51EC1B0B01F01CFB44
:1039400053EC182B01F022FC2EE753EC1C2B51EC0E
:10395000180B01F01BFC53EC192B01F00DFB53EC81
:10396000182B01F007FC1FE70000F07F00000000AB
:103970000000000000005043645F090000000000E8
:10398000000000000000F03F763C7935EF39EA3D59
:103990000000E0FE422EE63FE81C000000000000B0
:1039A000555555555555D53F000000000000E03FE6
:1039B000000000000000004086EBF9FF6A1B0000D9
:1039C000601B000070B504462DED028B4D1E00EB10
:1039D000C500B0EE408AF0EE608A90ED000B35F045
:1039E000060017D053EC182B51EC100B01F0C4FA61
:1039F00041EC100B6D1E04EBC50090ED001B51EC6B
:103A0000100B53EC112B01F029F841EC100B35F0A1
:103A10000600E7D1022D36D0042D1CD0062D1CBF88
:103A2000BDEC028B70BD53EC182B51EC100B01F068
:103A3000A3FA94ED0A1B53EC112B01F00FF853EC91
:103A4000182B01F099FA94ED081B53EC112B01F09F
:103A500005F841EC100B53EC182B51EC100B01F056
:103A60008BFA94ED061B53EC112B00F0F7FF53EC8F
:103A7000182B01F081FA94ED040B53EC102B00F09D
:103A8000EDFF41EC100B53EC182B51EC100B01F037
:103A900073FA94ED021B53EC112B00F0DFFF53EC93
:103AA000182B01F069FA94ED001B53EC112B00F078
:103AB000D5FFBDEC028B41EC100B70BD0000000087
:103AC0009FED070B10B553EC102B9FED070B51EC3E
:103AD000100B01F077F841EC100B10BD0000000056
:103AE0000000000000000000000000000000F03FA7
:103AF00010B553EC102B51EC100B00F0AFFF41EC64
:103B0000100B10BD000000009FED050B10B553EC2D
:103B1000102B51EC100B01F055F841EC100B10BDBF
:103B200000000000000000002DE9FF4F2DED068B86
:103B300087B00D4616461A9F0D98012802D002281C
:103B400006D102E04FF0A00807E04FF0A10804E022
:103B500007B0BDEC068BBDE8FF8F00BF9FED2B0BC0
:103B6000FFF74EFDB0EE409AF0EE609A9FED290B04
:103B7000FFF746FDB0EE40AAF0EE60AA53EC192B19
:103B800051EC1A0B01F01EF841EC180B01F0AEF9E4
:103B900082462C46B819C11700EB916105EBA111C3
:103BA00089B206910699081B401C80B205904FF01F
:103BB00000090020049023E004FA0AF0304380B2A8
:103BC00003903146384600F0BEF883464FF47A71D0
:103BD000109848440223CDE901B1009041460F48B6
:103BE000039AFCF709FF601C84B20026A7EB0B00C8
:103BF00087B209EB0B001FFA80F90498401C04906F
:103C0000DDE904018842D7DB00BFA1E70000000026
:103C10000000004000000000000050401815002087
:103C20002DE9FF4F2DED068B87B00D4616461A9FE6
:103C30000D98012802D0022806D102E04FF0A0081A
:103C400007E04FF0A10804E007B0BDEC068BBDE82B
:103C5000FF8F00BF9FED2D0BFFF7D2FCB0EE409A17
:103C6000F0EE609A9FED2B0BFFF7CAFCB0EE40AA76
:103C7000F0EE60AA53EC192B51EC1A0B00F0A2FFE6
:103C800041EC180B01F032F982462C46B819C117E5
:103C900000EB916105EBA11189B206910699081B11
:103CA000401C80B205904FF000090020049026E0EF
:103CB00004FA0AF0304380B203903146384600F0EF
:103CC00042F883464FF47A71109848440223CDE9B4
:103CD00001B1009041461148039AFDF707F8601CB6
:103CE00084B20026A7EB0B0087B209EB0B001FFA8A
:103CF00080F90520FCF774FC0498401C0490DDE971
:103D000004018842D4DB00BF9EE7000000000000F1
:103D10000000004000000000000050401815002086
:103D200010B501460A46C81701EB10700011A1EB4F
:103D300000100B46CC1701EB1474241104EB84041F
:103D400000EB440010BD02465018402801DA10462E
:103D50007047C1F1400080B2FAE7000010B502469A
:103D60000B464FF0FF3108E012F8010B4840C0B29B
:103D7000054C54F8200080EA1121181EA3F101031C
:103D8000F2D1C84310BD0000B408002070B5284827
:103D9000C079062849D2DFE800F048030F22343FFB
:103DA000234804894589234801192A462248FCF7FB
:103DB000D2FA2248056038E01D48048945891D492A
:103DC00008192A461A490C31FCF7C5FA02220121CA
:103DD0001948FCF737FB01201849086025E0144812
:103DE000048945892A4600F10C01204600F0B6F806
:103DF000032201211048FCF725FB01200F49086030
:103E000013E000F0E3F8042201210B48FCF71AFB51
:103E100001200A49086008E0452206490648FCF7E7
:103E20009AFA45200549086000BF00BF70BD000038
:103E3000B40C0020D0140020CA1000200400002080
:103E40002DE9F0412DED068B94B005460E46012D6F
:103E500002D0022D04D101E0A02406E0A12404E058
:103E600014B0BDEC068BBDE8F08100BF9FED1A0BCE
:103E7000FFF7C6FBB0EE409AF0EE609A9FED180B8C
:103E8000FFF7BEFBB0EE40AAF0EE60AA53EC192B90
:103E900051EC1A0B00F096FE41EC180B01F026F8DD
:103EA000074606FA07F01FFA80F8FF22402104A80F
:103EB000FCF7C8FA4FF47A70402104AA0223CDE936
:103EC00000210290424621460748FCF70FFF0520DB
:103ED000FCF786FB00BFC3E70000000000000040C5
:103EE0000000000000005040181500202DE9F843A4
:103EF0000446884616462046E11704EB9161C1F35B
:103F00008F17A4EB871085B224E0C5F14000B042C2
:103F100017DAC5F1400080B208EB09032A4639469A
:103F200000900120FFF700FEC5F14000301A86B274
:103F30000025781C87B2C5F1400048441FFA80F97B
:103F400008E008EB09032A46394601200096FFF7EE
:103F5000EBFD00E0D9E700BFBDE8F8832DE9F843A9
:103F60000446884616462046E11704EB9161C1F3EA
:103F70008F17A4EB871085B224E0C5F14000B04252
:103F800017DAC5F1400080B208EB09032A4639462A
:103F900000900120FFF744FEC5F14000301A86B2C0
:103FA0000025781C87B2C5F1400048441FFA80F90B
:103FB00008E008EB09032A46394601200096FFF77E
:103FC0002FFE00E0D9E700BFBDE8F88300B58FB051
:103FD0000E2211A101A8FCF764FA134800680990A9
:103FE000124800680A90124800680B901148006857
:103FF000CDF83600104801680C918088ADF8340087
:1040000000210120FFF71CFF362201A90020FFF745
:10401000A5FF0FB000BD0000436F6E74726F6C207F
:1040200050616E656C0000000C0000201000002044
:10403000140000202000002018000020002112E0C1
:104040000846002209E000F001031BB1074B83EA98
:10405000500300E043081846521C082AF3DB044BC7
:1040600043F82100491CFF29EADD70472083B8EDA1
:10407000B40800202DE9F04105460C46012000EB74
:104080008400012101EBC000C7B22922394628462D
:1040900000F0A6FB804628223946284600F0A0FB07
:1040A00048EA00263046BDE8F0812DE9F04105469A
:1040B0000C460027012000EB8400012101EBC00029
:1040C000C7B227223946284600F08AFB80462622BE
:1040D0003946284600F084FB48EA00263046BDE811
:1040E000F0812DE9F04105460C460027012000EB48
:1040F0008400012101EBC000C7B2032239462846E3
:1041000000F06EFB06463046BDE8F08100B585B094
:104110004FF47A70072103AA0123CDE90021029010
:104120000022D0211748FCF767FC9DF80C00FFF730
:10413000F7FD154908709DF80D00FFF7F1FD1249D4
:1041400048709DF80E00FFF7EBFD0F4988709DF851
:104150000F00FFF7E5FD0C49C8709DF81000FFF750
:10416000DFFD094908719DF81100FFF7D9FD0649E7
:1041700048719DF81200FFF7D3FD0349887105B01F
:1041800000BD000018150020250000202DE9F04199
:1041900005460C46012000EB8400012101EBC00024
:1041A000C7B225223946284600F01AFB8046242251
:1041B0003946284600F014FB48EA00263046BDE8A0
:1041C000F08170B505460C460026012000EB840006
:1041D000012101EBC000C6B202230122314628466C
:1041E00000F0EAFB70BD0000FCF782FEFEF7B6FFB0
:1041F000FEF7C2FCFEF7C8FDFEF7E8FDFEF7A6FDE0
:10420000FEF760FEFEF704FEFEF778FEFEF792FE74
:10421000FEF720FEFFF712FFFFF778FF3B4800682C
:104220003B490A6840F83E2F8A88828089798171EB
:104230003622364801680020FFF758FE35480068EE
:104240003549096AC0F85E10324800683249496A47
:10425000C0F862102F4800682F49896AC0F86610BC
:104260002D48408E2B490968A1F86A00294800684A
:104270002949CA6A8265098EA0F85C100020254988
:10428000096881F86C003622244922480068FCF74E
:10429000A7F82248C08E1F490968C8861D480068D3
:1042A0001E498A6B8263898F81871C48C08F194998
:1042B0000968C88711221949403116480068403002
:1042C000FCF78EF8154890F851001249096881F8FA
:1042D00051001248406D0F49096848651048FDF7C4
:1042E0000BFF12E00F480078012806D0094800684B
:1042F00000F014FA01200B4908700648006890F895
:104300006C100448006800F0BDF8EBE708000020DE
:104310002500002000000020D01400206C15002093
:1043200074160020240000202DE9F04106460C46BA
:1043300015460027012000EB8400012101EBC0009D
:10434000C7B2EBB200223946304600F035FB0123FC
:104350001A463946304600F02FFBBDE8F0810000D8
:10436000F8B504460E4631462046FFF7BAFE172838
:104370006ED131462046FFF798FEC4F87008D4F895
:10438000700808B90120F8BD31462046FFF772FEDB
:10439000B4F87018084487B23A463146204600F017
:1043A0009AF831462046FFF765FE0746B4F87008D4
:1043B00080B204F16D033A4631460090204600F089
:1043C00037FA2448D4F86D100160D4F871104160B8
:1043D0000078552801D00120D5E71E48B0F8050027
:1043E000A0F10B0204F175011A480830FBF7B3FF86
:1043F0001848B0F8051004F175000844164950F843
:104400000B2D8A60808888811248B0F80C044AF627
:10441000AA21884201D00120B5E70E48B0F8050076
:10442000011F0C48401CFFF799FC05460948D0F8CD
:104430000804A84201D00120A5E708480068D0F888
:104440003600401C05490968C1F8360000209AE78B
:10445000012098E7B40C0020B410002008000020D0
:1044600070B505460C46012000EB8400012101EBEC
:10447000C000C6B2402301223146284600F09CFA13
:1044800070BD000070B504460D4629462046FFF772
:1044900067FF08B1012070BDFFF778FC2946204670
:1044A00000F096F8002002490968486200BFF2E770
:1044B0007416002070B505460C46012000EB840000
:1044C000012101EBC000C6B220230122314628465B
:1044D00000F072FA70BD2DE9F04106460D46144613
:1044E000012000EB8500012101EBC000C7B22312BF
:1044F00028223946304600F05FFAE3B229223946D5
:10450000304600F059FABDE8F0812DE9F041064649
:104510000D461446012000EB8500012101EBC0008F
:10452000C7B2231204223946304600F045FAE3B2FE
:1045300005223946304600F03FFABDE8F0812DE90A
:10454000F04106460D461446012000EB850001218E
:1045500001EBC000C7B2231224223946304600F0D6
:104560002BFAE3B225223946304600F025FABDE8A1
:10457000F08170B505460C460026012000EB840052
:10458000012101EBC000C6B207E0032231462846F4
:1045900000F026F9132800D100E0F6E700BF70BD57
:1045A00070B505460C460026012000EB8400012171
:1045B00001EBC000C6B207E003223146284600F0F6
:1045C0000FF9142800D100E0F6E700BF70BD00002D
:1045D000F8B504460E46032555204049087040486A
:1045E000B0F80300A1F801003D48B0F80100A1F8BF
:1045F00003003B48C079C8713A4800880B30A1F8E5
:10460000050004F26D4028440A6802604968416070
:1046100004F26D41294401F1080032490A682F492A
:104620000831FBF798FE2D4AB2F80520111F04F25D
:104630006D422A44501CFFF791FB2849C1F8080439
:104640004AF6AA212548A0F80C1404F26D4028442B
:104650000830244909680144234882680A60808937
:104660008880204800680E30C4F87408314620461F
:10467000FFF78CFDB4F87418084487B23A46314607
:104680002046FFF75CFF31462046FFF77FFD0746D7
:1046900005F10800134909880844801D80B204F21E
:1046A0006D433A4631460090204600F0ABF9314662
:1046B0002046FFF7D5FE31462046FFF7FBFE0B48AC
:1046C0000068D0F83A00401C08490968C1F83A006F
:1046D00004210748FCF792F8F8BD0000C210002042
:1046E000B40C002004000020C214002008000020A8
:1046F0000010024010B5002201210748FCF788F89D
:104700004620FBF76DFF012211460348FCF780F8B5
:104710004620FBF765FF10BD0004024010B50446BB
:10472000FFF7E8FF204600F021F904F15801204688
:1047300000F0F3F804F16201204600F097F804F16C
:104740006601204600F0CCF804F15E01204600F03E
:10475000AAF8B4F86A2094F86C102046FFF7D5FE4A
:1047600094F86C1001222046FFF7DEFD94F86C10DF
:104770002046FFF7FEFE94F86C102046FFF721FD5F
:1047800094F86C102046FFF70BFF4FF4FA70FBF71C
:1047900027FF94F86C102046FFF7A3FC10BD000023
:1047A00070B504460D461646002210210B48FCF752
:1047B0002FF84FF0FF33032229462046FDF7E4F996
:1047C0004FF0FF33324629462046FDF725F90122F6
:1047D00010210248FCF71CF870BD000000000240E8
:1047E000FEB506460D4614460020029020128DF8B4
:1047F0000800E0B28DF809008DF80A50002210215F
:104800000A48FCF705F84FF0FF30042301AA02A97B
:1048100000903046FDF78FFA012210210348FBF784
:10482000F7FF9DF807703846FEBD0000000002400B
:104830002DE9F04780460F4615461C46DDF82090CE
:104840002646032000EB8700002141EAC000B0703B
:104850004FF47F4000EA052040EA152030804A46A8
:1048600031464046FFF79CFFBDE8F08770B505462E
:104870000C460026237801223146284600F09CF899
:10488000637802223146284600F096F8A378032286
:104890003146284600F090F8E37804223146284655
:1048A00000F08AF870BD70B505460C4600262378E6
:1048B0000F223146284600F07FF8637810223146F7
:1048C000284600F079F8A37811223146284600F0F6
:1048D00073F8E37812223146284600F06DF870BD77
:1048E00070B505460C460026237805223146284639
:1048F00000F062F8637806223146284600F05CF842
:10490000A37807223146284600F056F8E3780822BB
:104910003146284600F050F870BD70B505460C468B
:104920000026237809223146284600F045F86378AE
:104930000A223146284600F03FF8A3780B22314680
:10494000284600F039F8E3780C223146284600F07A
:1049500033F823790D223146284600F02DF863798B
:104960000E223146284600F027F870BD70B5044687
:1049700000250125802300222946204600F01CF84E
:104980006420FBF72DFE70BD70B504460D4616463B
:10499000002210210748FBF73BFF4FF0FF33324660
:1049A00029462046FDF7F0F8012210210148FBF7C7
:1049B0002FFF70BD00000240F8B507460D461446B3
:1049C0001E4620128DF80000E0B28DF8010045F07F
:1049D00004008DF802008DF80360002210210848C1
:1049E000FBF716FF4FF0FF33042269463846FDF708
:1049F000CBF8012210210248FBF70AFFF8BD0000A6
:104A0000000002402DE9F04780460F4615461C463F
:104A1000DDF820902646022000EB8700042101EB00
:104A2000C000B0704FF47F4000EA052040EA152036
:104A3000308009F1030082B231464046FFF7A4FFFF
:104A4000BDE8F08781F00041704780F0004070477A
:104A500021F00041704720F00040704710B591EA06
:104A6000030F48BF83F0004300F19883841A71EB71
:104A7000030C05D2121943EB0C03001B61EB0C0174
:104A8000DFF824E14FEA1154A4EB135C1EEA430F54
:104A900018BF9EEA445F73D023EA0E03DCF1200EB8
:104AA00021EA045143F4801332D322FA0CFE10EBB6
:104AB0000E0023FA0CFE41EB0E01CCF1200E03FA9E
:104AC0000EFE10EB0E0051F10001B1F5801FCCF18C
:104AD000200E32D201EB045112FA0EF2BDE8104062
:104AE00058BF7047401C38BF5FEA420218BF70478A
:104AF000002814BF20F0010041F100014FEA4103FA
:104B000013F5001F38BF7047A1F1C04100F02CBB66
:104B1000012A43EB0302ACF1200CDCF11F0E32BF83
:104B20004FF0000E23FA0CF310EB030041EB04519D
:104B3000B4EB115FD0D0A1EB045101F5801149080D
:104B40005FEA300001EB04510ED350F1000038BF92
:104B500012FA0EFE08D1BDE81040C9E7401C38BF6C
:104B60005FEA4202CAD1C3E7BDE810404FEA410301
:104B700013F5001F38BF7047A1F1C04100F0F4BA2F
:104B80009EEA445F08D011EA5E0FBDE8104004BF02
:104B900001F0004100207047BDE8104070B500F002
:104BA00095FA00BF64FBBE3E0000E0FF491058BF0D
:104BB000C1F140415B1058BFC3F140438B42EFF35A
:104BC000008070472DE9C04130B4DFF8A0C23CEA54
:104BD000111418BF3CEA131400F0EC8081EA0305BD
:104BE0001CEA111444EAD57418BF1CEA131500F02E
:104BF000C780A4EB05044FF0004545EAC12145EA12
:104C0000C32341EA505143EA525304F17F7499425D
:104C100004F500344FEAC0204FEAC22208BF904298
:104C200000F09C804FEA13650FF24016765D4FEA64
:104C3000134506FB05F7C7F1807706FB07F74FEA38
:104C4000D737A7FB03687642C8F58038A7FB06CEA6
:104C500038BFA8F1010807FB08E64FF0000EA6FBDD
:104C6000028CE6FB03CEDCF1000CCEF1004E38BF27
:104C7000AEF1010EA6FB0C584FF000074FF00005F7
:104C8000E6FB0E87A1FB08C6A0FB07CE16EB0E06BF
:104C900045F10005E1FB076515F1E04E7EBFA4F587
:104CA00080345FEA46066D4116F1800745F1000544
:104CB0004FEA17274FEA066647EA0567A6F1DE4680
:104CC000B6F1805F4FEA15251FD9384624F0010C54
:104CD00005EBC471BCF1FE6F01EB0C1102D8F0BC06
:104CE000BDE8008124425CBF01F5801E9EEAC47FBE
:104CF00002D4F0BCBDE80081244238D4F0BCA1F15C
:104D0000C041BDE8004100F02FBA4FEAD22242EA8A
:104D100043524FEAD323A7FB02864FEAD02040EA52
:104D2000415007FB03661EEA0E0F4FEAD12105FB37
:104D3000026658BFA6EB0056B6EB00564FEA520E7D
:104D40004EEAC37E18EB0E0E56EB530EBDD518EB94
:104D500002085E417F1C55F10005B6E74FF480154F
:104D60004FF000074FF000064FF00008ADE7F0BC31
:104D70004FF0000001F1C04101F00041BDE80081A9
:104D800011EA0C1F0CEA131500D00CE013EA0C1FFB
:104D900000F025804FF00000F0BC81EA030101F033
:104DA0000041BDE80081F0BCBDE8004181EA03019B
:104DB00000F0DAB9F0BCBDE8004170B500F086F94A
:104DC000097EFC3E00F007B881EA03014FF00000C5
:104DD00001F00041704781EA030100F0C5B9F0BC61
:104DE000BDE800414FF0000021497047FFFDFBF98D
:104DF000F7F5F4F2F0EEEDEBE9E8E6E4E3E1E0DE0E
:104E0000DDDBDAD8D7D5D4D3D1D0CFCDCCCBCAC87F
:104E1000C7C6C5C4C2C1C0BFBEBDBCBBBAB9B8B7A6
:104E2000B6B5B4B3B2B1B0AFAEADACABAAA9A8A899
:104E3000A7A6A5A4A3A3A2A1A09F9F9E9D9C9C9B67
:104E40009A99999897979695959493939291919012
:104E50008F8F8E8E8D8C8C8B8B8A898988888787A3
:104E60008685858484838382828181800000FF0718
:104E70000000F87F51EA030C17D41CF5801F58BFBF
:104E8000BCF5801F00F10680994218BF704708BF2B
:104E90009042704707D711F5801F58BF13F5801F48
:104EA00019D499427047894270471CF5801F08D574
:104EB000BCF5801FF7D58B4218BF704708BF8242F0
:104EC00070474FF4001C1CEB410F38BF1CEB430F25
:104ED00001D28B42704770B500F0F8F89224490077
:104EE0004FF000514FF08053FFF760BE4FEA41038F
:104EF0004FEA5353A3F58063D3F11E03C8BFD3F128
:104F0000210C0CDD4FF0004242EAC12242EA50522D
:104F100032FA03FC8CEAE17CACEBE1707047102BB9
:104F2000C4BF0020704703F5787CBCF1FF3F04D07C
:104F30006FF0004282EA2100704770B500F0C6F8B9
:104F40004992248000207047F2E710F0004248BFE9
:104F50004042B0FA80F310FA03F10AD0C3F11D0306
:104F600003F580634FEA415002EB035202EBD1217B
:104F700070474FF000007047DFF848C170B51CEA79
:104F8000111E1EBF1CEA13159EEA0C0F95EA0C0FAA
:104F900000F06F8081EA030423EA4C134EEAD47ECA
:104FA00021EA4C1141F4801143F48013AE44A1FB7B
:104FB000024CA0FB0365AEF17F7E361955EB0C0564
:104FC000A1FB034C4CF10003A0FB021C16EB0C06EA
:104FD000654153F10003094218BF46F0010613F47E
:104FE000007F0BD14FEA03314FEA0530340341EA29
:104FF000155140EA16506FF003020AE04FEAC32150
:105000004FEAC520F40241EA555140EA56506FF08C
:10501000020202EB2E4201EB025585EACE710AD064
:105020005FEA440C18BF24F0004450F1000041F145
:10503000000120EAD47040F2FE7C624500D270BDCF
:10504000A84214BF4FF080444FF04044002E08BFE8
:105050000024BEF1806FA8BFA1F1C041BDE870403F
:1050600080F282804FF0000001F1C04101F0004168
:1050700070479EEA0C0F0CEA131518BF95EA0C0F47
:1050800006D04FF0000081EA030E0EF0004170BD23
:1050900000F01CF88900013E00F007B800F009B8E4
:1050A0004FEA430C5FEA5C5C08D081EA030100F040
:1050B0005BB84FEA410C5FEA5C5CF6D14FF0000050
:1050C000014970470000FF070000F87F0EF1020E53
:1050D0002EF0030E5EF8046B364205D4012A43EB32
:1050E000030515F5001F12D8012841EB010C1CF532
:1050F000001F0CD80ED14FEAD17C15F5001F0CEB28
:105100004C0C0CF1020C08BF4CEBD37C04E04FF0CC
:10511000080C01E04FEAD37C0CEB4C0526FA05F6AF
:1051200006F00706B6F1040C06D20EEB860CBDE8BD
:1051300070404CF0010C6047DFE80CF0090B0202F4
:105140004FF000414FF00000A1F5002170BD19465D
:105150001046012851EB010418BFD4F5001484BF98
:10516000002001F0004170BD0808A0F500114FEAD1
:105170003101704791EA030F10B581F000413FF50E
:1051800075AC83F0004300F009B8000010B591EA57
:10519000030F48BF83F000433FF568AC841A71EBFE
:1051A000030C07D212198CF0004C43EB0C03001BCC
:1051B00061EB0C01DFF8A4E14FEA1154A4EB135C9E
:1051C0001EEA430F18BF9EEA445F00F0B08023EA56
:1051D0006E03524221EA0451C3EB6E0338BF5B1EDB
:1051E000DCF1200E25D322FA0CFE10EB0E0043FA60
:1051F0000CFE41EB0E01CCF1200E03FA0EFE10EB7B
:105200000E0051F10001CCF1200E29D412FA0EF259
:1052100001EB0451BDE8104058BF7047401C1CBF53
:10522000B2F1004F704700280CBF491C20F001006C
:10523000704712EB020E43EB030218BF4FF0010E52
:105240004EEA4202ACF1200CDCF11E0E54D943FAB6
:105250000CFE10EB0E0051F1FF31CCF11E0ED5D536
:105260000EF1010E12FA0EFE404141EB010101EB7D
:10527000445C5FEA5C5C10D910EBDE7001EB04511A
:1052800038BFBEF1004FBDE8104018BF704700287E
:105290000CBF491C20F00100704730D24FEAD42CDB
:1052A00011F5001124F400641BD0B1FA81F20B3A1D
:1052B000A41AA41ED2F12003914030FA03F319433B
:1052C000904001EBCC71002C01EB0451BDE8104083
:1052D000A8BF704701F1C0414FF0000001F000414C
:1052E0007047B0FA80F310FA03F100D110BDE41A50
:1052F000173C4805C90AE4E701EB045110BD491009
:1053000001EB0451BDE810404FEA300002E04FF0DD
:10531000000170474A0008BF0042F8D0B2F5001FF4
:1053200028BF704701F000414FF0000070479EEA2F
:10533000445F07D011EA5E0FBDE8104004BF0021B2
:1053400000207047BDE8104070B5FFF7BFFE00BFFA
:1053500040DFF63E83F00041104670470000E0FF5A
:105360004FF04070E1EE100A7047000000000000AE
:105370000000010203040607080900000000010202
:10538000030400000000000004FA97999999D93F9E
:10539000AF788E1DC571CC3F9FC678D0099AC33FA8
:1053A000935555555555E53F599322942449D23F7D
:1053B000DE03CB966446C73F44523EDF12F1C23F44
:1053C0000000000000000000E8530008000000207A
:1053D0003C000000C4010008245400083C000020E8
:1053E000AC1D0000E00100083C00002000000000AF
:1053F000D0140020C0A80116C0A80101FFFFFF00C3
:10540000001542BFF05100001F1400000100000011
:10541000000000000000000010000000010000007B
:045420000024F40070
:040000050800018965
:00000001FF
