:020000040800F2
:100000000029002029020008AD3B00081B31000830
:10001000A93B0008D3050008E144000800000000E7
:100020000000000000000000000000008D3D0008FE
:10003000D706000800000000B13B00088F3D000813
:10004000430200084302000843020008430200087C
:10005000430200084302000843020008430200086C
:10006000430200084302000843020008430200085C
:10007000430200084302000843020008430200084C
:10008000430200084302000843020008430200083C
:10009000430200084302000843020008430200082C
:1000A000430200084302000843020008430200081C
:1000B000613E000843020008893E00084302000830
:1000C00043020008430200084302000843020008FC
:1000D00043020008D144000843020008430200081C
:1000E00043020008430200084302000843020008DC
:1000F00043020008430200084302000843020008CC
:100100004302000843020008B13E00084302000811
:1001100043020008430200084302000843020008AB
:100120004302000843020008D90500084302000802
:10013000430200084302000843020008430200088B
:10014000430200084302000843020008430200087B
:100150004302000843020008E905000843020008C2
:10016000430200084302000843020008430200085B
:100170004302000843020008430200080000000098
:10018000430200084302000800F002F800F03CF8C7
:100190000AA090E8000C82448344AAF10107DA45E2
:1001A00001D100F031F8AFF2090EBAE80F0013F0F8
:1001B000010F18BFFB1A43F00103184744830000E6
:1001C00064830000103A24BF78C878C1FAD8520777
:1001D00024BF30C830C144BF04680C6070470000C1
:1001E0000023002400250026103A28BF78C1FBD840
:1001F000520728BF30C148BF0B6070471FB508F0D9
:1002000088F81FBD10B510BD00F0AEF91146FFF71C
:10021000F5FF06F0B1FA00F0CCF903B4FFF7F2FFF6
:1002200003BC00F0CFF900000948804709480047A7
:10023000FEE7FEE7FEE7FEE7FEE7FEE7FEE7FEE796
:10024000FEE7FEE704480549054A064B70470000F3
:100250004D3E0008890100080023002000290020ED
:10026000002500200025002053EA020C00F06980E0
:100270002DE9F04B4FF00006002B1FBFB3FA83F5BA
:1002800003FA05F424FA05F65E4012BF1643B2FAEB
:1002900082F502FA05F4C5F120051EBF22FA05FC1D
:1002A00044EA0C04203556EA044C4FEA144418BFC3
:1002B000641C4FF000084FF00009904271EB030CF2
:1002C00039D3002919BFB1FA81F701FA07F6B0FA5C
:1002D00080F700FA07F6C7F120071EBF20FA07FCD7
:1002E00046EA0C062037B6FBF4FCA7EB0507103FE7
:1002F00007F01F0BCBF120060CFA0BFB2CFA06F6CD
:1003000044BFB3460026202FA4BF5E464FF0000B2B
:100310005BEA060C08BF4FF0010B19EB0B09ABFBB6
:10032000027C48EB0608C01B06FB02CC0BFB03CC8F
:1003300071EB0C01C1E70B46024641464846BDE859
:10034000F08B13B54FF000004FF00001AFF30080C9
:10035000BDE81C407047032A40F2308010F0030CC7
:1003600000F0158011F8013BBCF1020F624498BF08
:1003700011F801CB00F8013B38BF11F8013BA2F1A5
:10038000040298BF00F801CB38BF00F8013B11F020
:10039000030300F02580083AC0F0088051F8043BC0
:1003A000083A51F804CBA0E80810F5E7121D5CBF2D
:1003B00051F8043B40F8043BAFF30080D20724BF60
:1003C00011F8013B11F801CB48BF11F8012B24BFF4
:1003D00000F8013B00F801CB48BF00F8012B704743
:1003E00010B5203AC0F00B80B1E81850203AA0E8D0
:1003F0001850B1E81850A0E81850BFF4F5AF5FEA04
:10040000027C24BFB1E81850A0E8185044BF18C9B6
:1004100018C0BDE810405FEA827C24BF51F8043B5D
:1004200040F8043B08BF7047D20728BF31F8023BB1
:1004300048BF11F8012B28BF20F8023B48BF00F845
:10044000012B704702F0FF0343EA032242EA024213
:1004500000F062B84FF0000200B51346944696468D
:10046000203922BFA0E80C50A0E80C50B1F12001C7
:10047000BFF4F7AF090728BFA0E80C5048BF0CC075
:100480005DF804EB890028BF40F8042B08BF7047D3
:1004900048BF20F8022B11F0804F18BF00F8012B45
:1004A000704710B5044610F0030F08BF11F0030F9A
:1004B00040F015804FF0013E121FC0F20E8051F83F
:1004C000043BA3EB0E0C2CEA030C1CEACE1C08BF69
:1004D00040F8043BF0D0A1F1040102F10402521EE5
:1004E00008DB11F8013B002B00F8013BF7D1114666
:1004F00000F010F8204610BD70477047704710B5E7
:1005000000F02AF8006810BD10B5044600F024F889
:10051000046010BD4FF000020429C0F0128010F0FA
:10052000030C3FF499AFCCF1040CBCF1020F18BFDF
:1005300000F8012BA8BF20F8022BA1EB0C01FFF75C
:100540008BBF5FEAC17C24BF00F8012B00F8012BB0
:1005500048BF00F8012B7047004870479C220020DC
:10056000004870479C2200207546FFF7F9FFAE4611
:1005700005006946534620F00700854618B020B5AF
:10058000FFF760FEBDE820404FF000064FF0000787
:100590004FF000084FF0000B21F00701AC46ACE82B
:1005A000C009ACE8C009ACE8C009ACE8C0098D4698
:1005B000704710B50446AFF300802046BDE81040F8
:1005C000FFF72BBE01491820ABBEFEE72600020054
:1005D000704700BFFEE7000010B5024800F0EAF8DF
:1005E00010BD0000DC21002010B5024800F0E2F848
:1005F00010BD00003C220020014608781038182366
:10060000B0FBF3F20848805CC865032A05D9086886
:100610006FF30900001D886503E008686FF30900A7
:100620008865886D70470000168400080146002028
:100630008A6A8B69CBB932B1012A0DD0022A03D064
:10064000032A10D10EE000BFCB6A03F08073B3F130
:10065000807F00D1012007E0CB6AB3F1C07F00D1D9
:10066000012001E000E000BF34E08B69B3F5005FDA
:100670001AD132B1012A07D0022A03D0032A11D19C
:100680000AE000BF01200EE0CB6A03F08073B3F1F3
:10069000807F00D1012006E0CB6AB3F1C07F00D19A
:1006A000012000E000BF15E032B1012A05D0022A86
:1006B00004D0032A0CD103E000BF00BF012008E0F2
:1006C000CB6A03F08073B3F1807F00D1012000E09A
:1006D00000BF00BF7047704772B600BFFEE770B53D
:1006E0000446A56D00F022FB064694F8350002286A
:1006F00008D08020606500BF002084F8340000BF6F
:10070000012070BD2068006820F016002168086094
:100710002068406920F0800021684861206C08B999
:10072000A06C28B12068006820F0080021680860EB
:100730002068006820F001002168086010E000F0E7
:10074000F5FA801B05280BD920206065032084F86A
:10075000350000BF002084F8340000BF0320D0E73C
:100760002068006800F001000028E8D194F85C10CF
:100770003F208840A860012084F8350000BF002099
:1007800084F8340000BF00BFBBE7014691F8350094
:10079000022803D08020486501207047052081F899
:1007A00035000868006820F001000A681060002029
:1007B000F3E70000F8B50446002000908C4800687C
:1007C0004FF41651B0FBF1F7A56D2E6894F85C104C
:1007D00008208840304098B12068006800F004008C
:1007E00070B12068006820F004002168086094F867
:1007F0005C1008208840A860606D40F001006065D2
:1008000094F85C1001208840304068B1206840694D
:1008100000F0800040B194F85C1001208840A8608E
:10082000606D40F00200606594F85C100420884020
:10083000304068B12068006800F0020040B194F8D0
:100840005C1004208840A860606D40F00400606582
:1008500094F85C1010208840304078B3206800681D
:1008600000F0080050B394F85C1010208840A86095
:100870002068006800F4802080B12068006800F4DF
:10088000002028B9206CC8B12046216C884715E0AB
:10089000A06C98B12046A16C88470FE020680068E2
:1008A00000F4807028B92068006820F008002168F2
:1008B0000860206C10B12046216C884794F85C10C9
:1008C000202088403040002865D02068006800F073
:1008D000100000285FD094F85C1020208840A860A9
:1008E00094F83500052828D12068006820F016000B
:1008F000216808602068406920F080002168486114
:10090000206C08B9A06C28B12068006820F00800AD
:100910002168086094F85C103F208840A86001209E
:1009200084F8350000BF002084F8340000BF206D3B
:1009300010B12046216D8847F8BD2068006800F49A
:10094000802080B12068006800F4002028B9606C25
:1009500010B12046616C88471DE0E06BD8B120469D
:10096000E16B884717E02068006800F4807068B980
:100970002068006820F0100021680860012084F8D9
:10098000350000BF002084F8340000BFE06B10B1D8
:100990002046E16B8847606D38B3606D00F0010060
:1009A000F0B1052084F835002068006820F00100CF
:1009B0002168086000BF0098401C0090B84200D930
:1009C00005E02068006800F001000028F3D100BFB6
:1009D000012084F8350000BF002084F8340000BFF7
:1009E000E06C10B12046E16C884700BFA4E700002E
:1009F0008C0000202DE9F0410446002500F096F916
:100A0000074614B90120BDE8F081606A00B100BF5B
:100A1000022084F8350000BF002084F8340000BFB5
:100A20002068006820F00100216808600AE000F0FA
:100A30007DF9C01B052805D920206065032084F8B6
:100A40003500E0E72068006800F001000028EED1E2
:100A50002068056821480540D4E901010843E168A0
:100A600008432169084361690843A1690843E169B2
:100A70000843216A08430543606A042803D1D4E986
:100A80000B0108430543206805602068456925F08F
:100A90000705606A0543606A04280DD1A06A054312
:100AA000E06A48B12046FFF7C1FD28B140206065EB
:100AB000012084F83500A6E7206845612046FFF74D
:100AC0009BFD064694F85C103F208840B0600020F3
:100AD0006065012084F83500002094E73F8010F025
:100AE00070B5044600F022F906462546681C10B190
:100AF00004480078054400BF00F018F9801BA842A4
:100B0000FAD370BD88000020F8B502460B460025D8
:100B1000002400200021D6E0012606FA01F51E6817
:100B200006EA0504AC4274D11E7906F00306012ED4
:100B300004D01E7906F00306022E13D190684F00F0
:100B40000326BE40B0434F00DE68BE403043906095
:100B5000506801268E40B0431E79C6F300168E40C1
:100B6000304350601E7906F00306032E09D0D0688A
:100B70004F000326BE40B0434F009E68BE40304346
:100B8000D0601E7906F00306022E13D1CF0802F1C1
:100B9000200656F827004E07F70E0F26BE40B0433A
:100BA0004F07FF0E1E69BE403043CF0802F12006FA
:100BB00046F8270010684F000326BE40B0431E7958
:100BC00006F003064F00BE40304310605E6806F436
:100BD0004036002E76D000BF002600963C4E366888
:100BE00046F480463A4F3E603E46366806F48046FC
:100BF000009600BF00BF374E8F0856F827008E07BB
:100C0000370F0F26BE40B043334EB24202D100260A
:100C100024E057E0314EB24201D101261EE0304EB1
:100C2000B24201D1022619E02E4EB24201D1032672
:100C300014E02D4EB24201D104260FE02B4EB242F9
:100C400001D105260AE02A4EB24201D1062605E06E
:100C5000284EB24201D1072600E008268F073F0F39
:100C6000BE4030431B4E8F0846F82700224E3068A6
:100C7000A0435E6806F4801606B120431E4E306025
:100C8000361D3068A0435E6806F4001606B12043A6
:100C9000194E361D3060184E361F3068A0435E680E
:100CA00006F4003606B12043134E361F3060361F5F
:100CB0003068A0435E6806F4803606B120430E4ECD
:100CC000083E3060491C1029FFF426AFF8BD000033
:100CD000443802400838014000000240000402404D
:100CE00000080240000C02400010024000140240C4
:100CF00000180240001C0240083C014002461369F3
:100D00000B400BB1012000E00020704710B5426994
:100D100021EA020302EA010443EA0443836110BDAD
:100D20000AB1816101E00B048361704701480068EA
:100D3000704700008000002070B504460CB9012007
:100D400070BD94F83D0028B9002084F83C0020468E
:100D500000F006FB242084F83D002068006820F0A5
:100D60000100216808602068006840F400402168A4
:100D700008602068006820F400402168086000F0E6
:100D8000D1FC05465C496068884206D85B488542CC
:100D900001D2012007E0002005E05948854201D238
:100DA000012000E00020012800D1C9E75548B5FB2B
:100DB000F0F62068406820F03F003043216848602A
:100DC0004D496068884201D8701C07E04FF4967066
:100DD00070434FF47A71B0FBF1F0401C2168096A4E
:100DE00021F03F0108432168086243496068884256
:100DF00014D8681E61684900B0FBF1F0401CC0F3D4
:100E00000B00042801D204203DE0681E61684900FF
:100E1000B0FBF1F0401CC0F30B0034E0A06838B91F
:100E2000681E616801EB4101B0FBF1F0401C0AE073
:100E3000681E616801EBC10202EB0111B0FBF1F029
:100E4000401C40F48040C0F30B0008B901201AE0B8
:100E5000A06848B9681E616801EB4101B0FBF1F080
:100E6000401CC0F30B000CE0681E616801EBC1027E
:100E700002EB0111B0FBF1F0401CC0F30B0040F499
:100E8000804040F400402168C9694CF6FF729143EC
:100E900008432168C861D4E907010843216809684B
:100EA00021F0C001084321680860D4E90310084319
:100EB0002168896848F2FF329143084321688860BD
:100EC000D4E9050108432168C96821F0FF010843FE
:100ED0002168C8602068006840F00100216808604F
:100EE00000202064202084F83D000020206384F846
:100EF0003E0000BF24E70000A086010080841E00A1
:100F000000093D0040420F002DE9FC5F04460F46FA
:100F100090469946DDE90CAB0E9EFFF707FF0546AC
:100F200094F83D00202870D119230122B0492046B1
:100F3000009502F061FA10B10220BDE8FC9F00BFED
:100F400094F83C00012801D10220F6E7012084F842
:100F50003C0000BF2068006800F0010028B920684C
:100F6000006840F00100216808602068006820F4F3
:100F7000006021680860222084F83D00402084F849
:100F80003E0000202064C4F824A0A4F82AB0608D9C
:100F900020859848E0624B46424639462046CDE9D6
:100FA000006502F0DBF808B10120C6E7208D88B9A2
:100FB00000BF00200190206840690190206880698E
:100FC000019000BF00BF2068006840F400702168F5
:100FD000086040E0208D012818D12068006820F4C6
:100FE00080602168086000BF00200190206840698F
:100FF000019020688069019000BF00BF20680068F0
:1010000040F400702168086025E0EFE0208D0228A0
:1010100016D12068006820F480602168086020688C
:10102000006840F400602168086000BF0020019063
:1010300020684069019020688069019000BF0AE043
:1010400000BF0020019020684069019020688069FD
:10105000019000BF00BFBAE0208D03287ED8208D0C
:10106000012815D12A463146204602F06AFA08B115
:10107000012062E720680069616A0870606A401CAC
:101080006062208D401E2085608D401E60859EE040
:10109000208D02282AD13346002257492046009548
:1010A00002F0AAF908B1012047E72068006840F47F
:1010B00000702168086020680069616A0870606AD1
:1010C000401C6062208D401E2085608D401E608522
:1010D00020680069616A0870606A401C6062208D47
:1010E000401E2085608D401E608570E033460022E2
:1010F00041492046009502F07FF908B101201CE724
:101100002068006820F48060216808602068006919
:10111000616A0870606A401C6062208D401E2085F4
:10112000608D401E6085334600223349204600957D
:1011300002F062F908B10120FFE62068006840F47F
:1011400000702168086020680069616A0870606A40
:10115000401C6062208D401E208500E010E0608D04
:10116000401E608520680069616A0870606A401CE2
:101170006062208D401E2085608D401E608526E0C7
:101180002A463146204602F0DCF908B10120D4E6B7
:1011900020680069616A0870606A401C6062208D86
:1011A000401E2085608D401E608520684069C0F328
:1011B000800060B120680069616A0870606A401C44
:1011C0006062208D401E2085608D401E6085208DD0
:1011D00000287FF441AF202084F83D00002084F8EF
:1011E0003E0000BF84F83C0000BFA6E60220A4E653
:1011F000020010000000FFFF040001002DE9FC5F69
:1012000004460F4690469946DDE90CAB0E9EFFF76B
:101210008DFD054694F83D0020287DD1192301223B
:101220004D492046009502F0E7F810B10220BDE8D4
:10123000FC9F00BF94F83C00012801D10220F6E792
:10124000012084F83C0000BF2068006800F0010025
:1012500028B92068006840F0010021680860206813
:10126000006820F4006021680860212084F83D00B7
:10127000402084F83E0000202064C4F824A0A4F894
:101280002AB0608D20853548E0624B46424639469B
:101290002046CDE9006502F011F808B10120C6E74B
:1012A00031E02A463146204602F08BF950B1206CDD
:1012B000042805D12068006840F4007021680860A7
:1012C0000120B4E7606A007821680861606A401C08
:1012D0006062208D401E2085608D401E60852068E4
:1012E0004069C0F3800070B1208D60B1606A007801
:1012F00021680861606A401C6062208D401E208564
:10130000608D401E6085208D0028CAD12A46314656
:10131000204602F043F800E01CE050B1206C0428A5
:1013200005D12068006840F4007021680860012041
:101330007DE72068006840F4007021680860202084
:1013400084F83D00002084F83E0000BF84F83C0093
:1013500000BF6CE702206AE7020010000000FFFFF8
:1013600010B586B00446142101A8FFF773F81B4995
:10137000206888422FD100BF0020009018480068E4
:1013800040F00200164908600846006800F00200BC
:10139000009000BF00BFC0200190122002900120E9
:1013A0000390032004900420059001A90D48FFF745
:1013B000ABFB00BF0020009009481030006840F4EB
:1013C00000100749103108600846006800F400105A
:1013D000009000BF00BF06B010BD000000540040E8
:1013E000303802400004024003480068034909788D
:1013F00008440149086070478000002088000020F0
:1014000010B50D48006840F400700B4908600846AC
:10141000006840F4806008600846006840F480700E
:101420000860032000F0A2F80F2000F007F800F099
:101430002BF8002010BD0000003C024070B50446AF
:101440000E4800784FF47A71B1FBF0F00C4909684E
:10145000B1FBF0F5284601F00BF808B1012070BD92
:10146000102C07D200222146501E00F041F80548FA
:10147000046001E00120F2E70020F0E7880000208E
:101480008C0000208400002008B500BF00200090E0
:101490000E48006840F480400C4908600846006827
:1014A00000F48040009000BF00BF00BF002000900B
:1014B000081F006840F08050091F08600846006857
:1014C00000F08050009000BF00BF08BD44380240CB
:1014D00001460846002809DB00F01F0301229A405C
:1014E00043099B0003F1E023C3F8002100BF7047CC
:1014F0002DE9F05F80460D461646002703F00AF8F6
:10150000074639462A46334601F00700C0F1070A6C
:10151000BAF1040F02D94FF0040A01E0C0F1070A42
:10152000D14600F1040ABAF1070F02D24FF0000AC7
:1015300001E0A0F1030AD4464FF0010A0AFA09FAC1
:10154000AAF1010A0AEA020A0AFA0CFA4FF0010BA0
:101550000BFA0CFBABF1010B0BEA030B4AEA0B0491
:101560002146404602F0DEFFBDE8F09F00BF00F0DC
:101570000702064B19684FF6FF031940044B0B4353
:1015800043EA0221014B196000BF70470CED00E0F7
:101590000000FA0570B504460D460CB9012070BD77
:1015A0005848006800F00700A84209D255490D705C
:1015B0000846006800F00700A84201D00120EEE7CD
:1015C000207800F0020002281DD1207800F00400ED
:1015D000042805D14C48006840F4E0504A490860AE
:1015E000207800F00800082805D14748006840F43A
:1015F0006040454908604448006820F0F000A16858
:10160000084341490860207800F00100A8B36068F1
:10161000012807D13C4808380068C0F34040B8B9F9
:101620000120BCE76068022802D06068032807D167
:10163000354808380068C0F3406048B90120AEE77B
:10164000314808380068C0F3400008B90120A6E717
:101650002D48006820F00300616808432A490860AB
:10166000FFF764FB064609E0FFF760FB801B41F2D1
:101670008831884202D9032091E707E022480068B8
:1016800000F00C006168B0EB810FEDD11D480068DF
:1016900000F00700A84209D91A490D7008460068F1
:1016A00000F00700A84201D0012078E7207800F080
:1016B0000400042807D11448006820F4E050E168D1
:1016C000084311490860207800F00800082808D174
:1016D0000D48006820F46040216940EAC1000A49D1
:1016E000086000F03FF808490968C1F30311074A90
:1016F000515CC8400649086006480068FFF79EFE36
:1017000000204CE7003C0240083802401E840008DC
:101710008C00002084000020014800687047000011
:101720008C00002000B5FFF7F7FF04490968C1F3FA
:101730008221034A515CC84000BD000008380240C5
:101740002E84000800B5FFF7E7FF04490968C1F3DC
:101750004231034A515CC84000BD000008380240D5
:101760002E8400082DE9F047002400250026A1461C
:101770002548006800F00C0020B1042805D0082896
:101780003AD105E0DFF8849039E0DFF8849036E064
:101790001D48001F006800F03F041B48001F006840
:1017A00000F4800078B11A481749091F0968C1F38D
:1017B0008811A0FB01700146224600233846FEF73F
:1017C00053FD05460EE011480F49091F0968C1F392
:1017D0008811A0FB01700146224600233846FEF71F
:1017E00043FD05460848001F0068C0F30140401C47
:1017F0004600B5FBF6F902E0DFF8109000BF00BF2D
:101800004846BDE8F0870000083802400024F40094
:1018100000127A00F8B504460CB90120F8BD207812
:1018200000F00100002874D0F948006800F00C00B6
:1018300004280DD0F648006800F00C00082813D1E9
:10184000F348001F006800F48000B0F5800F0BD152
:10185000EF4808380068C0F34040002859D060685D
:10186000002856D10120D9E700BF6068B0F5803F5D
:1018700008D1E7480838006840F48030E449083966
:1018800008601EE06068B0F5A02F0DD1E048083870
:10189000006840F48020DE49083908600846006886
:1018A00040F4803008600CE0D9480838006820F423
:1018B0008030D749083908600846006820F4802045
:1018C000086000BF606890B1FFF730FA054606E097
:1018D000FFF72CFA401B642801D903209EE7CC486F
:1018E00008380068C0F340400028F1D011E0FFF74D
:1018F0001DFA054606E0FFF719FA401B642801D9D6
:1019000003208BE7C24808380068C0F34040002835
:10191000F1D1207800F0020002285FD1BC480068B5
:1019200000F00C0058B1BA48006800F00C0008281C
:101930001CD1B748001F006800F48000B0B9B4485B
:1019400008380068C0F3400020B1E068012801D0E9
:10195000012063E7AE480838006820F0F8002169EC
:1019600040EAC100AA490839086037E0E06800B3DE
:101970000120A8490860FFF7D9F9054606E0FFF7FE
:10198000D5F9401B022801D9032047E7A0480838B1
:101990000068C0F340000028F1D09D480838006876
:1019A00020F0F800216940EAC1009949083908602F
:1019B00014E0002097490860FFF7B8F9054606E0F3
:1019C000FFF7B4F9401B022801D9032026E790480D
:1019D00008380068C0F340000028F1D1207800F0FA
:1019E000080008282CD16069A8B101208A49086044
:1019F000FFF79CF9054606E0FFF798F9401B02281F
:101A000001D903200AE782486C300068C0F3400027
:101A10000028F1D014E000207F490860FFF786F924
:101A2000054606E0FFF782F9401B022801D9032092
:101A3000F4E677486C300068C0F340000028F1D12C
:101A4000207800F00400042870D100277048383056
:101A5000006800F0805090B900BF002000906C48F2
:101A60003830006840F080506949383108600846D5
:101A7000006800F08050009000BF00BF0127674859
:101A8000006800F48070B0B96448006840F4807069
:101A900062490860FFF74AF9054606E0FFF746F994
:101AA000401B022801D90320B8E65C48006800F416
:101AB00080700028F2D000BFA068012808D15448E7
:101AC0006830006840F001005149683108601DE04D
:101AD000A06805280DD14E486830006840F0040029
:101AE0004B49683108600846006840F00100086012
:101AF0000CE047486830006820F001004449683134
:101B000008600846006820F00400086000BFA06874
:101B1000A8B1FFF70BF9054609E0FFF707F9401BED
:101B200041F28831884202D9032077E626E038481E
:101B300068300068C0F340000028EED013E0FFF7E3
:101B4000F5F8054608E0FFF7F1F8401B41F288314F
:101B5000884201D9032061E62D4868300068C0F34F
:101B600040000028EFD1012F07D129483830006804
:101B700020F0805026493831086000BFA069002855
:101B800045D02348006800F00C0008285DD0A0690B
:101B9000022845D100201F490866FFF7C7F805460F
:101BA00006E0FFF7C3F8401B022801D9032035E601
:101BB000174808380068C0F340600028F1D1D4E924
:101BC00007010843616A40EA81110122A06AC2EB61
:101BD000500041EA00412C20005D41EA00600C49C0
:101BE000091F086001200B490866FFF79FF80546AA
:101BF00006E0FFF79BF8401B022801D903200DE601
:101C0000034808380068C0F340600028F1D049E07C
:101C10000838024000004742800E474200700040F2
:101C2000002021490866FFF781F8054606E0FFF726
:101C30007DF8401B022801D90320EFE51B4800680E
:101C4000C0F340600028F2D12CE0A069012800D147
:101C5000E4E51648001D0668A069012820D006F4B6
:101C60008001E06981421BD106F03F01206A814278
:101C700016D147F6C0703040616AB0EB811F0FD1BA
:101C800006F440310122A06AC2EB5000B1EB004FD4
:101C900006D106F070612C20005DB1EB006F01D021
:101CA0000120BBE50020B9E50000474200380240B2
:101CB00010B504460CB9012010BD606A38B96068DF
:101CC000B0F5827F00D105E00021E16102E0002152
:101CD000216161610021A16294F8510028B90020BE
:101CE00084F85000204600F047F8022084F85100A4
:101CF0002068006820F0400021680860A08800F497
:101D00008270218901F404410843A18901F4006132
:101D10000843217C01F002010843217D01F001010B
:101D20000843218B01F400710843217F01F0380141
:101D300008432021095D01F080010843218D01F451
:101D400000510843216808600421A06901EA10409D
:101D500094F8241001F010010843216848602068BD
:101D6000C06920F400602168C8610020606501201E
:101D700084F8510000209FE710B586B00446142176
:101D800001A8FEF767FB61492068884230D100BF97
:101D9000002000905E48006840F480505C49086074
:101DA0000846006800F48050009000BF00BF00BFEC
:101DB0000020009056481438006840F00100544953
:101DC000143908600846006800F00100009000BF68
:101DD00000BFE0200190022002900020039002202A
:101DE00004900520059001A94A48FEF78DFE8BE07E
:101DF00049492068884250D100BF002000904448E3
:101E0000001F006840F480404149091F08600846EF
:101E1000006800F48040009000BF00BF00BF0020B9
:101E200000903B481438006840F0040038491439E9
:101E300008600846006800F00400009000BF00BF82
:101E400000BF002000900846006840F002000860D3
:101E50000846006800F00200009000BF00BF0C20A0
:101E6000019002200290002003900220049005209F
:101E7000059001A92948FEF747FE4FF480600190C4
:101E8000022002900020039002200490052005907B
:101E900001A92348FEF738FE36E02249206888422F
:101EA00032D100BF002000901948001F006840F4A4
:101EB00000401749091F08600846006800F4004008
:101EC000009000BF00BF00BF0020009010481438F1
:101ED000006840F004000E491439086008460068A4
:101EE00000F00400009000BF00BF4FF4E0500190EC
:101EF000022002900020039002200490062005900A
:101F000001A90648FEF700FE06B010BD00300140F2
:101F100044380240000002400038004000080240FF
:101F200000040240003C00402DE9F8430446884686
:101F300016461D464FF000096068B0F5827F0DD14E
:101F4000A06858B9042084F85100334642464146FF
:101F50002046009500F077F9BDE8F88300BF94F8BB
:101F60005000012801D10220F6E7012084F850003A
:101F700000BFFEF7DBFE074694F85100012802D0AF
:101F80004FF002097EE0B8F1000F00D016B94FF013
:101F9000010977E0042084F8510000206065C4F84E
:101FA0003880A687E6872063A086E0862064606488
:101FB000A068B0F5004F0BD12068006820F0400009
:101FC000216808602068006820F48040216808606B
:101FD0002068006800F04000402805D020680068B4
:101FE00040F0400021680860E068F8B91AE0206815
:101FF000806800F0010050B12068007BA16B087080
:10200000A06B401CA063E08F401EE0870AE0FEF753
:102010008DFEC01BA84201D3681C00B915B94FF052
:1020200003092FE0E08F0028E1D11EE01AE02068CC
:10203000806800F0010050B12068C068A16B088082
:10204000A06B801CA063E08F401EE0870AE0FEF7D3
:102050006DFEC01BA84201D3681C00B915B94FF032
:1020600003090FE0E08F0028E1D13A4629462046D7
:1020700001F09FFD08B120206065606D08B14FF050
:10208000010900BF012084F8510000BF002084F83E
:10209000500000BF48465FE72DE9F84F04468846E8
:1020A00016461D464FF0000A00BF94F85000012864
:1020B00002D10220BDE8F88F012084F8500000BF53
:1020C000FEF734FE0746B14694F85100012802D0CD
:1020D0004FF0020AADE0B8F1000F00D016B94FF092
:1020E000010AA6E0032084F8510000206065C4F8CE
:1020F0003080A686E686A063A087E08760642064BF
:10210000A068B0F5004F0BD12068006820F04000B7
:10211000216808602068006840F4804021680860F9
:102120002068006800F04000402805D02068006862
:1021300040F0400021680860E068B0F5006F2FD1E2
:10214000606810B1B9F1010F09D1206B00882168D6
:10215000C860206B801C2063E08E401EE0861BE080
:102160002068806800F0020002280AD1206B0088F5
:102170002168C860206B801C2063E08E401EE086D2
:102180000AE0FEF7D3FDC01BA84201D3681C00B9CA
:1021900015B94FF0030A4CE0E08E0028E0D12EE0A4
:1021A000606810B1B9F1010F09D1206B0078216886
:1021B0000873206B401C2063E08E401EE0861BE00D
:1021C0002068806800F0020002280AD1206B0078A5
:1021D00021680873206B401C2063E08E401EE0865F
:1021E0000AE0FEF7A3FDC01BA84201D3681C00B99A
:1021F00015B94FF0030A1CE0E08E0028E0D13A4602
:102200002946204601F020FD08B120206065A06825
:1022100050B900BF002000902068C068009020687E
:102220008068009000BF00BF606D08B14FF0010AE8
:1022300000BF012084F8510000BF002084F8500046
:1022400000BF504636E72DE9FF5F044688469146B9
:102250001D460E9E012002900020019000BF94F8C0
:102260005000012803D1022004B0BDE8F09F0120F6
:1022700084F8500000BFFEF759FD074694F851B0AE
:1022800060680390AA46BBF1010F0BD00398B0F52C
:10229000827F04D1A06810B9BBF1040F02D00220E4
:1022A0000190DBE0B8F1000F03D0B9F1000F00D0CE
:1022B00015B901200190D1E094F85100042802D012
:1022C000052084F8510000206065C4F83890E58747
:1022D000A587C4F83080E586A58620646064206800
:1022E000006800F04000402805D02068006840F0F9
:1022F000400021680860E068B0F5006F4AD160686E
:1023000010B1BAF1010F09D1206B00882168C860B3
:10231000206B801C2063E08E401EE08633E0206846
:10232000806800F00200022810D1E08E70B102989F
:1023300001280BD1206B00882168C860206B801CAD
:102340002063E08E401EE0860020029020688068B6
:1023500000F0010068B1E08F58B12068C068A16B3F
:102360000880A06B801CA063E08F401EE0870120E6
:102370000290FEF7DBFCC01BB04204D3701C10B10E
:10238000032001906AE0E08E0028C8D1E08F002889
:10239000C5D14AE0606810B1BAF1010F09D1206BD4
:1023A000007821680873206B401C2063E08E401E7B
:1023B000E08634E02068806800F00200022810D136
:1023C000E08E70B1029801280BD1206B0078216853
:1023D0000873206B401C2063E08E401EE0860020C6
:1023E00002902068806800F0010068B1E08F58B169
:1023F0002068C068A16B0870A06B401CA063E08FD0
:10240000401EE08701200290FEF790FCC01BB04206
:1024100001D3701C00B916B9032001901EE0E08EB4
:102420000028C7D1E08F0028C4D13A463146204663
:1024300001F00AFC20B101200190202060650DE030
:10244000A06850B900BF002000902068C0680090CC
:1024500020688068009000BF00BF00BF012084F8A2
:10246000510000BF002084F8500000BF0198FBE637
:1024700070B504462546681EB0F1807F01D3012067
:102480000FE0681E4FF0E02148610F214FF0FF3050
:1024900002F048F800204FF0E02188610720086131
:1024A000002070BD7047704730B502460B4600BF34
:1024B00092F83C00012801D1022030BD012082F8B1
:1024C0003C0000BF022082F83D001068446810689C
:1024D000816824F070041868044310684460184D43
:1024E0001068A8421BD01068B0F1804F17D0154D6E
:1024F0001068A84213D0144D1068A8420FD0134D95
:102500001068A8420BD0124D1068A84207D0114D98
:102510001068A84203D0104D1068A84205D121F0E0
:1025200080015868014310688160012082F83D00F5
:1025300000BF002082F83C0000BF00BFBDE70000E4
:10254000000001400004004000080040000C004072
:1025500000040140004001400018004010B504464E
:102560000CB9012010BD94F83D0028B9002084F872
:102570003C00204600F026F8022084F83D00211D92
:10258000206801F0A1FC012084F8460000BF84F817
:102590003E0001213F2001554020015541200155B9
:1025A00000BF00BF012084F84200432001554420B1
:1025B00001554520015500BF012084F83D00002051
:1025C000D0E7000038B504462068B0F1804F18D13C
:1025D00000BF002000903248006840F00100304900
:1025E00008600846006800F00100009000BF00BFCE
:1025F000002211461C20FEF77BFF1C20FEF768FF1F
:102600004CE02849206888420FD100BF002000908C
:102610002348006840F0020021490860084600682D
:1026200000F00200009000BF38E01F492068884297
:1026300018D100BF002000901948006840F0040045
:10264000174908600846006800F00400009000BFC9
:1026500000BF002211461E20FEF74AFF1E20FEF793
:1026600037FF1BE011492068884217D100BF0020C6
:1026700000900B48006840F00800094908600846CF
:10268000006800F00800009000BF00BF0022114663
:102690003220FEF72DFF3220FEF71AFF38BD000072
:1026A000403802400004004000080040000C004098
:1026B000014691F83D00012801D001207047022019
:1026C00081F83D001A4B086898421BD00868B0F1A9
:1026D000804F17D0174B0868984213D0164B0868E4
:1026E00098420FD0154B086898420BD0144B0868DD
:1026F000984207D0134B0868984203D0124B0868E1
:1027000098420CD10868806800F00702062A0CD0B5
:102710000868006840F001000B68186005E0086870
:10272000006840F001000B6818600020C6E7000058
:10273000000001400004004000080040000C004080
:10274000000401400040014000180040014691F89B
:102750003D00012801D001207047022081F83D0092
:102760000868C06840F001000B68D8601A4B086820
:1027700098421BD00868B0F1804F17D0174B0868FB
:10278000984213D0164B086898420FD0154B086832
:1027900098420BD0144B0868984207D0134B086836
:1027A000984203D0124B086898420CD108688068A0
:1027B00000F00702062A0CD00868006840F001000B
:1027C0000B68186005E00868006840F001000B68BD
:1027D00018600020C0E70000000001400004004035
:1027E00000080040000C004000040140004001408F
:1027F000001800402DE9F04104460D46002700BFB7
:1028000094F83C00012802D10220BDE8F0810120AB
:1028100084F83C0000BF022084F83D0020688668F0
:1028200026F0770626F47F462068866028685028C0
:1028300033D00CDC202850D004DC00284BD01028EA
:1028400051D149E0302849D040284CD139E06028A6
:102850002DD0702807D0B0F5805F03D0B0F5005FB1
:1028600041D10DE041E0D5E902136A68206801F02A
:1028700097FB2068866846F077062068866034E01B
:10288000D5E902136A68206801F08AFB2068806835
:1028900040F480402168886027E0EA686968206821
:1028A00001F092FB5021206801F085FB1DE0EA68F1
:1028B0006968206801F09BFB6021206801F07BFBC8
:1028C00013E0EA686968206801F07EFB4021206817
:1028D00001F071FB09E000BF00BF00BF296820685C
:1028E00001F069FB01E0012700BF00BF012084F86F
:1028F0003D0000BF002084F83C0000BF384684E75C
:10290000704710B5044620680069C0F34000D8B194
:102910002068C068C0F34000B0B16FF002002168C9
:102920000861012020772068806900F0030018B159
:102930002046FFF7E5FF05E0204600F0ADF8204611
:1029400000F0ABF80020207720680069C0F3800019
:10295000D8B12068C068C0F38000B0B16FF0040047
:1029600021680861022020772068806900F44070A7
:1029700018B12046FFF7C4FF05E0204600F08CF8B0
:10298000204600F08AF80020207720680069C0F314
:10299000C000D8B12068C068C0F3C000B0B16FF00B
:1029A000080021680861042020772068C06900F0D1
:1029B000030018B12046FFF7A3FF05E0204600F012
:1029C0006BF8204600F069F8002020772068006945
:1029D000C0F30010D8B12068C068C0F30010B0B1D7
:1029E0006FF0100021680861082020772068C06916
:1029F00000F4407018B12046FFF782FF05E0204642
:102A000000F04AF8204600F048F8002020772068BF
:102A1000006900F0010058B12068C06800F00100B2
:102A200030B16FF0010021680861204600F036F8EF
:102A300020680069C0F3C01058B12068C068C0F3B6
:102A4000C01030B16FF08000216808612046FFF7A8
:102A500029FD20680069C0F3801058B12068C06863
:102A6000C0F3801030B16FF040002168086120464B
:102A700000F015F820680069C0F3401058B12068D4
:102A8000C068C0F3401030B16FF0200021680861C9
:102A90002046FFF708FD10BD70477047704770472C
:102AA000704770472DE9F84F044620680568206894
:102AB000C668206847694FF00009CA4605F00F094B
:102AC000B9F1000F0AD105F0200038B106F020005E
:102AD00020B1204601F0EFFABDE8F88FB9F1000F00
:102AE0007CD007F0010018B906F49070002875D06A
:102AF00005F0010030B106F4807018B1206C40F090
:102B00000100206405F0040030B107F0010018B1A5
:102B1000206C40F00200206405F0020030B107F0A4
:102B2000010018B1206C40F00400206405F008009A
:102B300048B106F0200010B907F0010018B1206C70
:102B400040F008002064206C002846D005F02000EA
:102B500028B106F0200010B1204601F0ACFA206840
:102B60004069C0F3801A206C00F0080010B9BAF177
:102B7000000F2DD0204601F058FA2068406900F07F
:102B80004000402820D100BF00BF2168143151E827
:102B9000001F21F040002168143141E80002002AA2
:102BA000F3D100BFA06B50B17548A16B0865A06B55
:102BB000FDF7EBFD88B1A06B016D88470DE0204665
:102BC000FFF76FFF09E009E02046FFF76AFF04E026
:102BD0002046FFF766FF002020647DE7206B012878
:102BE00076D105F01000002872D006F01000002801
:102BF000FAD000BF00200090206800680090206894
:102C00004068009000BF00BF2068406900F04000AD
:102C100040285ED1A06B006840681FFA80F8B8F1C8
:102C2000000F54D0A08D404551DDA4F82E80A06B3C
:102C3000C069B0F5807F43D000BF00BF21680C3170
:102C400051E8001F21F4807021680C3141E8000236
:102C5000002AF3D100BF00BF00BF2168143151E842
:102C6000001F21F001002168143141E80002002A10
:102C7000F3D100BF00BF00BF2168143151E8001F2D
:102C800021F040002168143141E80002002AF3D10C
:102C900000BF202084F83E000020206300BF00BF5A
:102CA00021680C3151E8001F21F0100021680C311F
:102CB00041E80002002AF3D100BFA06BFDF70FFD31
:102CC000A08DE28D801A81B22046FFF7E9FE03E76E
:102CD00040E0A08DE18D401A1FFA80F8E08DC0B36E
:102CE000B8F1000F35D000BF00BF21680C3151E8AA
:102CF000001F21F4907021680C3141E80002002A85
:102D0000F3D100BF00BF00BF2168143151E8001F9C
:102D100021F001002168143141E80002002AF3D1BA
:102D200000BF202084F83E000020206300BF00BFC9
:102D300021680C3151E8001F21F0100021680C318E
:102D400041E80002002AF3D100BF41462046FFF7C8
:102D5000A7FEC1E605F0800030B106F0800018B192
:102D6000204601F03BFBB7E605F0400030B106F02D
:102D7000400018B1204601F08EF9ADE600BFABE689
:102D80001740000810B504460CB9012010BDA06919
:102D900000B100E000BF94F83D0028B9002084F89D
:102DA0003C00204600F028F8242084F83D002068EC
:102DB000C06820F400502168C860204601F0F8F98E
:102DC0002068006920F4904021680861206840690B
:102DD00020F02A00216848612068C06840F4005053
:102DE0002168C86000202064202084F83D0084F819
:102DF0003E000020CAE7000010B586B0044614214A
:102E000001A8FDF727FB85492068884279D100BFDA
:102E1000002000908248006840F01000804908605F
:102E20000846006800F01000009000BF00BF00BF1F
:102E3000002000907A481438006840F0010078497A
:102E4000143908600846006800F00100009000BFD7
:102E500000BF4FF4C0600190022002900020039058
:102E6000032004900720059001A96E48FDF74CFE51
:102E70006D486E4908604FF00060486000216B4863
:102E80008160C1604FF48061016149004161890046
:102E900081614911C161002101624162FDF7AAFD12
:102EA00008B1FDF719FC00BF6048A063846300BF50
:102EB0005D4878305E4908604FF00060486040210E
:102EC0005B4881600021C1604FF480610161002195
:102ED00041618161C16101624162FDF78BFD08B111
:102EE000FDF7FAFB00BF52486063846300BF002215
:102EF00011462520FEF7FCFA2520FEF7E9FA8BE0C3
:102F0000FFE74C492068884232D100BF0020009082
:102F10004348001F006840F400304149091F086021
:102F20000846006800F40030009000BF00BF00BFFA
:102F3000002000903A481438006840F001003849F9
:102F4000143908600846006800F00100009000BFD6
:102F500000BF0C200190022002900020039003206B
:102F600004900720059001A92E48FDF7CDFD53E000
:102F70003149206888424FD100BF00200090284886
:102F8000001F006840F480202549091F086008469A
:102F9000006800F48020009000BF00BF00BF002048
:102FA00000901F481438006840F002001C49143992
:102FB00008600846006800F00200009000BF00BFF3
:102FC00000BF002000900846006840F0080008603C
:102FD0000846006800F00800009000BF00BFC81459
:102FE000019002200290002003900320049007200B
:102FF000059001A91148FDF787FD4FF480700190FD
:1030000002200290002003900320049007200590E6
:1030100001A90B48FDF778FD06B010BD0010014076
:10302000443802400000024040640240DC2100209D
:103030003C220020004400400048004000040240C0
:10304000000C024070472DE9F84F04460E46174623
:1030500099464FF0000A94F83D0020285AD106B155
:1030600017B90120BDE8F88F00BF94F83C00012893
:1030700001D10220F6E7012084F83C0000BF0020C7
:103080002064212084F83D00FDF750FE8246A7848D
:10309000E784A068B0F5805F04D1206910B90025ED
:1030A000B04602E035464FF0000800BF002084F82B
:1030B0003C0000BF1BE05346002280212046CDF893
:1030C000009001F0BBF908B10320CBE745B9B8F88F
:1030D0000000C0F308002168486008F1020803E01E
:1030E0002878216848606D1CE08C401EE084E08CEC
:1030F0000028E0D15346002240212046CDF8009020
:1031000001F09CF908B10320ACE7202084F83D00D1
:103110000020A7E70220A5E7704700BFFEE70146B1
:1031200008684069C0F38020B0B16FF480600A681D
:10313000506100200863202081F83D00002081F8C4
:103140003E00086C40F00400086400BF002081F8D5
:103150003C0000BF012070470020FCE72DE9F84348
:1031600004460F4615469946DDE908862068006842
:1031700040F48060216808602068006840F4807036
:1031800021680860434600224FF001112046009656
:1031900000F032F960B12068006800F48070B0F58A
:1031A000807F02D14FF4007020640320BDE8F883D3
:1031B00007F0FE0021680861334642463E4920463A
:1031C00000F05DF908B10120F0E700BF0020009099
:1031D00020684069009020688069009000BF00BFAF
:1031E00032464146204600F0ECF950B1206C0428EC
:1031F00005D12068006840F4007021680860012053
:10320000D4E7B9F1010F03D1E8B22168086117E0F2
:10321000C5F307202168086132464146204600F088
:10322000D0F950B1206C042805D12068006840F422
:103230000070216808600120B8E7E8B221680861E1
:1032400032464146204600F0BCF950B1206C0428BB
:1032500005D12068006840F40070216808600120F2
:10326000A4E72068006840F4807021680860434645
:1032700000224FF001112046009600F0BDF858B131
:103280002068006800F48070B0F5807F02D14FF4B0
:1032900000702064032089E7F8B240F00100216843
:1032A0000861334642460449204600F0E8F808B178
:1032B00001207BE7002079E7020001002DE9F843B7
:1032C0000446884615469946DDE908672068006887
:1032D00040F4807021680860334600224FF00111ED
:1032E0002046009700F088F860B12068006800F47C
:1032F0008070B0F5807F02D14FF40070206403200D
:10330000BDE8F88308F0FE00216808613B463246BC
:103310002149204600F0B3F808B10120F0E700BFD2
:10332000002000902068406900902068806900902B
:1033300000BF00BF3A463146204600F042F950B186
:10334000206C042805D12068006840F400702168D2
:1033500008600120D4E7B9F1010F03D1E8B2216878
:10336000086117E0C5F30720216808613A46314635
:10337000204600F026F950B1206C042805D12068C1
:10338000006840F40070216808600120B8E7E8B2E6
:10339000216808610020B3E70200010070B504460F
:1033A0000D46164620E02046FFF7B9FE08B1012081
:1033B00070BD681CC0B1FDF7B9FC801BA84200D8E5
:1033C00095B900202063202084F83D00002084F877
:1033D0003E00206C40F02000206400BF002084F8F4
:1033E0003C0000BF0120E3E720684069C0F3800093
:1033F0000028D8D00020DBE72DE9F04104460D4637
:1034000017461E46DDF818801CE0701CD0B1FDF791
:103410008DFCA0EB0800B04200D89EB900202063CC
:10342000202084F83D00002084F83E00206C40F00D
:103430002000206400BF002084F83C0000BF012071
:10344000BDE8F081C5F3074001280AD12068406932
:10345000A9B20840A9B2884201D101200BE00020A6
:1034600009E020688069A9B20840A9B2884201D168
:10347000012000E00020B842C7D00020E0E72DE99D
:10348000F04104460D4616461F463DE0206840695F
:10349000C0F38020E8B12068006840F40070216823
:1034A00008606FF48060216848610020206320205C
:1034B00084F83D00002084F83E00206C40F00400B9
:1034C000206400BF002084F83C0000BF0120BDE85C
:1034D000F081701CC0B1FDF729FCC01BB04200D8C0
:1034E00096B900202063202084F83D00002084F855
:1034F0003E00206C40F02000206400BF002084F8D3
:103500003C0000BF0120E2E7C5F3074001280AD1D3
:1035100020684069A9B20840A9B2884201D10120BF
:103520000BE0002009E020688069A9B20840A9B238
:10353000884201D1012000E000200028A6D0002010
:10354000C5E770B504460D46164632E0206840696E
:10355000C0F30010A0B16FF0100021684861002096
:103560002063202084F83D00002084F83E00206C79
:10357000206400BF002084F83C0000BF012070BD23
:10358000FDF7D4FB801BA84200D895B9002020632A
:10359000202084F83D00002084F83E00206C40F09C
:1035A0002000206400BF002084F83C0000BF012000
:1035B000E5E720684069C0F380100028C6D00020ED
:1035C000DDE770B504460D46164620E02046FFF7BD
:1035D000A6FD08B1012070BD681CC0B1FDF7A6FBB7
:1035E000801BA84200D895B900202063202084F8D1
:1035F0003D00002084F83E00206C40F02000206454
:1036000000BF002084F83C0000BF0120E3E72068F1
:103610004069C0F3C0100028D8D00020DBE70000CC
:1036200008B500BF002000900E48006840F48000FC
:103630000C4908600846006800F48000009000BF54
:1036400000BF002211463A20FDF752FF3A20FDF755
:103650003FFF002211464620FDF74AFF4620FDF7B6
:1036600037FF08BD3038024000B587B0142102A8EA
:10367000FCF7F0FE00BF002001906A48006840F0AF
:103680001000684908600846006800F010000190CA
:1036900000BF00BF00BF002001900846006840F056
:1036A000800008600846006800F08000019000BFBC
:1036B00000BF00BF002001900846006840F00400F1
:1036C00008600846006800F00400019000BF00BFD9
:1036D00000BF002001900846006840F0010008602B
:1036E0000846006800F00100019000BF00BF00BF65
:1036F000002001900846006840F00200086008467B
:10370000006800F00200019000BF00BF00BF002071
:1037100001900846006840F008000860084600680C
:1037200000F00800019000BF00BF00227C213E484D
:10373000FDF7F6FA012210213C48FDF7F1FA0122CB
:1037400010213B48FDF7ECFA01224FF44051394873
:10375000FDF7E6FA002242F202013748FDF7E0FAEF
:1037600000224FF400413148FDF7DAFA7C20029044
:103770000120039000200490059002A92A48FDF73B
:10378000C3F922200290C00303900020049002A9F4
:103790002748FDF7B9F948F2100002900120039084
:1037A00000200490059002A92048FDF7ADF91020F3
:1037B00002900120039000200490059002A91C486B
:1037C000FDF7A2F94FF44050029001200390002031
:1037D0000490059002A91748FDF796F942F20200FD
:1037E00002900120039000200490059002A9124845
:1037F000FDF78AF94FF440400290002003900490B6
:1038000002A90D48FDF780F9012002904FF48810BD
:1038100003900020049002A90748FDF775F907B04E
:1038200000BD00003038024000100240000002409D
:103830000008024000040240000C024010B50B4892
:103840000B4908600B484860002109488160C1604D
:103850004FF480410161002141618161C1610162D8
:10386000FDF76AFA08B1FCF737FF10BD00540040BD
:10387000941E0020801A060010B50E480E490860FC
:103880004FF48270486000210B488160C160016183
:1038900041614FF4007181611021C1610021016219
:1038A000416281620A21C162FEF702FA08B1FCF7A7
:1038B00013FF10BD00300140E81E002010B50E4877
:1038C0000E4908604FF48270486000210B48816007
:1038D000C160016141614FF4007181610821C161E2
:1038E00000210162416281620A21C162FEF7E0F9B2
:1038F00008B1FCF7F1FE10BD00380040401F002069
:1039000010B50E480E4908604FF4827048600021DF
:103910000B488160C160016141614FF400718161B8
:103920000021C1610162416281620A21C162FEF728
:10393000BFF908B1FCF7D0FE10BD0000003C00400C
:10394000981F002000B587B00020039004900590D8
:103950000690019002904FF080401549086042F2B5
:10396000CF00486000211248816047F22F51C160AA
:10397000002101618161FEF7F1FD08B1FCF7ACFEA9
:103980004FF48050039003A90948FEF733FF08B1B4
:10399000FCF7A2FE202001900020029001A904481B
:1039A000FEF782FD08B1FCF797FE07B000BD0000EE
:1039B000F01F002000B587B0002003900490059010
:1039C0000690019002901448144908605320486002
:1039D0000021124881604FF6FF71C1600021016132
:1039E0008161FEF7BBFD08B1FCF776FE4FF4805015
:1039F000039003A90948FEF7FDFE08B1FCF76CFE31
:103A000000200190029001A90448FEF74DFD08B185
:103A1000FCF762FE07B000BD000400403820002023
:103A200000B587B0002003900490059006900190A7
:103A3000029015481549086042F2CF004860002105
:103A40001248816047F22F51C160002101618161FC
:103A5000FEF784FD08B1FCF73FFE4FF48050039061
:103A600003A90A48FEF7C6FE08B1FCF735FE0020A0
:103A70000190029001A90548FEF716FD08B1FCF778
:103A80002BFE07B000BD0000000800408020002091
:103A900000B587B000200390049005900690019037
:103AA000029015481549086042F2CF004860002195
:103AB0001248816042F20F71C16000210161816191
:103AC000FEF74CFD08B1FCF707FE4FF48050039061
:103AD00003A90A48FEF78EFE08B1FCF7FDFD0020A1
:103AE0000190029001A90548FEF7DEFC08B1FCF741
:103AF000F3FD07B000BD0000000C0040C82000200E
:103B000010B50B480B4908604FF4E13048600021C4
:103B100008488160C16001610C214161002181611F
:103B2000C161FFF72FF908B1FCF7D6FD10BD000009
:103B3000001001401021002010B50B480B4908600F
:103B40004FF4E1304860002108488160C1600161A4
:103B50000C21416100218161C161FFF713F908B1B6
:103B6000FCF7BAFD10BD00000044004054210020C5
:103B700010B50B480B4908604FF4E1304860002154
:103B800008488160C16001610C21416100218161AF
:103B9000C161FFF7F7F808B1FCF79EFD10BD00000A
:103BA000004800409821002000BFFEE700BFFEE76C
:103BB0007047F8B504460E4615466068B0F5827F3A
:103BC0000DD1A068B0F5004F03D0A068B0F5806FAC
:103BD00005D12068006820F0400021680860606816
:103BE000B0F5827F1FD1A068B0F5806F0DD033464D
:103BF000002280212046009500F05CF808B3606D3B
:103C000040F0200060650320F8BD3346002201210A
:103C10002046009500F04EF898B1606D40F020000D
:103C200060650320F0E7334600220121204600951D
:103C300000F040F828B1606D40F02000606503207E
:103C4000E2E70020E0E700007CB504460D4616469A
:103C5000164800681821B0FBF1F01549B0FBF1F0EF
:103C60004FF47A71484301906068B0F5827F0DD1BE
:103C70002B46002280212046009600F01BF898B1C8
:103C8000606D40F02000606503207CBD00BF01989E
:103C900000B908E00198401E019020688068C0F3D8
:103CA000C0100028F3D100BF0020EEE78C000020F8
:103CB00040420F002DE9F84F04460D4690461E463F
:103CC000DDF82890FDF732F8A0EB0900371AFDF770
:103CD0002DF882462C480068C0F3CB307843009022
:103CE00045E0701C002842D0FDF720F8A0EB0A0048
:103CF000B84200D2A7BB2068406820F0E0002168ED
:103D000048606068B0F5827F0DD1A068B0F5004FC3
:103D100003D0A068B0F5806F05D12068006820F05E
:103D2000400021680860A06AB0F5005F0DD100BFB7
:103D30002068006820F4005021680860206800684E
:103D400040F400502168086000BF012084F8510051
:103D500000BF002084F8500000BF0320BDE8F88FAA
:103D6000FFE7009800B900270098401E00902068E7
:103D700080682840A84201D1012000E00020404591
:103D8000AFD10020EAE700008C000020704710B59A
:103D9000FDF72AFB10BD000000B593B0302107A845
:103DA000FCF758FB142102A8FCF754FB00BF0020CD
:103DB00001902448006840F080502249086008467D
:103DC000006800F08050019000BF00BF00BF0020DD
:103DD00001901D48006840F480401B490860084677
:103DE000006800F48040019000BF00BF01200790F0
:103DF0000004089002200D9041050E9104210F91BE
:103E0000A8211091022111910421129107A8FDF718
:103E100001FD08B1FCF760FC0F2002900220039026
:103E2000002004904FF4A05005904FF4805006906D
:103E3000052102A8FDF7AEFB08B1FCF74DFC13B05D
:103E400000BD000040380240007000400348006898
:103E500040F47000014908607047000088ED00E000
:103E600010B50648FEF74DFD40210548FCF74EFF12
:103E700000200449096881F86D0010BDF01F002082
:103E8000001002400000002010B50648FEF739FD82
:103E900020210548FCF73AFF00200449096881F811
:103EA0006D0010BD802000200010024004000020A2
:103EB00010B50348FEF725FD01200249087010BD2A
:103EC000C82000207C00002010B50268294B9842D1
:103ED0000ED0B0F1804F0BD0274B984208D0274B23
:103EE000984205D0264B984202D0264B984203D1E7
:103EF00022F070024B681A431E4B984220D0B0F15A
:103F0000804F1DD01C4B98421AD01C4B984217D0A2
:103F10001B4B984214D01B4B984211D01A4B98421D
:103F20000ED01A4B98420BD0194B984208D0194B1F
:103F3000984205D0184B984202D0184B984203D1B2
:103F400022F44072CB681A4322F080034C6943EAA2
:103F5000040202608B68C3620B688362054B98425F
:103F600002D0084B984201D10B69036301234361DE
:103F700010BD0000000001400004004000080040A7
:103F8000000C00400004014000400140004401409A
:103F90000048014000180040001C00400020004084
:103FA00030B50C46816821F47F4142EA0325254360
:103FB0002943816030BD0A46816821F0700142F0DA
:103FC000070319438160704730B50B461446026AF7
:103FD000056A25F001050562816921F0F00141EAD9
:103FE000041122F00A021A438161026230BD30B529
:103FF0000B461446056A25F0100505628169026AC0
:1040000021F4704141EA043122F0A00242EA031295
:104010008161026230BD70B50546AC6B0020E08561
:10402000E0842046FEF73DFD70BD00BF00BF026882
:104030000C3252E8002F22F4907102680C3242E8F0
:104040000013002BF3D100BF00BF00BF0268143281
:1040500052E8002F22F001010268143242E80013F6
:10406000002BF3D100BF016B01290ED100BF00BFAF
:1040700002680C3252E8002F22F0100102680C3264
:1040800042E80013002BF3D100BF202180F83E103E
:1040900000210163704710B504462068C06820F015
:1040A00040002168C860202084F83D002046FFF7CA
:1040B00033F8002010BDF8B5044694F83E002228DD
:1040C00073D1A068B0F5805F0CD1206950B900258C
:1040D000A66A20684068C0F308003080A06A801C8F
:1040E000A06215E0A56A0026A068B0F5805F03D045
:1040F000A06828B9206918B920684068287004E0D1
:104100002068406800F07F002870A06A401CA06210
:10411000E08D401E80B2E085002844D12068C06850
:1041200020F020002168C8602068C06820F48070FA
:104130002168C8602068406920F00100216848615A
:10414000202084F83E00206B012826D10020206327
:1041500000BF00BF21680C3151E8001F21F01000A2
:1041600021680C3141E80002002AF3D100BF206829
:10417000006800F0100010280AD100BF0020009055
:1041800020680068009020684068009000BF00BF71
:10419000A18D2046FEF784FC02E02046FEF752FF88
:1041A0000020F8BD01E00020FBE70220F9E7000055
:1041B0002DE9F84F04462068006920F44050E1687A
:1041C0000843216808612169A068084361690843C0
:1041D000E169084300902068C06849F20C61884397
:1041E000009908432168C8602068406920F4407045
:1041F000A16908432168486176492068884203D054
:1042000075492068884203D1FDF79CFA814602E097
:10421000FDF788FA8146E069B0F5004F6CD10220C5
:104220006168A0FB015003461920A9FB00700146FC
:104230002A463846FCF718F86421B0FBF1F04FEA43
:10424000001A02206168A0FB01510B461920A9FB4E
:1042500000712A463846FCF707F883460220616859
:10426000A0FB015003461920A9FB00712A463846DD
:10427000FBF7FAFF6421B0FBF1F000EBC00101EBAA
:104280000010ABEB8000322101EBC0006421B0FBD9
:10429000F1F000F0F8000AEB400A02206168A0FB90
:1042A000015003461920A9FB007001462A463846F2
:1042B000FBF7DAFF834602206168A0FB015003464A
:1042C0001920A9FB00712A463846FBF7CDFF64216F
:1042D000B0FBF1F000EBC00101EB0010ABEB800094
:1042E000322101EBC0006421B0FBF1F000F00700C7
:1042F0005044216888606AE004206168A0FB015096
:1043000003461920A9FB007001462A463846FBF7F0
:10431000ABFF824604206168A0FB015003461920D0
:10432000A9FB007001462A463846FBF79DFF642131
:10433000B0FBF1F000EBC00101EB0010AAEB800034
:10434000322101EB00106421B0FBF1F000F0F00A23
:1043500004206168A0FB017003461920A9FB0051ED
:104360003A462846FBF780FF6421B0FBF1F00AEBE8
:10437000001A04206168A0FB01510B461920A9FB1B
:1043800000712A463846FBF76FFF834604206168B8
:10439000A0FB015003461920A9FB007001462A46E4
:1043A0003846FBF761FF6421B0FBF1F000EBC00180
:1043B00001EB0010ABEB8000322101EB0010642117
:1043C000B0FBF1F000F00F00504421688860BDE8B8
:1043D000F88F00000010014000140140014691F8E0
:1043E0003D00212828D18868B0F5805F0BD108698D
:1043F00048B90A6A1088C0F308000B685860086A58
:10440000801C086205E00B6A581C086218780B686B
:104410005860C88C401E80B2C88458B90868C0680B
:1044200020F080000B68D8600868C06840F0400049
:104430000B68D860002070470220FCE72DE9F041AE
:1044400004460D4617469846069E34E0701C88B315
:104450002EB1FCF76BFCA0EB0800B0422BD900BFDB
:1044600000BF21680C3151E8001F21F4D070216891
:104470000C3141E80002002AF3D100BF00BF00BFA9
:104480002168143151E8001F21F001002168143126
:1044900041E80002002AF3D100BF202084F83D004B
:1044A00084F83E0000BF002084F83C0000BF0320D9
:1044B000BDE8F081FFE7206800682840A84201D1EC
:1044C000012000E00020B842C0D00020F0E700004A
:1044D00010B50248FEF7E6FA10BD000010210020DA
:1044E00000BFFEE703B401984100009850EAC120E4
:1044F00018BF04204A0D18BF40F0010040F2FF72BF
:10450000B2EB515F08BF40F00200012808BF052050
:1045100002B0704702480068C0F3022070470000F4
:104520000CED00E010B5002804DB0A07130E054A65
:10453000135406E00A07140E034A00F00F031B1F72
:10454000D45410BD00E400E018ED00E000000000CD
:1045500070B5D94B00242DED020B2DED108BDDE94C
:104560001010984205DA20F000429A4201D809D191
:1045700041B19DED100BBDEC108B02B0BDE8704059
:1045800001F086B8B0F5801F26DA11430BD0002861
:1045900013DA0120FBF7B8FFBDEC108B02B0BDE8C9
:1045A000704001F089B80220FBF7AEFF01F058F827
:1045B00051EC100B02F0F4FF9EE06FF035049FED1C
:1045C000C00B53EC102B9DED100B51EC100B03F0B6
:1045D00039FBCDE91001084604EB2051C0F3130468
:1045E000B948A1F2FF31204400F4801080F07F62CE
:1045F00082F04052224301EB20559FEDB50B119202
:1046000053EC102B9DED100B51EC100B03F026FD1D
:1046100041EC180BA01CC0F313009FEDAFDB9FED26
:10462000B0EBB14E7E4403286CD296ED000B51ECFA
:10463000180B53EC102B03F005FA1DD1002D01BF10
:1046400096ED000BBDEC108B02B070BD284603F058
:1046500092FA41EC180B53EC1D2B03F0F3FA41ECEA
:10466000190B53EC1E2B51EC180B03F0EBFA53EC27
:10467000192B02F0D3FF3FE09FED9D0B51EC180B7F
:1046800053EC102B03F0DEFA9FED9B1B53EC112B28
:1046900003F00CFC41EC190B53EC182B51EC180BEC
:1046A00003F0D0FA53EC192B03F0CCFA41EC190BC0
:1046B000002D04BF53EC192B51EC180B1AD02846CF
:1046C00003F059FA41EC1A0B53EC1D2B03F0BAFA24
:1046D00053EC192B03F0EAFB53EC182B03F0BEFC50
:1046E00041EC180B53EC1E2B51EC1A0B03F0AAFAF9
:1046F00053EC182B03F0B2FCBDEC108B02B041EC74
:10470000100B70BD9FED7E0B51EC180B53EC102B72
:1047100002F084FF41EC100B51EC180B53EC102B02
:1047200003F038F841EC190B284603F024FA41EC69
:104730001B0B53EC192B51EC190B03F083FA41ECD2
:104740001A0B714853EC1A2B261851EC1A0B03F074
:1047500079FA41EC1F0B6D48C4F1510404F5D724DC
:10476000B0EE4F0AF0EE6F0A0321784400F0FCFE31
:1047700053EC1F2B51EC100B03F064FA41EC1C0BB3
:104780006348B0EE4F0AF0EE6F0A0421784400F05F
:10479000EBFE53EC1A2B51EC100B03F053FA34439D
:1047A00053EC1C2B02F03AFF41EC1C0B002C4CDDAF
:1047B0009FED510B51EC180B53EC102B03F042FA08
:1047C00053EC182B03F03EFA41EC1A0B55B353ECA3
:1047D0001D2B51EC1B0B03F035FA41EC1D0B53EC78
:1047E0001C2B51EC1A0B02F019FF53EC192B03F0A0
:1047F00029FA53EC1D2B02F011FF53EC1A2B03F096
:1048000055FB53EC182B03F029FC41EC180B53EC2F
:104810001E2B51EC1B0B03F015FA53EC182B03F075
:104820001DFC69E753EC1C2B51EC1A0B02F0F6FE51
:1048300053EC192B03F006FA53EC1A2B03F036FB5A
:1048400053EC182B03F032FB56E735B353EC1D2B1A
:1048500051EC1B0B03F0F6F941EC1A0B53EC1C2B3B
:1048600051EC180B03F0FAFB53EC192B03F0EAF9A7
:1048700053EC1A2B03F0F2FB53EC182B03F0EEFB76
:1048800041EC180B53EC1E2B51EC1B0B03F0DAF927
:1048900053EC182B03F0E2FB2EE753EC1C2B51ECEE
:1048A000180B03F0DBFB53EC192B03F0CBF953ECA3
:1048B000182B03F0FBFA1FE70000F07F0000000058
:1048C0000000000000005043645F09000000000089
:1048D000000000000000F03F763C7935EF39EA3DFA
:1048E0000000E0FE422EE63FD03E00000000000047
:1048F000555555555555D53F000000000000E03F87
:10490000000000000000004086EBF9FFCA3C0000F8
:10491000C03C0000000000002DE9F04D2DED040B1F
:104920002DED0E8B96B0DDE92550279CDDF890A08B
:1049300025F0004624F00048BAF1000F14BF012111
:10494000002101EB4502FC4953184A1093422AD337
:10495000002814BF0123002303EB44030B44F74951
:104960008B4220D358EA00019FEDF59B76D0DFF80B
:10497000D8B35D4503D1BAF1000F05D188E0BAF193
:10498000000F08BF002100D0012101EB450111F506
:10499000001F08D8002814BF0121002101EB4401A9
:1049A00011F5001F0BD99DED261B9DED240B16B0B4
:1049B000BDEC0E8B04B0BDE8F04D00F073BE0027D7
:1049C000002DBCBFE149884521DAE1498845A8BFEF
:1049D00002271CDAC3451ADCDE4901EB28511429F1
:1049E00008DDC1F1340220FA02F101FA02F282423A
:1049F0000DD108E058B9C1F1140228FA02F101FA08
:104A000002F2424503D101F00101C1F1020756EA69
:104A10000A0124D1002C22DA002D18BF022F01D068
:104A2000012F0AD00220FBF76FFD16B0BDEC0E8BF4
:104A300004B0BDE8F04D00F013BE0220FBF764FDAA
:104A400000F00EFE51EC100B02F0AAFD41EC100B31
:104A500016B0BDEC0E8B04B0BDE8F08D18E09FEDF4
:104A6000BEAB9FEDBF8B002871D1B848804522D1E5
:104A700005F1804010F5801008BFBAF1000F07D093
:104A8000B3450ADC002CA8BF9DED260BE0DA0DE053
:104A9000B0EE490AF0EE690ADAE7002C06DA9DED7D
:104AA000260B51EC100B02F07BFD6FE0AE48784412
:104AB00090ED000BCCE7D8454DD1002C48DA2EB153
:104AC00086423AD1BAF1000F42D126E0BAF1000F86
:104AD00013D00220FBF718FD00F0FEFD8DED020B58
:104AE0009DED240B8DED000B10EE900A039961F300
:104AF0001E0003909DED020BAAE78DED02AB9DED2C
:104B0000240B1AEE901A10EE900A8DED000B61F353
:104B10001E0003909DED020B9AE78DED028B9DED3B
:104B2000240B18EE901A10EE900A8DED000B61F335
:104B30001E0003909DED020B8AE709DA9DED240B20
:104B400051EC190B53EC102B02F024FE1EE020E078
:104B50009DED240B7CE786421BDAB4F1804F0DD02B
:104B6000A4F10050B0F1FF5013D1002D11DB9DEDE9
:104B7000240B51EC100B02F03AFA07E09DED240BE8
:104B800053EC102B51EC100B00F0C2BC41EC100B9D
:104B90005EE79DED240B51EC100B01F0BDFCBAF16A
:104BA000000FCDE90E0142D19FED710B46B3A6F186
:104BB000E040B0F17F600CD05E4538D1002D00DAC6
:104BC000A7B3022F0CBF01204FF0FF3002F0D3FF3C
:104BD000DCE7002D01DD002C0DDA002D01DD002CBD
:104BE0001FDB002D16DA002C14DB012F08BF9FED10
:104BF000620B3FF42DAFB0EE4A0AF0EE6A0A27E7E7
:104C0000022F18BF002D0CD0012F0AD1002DFFF666
:104C10001FAF06E0002DB8BF002C08DA012F3FF4CB
:104C200017AFB0EE480AF0EE680A11E71BE001206A
:104C300000EBE57050EA070115D0791EB0EE498A05
:104C4000F0EE698A084308BF9FED4D8B4E48002562
:104C5000804570DD4D494E48884514DDB0420DDB7E
:104C6000002C19DB2FE00120FBF74EFC16B0BDEC49
:104C70000E8B04B0BDE8F04D00F01EBDB34502DC64
:104C8000002C09DC1FE0864202DA002C1BDA03E06C
:104C90005E452BDD002C16DD0220FBF735FC00F015
:104CA0001BFD8DED020B53EC1A2B51EC180B02F08F
:104CB000C9FFCDE900010399019861F31E0003903B
:104CC0009DED020BC4E60220FBF71EFC00F014FD74
:104CD00010EE901A18EE900A8DED020B8DED008B00
:104CE00061F31E0003909DED020BB1E69DED0E0BEE
:104CF00053EC192B51EC100B03F0B0F99FED260B80
:104D0000CDE9080153EC102B9DED080B51EC100B75
:104D100002F098FF9FED221B53EC112B03F0C6F815
:104D20009DED081B53EC112B02F08CFF9FED1E1B19
:104D300053EC112B3CE08CE0FFFF1F00FFFF0F0046
:104D4000000000000000F03F0000F03F0000F07F96
:104D50000000404301FCFFFF000000000000F07F66
:104D60000000000000000000463A000000000000C3
:104D70000000000000000080000000000000F0FFC4
:104D8000000000000000F0BF0000E0410000F04320
:104D9000FFFFEF3F00000000000000000000D03FD8
:104DA000555555555555D53F000000000000E03FD2
:104DB00003F07CF89DED080B41EC1A0B53EC102B23
:104DC00051EC100B02F03EFF53EC1A2B02F03AFFAD
:104DD00041EC1A0B9FEDFE0B53EC102B9DED080BD5
:104DE00051EC100B02F02EFF41EC1B0B9FEDFA0B68
:104DF00051EC1A0B53EC102B02F024FF41EC1A0B70
:104E00009FEDF70B53EC102B9DED080B51EC100BA5
:104E100002F018FF53EC1A2B03F020F941EC1A0BA7
:104E200051EC1B0B53EC1A2B02F0F8FB0690CDE96A
:104E300006519DED060B53EC1B2B51EC100B03F0B0
:104E40000DF953EC1A2B03F031F841EC100B00F084
:104E5000A1B90020B6F5801F0EDA9FEDE30B53ECED
:104E6000102B9DED0E0B51EC100B02F0EBFECDE97B
:104E70000E016FF034000E4600EB2650A0F2FF3713
:104E8000C6F31300DA4940F07F6646F04056884288
:104E9000D8BF002408DDD7498142C8BF012403DC04
:104EA0000024A6F580167F1CD348784400EBC4008C
:104EB0000F9690ED00CB9DED0E0B53EC1C2B51EC9F
:104EC000100B03F0CBF89DED0E0B41EC1B0B53ECDC
:104ED0001C2B51EC100B02F0A1FB41EC100B51EC20
:104EE000190B53EC102B02F055FC41EC1D0B51EC4F
:104EF0001B0B53EC1D2B02F0A5FE41EC1A0BBF4817
:104F00008DED10AB7844109590ED000B4FF00050F4
:104F100040EA660000EB84408DED080B00F50020B0
:104F200009909DED080B53EC1C2B51EC100B03F07A
:104F300095F89DED0E1B53EC112B02F0B7FF41ECE1
:104F4000100B53EC102B9DED100B51EC100B02F0DD
:104F500079FE9DED080B41EC1C0B53EC102B9DEDE5
:104F6000100B51EC100B02F06DFE53EC1B2B02F0FA
:104F70009DFF53EC1C2B03F071F853EC1D2B02F03A
:104F800061FE41EC1C0B53EC1A2B51EC1A0B02F096
:104F900059FE41EC1B0B9A480621B0EE4B0AF0EE8D
:104FA0006B0A784400F0E0FAB0EE401AF0EE601AB6
:104FB000B0EE41DAF0EE61DA53EC1B2B51EC1B0B37
:104FC00002F040FE53EC1D2B02F03CFE9DED100B59
:104FD00041EC1B0B53EC1A2B51EC100B02F01EFB97
:104FE00053EC1C2B02F02EFE53EC1B2B02F016FB95
:104FF0009DED100B41EC1B0B53EC102B51EC100BE7
:1050000002F020FE41EC1D0B9FED7FEB53EC1E2BBD
:1050100002F004FB53EC1B2B02F000FB0890CDE9DF
:1050200008519DED080B53EC1E2B51EC100B03F0B7
:1050300015F853EC1D2B03F011F853EC1B2B02F069
:1050400035FF9DED080B41EC1D0B53EC102B9DED36
:10505000100B51EC100B02F0F5FD41EC1B0B53EC67
:105060001A2B51EC1D0B02F0EDFD9DED080B41ECF0
:105070001A0B53EC102B51EC1C0B02F0E3FD53EC1C
:105080001A2B02F0CBFA41EC1A0B51EC1B0B53EC30
:105090001A2B02F0C3FA0C90CDE90C519DED0C0BCC
:1050A00053EC1B2B51EC100B02F0D8FF53EC1A2BD6
:1050B00002F0FCFE41EC1B0B9FED550B53EC102B4B
:1050C0009DED0C0B51EC100B02F0BCFD41EC1A0BEA
:1050D0009FED510B51EC1B0B53EC102B02F0B2FD6A
:1050E00041EC1B0B9FED4E0B53EC102B9DED0C0B6D
:1050F00051EC100B02F0A6FD53EC1B2B02F08EFAC4
:1051000041EC100B4848784400EBC40090ED001BC4
:1051100051EC100B53EC112B02F080FA41EC1B0BFD
:10512000384602F028FDCDE9080153EC1B2B51EC69
:105130001A0B02F073FA41EC100B3C48784400EB78
:10514000C40090ED00CB51EC100B53EC1C2B02F083
:1051500065FA9DED081B53EC112B02F05FFA0690E7
:10516000CDE906519DED080B53EC102B9DED060B80
:1051700051EC100B02F072FF53EC1C2B02F06EFF8F
:1051800053EC1A2B02F06AFF53EC1B2B02F08EFE3D
:1051900041EC100B9DED261B53EC102B8DED001BED
:1051A00000959DED260B51EC100B02F04BFD9DED93
:1051B000000B41EC1A0B53EC102B9DED260B51EC20
:1051C000100B02F04BFF9DED061B53EC112B2FE053
:1051D000000000604715F73FFE822B654715F73F3B
:1051E00044DF5DF80BAE543E000000000000404379
:1051F0008E9803007AB60B00C2350000F03500002F
:10520000FA34000000000000000000000000084028
:10521000000000E009C7EE3FFD033ADC09C7EE3F9E
:10522000F5015B14E02F3EBE8633000040330000E2
:1052300002F008FD53EC1A2B02F0F0F99DED060B7D
:1052400041EC1A0B53EC102B9DED000B51EC100BA5
:1052500002F0F8FCCDE90C019DED0C0B51EC1A0BA2
:1052600053EC102B02F0DAF9CDE902010C46AA4901
:105270008C422FDB611A084318D19DED0C0B53ECC7
:10528000102B9DED020B51EC100B02F0E7FE41ECF0
:105290001B0B9FEDA30B51EC1A0B53EC102B02F0E0
:1052A000BDF953EC1B2B02F0CBFD2DD20220FBF7F6
:1052B0002BF900F011FA10EE901A18EE900A8DED0D
:1052C000020B8DED008B61F31E0003909DED020B30
:1052D000FFF7BEBB944A24F00041914214D3934996
:1052E000214408437FF4EFAC9DED0C0B53EC102BE5
:1052F0009DED020B51EC100B02F0B0FE53EC1A2B9B
:1053000002F09EFD7FF6DFAC24F000408849894A18
:10531000002601EB205182422BDA481C4FF4801109
:1053200021FA00F02044844AC0F30A517A44A1F2E1
:10533000FF3192ED000B814A8DED080BCA4020EA47
:105340000202C0F3130040F48010C1F1140120FAEE
:1053500001F60992002CB8BF76429DED080B53EC84
:10536000102B9DED0C0B51EC100B02F077FECDE9EC
:105370000C019DED0C0B51EC1A0B53EC102B02F0B1
:105380004DF99FED6F0B0890CDE9085153EC102BB0
:105390009DED080B51EC100B02F054FC41EC1B0B83
:1053A0009FED690B53EC102B9DED080B51EC100B8E
:1053B00002F048FC9DED0C0B41EC1C0B53EC102B48
:1053C0009DED080B51EC100B02F048FE53EC1A2B2C
:1053D00002F06CFD9FED5E1B53EC112B02F032FCD2
:1053E00053EC1C2B02F01AF941EC1A0B51EC1B0B7D
:1053F00053EC1A2B02F012F9CDE902019DED020BDC
:1054000053EC1B2B51EC100B02F028FE53EC1A2B23
:1054100002F04CFD9DED020B41EC1A0B53EC102BEE
:1054200051EC100B02F00EFCCDE908014A489DED4D
:10543000080B0521784400F097F89DED081B51EC0E
:10544000100B53EC112B02F0FDFB9DED021B53ECF6
:10545000112B02F02BFDCDE906019DED020B53EC63
:105460001A2B51EC100B02F0EDFB53EC1A2B02F04F
:10547000D5F89FED3B0B41EC1A0B53EC102B9DED37
:10548000060B51EC100B02F0E9FD9DED060B41EC13
:105490001B0B53EC102B9DED020B51EC100B02F08B
:1054A000D1FB53EC1B2B02F075F953EC1A2B02F0D5
:1054B000D5FD9DED021B53EC112B02F0CFFD53ECFB
:1054C000192B02F0F3FCCDE9020101EB06500115A6
:1054D0000029C8BF039015DC9DED020B324651EC4C
:1054E000100B02F052FFFEF7FDFF042808BF00F08A
:1054F00003F932469DED020B51EC100B02F045FF13
:10550000CDE902019DED020B51EC180B53EC102B71
:1055100002F098FBFFF73ABB00009040000000004B
:10552000FE822B654715973C00CC904000346F3FBE
:1055300001FCFFFF0000E03FC8310000FFFF0F004B
:1055400000000000432EE63F396CA80C615C20BED1
:10555000EF39FAFE422EE63F9830000000000000CE
:10556000000000000000004070B504462DED028BE5
:105570004D1E00EBC500B0EE408AF0EE608A90ED63
:10558000000B35F0060017D053EC182B51EC100B24
:1055900002F058FB41EC100B6D1E04EBC50090EDC2
:1055A000001B51EC100B53EC112B02F037F841ECBF
:1055B000100B35F00600E7D1022D36D0042D1CD09B
:1055C000062D1CBFBDEC028B70BD53EC182B51ECAB
:1055D000100B02F037FB94ED0A1B53EC112B02F079
:1055E0001DF853EC182B02F02DFB94ED081B53EC27
:1055F000112B02F013F841EC100B53EC182B51EC6B
:10560000100B02F01FFB94ED061B53EC112B02F064
:1056100005F853EC182B02F015FB94ED040B53EC3A
:10562000102B01F0FBFF41EC100B53EC182B51EC4D
:10563000100B02F007FB94ED021B53EC112B01F051
:10564000EDFF53EC182B02F0FDFA94ED001B53EC28
:10565000112B01F0E3FFBDEC028B41EC100B70BD90
:105660009FED070B10B553EC102B9FED070B51EC82
:10567000100B02F08FF841EC100B10BD0000000081
:105680000000000000000000000000000000F03FEB
:1056900010B553EC102B51EC100B01F0BFFF41EC97
:1056A000100B10BD10B553EC112B51EC100B01F089
:1056B000B5FF41EC100B10BD9FED050B10B553EC81
:1056C000102B51EC100B02F065F841EC100B10BDE3
:1056D00000000000000000009FED050B10B553EC2A
:1056E000102B51EC100B02F0ADFA41EC100B10BD79
:1056F00000000000000000709FED050B10B553EC9A
:10570000102B51EC100B02F09DFA41EC100B10BD68
:1057100000000000000000102DE9FF4F2DED068B6A
:1057200087B00D4616461A9F0D98012802D0022810
:1057300006D102E04FF0A00807E04FF0A10804E016
:1057400007B0BDEC068BBDE8FF8F00BF9FED2B0BB4
:10575000FEF7FEFEB0EE409AF0EE609A9FED290B48
:10576000FEF7F6FEB0EE40AAF0EE60AA53EC192B5D
:1057700051EC1A0B02F00EF841EC180B02F09EF9F6
:1057800082462C46B819C11700EB916105EBA111B7
:1057900089B206910699081B401C80B205904FF013
:1057A00000090020049023E004FA0AF0304380B29C
:1057B00003903146384600F03FFB83464FF47A7140
:1057C000109848440223CDE901B1009041460F48AA
:1057D000039AFBF799FB601C84B20026A7EB0B0031
:1057E00087B209EB0B001FFA80F90498401C049063
:1057F000DDE904018842D7DB00BFA1E7000000001B
:10580000000000400000000000005040941E0020F6
:105810002DE9FF4F2DED068B87B00D4616461A9FDA
:105820000D98012802D0022806D102E04FF0A0080E
:1058300007E04FF0A10804E007B0BDEC068BBDE81F
:10584000FF8F00BF9FED2D0BFEF782FEB0EE409A5A
:10585000F0EE609A9FED2B0BFEF77AFEB0EE40AAB9
:10586000F0EE60AA53EC192B51EC1A0B01F092FFE9
:1058700041EC180B02F022F982462C46B819C117E8
:1058800000EB916105EBA11189B206910699081B05
:10589000401C80B205904FF000090020049026E0E3
:1058A00004FA0AF0304380B203903146384600F0E3
:1058B000C3FA83464FF47A71109848440223CDE925
:1058C00001B1009041461148039AFBF797FC601C18
:1058D00084B20026A7EB0B0087B209EB0B001FFA7E
:1058E00080F90520FBF7FCF80498401C0490DDE9E2
:1058F00004018842D4DB00BF9EE7000000000000E6
:10590000000000400000000000005040941E0020F5
:1059100010B501460A46C81701EB10700011A1EB43
:1059200000100B46CC1701EB1474241104EB840413
:1059300000EB440010BD000010B52DED108B0446A7
:105940009FEDFD0AB0EE408A204600F099FEFB492B
:1059500008609FEDFB1B9FEDFC0BFEF7DDFFB0EE3B
:1059600040CAF0EE60CAFA48008802F01BF941EC28
:105970001D0B53EC1C2B01F00DFF41EC1A0BF549EC
:105980000968F54A1288881A02F0F5F841EC1B0BF9
:1059900053EC1A2B02F056F941EC190B02F08EF879
:1059A000EE4908600968EE4AB2F90020881802F052
:1059B000E2F841EC1A0B9FEDEB1B9FEDE30BFEF7BA
:1059C000ABFFB0EE40CAF0EE60CAE848B0F90000A4
:1059D00002F0D1F841EC1D0B53EC1C2B02F032F914
:1059E00041EC1B0B53EC1A2B01F0D4FE41EC190BCC
:1059F00002F064F8DE490860D84800680968084485
:105A0000DC49086008460068A0F57A60DA49086059
:105A10009FEDD41B9FEDCC0BFEF77EFFB0EE40AAAE
:105A2000F0EE60AA9FEDD51B9FEDC70BFEF774FF4C
:105A3000B0EE40EAF0EE60EACF49096801FB01F000
:105A400002F099F841EC1F0B53EC1E2B01F0A2FE63
:105A500041EC1C0BCB48B0F9000002F08CF841EC93
:105A60001D0B53EC1C2B02F0EDF841EC1B0B53EC1F
:105A70001A2B01F08FFE41EC190B02F01FF8B74909
:105A800008609FEDB81B9FEDB00BFEF745FFB0EE31
:105A900040AAF0EE60AABC49B1F90010B64A1268FB
:105AA00001FB02F002F067F841EC1B0B53EC1A2BE0
:105AB00001F070FE41EC190B02F000F8AC490860EF
:105AC000A648006809680844B0490860B049B1F9BF
:105AD0000010AE4A126802EB8101A140881CC11778
