:020000040800F2
:100000003007002089010008C51900084B180008B6
:10001000C11900087F030008DF1B00080000000072
:100020000000000000000000000000006D1B000840
:100030008303000800000000C91900086F1B0008B6
:10004000A3010008A3010008A3010008A301000800
:10005000A3010008A3010008A3010008A3010008F0
:10006000A3010008A3010008A3010008A3010008E0
:10007000A3010008A3010008A3010008A3010008D0
:10008000A3010008A3010008A3010008A3010008C0
:10009000A3010008A3010008A3010008A3010008B0
:1000A000A3010008A3010008A3010008A3010008A0
:1000B000A3010008A3010008A3010008A301000890
:1000C000A3010008A3010008A3010008A301000880
:1000D000A3010008A3010008A3010008A301000870
:1000E000A3010008A3010008A301000800F002F822
:1000F00000F03AF80AA090E8000C82448344AAF188
:100100000107DA4501D100F02FF8AFF2090EBAE885
:100110000F0013F0010F18BFFB1A43F0010318473B
:10012000A8200000C8200000103A24BF78C878C179
:10013000FAD8520724BF30C830C144BF04680C60ED
:10014000704700000023002400250026103A28BF35
:1001500078C1FBD8520728BF30C148BF0B60704739
:100160001FB51FBD10B510BD00F0CFF81146FFF749
:10017000F7FF01F0CBFD00F0EDF803B4FFF7F2FF5D
:1001800003BC00F0F5F80000094880470948004723
:10019000FEE7FEE7FEE7FEE7FEE7FEE7FEE7FEE737
:1001A000FEE7FEE704480549054A064B7047000094
:1001B000DD1B0008ED0000083001002030070020A2
:1001C0003003002030030020032A40F2308010F07A
:1001D000030C00F0158011F8013BBCF1020F6244E2
:1001E00098BF11F801CB00F8013B38BF11F8013B73
:1001F000A2F1040298BF00F801CB38BF00F8013B20
:1002000011F0030300F04F80083AC0F0088051F865
:10021000043B083A51F804CBA0E80810F5E7121D9A
:100220005CBF51F8043B40F8043BAFF30080D207B9
:1002300024BF11F8013B11F801CB48BF11F8012B85
:1002400024BF00F8013B00F801CB48BF00F8012BA8
:1002500070474FF0000200B5134694469646203989
:1002600022BFA0E80C50A0E80C50B1F12001BFF46F
:10027000F7AF090728BFA0E80C5048BF0CC05DF8D5
:1002800004EB890028BF40F8042B08BF704748BF23
:1002900020F8022B11F0804F18BF00F8012B704797
:1002A00070477047704710B5203AC0F00B80B1E836
:1002B0001850203AA0E81850B1E81850A0E818509B
:1002C000BFF4F5AF5FEA027C24BFB1E81850A0E8A4
:1002D000185044BF18C918C0BDE810405FEA827CBE
:1002E00024BF51F8043B40F8043B08BF7047D207D5
:1002F00028BF31F8023B48BF11F8012B28BF20F876
:10030000023B48BF00F8012B7047754600F02CF8FF
:10031000AE4605006946534620F00700854618B0F2
:1003200020B5FFF73FFFBDE820404FF000064FF03B
:1003300000074FF000084FF0000B21F00701AC461A
:10034000ACE8C009ACE8C009ACE8C009ACE8C00939
:100350008D46704710B50446AFF300802046BDE8D7
:100360001040FFF70ABF000000487047D00000208F
:1003700001491820ABBEFEE726000200704700BF0F
:10038000FEE7704772B600BFFEE7000070B5044696
:1003900000F0A6F906462546681C10B1044800780E
:1003A000054400BF00F09CF9801BA842FAD370BD41
:1003B0001C0000202DE9F8470346002294466EE118
:1003C0004FF0010808FA02F4D1F8008008EA0400AE
:1003D000A0427DD1DFF8DCA2D1F80480A8EB0A09A5
:1003E000D0453AD014DCB8F1030F50D009DCB8F195
:1003F000000F31D0B8F1010F1CD0B8F1020F49D174
:1004000020E0B8F1110F18D0B8F1120F42D11EE060
:10041000B9F5881F25D006DCB9F5803F20D0B9F5A5
:10042000801F37D11AE0B9F5001F18D0B9F5041FA5
:1004300030D117E0D1F80CC02DE0D1F80C8008F1D4
:10044000040C28E0D1F80C8008F1080C23E0D1F866
:100450000C8008F10C0C1EE000BF00BF00BF00BF05
:1004600000BF00BFD1F80880B8F1000F02D14FF0F3
:10047000040C0BE0D1F80880B8F1010F03D14FF064
:10048000080C1C6102E04FF0080C5C6103E04FF0C7
:10049000000C00E000BF00BFFF2801D8984601E033
:1004A00003F104084646FF2802D84FEA820803E019
:1004B000A2F108084FEA88084746D6F800804FF0B6
:1004C0000F0909FA07F928EA09080CFA07F900E008
:1004D00088E048EA0908C6F80080D1F8048008F0EE
:1004E0008058B8F1805F7DD100BFDFF8CC81D8F8AB
:1004F000188048F00108DFF8C091C9F81880C84694
:10050000D8F8188008F00108CDF8008000BF00BFBF
:100510004FEAB9384FEA920958F829504FEA8278E1
:100520004FEA18794FF00F0808FA09F825EA08058C
:10053000DFF88881434502D14FF0000816E0DFF86C
:100540008081434502D14FF001080FE0DFF874814C
:10055000434502D14FF0020808E0DFF86C814345C3
:1005600002D14FF0030801E04FF004084FEA82790E
:100570004FEA197908FA09F848EA0505DFF84C81CD
:100580004FEA920948F82950D1F8048008F48018FD
:10059000B8F5801F0AD1DFF83881D8F8008048EA22
:1005A0000008DFF82C91C9F8008009E0DFF820810D
:1005B000D8F8008028EA0008DFF81491C9F8008014
:1005C000D1F8048008F40018B8F5001F10D1DFF846
:1005D000008108F10408D8F8008048EA0008DFF834
:1005E000F09000E05AE009F10409C9F800800DE03C
:1005F000DFF8DC8008F10408D8F8008028EA000859
:10060000DFF8CC9009F10409C9F80080D1F8048022
:1006100008F40038B8F5003F0ED1DFF8B480A8F137
:100620000408D8F8008048EA0008DFF8A490A9F18F
:100630000409C9F800800DE0DFF89480A8F10408EF
:10064000D8F8008028EA0008DFF88490A9F10409AE
:10065000C9F80080D1F8048008F48038B8F5803FEC
:100660000ED1DFF86C80A8F10808D8F8008048EABD
:100670000008DFF85C90A9F10809C9F800800DE0D6
:10068000DFF84C80A8F10808D8F8008028EA0008B4
:10069000DFF83C90A9F10809C9F80080521CD1F894
:1006A000008028FA02F8B8F1000F7FF489AEBDE8A7
:1006B000F8870000000011100010024000080140FF
:1006C000000C0140001001400014014008000140EE
:1006D000080401400AB1016101E00B0403617047A5
:1006E00001480068704700001400002070B50446FF
:1006F0000CB9012070BD94F83D0028B9002084F8A1
:100700003C00204600F0DAF8242084F83D00206800
:10071000006820F00100216808602068006840F44B
:100720000040216808602068006820F400402168CB
:10073000086000F097FA05465C496068884206D870
:100740005B48854201D2012007E0002005E05948BE
:10075000854201D2012000E00020012800D1C9E734
:100760005548B5FBF0F62068406820F03F00304364
:10077000216848604D496068884201D8701C07E0D4
:100780004FF4967070434FF47A71B0FBF1F0401C57
:100790002168096A21F03F01084321680862434942
:1007A0006068884214D8681E61684900B0FBF1F0A7
:1007B000401CC0F30B00042801D204203DE0681E59
:1007C00061684900B0FBF1F0401CC0F30B0034E05D
:1007D000A06838B9681E616801EB4101B0FBF1F017
:1007E000401C0AE0681E616801EBC10202EB0111C6
:1007F000B0FBF1F0401C40F48040C0F30B0008B99E
:1008000001201AE0A06848B9681E616801EB410147
:10081000B0FBF1F0401CC0F30B000CE0681E6168F7
:1008200001EBC10202EB0111B0FBF1F0401CC0F37F
:100830000B0040F4804040F400402168C9694CF648
:10084000FF72914308432168C861D4E90701084356
:100850002168096821F0C001084321680860D4E9D3
:10086000031008432168896848F2FF329143084326
:1008700021688860D4E9050108432168C96821F02E
:10088000FF0108432168C8602068006840F001004B
:100890002168086000202064202084F83D000020AA
:1008A000206384F83E0000BF24E70000A08601001A
:1008B00080841E0000093D0040420F0010B586B044
:1008C0000446002002900390049005901A49206885
:1008D00088422FD100BF1948806940F008001749AD
:1008E00088610846806900F00800019000BF00BFE1
:1008F0004FF440700290122003900320059002A94B
:100900000F48FFF757FD00BF0E49486840F0E06010
:1009100040F00200486000BF00BF0848C06940F4D2
:1009200000100649C8610846C06900F40010019033
:1009300000BF00BF06B010BD0054004000100240D0
:10094000000C014000000140034800680349097899
:100950000844014908607047140000201C00002072
:1009600010B50848006840F01000064908600320F0
:1009700000F098F80F2000F007F800F02BF80020A6
:1009800010BD00000020024070B504460E480078FB
:100990004FF47A71B1FBF0F00C490968B1FBF0F546
:1009A000284600F038FF08B1012070BD102C07D296
:1009B00000222146501E00F037F80548046001E08F
:1009C0000120F2E70020F0E71C00002020000020BA
:1009D0001800002008B500BF1148806940F00100F0
:1009E0000F4988610846806900F00100009000BF4F
:1009F00000BF00BF0846C06940F08050C86108468B
:100A0000C06900F08050009000BF00BF00BF0549E2
:100A1000486820F0E06040F00070486000BF08BD0A
:100A200000100240000001402DE9F05F80460D46B5
:100A30001646002701F0D6F8074639462A463346BF
:100A400001F00700C0F1070ABAF1040F02D94FF014
:100A5000040A01E0C0F1070AD14600F1040ABAF124
:100A6000070F02D24FF0000A01E0A0F1030AD446BA
:100A70004FF0010A0AFA09FAAAF1010A0AEA020A7F
:100A80000AFA0CFA4FF0010B0BFA0CFBABF1010B5D
:100A90000BEA030B4AEA0B042146404601F0AAF890
:100AA000BDE8F09F00BF00F00702064B19684FF643
:100AB000FF031940044B0B4343EA0221014B196029
:100AC00000BF70470CED00E00000FA0570B5044669
:100AD0000D460CB9012070BD5A48006800F00700AF
:100AE000A8420ED25748006820F007002843554915
:100AF00008600846006800F00700A84201D0012005
:100B0000E9E7207800F0020002281DD1207800F0EB
:100B10000400042805D14C48406840F4E0604A498C
:100B20004860207800F00800082805D14648406851
:100B300040F46050444948604348406820F0F00069
:100B4000A168084340494860207800F0010078B36C
:100B50006068012806D13C48006800F4003090B974
:100B60000120B8E76068022806D13748006800F025
:100B7000007040B90120AEE73348006800F0020081
:100B800008B90120A7E73048406820F003006168F9
:100B900008432D494860FFF7A3FD064609E0FFF72B
:100BA0009FFD801B41F28831884202D9032092E7E1
:100BB00007E02548406800F00C006168B0EB810F49
:100BC000EDD12048006800F00700A8420ED91D486A
:100BD000006820F0070028431A49086008460068AA
:100BE00000F00700A84201D0012074E7207800F04F
:100BF0000400042807D11448406820F4E060E1684C
:100C0000084311494860207800F00800082808D1FE
:100C10000D48406820F46050216940EAC1000A494B
:100C2000486000F02FF808494968C1F30311074AEA
:100C3000515CC8400649086006480068FFF7A4FEFA
:100C4000002048E70020024000100240B0210008C8
:100C500020000020180000200148006870470000B4
:100C60002000002000B5FFF7F7FF04494968C1F3F1
:100C70000221034A515CC84000BD00000010024040
:100C8000C021000870B500210022002400230020AC
:100C9000134D696801F00C05F5B1042D02D0082D43
:100CA00019D101E00F4819E00F4DC1F38346AB5D48
:100CB00001F4803555B10A4D6D68C5F340450B4EC2
:100CC000725D084D5D43B5FBF2F402E0084D03FB95
:100CD00005F4204602E000BF024800BF00BF70BD1F
:100CE0000010024000127A009E210008AE21000888
:100CF00000093D00F8B504460CB90120F8BD207884
:100D000000F00100002878D0F848406800F00C009E
:100D100004280CD0F548406800F00C00082811D1D8
:100D2000F248406800F48030B0F5803F0AD1EF48C7
:100D3000006800F4003000285FD0606800285CD1B3
:100D40000120DBE700BF6068B0F5803F06D1E748CF
:100D5000006840F48030E549086028E0606858B9D0
:100D6000E248006820F48030E049086008460068E6
:100D700020F4802008601AE06068B0F5A02F0BD145
:100D8000DA48006840F48020D849086008460068C6
:100D900040F4803008600AE0D448006820F48030D5
:100DA000D24908600846006820F48020086000BF2F
:100DB000606888B1FFF794FC054606E0FFF790FCF9
:100DC000401B642801D9032098E7C848006800F454
:100DD00000300028F2D010E0FFF782FC054606E064
:100DE000FFF77EFC401B642801D9032086E7BF483B
:100DF000006800F400300028F2D1207800F00200F2
:100E0000022857D1B948406800F00C0050B1B748EB
:100E1000406800F00C00082818D1B448406800F47D
:100E2000803098B9B148006800F0020020B1206914
:100E3000012801D0012061E7AC48006820F0F800EB
:100E4000616940EAC100A949086033E02069E8B15E
:100E50000120A7490860FFF743FC054606E0FFF7BD
:100E60003FFC401B022801D9032047E79F48006848
:100E700000F002000028F2D09C48006820F0F80042
:100E8000616940EAC1009949086013E0002098496F
:100E90000860FFF725FC054606E0FFF721FC401B34
:100EA000022801D9032029E79048006800F00200D9
:100EB0000028F2D1207800F0080008282DD1A06980
:100EC000B8B101208B490860FFF70AFC054606E02F
:100ED000FFF706FC401B022801D903200EE78348D8
:100EE000406A00F002000028F2D0012000F06EFD00
:100EF00013E000207F490860FFF7F2FB054606E09B
:100F0000FFF7EEFB401B022801D90320F6E67748E5
:100F1000406A00F002000028F2D1207800F00400BE
:100F2000042873D100277148C06900F0805070B95F
:100F300000BF6E48C06940F080506C49C8610846E7
:100F4000C06900F08050009000BF00BF01276A48D0
:100F5000006800F48070B0B96748006840F48070A1
:100F600065490860FFF7BCFB054606E0FFF7B8FBE4
:100F7000401B642801D90320C0E65F48006800F4E4
:100F800080700028F2D000BFE068012806D15748E1
:100F9000006A40F001005549086227E0E06858B94E
:100FA0005248006A20F00100504908620846006A71
:100FB00020F00400086219E0E06805280BD14B48D6
:100FC000006A40F00400494908620846006A40F09F
:100FD000010008620AE04548006A20F00100434928
:100FE00008620846006A20F00400086200BFE0685A
:100FF000A0B1FFF775FB054609E0FFF771FB401B49
:1010000041F28831884202D9032077E622E037484E
:10101000006A00F002000028EFD012E0FFF760FB4A
:10102000054608E0FFF75CFB401B41F2883188422F
:1010300001D9032062E62D48006A00F00200002872
:10104000F0D1012F05D12948C06920F080502749EF
:10105000C86100BFE069C8B32448406800F00C00D4
:10106000082860D0E069022848D10020204908669D
:10107000FFF736FB054606E0FFF732FB401B022870
:1010800001D903203AE61948006800F000700028F2
:10109000F2D1206AB0F5803F07D11448406820F4AF
:1010A0000030A168084311494860D4E908010843A9
:1010B0000E49496821F4741108430C494860012025
:1010C0000B490866FFF70CFB054607E03DE0FFF71C
:1010D00007FB401B022801D903200FE603480068E4
:1010E00000F000700028F2D02FE000000010024055
:1010F0000000424280044242007000400020144937
:101100000866FFF7EDFA054606E0FFF7E9FA401B2F
:10111000022801D90320F1E50E48006800F00070B4
:101120000028F2D111E0E069012800D1E6E5094884
:10113000466806F48031206A814204D106F47011B9
:10114000606A814201D00120D8E50020D6E5000088
:10115000000042420010024010B504460CB90120C4
:1011600010BD606A38B96068B0F5827F00D105E0D3
:101170000021E16102E00021216161610021A162A1
:1011800094F8510028B9002084F85000204600F05F
:1011900043F8022084F851002068006820F04000E5
:1011A00021680860A08800F48270218901F404415C
:1011B0000843A18901F400610843217C01F0020188
:1011C0000843217D01F001010843218B01F40071E6
:1011D0000843217F01F0380108432021095D01F017
:1011E00080010843218D01F4005108432168086003
:1011F0000421A06901EA1040216848602068C069A4
:1012000020F400602168C86100206065012084F836
:1012100051000020A4E7000010B586B0044600206D
:1012200002900390049005901949206888422DD1BE
:1012300000BF1848806940F480501649886108460C
:10124000806900F48050019000BF00BF00BF0846D5
:10125000806940F0040088610846806900F004005D
:10126000019000BF00BFA020029002200390032045
:10127000059002A90848FFF79DF840200290002041
:101280000390049002A90448FFF794F806B010BD3B
:101290000030014000100240000801402DE9F843F1
:1012A0000446884616461D464FF0000994F8510042
:1012B000012802D04FF00209A8E06068B0F5827FF3
:1012C0000DD1A06858B9042084F851003346424635
:1012D00041462046009500F07EF9BDE8F88300BF46
:1012E00094F85000012801D10220F6E7012084F88B
:1012F000500000BFFFF7F4F90746B8F1000F00D027
:1013000016B94FF0010981E0042084F85100002053
:101310006065C4F83880A687E6872063A086E086EB
:1013200020646064A068B0F5004F0BD120680068AD
:1013300020F04000216808602068006820F48040A8
:10134000216808602068006800F04000402805D04F
:101350002068006840F0400021680860E06810BB29
:101360001DE02068806800F0010050B12068007B1B
:10137000A16B0870A06B401CA063E08F401EE0874B
:101380000DE0FFF7ADF9C01BA84201D3681C00B9FE
:101390002DB94FF00309012084F8510036E0E08FA9
:1013A0000028DED121E01DE02068806800F0010007
:1013B00050B12068C068A16B0880A06B801CA0633E
:1013C000E08F401EE0870DE0FFF78AF9C01BA842BE
:1013D00001D3681C00B92DB94FF00309012084F82E
:1013E000510013E0E08F0028DED13A46294620461E
:1013F00000F000FB08B120206065606D10B14FF077
:10140000010902E0012084F8510000BF00BF002064
:1014100084F8500000BF48465FE72DE9F84F0446C6
:10142000884616461D464FF0000A00BF94F850004B
:10143000012802D10220BDE8F88F012084F8500075
:1014400000BFFFF74DF90746B14694F85100012857
:1014500002D04FF0020AB7E0B8F1000F00D016B981
:101460004FF0010AB0E0032084F8510000206065CD
:10147000C4F83080A686E686A063A087E087606413
:101480002064A068B0F5004F0BD12068006820F000
:101490004000216808602068006840F480402168AE
:1014A00008602068006800F04000402805D02068EF
:1014B000006840F0400021680860E068B0F5006F07
:1014C00032D1606810B1B9F1010F09D1206B0088E9
:1014D0002168C860206B801C2063E08E401EE0867F
:1014E0001EE02068806800F0020002280AD1206B0C
:1014F00000882168C860206B801C2063E08E401E3D
:10150000E0860DE0FFF7ECF8C01BA84201D3681C91
:1015100000B92DB94FF0030A012084F8510053E0BF
:10152000E08E0028DDD131E0606810B1B9F1010F23
:1015300009D1206B007821680873206B401C206360
:10154000E08E401EE0861EE02068806800F0020009
:1015500002280AD1206B007821680873206B401C98
:101560002063E08E401EE0860DE0FFF7B9F8C01B57
:10157000A84201D3681C00B92DB94FF0030A01201D
:1015800084F8510020E0E08E0028DDD13A4629465B
:10159000204600F06BFA08B120206065A06850B9C1
:1015A00000BF002000902068C0680090206880681C
:1015B000009000BF00BF606D10B14FF0010A02E063
:1015C000012084F8510000BF00BF002084F85000C3
:1015D00000BF50462FE72DE9FF5F0446884691463D
:1015E0001D460E9E012002900020019000BF94F83D
:1015F0005000012803D1022004B0BDE8F09F012073
:1016000084F8500000BFFFF76BF8074694F851B01C
:1016100060680390AA46BBF1010F0BD00398B0F5A8
:10162000827F04D1A06810B9BBF1040F02D0022060
:101630000190E9E0B8F1000F03D0B9F1000F00D03C
:1016400015B901200190DFE094F85100042802D080
:10165000052084F8510000206065C4F83890E587C3
:10166000A587C4F83080E586A5862064606420687C
:10167000006800F04000402805D02068006840F075
:10168000400021680860E068B0F5006F4DD16068E7
:1016900010B1BAF1010F09D1206B00882168C86030
:1016A000206B801C2063E08E401EE08636E02068C0
:1016B000806800F00200022810D1E08E70B102981C
:1016C00001280BD1206B00882168C860206B801C2A
:1016D0002063E08E401EE086002002902068806833
:1016E00000F0010068B1E08F58B12068C068A16BBC
:1016F0000880A06B801CA063E08F401EE087012063
:101700000290FEF7EDFFC01BB04207D3701C28B15A
:1017100003200190012084F8510075E0E08E00283C
:10172000C5D1E08F0028C2D14DE0606810B1BAF198
:10173000010F09D1206B007821680873206B401CD1
:101740002063E08E401EE08637E02068806800F06D
:101750000200022810D1E08E70B1029801280BD14E
:10176000206B007821680873206B401C2063E08E9A
:10177000401EE086002002902068806800F0010092
:1017800068B1E08F58B12068C068A16B0870A06B89
:10179000401CA063E08F401EE08701200290FEF70E
:1017A0009FFFC01BB04201D3701C00B92EB90320AB
:1017B0000190012084F8510026E0E08E0028C4D179
:1017C000E08F0028C1D13A463146204600F04EF95C
:1017D00020B1012001902020606515E0A06850B97B
:1017E00000BF002000902068C068009020688068DA
:1017F000009000BF00BF606D10B10120019002E0B9
:10180000012084F8510000BF00BF002084F8500080
:1018100000BF0198F0E670B504462546681EB0F199
:10182000807F01D301200FE0681E4FF0E021486166
:101830000F214FF0FF3000F0DDF900204FF0E021E4
:10184000886107200861002070BD00BFFEE700002E
:1018500000B585B00020019002900390049000BF75
:101860003348806940F0200031498861084680692A
:1018700000F02000009000BF00BF00BF0846806954
:1018800040F0040088610846806900F00400009080
:1018900000BF00BF00BF0846806940F008008861B3
:1018A0000846806900F00800009000BF00BF0022D9
:1018B00014212048FEF70EFF002201211E48FEF7EA
:1018C00009FF1420019001200290002003900220C3
:1018D000049001A91748FEF76DFD48F608700190C5
:1018E00000200290039001A91248FEF763FD012039
:1018F00001900290002003900220049001A90E485C
:10190000FEF758FD022001900C4802900020039041
:1019100001A90948FEF74EFD4FF4704001900020E8
:101920000290039001A90448FEF744FD05B000BDF4
:101930000010024000080140000C0140000011109E
:1019400010B50B480B4908600B4848600021094856
:101950008160C1604FF4804101610021416181617A
:10196000C1610162FEF7C2FE08B1FEF70BFD10BDBA
:101970000054004024000020A086010010B50E484D
:101980000E4908604FF48270486000210B48816066
:10199000C160016141614FF4007181610821C16141
:1019A00000210162416281620A21C162FFF7D4FB1A
:1019B00008B1FEF7E7FC10BD0030014078000020C0
:1019C00000BFFEE700BFFEE77047000008B508490A
:1019D0000968C9084FF47A72B1FBF2F141430091F2
:1019E00000BF00BF00994A1E00920029F9D108BD2E
:1019F00020000020F8B504460E4615466068B0F594
:101A0000827F0DD1A068B0F5004F03D0A068B0F57B
:101A1000806F05D12068006820F0400021680860D0
:101A20006068B0F5827F11D1A068B0F5806F0DD1EC
:101A30003346002201212046009500F02BF898B192
:101A4000606D40F0200060650320F8BD3346002241
:101A500080212046009500F01DF828B1606D40F00F
:101A6000200060650320F0E70020EEE7F8B50446AB
:101A70000D4616462B46002280212046009600F097
:101A800009F828B1606D40F0200060650320F8BDC2
:101A90000020FCE72DE9F84F04460D4690461E460F
:101AA000DDF82890FEF71CFEA0EB0900371AFEF7C0
:101AB00017FE82462C480068C0F3CB307843009074
:101AC00045E0701C002842D0FEF70AFEA0EB0A0099
:101AD000B84200D2A7BB2068406820F0E00021682F
:101AE00048606068B0F5827F0DD1A068B0F5004F06
:101AF00003D0A068B0F5806F05D12068006820F0A1
:101B0000400021680860A06AB0F5005F0DD100BFF9
:101B10002068006820F40050216808602068006890
:101B200040F400502168086000BF012084F8510093
:101B300000BF002084F8500000BF0320BDE8F88FEC
:101B4000FFE7009800B900270098401E0090206829
:101B500080682840A84201D1012000E000204045D3
:101B6000AFD10020EAE7000020000020704710B548
:101B7000FEF7EAFE10BD00B58FB0282105A8FEF7DC
:101B800068FB14216846FEF764FB01200590000401
:101B90000690002007900120099002200C90C103BC
:101BA0000D914FF4E0110E9105A8FFF7A3F808B1CD
:101BB000FEF7E8FB0F200090022001900020029029
:101BC0004FF4806003900020049002216846FEF7E5
:101BD0007DFF08B1FEF7D6FB0FB000BD704700BF18
:101BE000FEE7000002480068C0F3022070470000D2
:101BF0000CED00E010B5002804DB0A07130E054ABF
:101C0000135406E00A07140E034A00F00F031B1FCB
:101C1000D45410BD00E400E018ED00E070B50446B7
:101C20000025012000EB8400012101EBC000C5B2BA
:101C30000822284600F070FA70BD2DE9F0410446F4
:101C4000012000EB8400012101EBC000C6B2292174
:101C5000304600F08DF907462821304600F088F91B
:101C600047EA00252846BDE8F0812DE9F041044609
:101C70000026012000EB8400012101EBC000C6B268
:101C80002721304600F074F907462621304600F03F
:101C90006FF947EA00252846BDE8F08170B5044693
:101CA0000026012000EB8400012101EBC000C6B238
:101CB0000321304600F05CF90546284670BD2DE949
:101CC000F0410446012000EB8400012101EBC0003B
:101CD000C6B22521304600F04BF907462421304694
:101CE00000F046F947EA00252846BDE8F08170B5C6
:101CF00004460025012000EB8400012101EBC00017
:101D0000C5B20222284600F007FA70BDFEF728FE91
:101D1000FFF731FFFFF79CFDFFF712FEFFF72EFEE6
:101D200000F005F802E0002000F0C0F8FBE710B575
:101D300000F086F810BD70B504460D46002601205F
:101D400000EB8400012101EBC000C6B2EAB2002121
:101D5000304600F0E1F901221146304600F0DCF98E
:101D600070BD70B50446012000EB8400012101EB39
:101D7000C000C5B24022284600F0CEF970BD70B553
:101D80000446012000EB8400012101EBC000C5B234
:101D90002022284600F0C0F970BD70B505460C46FB
:101DA000012000EB8500012101EBC000C6B2221228
:101DB0000421304600F0B0F9E2B20521304600F0CF
:101DC000ABF970BD70B504460025012000EB84001E
:101DD000012101EBC000C5B206E00321284600F056
:101DE000C7F8132800D100E0F7E700BF70BD70B559
:101DF00004460025012000EB8400012101EBC00016
:101E0000C5B206E00321284600F0B2F8142800D13C
:101E100000E0F7E700BF70BD10B5002201210748C0
:101E2000FEF758FC4620FEF7B1FA0122114603489E
:101E3000FEF750FC4620FEF7A9FA10BD000C014049
:101E400010B5FFF7E9FF00F040F9134800F01BF967
:101E5000124800F0D0F8124800F0FDF8114800F0E8
:101E6000E2F8114801880020FFF797FF01210020C8
:101E7000FFF761FF0020FFF7A5FF0020FFF737FF06
:101E80000020FFF7B4FF4FF4FA70FEF77FFA00204E
:101E9000FFF704FF10BD0000000000200A00002032
:101EA0000E000020060000201200002070B59CB03B
:101EB00005462846FFF7F2FE172836D12846FFF7D9
:101EC000D4FE04460CB91CB070BD2846FFF7B5FE21
:101ED000064623460EAA3146284600F071F82246EF
:101EE0000EA90DF10300FEF76FF92846FFF7E7FE94
:101EF000064623466A463146284600F033F928460E
:101F0000FFF72FFF2846FFF73AFF2846FFF786FE28
:101F100001212846FFF70FFF2846FFF753FF284609
:101F2000FFF7E5FE2846FFF762FF00BFCBE70000A2
:101F300070B504460D46002210210B48FEF7CAFB7F
:101F40004FF0FF33032221460848FFF766FA4FF0AF
:101F5000FF332A4621460548FFF7A0F90122102148
:101F60000148FEF7B7FB70BD000801407800002073
:101F7000FEB505460C460020029020128DF80800A0
:101F8000E0B28DF809008DF80A50002210210A48AD
:101F9000FEF7A0FB4FF0FF30042301AA02A9009036
:101FA0000648FFF718FB012210210348FEF792FBB9
:101FB0009DF807603046FEBD000801407800002013
:101FC0002DE9F04107460D46144698462646032063
:101FD00000EB8700002141EAC000B0704FF47F4061
:101FE00000EA052040EA1520308041463046FFF7E0
:101FF0009FFFBDE8F08170B50446002522780121DD
:10200000284600F089F862780221284600F084F81A
:10201000A2780321284600F07FF8E27804212846C0
:1020200000F07AF870BD70B50446002522780F21C3
:10203000284600F071F862781021284600F06CF80C
:10204000A2781121284600F067F8E278122128468C
:1020500000F062F870BD70B50446002522780521B5
:10206000284600F059F862780621284600F054F816
:10207000A2780721284600F04FF8E2780821284688
:1020800000F04AF870BD70B5044600252278092199
:10209000284600F041F862780A21284600F03CF812
:1020A000A2780B21284600F037F8E2780C21284668
:1020B00000F032F822790D21284600F02DF86279DF
:1020C0000E21284600F028F870BD10B50024012428
:1020D00080220021204600F01FF86420FEF756F908
:1020E00010BD000070B504460D46002210210848BE
:1020F000FEF7F0FA4FF0FF332A4621460548FFF776
:102100008CF9012210210248FEF7E4FA70BD0000AC
:102110000008014078000020F8B505460C46164638
:1021200020128DF80000E0B28DF8010045F00400A7
:102130008DF802008DF80360002210210748FEF799
:10214000C9FA4FF0FF33042269460548FFF765F9E5
:10215000012210210148FEF7BDFAF8BD0008014038
:10216000780000202DE9F04107460D4614469846B8
:102170002646022000EB8700042101EBC000B0706E
:102180004FF47F4000EA052040EA1520308008F136
:10219000030081B23046FFF7A5FFBDE8F0810203DE
:1021A0000405060708090A0B0C0D0E0F101001029A
:1021B00000000000000000000102030406070809F7
:1021C0000000000001020304E821000800000020D4
:1021D00024000000280100080C2200082400002030
:1021E0000C07000044010008001542BFF051C0A8D0
:1021F00001C5C0A80101FFFFFF0050000000000062
:0C22000010000000010000000024F400A9
:04000005080000ED02
:00000001FF
