:020000040800F2
:100000009027002029020008CB270008D91F0008EC
:10001000C9270008D3050008912C00080000000043
:100020000000000000000000000000003D29000862
:10003000D505000800000000CD2700083F29000872
:10004000430200084302000843020008430200087C
:10005000430200084302000843020008430200086C
:10006000430200084302000843020008430200085C
:10007000430200084302000843020008430200084C
:10008000430200084302000843020008430200083C
:10009000430200084302000843020008430200082C
:1000A000430200084302000843020008430200081C
:1000B000E929000843020008112A00084302000849
:1000C00043020008430200084302000843020008FC
:1000D00043020008430200084302000843020008EC
:1000E00043020008430200084302000843020008DC
:1000F00043020008430200084302000843020008CC
:100100004302000843020008392A0008430200089D
:1001100043020008430200084302000843020008AB
:10012000430200084302000843020008430200089B
:10013000430200084302000843020008430200088B
:10014000430200084302000843020008430200087B
:10015000430200084302000843020008430200086B
:10016000430200084302000843020008430200085B
:100170004302000843020008430200080000000098
:10018000430200084302000800F002F800F03CF8C7
:100190000AA090E8000C82448344AAF10107DA45E2
:1001A00001D100F031F8AFF2090EBAE80F0013F0F8
:1001B000010F18BFFB1A43F001031847AC4E0000B3
:1001C000CC4E0000103A24BF78C878C1FAD8520744
:1001D00024BF30C830C144BF04680C6070470000C1
:1001E0000023002400250026103A28BF78C1FBD840
:1001F000520728BF30C148BF0B6070471FB504F0DD
:10020000FFFE1FBD10B510BD00F0AEF91146FFF79F
:10021000F5FF03F069FC00F0CCF903B4FFF7F2FF3F
:1002200003BC00F0CFF900000948804709480047A7
:10023000FEE7FEE7FEE7FEE7FEE7FEE7FEE7FEE796
:10024000FEE7FEE704480549054A064B70470000F3
:10025000D92900088901000890210020902700205A
:10026000902300209023002053EA020C00F06980C4
:100270002DE9F04B4FF00006002B1FBFB3FA83F5BA
:1002800003FA05F424FA05F65E4012BF1643B2FAEB
:1002900082F502FA05F4C5F120051EBF22FA05FC1D
:1002A00044EA0C04203556EA044C4FEA144418BFC3
:1002B000641C4FF000084FF00009904271EB030CF2
:1002C00039D3002919BFB1FA81F701FA07F6B0FA5C
:1002D00080F700FA07F6C7F120071EBF20FA07FCD7
:1002E00046EA0C062037B6FBF4FCA7EB0507103FE7
:1002F00007F01F0BCBF120060CFA0BFB2CFA06F6CD
:1003000044BFB3460026202FA4BF5E464FF0000B2B
:100310005BEA060C08BF4FF0010B19EB0B09ABFBB6
:10032000027C48EB0608C01B06FB02CC0BFB03CC8F
:1003300071EB0C01C1E70B46024641464846BDE859
:10034000F08B13B54FF000004FF00001AFF30080C9
:10035000BDE81C407047032A40F2308010F0030CC7
:1003600000F0158011F8013BBCF1020F624498BF08
:1003700011F801CB00F8013B38BF11F8013BA2F1A5
:10038000040298BF00F801CB38BF00F8013B11F020
:10039000030300F02580083AC0F0088051F8043BC0
:1003A000083A51F804CBA0E80810F5E7121D5CBF2D
:1003B00051F8043B40F8043BAFF30080D20724BF60
:1003C00011F8013B11F801CB48BF11F8012B24BFF4
:1003D00000F8013B00F801CB48BF00F8012B704743
:1003E00010B5203AC0F00B80B1E81850203AA0E8D0
:1003F0001850B1E81850A0E81850BFF4F5AF5FEA04
:10040000027C24BFB1E81850A0E8185044BF18C9B6
:1004100018C0BDE810405FEA827C24BF51F8043B5D
:1004200040F8043B08BF7047D20728BF31F8023BB1
:1004300048BF11F8012B28BF20F8023B48BF00F845
:10044000012B704702F0FF0343EA032242EA024213
:1004500000F062B84FF0000200B51346944696468D
:10046000203922BFA0E80C50A0E80C50B1F12001C7
:10047000BFF4F7AF090728BFA0E80C5048BF0CC075
:100480005DF804EB890028BF40F8042B08BF7047D3
:1004900048BF20F8022B11F0804F18BF00F8012B45
:1004A000704710B5044610F0030F08BF11F0030F9A
:1004B00040F015804FF0013E121FC0F20E8051F83F
:1004C000043BA3EB0E0C2CEA030C1CEACE1C08BF69
:1004D00040F8043BF0D0A1F1040102F10402521EE5
:1004E00008DB11F8013B002B00F8013BF7D1114666
:1004F00000F010F8204610BD70477047704710B5E7
:1005000000F02AF8006810BD10B5044600F024F889
:10051000046010BD4FF000020429C0F0128010F0FA
:10052000030C3FF499AFCCF1040CBCF1020F18BFDF
:1005300000F8012BA8BF20F8022BA1EB0C01FFF75C
:100540008BBF5FEAC17C24BF00F8012B00F8012BB0
:1005500048BF00F8012B7047004870472C2100204D
:10056000004870472C2100207546FFF7F9FFAE4682
:1005700005006946534620F00700854618B020B5AF
:10058000FFF760FEBDE820404FF000064FF0000787
:100590004FF000084FF0000B21F00701AC46ACE82B
:1005A000C009ACE8C009ACE8C009ACE8C0098D4698
:1005B000704710B50446AFF300802046BDE81040F8
:1005C000FFF72BBE01491820ABBEFEE72600020054
:1005D0007047FEE77047000070B5044600F018F958
:1005E0000546601C02D004480078044400F010F96D
:1005F000401BA042FAD370BD280000202DE9F84F1F
:10060000DFF8BCA10022012503264FF00F090AF1F3
:10061000040BAAF1040E00BF0B6805FA02F4234094
:10062000A34270D10F7907F00307012F01D0022FE9
:1006300016D187684FEA420806FA08FC27EA0C0739
:10064000D1F80CC00CFA08FC4CEA070CC0F808C042
:100650004768A7430C79C4F3001494403C434460BA
:100660000C79E443A4070AD0C4684FEA420C06FAA6
:100670000CF7BC438F6807FA0CF72743C7600C7967
:1006800004F00304022C12D1D40800EB840CDCF833
:1006900020405707FF0E09FA07F824EA0804D1F8AA
:1006A000108008FA07F848EA0408CCF820800468AB
:1006B0004FEA420C06FA0CF7BC430F7907F0030728
:1006C00007FA0CF7274307604C6814F4403F70D0DA
:1006D0003C4C276847F480472760246822F00307D2
:1006E00004F480440094384C07EB040CDCF8084810
:1006F00097074FEA177809FA08F7BC43334FB84217
:1007000002D1002724E054E0314FB84201D1012743
:100710001EE0304FB84201D1022719E02E4FB842F7
:1007200001D1032714E02D4FB84201D104270FE077
:100730002B4FB84201D105270AE02A4FB84201D118
:10074000062705E0284FB84201D1072700E0082717
:1007500007FA08F72743CCF80878DAF8004057463C
:10076000D1F804C09C435FEACC2C00D51C433C600C
:10077000DBF800405F46D1F804C09C435FEA8C2C54
:1007800000D51C433C60DEF800407746D1F804C039
:100790009C435FEA8C3C00D51C433C60084F083FFB
:1007A0003C68D1F804C09C435FEACC3C00D51C43B4
:1007B0003C60521C102AFFF42FAFBDE8F88F0000F8
:1007C000083C014044380240003001400000024033
:1007D0000004024000080240000C024000100240E9
:1007E0000014024000180240001C0240006908404A
:1007F00000D001207047426921EA02030A4043EA1F
:100800000241816170470AB1816170470904FBE7C9
:1008100001488068704700002800002070B504007F
:1008200025D094F83D00002520B984F83C5020469E
:1008300000F04CFA242084F83D002068016821F083
:10084000010101602068016841F4004101602068F5
:10085000016821F40041016000F0A0FB4D4A61688D
:10086000914201D84C4900E04C49884201D2012014
:1008700070BD4B492368B0FBF1F15E6826F03F067E
:100880000E435E606368934206D94FF496735943F2
:100890004FF47A73B1FBF3F12368491C1E6A26F00A
:1008A0003F06314319626168914210D84900401EE9
:1008B000B0FBF1F2521CC2F30B02042A01D2042055
:1008C00022E0B0FBF1F0401CC0F30B001CE0A2687A
:1008D000F2B301EBC10303EB0116431EB3FBF6F3C6
:1008E0005B1C43F480431B0549D092B301EBC1026A
:1008F00002EB0111401EB0FBF1F0401CC0F30B00F5
:1009000040F4804040F400402168CA694CF6FF730F
:100910009A431043C861D4E9071001432068026874
:1009200022F0C00211430160D4E9030101432068B1
:10093000826848F2FF339A4311438160D4E905018C
:1009400008432168CA6822F0FF021043C86001E032
:100950000EE016E02068016841F0010101602564A5
:10096000202084F83D00256384F83E50002070BDAF
:1009700001EB4106431EB3FBF6F35B1CB3E701201A
:10098000C2E701EB4101401EB0FBF1F0401CC0F397
:100990000B00B7E7A086010080841E0000093D001F
:1009A00040420F002DE9FF4F83B09A46DDE91197D1
:1009B00093460446DDF84080FFF72AFF054694F889
:1009C0003D00202870D1192301227149204600954D
:1009D00001F012FC0028F5D194F83C00012863D006
:1009E000012084F83C0020680168C90703D1016830
:1009F00041F0010101602068016821F4006101609B
:100A0000222084F83D00402084F83E000026266421
:100A1000C4F82480A4F82A90608D20855D48E062A7
:100A2000CDE9007553465A462046049901F0ECFA88
:100A300000287CD1208DD0B1012821D00228206847
:100A400024D0416980690090208D032869D801284D
:100A50002BD0514902283B464FF00002009559D057
:100A60008846204601F0C8FB002860D13CE02068A1
:100A7000416981690091016841F40071016077E08A
:100A80002068016821F480610160F0E7016821F4C9
:100A9000806101602068016841F4006101602068A4
:100AA00041698069009063E06FE02A46394620463C
:100AB00001F021FC98BB20680069616A08704EE073
:100AC0002068016841F40071016020680069616A72
:100AD0000870606A401C6062218D491E2185618D0D
:100AE000491E6185216838E02068016821F4806131
:100AF000016020680069616A0870606A401C606279
:100B0000208D401E2085608D401E60853B46002262
:100B100041460095204601F06FFB00B9D0E706E0A2
:100B2000FFE72A463946204601F0E5FB18B10120CF
:100B300007B0BDE8F08F20680069616A0870606ADC
:100B4000401C6062218D491E2185618D491E618591
:100B500021684A69D24352070AD409690170606A60
:100B6000401C6062208D401E2085608D401E608587
:100B7000208D00287FF468AF202084F83D0084F8A1
:100B80003E6084F83C600020D2E70220D0E70000FD
:100B9000020010000000FFFF040001002DE9FF4FDC
:100BA00083B09A46DDE9119793460446DDF840800C
:100BB000FFF72EFE054694F83D0020287FD119232B
:100BC000012240492046009501F016FB002876D10D
:100BD00094F83C00012872D0012084F83C00206881
:100BE0000168C90703D1016841F001010160206873
:100BF000016821F400610160212084F83D0040205B
:100C000084F83E0000262664C4F82480A4F82A90C4
:100C1000608D20852C48E062CDE9007553465A4628
:100C20002046049901F06EFA70B930E02A46394640
:100C3000204601F093FB58B1206C042804D12068B1
:100C4000016841F400710160012007B0BDE8F08F38
:100C5000606A216800780861606A401C6062218DCA
:100C6000491E89B22185628D521E628522685369B0
:100C7000DB435B070BD469B100781061606A401CEC
:100C80006062208D401E2085608D401E6085208D15
:100C90000028CBD12A463946204601F087FA0028A1
:100CA000CAD154F83D0B016841F400710160202065
:100CB00004F81E09E67766770020C6E7FFE7022002
:100CC000C3E70000020010000000FFFF10B586B06F
:100CD000044614216846FFF7BDFB1349206888428B
:100CE00020D112480021026842F00202026000682E
:100CF00000F002000590C02000901220CDE9010113
:100D0000022003900420049069460948FFF776FC0E
:100D100006481030016841F400110160006800F4D9
:100D20000010059006B010BD00540040303802405D
:100D300000040240024881680278114481607047D3
:100D4000280000200B4810B5016841F400710160D3
:100D5000016841F480610160016841F480710160C3
:100D6000032000F06FF80F2000F006F800F024F8E0
:100D7000002010BD003C024070B50D4D04464FF4FC
:100D80007A712878B1FBF0F00A490968B1FBF0F0FC
:100D900000F03BFE48B9102C07D200222146501E1D
:100DA00000F030F800206C6070BD012070BD0000C4
:100DB00028000020340000200A4808B5016841F4EA
:100DC00080410160006800F4804000900548001FE9
:100DD000016841F080510160006800F0805000908F
:100DE00008BD000044380240002809DB00F01F0263
:100DF000012191404009800000F1E020C0F800117D
:100E000070470000F0B40E4B1B680C46C3F302237E
:100E1000C3F10705042D00D90425191D072901D2A6
:100E2000002300E0DB1E012606FA05F1491E2140E1
:100E300099409E40761E16403143F0BC01F029BF18
:100E40000CED00E0064900F0070208684FF6FF03CA
:100E5000184040EA0220034A10430860704700002F
:100E60000CED00E00000FA052DE9F0470E46050004
:100E700065D0DFF81481D8F80000F7B200F0070061
:100E8000B04207D288F80070D8F8000000F00700E0
:100E9000B04254D128683D4C810712D5400703D594
:100EA000206840F4E05020602878000703D52068CF
:100EB00040F4604020602068A96820F0F0000843FA
:100EC00020602878C0072DD030496868083901288B
:100ED00012D0022813D0032811D0096889070029ED
:100EE0002DDA216821F0030101432160FFF790FC16
:100EF000814641F2883A0EE009688903EFE7096804
:100F00008901ECE7FFF784FCA0EB0901514502D908
:100F10000320BDE8F0872068696800F00C00B0EBA2
:100F2000810FEFD1D8F80010404601F00701B1421F
:100F300007D90770006800F00700B04201D0012017
:100F4000E7E72878400705D52068E96820F4E050F5
:100F5000084320602878000706D52068296920F416
:100F6000604040EAC100206000F038F82168084A7B
:100F7000C1F30311515CC840064908600648006887
:100F8000FFF7FAFE0020C4E7003C024008380240A8
:100F90000A500008340000202C00002004480549B5
:100FA00000680968044AC1F38221515CC840704757
:100FB00034000020083802401A500008044805494F
:100FC00000680968044AC1F34231515CC840704767
:100FD00034000020083802401A500008154810B5A7
:100FE000006810F00C02144813D04110042A0FD0EE
:100FF000082A0ED10F4C241F2268236802F03F02FA
:101000005B0207D52068C0F38810A0FB010106E051
:10101000084610BD2168C1F38811A1FB000100231F
:10102000FFF722F92168C1F30141491C4900B0FBD7
:10103000F1F010BD083802400024F4002DE9F84F0B
:1010400004006ED02078DFF84C93C007A9F10405A6
:101050004AD009F104000168C1F38101012908D0D7
:101060000068C0F3810002280AD1D9F800004002CC
:1010700006D52868800337D560680028E1D033E0C2
:101080006068B0F5803F10D0B0F5A02F286810D070
:1010900020F480302860286820F480202860606870
:1010A000A8B1FFF7B5FB06460DE0286840F4803094
:1010B000F4E740F480202860F7E700BFFFF7A8FBC3
:1010C000801B642873D828688003F7D50CE0FFF7ED
:1010D0009FFB064605E000BFFFF79AFB801B6428D4
:1010E000F0D828688003F7D42078DFF8AC82800736
:1010F0004FF0000A3ED5A748001D016811F00C0F03
:1011000008D00068C0F3810002280BD1D9F8000094
:10111000400207D42868800716D5E068012800D16E
:1011200012E033E1E068B8B10120C8F80000FFF731
:101130006FFB064605E000BFFFF76AFB801B022835
:10114000C0D828688007F7D52868216920F0F80002
:1011500040EAC10028600DE0C8F800A0FFF758FB86
:10116000064604E0FFF754FB801B02281FD82868BE
:101170008007F7D42078000722D5864F8748616919
:10118000703771B101210160FFF742FB064604E0B0
:10119000FFF73EFB801B022809D838688007F7D587
:1011A0000EE0C0F800A0FFF733FB064605E082E042
:1011B000FFF72EFB801B02287DD838688007F7D404
:1011C0002078400768D5DFF8CCB100270BF13C0B45
:1011D000DBF80000C0000BD4DBF8001041F08051B8
:1011E000CBF80010DBF80000012700F080500090E1
:1011F0006B4E3068C00510D4306840F480703060A9
:10120000FFF706FB009005E0FFF702FB0099401A8C
:10121000022850D83068C005F6D55E4EA0686C36FE
:1012200001280FD00528306810D020F00100306070
:10123000306820F004003060A068B8B1FFF7E8FA29
:1012400000900FE0306840F00100F4E740F0040047
:101250003060F7E7FFF7DCFA0099411A41F2883075
:10126000814266D830688007F4D50EE0FFF7D0FAE7
:10127000009007E0FFF7CCFA0099411A41F288305C
:10128000814256D830688007F4D42FB1DBF80010C3
:1012900021F08051CBF80010A069C8B33D49091D69
:1012A0000968C1F3810102294AD00228504607D0BB
:1012B000C8F8600000E03CE0FFF7AAFA04463BE013
:1012C0004746C8F86000FFF7A3FA064605E000BFEE
:1012D000FFF79EFA801B02282BD828688001F7D4DC
:1012E000D4E907010843A16A2E4A490802EB0141EB
:1012F000626A41EA8211084394F82C1040EA0161C5
:10130000C9F8001001203866FFF782FA044606E0AB
:101310003EE000BFFFF77CFA001B022809D82868CE
:101320008001F7D534E000BFFFF772FA001B0228F6
:1013300002D90320BDE8F88F28688001F4D427E0A3
:101340000128F7D0D9F80000E26900F48001914249
:101350001CD1226A00F03F01914217D147F6C071BB
:10136000626A0140B1EB821F10D1A26A4FF0FF33D5
:1013700000F4403103EB5202B1EB024F06D194F876
:101380002C1000F07060B0EB016F01D00120D1E7AC
:101390000020CFE70438024000004742800E474259
:1013A000007000400000FFFF70B5040009D0606AC3
:1013B000002540B125616561A56294F8510040B1F6
:1013C0000CE0012070BD6068B0F5827FF4D0E5616B
:1013D000F2E784F85050204600F044F8022084F8E8
:1013E00051002068016821F040010160A088218936
:1013F00000F4827001F404410843A18901F4006102
:101400000843217C01F002010843217D01F0010124
:101410000843218B01F400710843217F01F038015A
:10142000084394F8201001F080010843218D01F455
:101430000051084321680860A069042101EA1040B6
:1014400094F8241001F010010843216848602068D6
:10145000C16921F40061C1616565012084F8510012
:10146000002070BDF0B587B0044614216846FEF731
:10147000F1FF3648236800253549022405268342BA
:1014800017D133481430026842F480520260006879
:1014900000F480500590086840F00100086008687A
:1014A000694600F001000590E0208DE831002948F0
:1014B0002AE0274A284F10322848BB422AD1136815
:1014C00043F480431360126802F4804205920A6874
:1014D00042F004020A600A6802F0040205920A68F7
:1014E00042F002020A60096801F0020105910C2134
:1014F0008DE83200CDE903466946FFF77FF83815DD
:101500008DE8310016486946CDE90346FFF776F8C5
:1015100007B0F0BD134EB342FAD1136843F4004351
:101520001360126802F4004205920A6842F0040255
:101530000A60096801F0040105914FF4E0518DE85B
:1015400032000621CDE903416946DFE70030014062
:1015500030380240000002400038004000080240DD
:1015600000040240003C00402DE9F84F044640686A
:101570000025984616460F464FF0040BB0F5827FC3
:1015800001D1A06888B194F85000012818D001203A
:1015900084F85000FFF73CF9814694F851004FF071
:1015A000000A01280ED0022582E084F851B01346CB
:1015B0000A462046CDF8008000F036F9BDE8F88FE5
:1015C0000220FBE7002F72D0002E70D084F851B0BB
:1015D000C4F854A0A763A687E687C4F830A0A4F88F
:1015E00034A0A4F836A0C4F840A0C4F844A0A06871
:1015F000B0F5004F09D12068016821F04001016079
:101600002068016821F48041016020680168490672
:1016100003D4016841F040010160E068D8B139E0CD
:1016200020688168C90709D0007BA16B0870A06B96
:10163000401CA063E08F401EE0870CE0FFF7E8F855
:10164000A0EB0901414503D3B8F1FF3F03D036E0D9
:10165000B8F1000F33D0E08F0028E1D11DE0206801
:101660008168C90709D0C068A16B0880A06B801C85
:10167000A063E08F401EE0870CE0FFF7C9F8A0EB05
:101680000901414503D3B8F1FF3F03D017E0B8F19A
:10169000000F14D0E08F0028E1D14A464146204691
:1016A00001F095F808B120206065606D00B101255A
:1016B000012084F8510084F850A028467EE70325D5
:1016C000F6E72DE9F84F044690F8500000271D4634
:1016D0001646894601280DD04FF0010B84F850B012
:1016E000FFF796F8804694F85100BA46012804D0D6
:1016F000022793E00220BDE8F88FB9F1000F73D004
:10170000002E71D0032084F85100C4F854A0C4F80E
:101710003090A686E686C4F838A0A4F83CA0A4F8C9
:101720003EA0C4F844A0C4F840A0A068B0F5004FA3
:1017300009D12068016821F040010160206801683A
:1017400041F48041016020680168490603D40168C2
:1017500041F040010160E068B0F5006F606803D0BF
:1017600030B3012E24D041E008B1012E1CD1206BF2
:1017700021680088C86006E020688168890709D56B
:10178000216B0988C160206B801C2063E08E401EA5
:10179000E08609E0FFF73CF8A0EB0800A84202D37E
:1017A000681C01D031E07DB3E08E0028E4D120E058
:1017B000206B21680078087306E02068816889073B
:1017C00009D5216B09780173206B401C2063E08EE2
:1017D000401EE0860AE0FFF71BF8A0EB0800A842D5
:1017E00003D3681C02D010E017E06DB1E08E002832
:1017F000E3D142462946204601F018F808B12020DE
:101800006065A06818B106E0FFE7032706E02068DE
:10181000C16880680090606D00B1012784F851B004
:1018200084F850A0384666E72DE9F84F044690F852
:10183000500000270A9E1D4692468B464FF0010934
:1018400001280ED0012084F85000FEF7E1FF804609
:1018500094F85100616801280CD0B1F5827F07D15E
:1018600002E00220BDE8F88FA16809B9042801D080
:101870000227C2E0BBF1000F27D0BAF1000F24D03D
:101880001DB394F85100042802D0052084F85100BB
:1018900000206065C4F838A0E587A587C4F830B09B
:1018A000E586A5862064606420680168490603D443
:1018B000016841F040010160E068B0F5006F6068C8
:1018C00005D0E8B3012D46D07FE0012795E008B1AF
:1018D000012D39D1206B21680088C860206B801CE5
:1018E0002063E08E401EE0862EE020688168890734
:1018F0000FD5E18E69B1B9F1010F0AD1216B0988C9
:10190000C160206B801C2063E08E401EE0864FF09B
:10191000000920688168C9070CD0E18F51B1C06807
:10192000A16B0880A06B801CA063E08F401EE08745
:101930004FF00109FEF76CFFA0EB0800B04200E099
:1019400009E001D3701C50D1E08E0028CDD1E08F8A
:101950000028CAD13FE0206B216800780873206B13
:10196000401C2063E08E401EE0862EE020688168E7
:1019700089070FD5E18E69B1B9F1010F0AD1216B49
:1019800009780173206B401C2063E08E401EE086C6
:101990004FF0000920688168C9070CD0E18F51B170
:1019A000C068A16B0870A06B401CA063E08F401E54
:1019B000E0874FF00109FEF72BFFA0EB0800B042D3
:1019C00002D3701C01D010E07EB1E08E0028CDD192
:1019D000E08F0028CAD142463146204600F026FF5B
:1019E00028B101272020606507E0032705E0A068F3
:1019F00018B92068C16880680090012084F85100FF
:101A0000002084F8500038462CE710B5401EB0F195
:101A1000807F01D3012010BD4FF0E02460610F21D1
:101A2000601701F036F90020A06107202061002036
:101A300010BD70477047000070B590F83C20012A37
:101A400032D0012480F83C40022280F83D20036817
:101A50005A689D6822F070060A6832435A60134B38
:101A600002689A4214D0B2F1804F11D0104B9A42C2
:101A70000ED0104B9A420BD00F4B9A4208D00F4B0E
:101A80009A4205D00E4B9A4202D00E4B9A4204D194
:101A9000496825F080031943916080F83D4000219A
:101AA00080F83C10084670BD022070BD0000014067
:101AB0000004004000080040000C00400004014009
:101AC000004001400018004010B5040003D094F815
:101AD0003D0010B107E0012010BD002084F83C005B
:101AE000204600F01FF8022084F83D00211D2068E8
:101AF00000F0AEFF012084F8460084F83E0084F830
:101B00003F0084F8400084F8410084F8420084F8E3
:101B1000430084F8440084F8450084F83D00002028
:101B200010BD000008B501682248B1F1804F0BD00C
:101B3000214A914217D1016841F002010160006819
:101B400000F00200009008BD016841F00101016051
:101B50000068002200F00100009011461C20FFF7F1
:101B600051F91C2022E0154A91420ED1016841F042
:101B7000040101600068002200F00400009011469A
:101B80001E20FFF73FF91E2010E00D4A9142DAD1E6
:101B9000016841F0080101600068002200F00800BF
:101BA000009011463220FFF72DF93220BDE80840A1
:101BB000FFF71AB940380240000400400008004016
:101BC000000C004090F83D10012901D00120704721
:101BD000022180F83D1000681149884214D0B0F10C
:101BE000804F11D00F4988420ED00F4988420BD048
:101BF0000E49884208D00E49884205D00D498842D6
:101C000002D00D49884204D1816801F007010629FC
:101C100003D0016841F0010101600020704700001D
:101C2000000001400004004000080040000C00409B
:101C300000040140004001400018004090F83D10B1
:101C4000012901D001207047022180F83D10016870
:101C5000CA6842F00102CA6000681149884214D083
:101C6000B0F1804F11D00F4988420ED00E49884202
:101C70000BD00E49884208D00D49884205D00D4945
:101C8000884202D00C49884204D1816801F00701E2
:101C9000062903D0016841F001010160002070476E
:101CA000000001400004004000080040000C00401B
:101CB00000040140004001400018004070B5044697
:101CC00090F83C000025012817D0012684F83C60DC
:101CD000022084F83D002068826822F0770222F416
:101CE0007F4282600868502838D00DDC20284FD011
:101CF00005DC90B3102811D14AE0022070BD3028D5
:101D000046D040280AD13BE060282FD070280DD063
:101D1000B0F5805F03D0B0F5005F12D0012584F8E4
:101D20003D60002084F83C00284670BDCB68D1E9B6
:101D30000121206800F0F0FE2068816841F0770101
:101D400009E0CB68D1E90121206800F0E5FE2068B8
:101D5000816841F480418160E1E719E0CA6849681F
:101D6000206800F0EBFE5021206806E0CA68496850
:101D7000206800F0F4FE6021206800F0D7FECEE776
:101D8000CA684968206800F0D9FE40212068F4E75D
:101D9000226801461046F0E7704770B504460068B7
:101DA00001694FF00005C943890715D4C168C943CB
:101DB000890711D4E91E016101202077206880691C
:101DC0008007204602D0FFF7E7FF04E000F098F814
:101DD000204600F096F8257720680169C943490735
:101DE00017D4C168C943490713D46FF004010161D6
:101DF000022020772068806910F4407F204602D0BE
:101E0000FFF7CAFF04E000F07BF8204600F079F805
:101E1000257720680169C943090716D4C168C943F9
:101E2000090712D46FF008010161042020772068AF
:101E3000C0698007204602D0FFF7AEFF04E000F043
:101E40005FF8204600F05DF8257720680169C943F6
:101E5000C90617D4C168C943C90613D46FF010016D
:101E60000161082020772068C06910F4407F204677
:101E700002D0FFF791FF04E000F042F8204600F0A6
:101E800040F8257720680169C943C90708D1C168AE
:101E9000C943C90704D1891E0161204600F032F808
:101EA00020680169C943090609D4C168C943090604
:101EB00005D46FF0800101612046FFF7BAFD20686C
:101EC0000169C943490609D4C168C943490605D413
:101ED0006FF040010161204600F015F820680169AB
:101EE000C94389060BD4C168C943890607D46FF07A
:101EF000200101612046BDE87040FFF79BBD70BD29
:101F0000704770477047704770B5040004D094F86C
:101F10003D00002510B106E0012070BD84F83C5062
:101F2000204600F023F8242084F83D002068C16892
:101F300021F40051C160204600F024FE20680169B0
:101F400021F4904101612068416921F02A01416139
:101F50002068C16841F40051C1602564202084F8E4
:101F60003D0084F83E00002070BD000010B586B032
:101F7000044614216846FEF76DFA14492068884229
:101F800021D113480021026842F01002026000686B
:101F900000F0100005900E481438026842F001026B
:101FA0000260006800F0010005904FF4C0600090EE
:101FB0000220CDE901010320039007200490694627
:101FC0000448FEF71BFB06B010BD000000100140E6
:101FD0004438024000000240FEE701684A69D243EB
:101FE00052050FD46FF480624A61002140F8301F1F
:101FF000202242738173026942F00402026101737C
:1020000001207047002070472DE9F84F0446006812
:1020100089460B9D01689846174641F4806101602E
:102020002068016841F48071016000954FF0011B48
:102030000022594620460A9B00F0DEF84FF4007A51
:1020400040B120680068C00501D5C4F840A0032055
:10205000BDE8F88F216809F0FE0008612B46284989
:1020600020460A9A00F0FCF8F0BB206841698069BC
:1020700000902A4620460A9900F070F940B1206C81
:1020800004283AD12068016841F40071016034E00D
:10209000FEB2B8F1010F09D02168380A08612A465A
:1020A00020460A9900F05AF90028E8D12068066114
:1020B0002A4620460A9900F051F90028DFD120680D
:1020C000016841F480710160009500225946204664
:1020D0000A9B00F091F80028B3D1216809F0FF00B5
:1020E00040F00100086100E007E02B46044920466B
:1020F0000A9A00F0B5F80028AAD00120A8E700004D
:10210000020001002DE9F843044600680D46DDE9B0
:10211000089701689846164641F4807101604B4665
:1021200000224FF001112046009700F065F848B1F9
:1021300020680068C00502D54FF4007020640320B9
:10214000BDE8F883216805F0FE0008613B464A4679
:102150001549204600F084F888B9206841698069F3
:1021600000903A464946204600F0F8F848B1206C05
:10217000042804D12068016841F400710160012045
:10218000DEE7F5B2B8F1010F09D02168300A086125
:102190003A464946204600F0E1F80028E7D1206899
:1021A00005610020CCE700000200010070B5164672
:1021B0000D4604460DE02046FFF70FFF08B1012051
:1021C00070BD681C05D0FEF723FB801BA84207D812
:1021D00035B120684069C0434007ECD4002070BD91
:1021E000002044F8300F20216173A073216941F071
:1021F000200121612073E2E72DE9F0471E46904659
:102200000D460446C1F30747DDF8209008E0701C36
:1022100006D0FEF7FDFAA0EB0900B0420FD876B168
:102220002068012F18D0806925EA00000004000C06
:1022300014D000214145EAD00020BDE8F0870020FD
:1022400044F8300F20216173A073216941F020010F
:10225000216120730120F0E74069E5E70121E9E70A
:102260002DE9F0479A4691460E46044600254FF068
:102270002008C1F3074725E020684069C0434005B6
:1022800014D42068016841F40071016021686FF482
:1022900080604861256384F83D8084F83E50206C5E
:1022A00040F00400206484F83C501FE0B9F1FF3F87
:1022B00008D0FEF7ADFAA0EB0A0149450CD8B9F1F8
:1022C000000F09D02068012F13D0806926EA000092
:1022D0000004000C0BD0CFE744F8305F84F80D8089
:1022E000A573206940F02000206125730120BDE81E
:1022F000F0874069EAE72DE9F041002590460E4657
:102300000446202717E04069C043C0060CD454F8A7
:10231000301B6FF01000486144F810596777A577BB
:10232000206A2062257717E0FEF772FAA0EB08001A
:10233000B04208D83EB120684169C9434906E2D499
:102340000020BDE8F08144F8305F6773A573206911
:1023500040F02000206125730120F2E770B5164699
:102360000D4604460DE02046FFF737FE08B1012078
:1023700070BD681C05D0FEF74BFA801BA84207D839
:1023800035B120684069C0430006ECD4002070BD20
:10239000002044F8300F20216173A073216941F0BF
:1023A000200121612073E2E72DE9F04F87B014216D
:1023B0006846FEF74FF863480024016841F01001B9
:1023C0000160016801F010010591016841F0800190
:1023D0000160016801F080010591016841F004018C
:1023E0000160016801F004010591016841F00101FB
:1023F0000160016801F001010591016841F00201ED
:102400000160016801F002010591016841F00801D5
:1024100001600068DFF8309100F0080005900022AC
:102420007C214846FEF7EFF9DFF820A101221021B8
:102430005046FEF7E8F9DFF818B10122102158469E
:10244000FEF7E1F901224FF440514248FEF7DBF973
:102450000122170339464048FEF7D5F942F2C20877
:10246000002241463C48FEF7CEF900224021584662
:10247000FEF7C9F90022F9005046FEF7C4F9002220
:1024800038213448FEF7BFF97C2000900125CDE9C2
:102490000154694648460394FEF7B0F82220C6036B
:1024A000CDE90006694602945846FEF7A7F848F2BF
:1024B00010000090CDE90154694650460394FEF7A0
:1024C0009DF850200090CDE9015469465846039488
:1024D000FEF794F80095CDE9016469461D48FEF7C2
:1024E0008DF88020CDE90006694602944846FEF743
:1024F00085F843F238000090CDE90154694615484B
:102500000394FEF77BF80220CDE90240CDE9007587
:1025100069461148FEF772F8CDF80080CDE9015404
:1025200069460D480394FEF769F84FF44040CDE941
:102530000004694608480294FEF760F807B0BDE859
:10254000F08F0000303802400010024000000240CE
:102550000008024000040240000C02400F4810B581
:102560000D4901604FF48271416000218160C160BA
:102570004FF400720161C0E905121022C0E9072181
:10258000416281620A21C162FEF70EFF002801D07C
:1025900072B6FEE710BD000000300140A000002030
:1025A0000F4810B50D4901604FF482714160002160
:1025B0008160C1604FF400720161C0E90512082218
:1025C000C0E90721416281620A21C162FEF7ECFE87
:1025D000002801D072B6FEE710BD000000380040B0
:1025E000F80000200F4810B50D4901604FF48271CA
:1025F000416000218160C1604FF400720161C0E957
:1026000005121022C0E90721416281620A21C162DC
:10261000FEF7CAFE002801D072B6FEE710BD00002A
:10262000003C00405001002010B586B0002417483F
:10263000009401940294039404944FF08041059413
:10264000016042F2CF01C0E9011447F22F51C0E905
:1026500003148461FFF738FA08B172B6FEE74FF44D
:102660008050009069460948FFF728FB08B172B610
:10267000FEE72020CDE9040404A90448FFF7DCF9B3
:10268000002801D072B6FEE706B010BDA8010020F8
:1026900010B586B000241748009401940294039466
:1026A00004941349059401605321C0E901144FF6C5
:1026B000FF71C0E903148461FFF706FA08B172B62E
:1026C000FEE74FF48050009069460A48FFF7F6FA9B
:1026D00008B172B6FEE7049404A906480594FFF712
:1026E000ABF9002801D072B6FEE706B010BD0000BD
:1026F00000040040F001002010B586B00024174807
:102700000094019402940394049413490594016085
:1027100042F2CF01C0E9011447F22F51C0E903147E
:102720008461FFF7D1F908B172B6FEE74FF480502B
:10273000009069460948FFF7C1FA08B172B6FEE792
:10274000049404A905480594FFF776F9002801D000
:1027500072B6FEE706B010BD000800403802002047
:1027600010B586B000241748009401940294039495
:10277000049413490594016042F2CF01C0E90114A9
:1027800042F20F71C0E903148461FFF79DF908B1AB
:1027900072B6FEE74FF48050009069460948FFF793
:1027A0008DFA08B172B6FEE7049404A905480594B1
:1027B000FFF742F9002801D072B6FEE706B010BD5F
:1027C000000C004080020020FEE7FEE77047F8B5ED
:1027D000044640684FF48273984221D1A0684FF4B8
:1027E0008065B0F5004F01D0A8420AD12068066884
:1027F00026F0400606606068984211D1A068A842A1
:102800000ED000920B4600228021204600F03AF8BC
:10281000002804D0606D40F0200060650320F8BD02
:1028200000920B4600220121EFE7000038B5044674
:102830001248134B0068B0FBF3F04FF47A7358431F
:1028400000906068B0F5827F0DD10B4600920022A7
:102850008021204600F016F870B1606D40F0200035
:102860006065032038BD009830B1401E009020689C
:102870008068C0430006F6D5002038BD3400002033
:1028800000366E012DE9F8431E46914688460446FF
:10289000089DFDF7BDFF401B351AFDF7B9FF074640
:1028A00025480068C0F3CB30684338E0701C37D04F
:1028B000FDF7AEFFC01BA84203D215B1009860B36C
:1028C0002CE02068416821F0E00141606068B0F5CB
:1028D000827F0BD1A068B0F5004F02D0B0F5806FB9
:1028E00004D12068016821F040010160A06AB0F5C0
:1028F000005F09D12068016821F40051016020685F
:10290000016841F400510160012084F85100002069
:1029100084F850000320BDE8F8830025401E009095
:102920002068816838EA010004D000214945BDD102
:102930000020F0E70121F9E7340000207047FEF79E
:10294000F9B9000030B593B030216846FDF782FD3B
:1029500014210CA8FDF77EFD1D480025016841F0FB
:1029600080510160006800F08050119019480168A2
:1029700041F4804101600068022400F4804011901D
:1029800001200090000401908001CDE9064008AAD2
:102990000420A82182E813000B906846FEF74EFB46
:1029A00008B172B6FEE70CA90F2081E831004FF4A0
:1029B000A0500F904FF48050109005210CA8FEF706
:1029C00053FA002801D072B6FEE713B030BD000004
:1029D00040380240007000400248016841F4700134
:1029E0000160704788ED00E010B50648FFF7D5F9A3
:1029F00040210548FDF7FFFE04490020096881F8E1
:102A00007B0010BDA801002000100240380000200B
:102A100010B50648FFF7C1F920210548FDF7EBFE88
:102A200004490020096881F87B0010BD38020020AD
:102A3000001002403C00002010B50348FFF7ADF93C
:102A400002490120087010BD800200200000002013
:102A5000F0B50268254C264D264E274F274B4FF0E8
:102A6000804CA04209D0604507D0A84205D0B042B2
:102A700003D0B84201D0984204D122F0700E4A68C7
:102A800042EA0E02A0421BD0604519D0A84217D0DE
:102A9000B04215D0B84213D0984211D0184DA84278
:102AA0000ED0184DA8420BD0174DA84208D0174D94
:102AB000A84205D0164DA84202D0164DA84203D117
:102AC00022F44075CA682A434D6922F080022A43E5
:102AD00002608A68C2620A688262A04201D098429B
:102AE00001D10969016301214161F0BD000001408C
:102AF0000004004000080040000C004000040140B9
:102B000000400140004401400048014000180040DE
:102B1000001C00400020004010B5846842EA0322F7
:102B200024F47F440A432243826010BD826822F06D
:102B300070020A4342F007018160704710B5036AD2
:102B4000046A24F001040462846924F0F00444EA75
:102B5000021423F00A020A438461026210BD10B518
:102B6000036A23F0100303628369046A23F4704349
:102B700043EA023224F0A00343EA011182610162B8
:102B800010BD000070B5044600680169E26821F4D8
:102B90004051114301612169A068E26908436169FC
:102BA000114308432168CA6849F20C639A430243FF
:102BB000CA6020684169A26921F4407111434161F2
:102BC00031492068884202D03049884202D1FEF75C
:102BD000F5F901E0FEF7E2F9E26900231921642525
:102BE0003226B2F5004F626828D0A0FB0101930F96
:102BF0009200FDF739FB0146B0FBF5F06FF01802CB
:102C0000504301EB800006EB0010B0FBF5F000F044
:102C1000F002B1FBF5F002EB0012B1FBF5F06FF042
:102C20001803584301EB800006EB0010B0FBF5F0F1
:102C300000F00F0021681044886070BDA0FB010106
:102C400092185B41FDF710FB0146B0FBF5F0020165
:102C5000B1FBF5F06FF01803584301EB800006EB71
:102C6000C000B0FBF5F000F0F80002EB4002B1FB51
:102C7000F5F0584301EB800006EBC000B0FBF5F027
:102C800000F00700D6E700000010014000140140EA
:102C9000FEE70907090E002804DB00F1E02080F8B8
:102CA0000014704700F00F0000F1E02080F8141DC0
:102CB000704700000000000070B5D94B00242DEDD6
:102CC000020B2DED108BDDE91010984205DA20F093
:102CD00000429A4201D809D141B19DED100BBDECE3
:102CE000108B02B0BDE8704000F05EBAB0F5801FF6
:102CF00026DA11430BD0002813DA0120FDF704FC7B
:102D0000BDEC108B02B0BDE8704000F059BA022053
:102D1000FDF7FAFB00F030FA51EC100B01F0E2FC89
:102D20009EE06FF035049FEDC00B53EC102B9DED32
:102D3000100B51EC100B01F06FFFCDE910010846AC
:102D400004EB2051C0F31304B948A1F2FF31204431
:102D500000F4801080F07F6282F04052224301EB49
:102D600020559FEDB50B119253EC102B9DED100BE0
:102D700051EC100B02F05AF841EC180BA01CC0F3F8
:102D800013009FEDAFDB9FEDB0EBB14E7E44032807
:102D90006CD296ED000B51EC180B53EC102B01F09C
:102DA000B9FE1DD1002D01BF96ED000BBDEC108BBF
:102DB00002B070BD284601F018FF41EC180B53EC2F
:102DC0001D2B01F029FF41EC190B53EC1E2B51EC8C
:102DD000180B01F021FF53EC192B01F08FFC3FE0A1
:102DE0009FED9D0B51EC180B53EC102B01F014FFD1
:102DF0009FED9B1B53EC112B02F00CF841EC190BCF
:102E000053EC182B51EC180B01F006FF53EC192B67
:102E100001F002FF41EC190B002D04BF53EC192BFC
:102E200051EC180B1AD0284601F0DFFE41EC1A0BCA
:102E300053EC1D2B01F0F0FE53EC192B01F0EAFFCF
:102E400053EC182B01F0F2FF41EC180B53EC1E2B46
:102E500051EC1A0B01F0E0FE53EC182B01F0E6FFE9
:102E6000BDEC108B02B041EC100B70BD9FED7E0BE2
:102E700051EC180B53EC102B01F040FC41EC100B03
:102E800051EC180B53EC102B01F0ECFC41EC190B3E
:102E9000284601F0AAFE41EC1B0B53EC192B51EC18
:102EA000190B01F0B9FE41EC1A0B714853EC1A2BC7
:102EB000261851EC1A0B01F0AFFE41EC1F0B6D48C8
:102EC000C4F1510404F5D724B0EE4F0AF0EE6F0AB6
:102ED0000321784400F0D2F853EC1F2B51EC100B77
:102EE00001F09AFE41EC1C0B6348B0EE4F0AF0EE85
:102EF0006F0A0421784400F0C1F853EC1A2B51EC0E
:102F0000100B01F089FE344353EC1C2B01F0F6FB4F
:102F100041EC1C0B002C4CDD9FED510B51EC180BC0
:102F200053EC102B01F078FE53EC182B01F074FEDB
:102F300041EC1A0B55B353EC1D2B51EC1B0B01F05C
:102F40006BFE41EC1D0B53EC1C2B51EC1A0B01F0EA
:102F5000D5FB53EC192B01F05FFE53EC1D2B01F058
:102F6000CDFB53EC1A2B01F055FF53EC182B01F05D
:102F70005DFF41EC180B53EC1E2B51EC1B0B01F0C9
:102F80004BFE53EC182B01F051FF69E753EC1C2B5F
:102F900051EC1A0B01F0B2FB53EC192B01F03CFE83
:102FA00053EC1A2B01F036FF53EC182B01F032FFD3
:102FB00056E735B353EC1D2B51EC1B0B01F02CFEE7
:102FC00041EC1A0B53EC1C2B51EC180B01F02EFFAB
:102FD00053EC192B01F020FE53EC1A2B01F026FFC5
:102FE00053EC182B01F022FF41EC180B53EC1E2B75
:102FF00051EC1B0B01F010FE53EC182B01F016FFE7
:103000002EE753EC1C2B51EC180B01F00FFF53EC87
:10301000192B01F001FE53EC182B01F0FBFE1FE70A
:103020000000F07F0000000000000000000050439E
:10303000645F090000000000000000000000F03F95
:10304000763C7935EF39EA3D0000E0FE422EE63F5E
:10305000D022000000000000555555555555D53F6C
:10306000000000000000E03F000000000000004001
:1030700086EBF9FF522100004821000070B504469C
:103080002DED028B4D1E00EBC500B0EE408AF0EE38
:10309000608A90ED000B35F0060017D053EC182B2A
:1030A00051EC100B01F0B8FD41EC100B6D1E04EB60
:1030B000C50090ED001B51EC100B53EC112B01F0EF
:1030C0001DFB41EC100B35F00600E7D1022D36D088
:1030D000042D1CD0062D1CBFBDEC028B70BD53EC23
:1030E000182B51EC100B01F097FD94ED0A1B53ECDB
:1030F000112B01F003FB53EC182B01F08DFD94ED27
:10310000081B53EC112B01F0F9FA41EC100B53ECB6
:10311000182B51EC100B01F07FFD94ED061B53ECC6
:10312000112B01F0EBFA53EC182B01F075FD94ED27
:10313000040B53EC102B01F0E1FA41EC100B53ECB3
:10314000182B51EC100B01F067FD94ED021B53ECB2
:10315000112B01F0D3FA53EC182B01F05DFD94ED27
:10316000001B53EC112B01F0C9FABDEC028B41ECB2
:10317000100B70BD000000009FED070B10B553EC65
:10318000102B9FED070B51EC100B01F06BFB41EC8A
:10319000100B10BD00000000000000000000000047
:1031A000000000000000F03F10B553EC102B51EC74
:1031B000100B01F0A3FA41EC100B10BD0000000051
:1031C0009FED050B10B553EC102B51EC100B01F0DB
:1031D00049FB41EC100B10BD000000000000000096
:1031E0002DE9FF4F98462DED028B85B01446DDF892
:1031F0005490012924D0022952D1A2209FED2B0BFB
:103200000390FFF759FDB0EE401AF0EE601AB0EEF1
:10321000418AF0EE618A9FED270BFFF74DFD53ECDD
:10322000182B51EC100B01F01DFB01F0AFFC834695
:1032300009EB080104EB911080B2890602D003E08B
:10324000A020DBE7401E80B2001B401C00261FFAB6
:1032500080FA354622E000BF04FA0BF040EA08008D
:1032600080B204904146484600F0A0F80746149802
:103270000A213044CDE900070291DDE9031202235F
:103280000798FDF78FFBA9EB07001FFA80F9641C74
:10329000F019A4B24FF0000886B26D1C5545DBDB77
:1032A00005B0BDEC028BBDE8FF8F00000000000000
:1032B0000000004000000000000050402DE9FF4FDA
:1032C00098462DED028B85B01446DDF85490012907
:1032D00024D0022955D1A2209FED2C0B0390FFF79B
:1032E000EBFCB0EE401AF0EE601AB0EE418AF0EE60
:1032F000618A9FED280BFFF7DFFC53EC182B51EC94
:10330000100B01F0AFFA01F041FC834609EB080114
:1033100004EB911080B2890602D003E0A020DBE725
:10332000401E80B2001B401C00261FFA80FA354662
:1033300025E000BF04FA0BF040EA080080B20490D8
:103340004146484600F032F8074614980A213044B6
:10335000CDE900070291DDE9031202230798FDF78A
:103360001DFCA9EB07001FFA80F9F019641C86B256
:10337000A4B24FF000080520FDF72EF96D1C55454D
:10338000D8DB05B0BDEC028BBDE8FF8F000000006C
:1033900000000040000000000000504000F00F015D
:1033A000000900EB800001EB400070474218402A02
:1033B00002D3C1F1400080B27047000010B54FF059
:1033C000FF32074B08E000BF10F8014B5440E4B255
:1033D00053F8244084EA1222491EF5D2D04310BD8E
:1033E00010150020044900220B685A6209684A6AD5
:1033F0008242FCD370470000F00100202DE9F05F0D
:1034000016468A468346002500F021FF00225146D9
:103410005846FDF7F8F9012251465846FDF7F3F9F1
:103420006420FDF7D9F8002251465846FDF7EBF924
:103430001220FDF7D1F8012251465846FDF7E3F975
:103440005146584600F0F0FE3C20FFF7CBFF5146B6
:103450005846FDF7CBF9B8BB5020FFF7C3FF5146E4
:103460005846FDF7C3F978B35020FFF7BBFFA946D4
:10347000C5F10407002406F807904FF001085146F3
:103480005846FDF7B3F90028F9D02320FFF7AAFF2B
:1034900051465846FDF7AAF930B1F15DC4F1070273
:1034A00008FA02F00143F15551465846FDF79EF9DE
:1034B0000028F9D1641CE4B2082CE0D36D1CEDB2F5
:1034C000052DD5D3BDE8F09FFFE70120FAE770B5E1
:1034D00005460C464FF4FA60FDF77EF82146284673
:1034E00000F0B5FE21462846BDE870400122FDF7F8
:1034F0008AB900002DE9F0412348244B01260068D9
:10350000244C03F21645C16C491CC164DA79204889
:1035100003F10C01072A26D2DFE802F025040C1380
:103520001C272E0019895E89014432462846FCF783
:1035300012FF17E01F895A893844FCF70CFF02225A
:103540000CE018890A4601465B89134800F0B5F97A
:10355000032203E0104800F0DBF904220121284691
:10356000FCF770FF2660BDE8F0812022084928465C
:10357000FCF7F1FE202005E06B2205492846FCF708
:10358000EAFE6B202060EEE72400002010190020E6
:103590000C030020480000204C000020C2F306105D
:1035A00000EE100A02F00F0000EE900AB8EE400A9A
:1035B0009FED031AF8EE600A00EE810A70470000E2
:1035C0000000803D3EB500230C4605461A4600F03B
:1035D00039F800200246009001AB2146284600F051
:1035E0007EF8BDF8043021461A462846FFF7D6FF7C
:1035F000180501D5B1EE400A3EBD70B514460D4622
:10360000064600F08BF808B1012070BDC4B9CC2289
:103610002946304600F0C8F84E222946304600F0D0
:10362000C3F864222946304600F0BEF89E2229469F
:10363000304600F0B9F87F222946304600F0B4F851
:10364000002070BD70B514460D46064600F066F8C1
:1036500024B9CC222946304600F0A6F82946304647
:10366000BDE87040442200F09FB870B50C46054696
:1036700000F0EDFD002221462846FDF7C4F80220A7
:10368000FFF7B0FE012221462846FDF7BCF80D20C9
:10369000FFF7A8FE2146284600F0C6FD2146284631
:1036A000FDF7A4F808B1012400E000242D20FFF765
:1036B00099FE204670BD2DE9F04100250E460746D3
:1036C0002C4631463846FFF7D0FFA040641C284402
:1036D000E4B2C5B2072CF4D92846BDE8F0812DE943
:1036E000F0411D4614460E46074600F017F824B96F
:1036F000CC223146384600F057F8BE2231463846D3
:1037000000F052F8002431463846FFF7D4FF285520
:10371000641CE4B2082CF6D3BDE8F08170B50C4609
:10372000054600F094FD002221462846FDF76BF87F
:1037300040F2E510FFF756FE012221462846FDF72C
:1037400062F84120FFF74EFE2146284600F06CFD4E
:1037500021462846FDF74AF804464FF4FA70FFF771
:1037600041FE0CB1012070BD002070BD70B5144643
:103770000D46064600F06BFD002229463046FDF757
:1037800042F80CB1032000E04120FFF72BFE01229C
:1037900029463046FDF737F80CB1412000E0032000
:1037A000BDE87040FFF71EBE2DE9F04115460E46FC
:1037B0000746002425FA04F000F00102314638469D
:1037C000FFF7D4FF0520FFF70DFE641CE4B2082CC0
:1037D000F0D3BDE8F081000070B515462DED028BE9
:1037E00094B00646012933D002292DD1A2249FEDA1
:1037F000190BFFF761FAB0EE408AF0EE608A9FED98
:10380000170BFFF759FAB0EE401AF0EE601A53ECBE
:10381000182B51EC110B01F025F801F0B7F9854098
:10382000ADB2FF22402103A8FCF70CFE0A22402182
:1038300003A88DE8070002232A4621463046FDF7FB
:10384000ADF90520FCF7C8FE14B0BDEC028B70BDCD
:10385000A024CCE7000000000000004000000000B1
:10386000000050402DE9FC4781468C0960421D460E
:1038700001EB8010904683B2C3F14007AF4211DAEA
:10388000B9B208EB0600CDE9000122460121484605
:10389000FFF7A6FCE81B641C0023403685B2A4B2E7
:1038A000B6B2E9E708EB0600CDE9000522460121A2
:1038B0004846FFF795FCBDE8FC872DE9FC478146AB
:1038C0008C0960421D4601EB8010904683B2C3F123
:1038D0004007AF4211DAB9B208EB0600CDE90001AA
:1038E000224601214846FFF7E9FCE81B641C00233F
:1038F000403685B2A4B2B6B2E9E708EB0600CDE9DE
:103900000005224601214846FFF7D8FCBDE8FC87A8
:1039100010B592B00446162218A16846FCF7C1FD06
:103920001C480022006808901B48006809901B484A
:1039300000680A901A4800680B901A4800680F90B7
:10394000194801680C918088ADF834001748016867
:10395000CDF836108088ADF83A0001212046FFF7F7
:103960003BFF012211462046FFF736FF48236A46F7
:1039700000212046FFF7A1FF12B010BD4761732060
:10398000426F696C657220436F6E74726F6C6C6508
:103990007200000002000020060000200A00002043
:1039A0000E0000202000002012000020180000203F
:1039B00030B50A4B0A4C002108460022C50702D048
:1039C00083EA500000E04008521C082AF6DB44F865
:1039D0002100491CFF29EFDD30BD00002083B8ED38
:1039E0001015002070B50546092040EA4110C4B208
:1039F00029222146284600F083FD0646282221463A
:103A0000284600F07DFD46EA002070BD70B50546F1
:103A1000092040EA4110C4B227222146284600F07E
:103A20006FFD064626222146284600F069FD46EA3B
:103A3000002070BD092242EA4111C9B2032200F000
:103A40005FBD000000B585B04FF47A73072203A96B
:103A50008DE80E0001230022D021FCF7A3FF9DF882
:103A60000C00FFF79BFC114A10709DF80D00FFF74A
:103A700095FC50709DF80E00FFF790FC90709DF83B
:103A80000F00FFF78BFCD0709DF81000FFF786FC4D
:103A900010719DF81100FFF781FC50719DF8120024
:103AA000FFF77CFC907105B000BD000040000020D5
:103AB00070B50546092040EA4110C4B225222146CE
:103AC000284600F01DFD064624222146284600F027
:103AD00017FD46EA002070BD092242EA4111022387
:103AE000C9B2012200F0D4BD1CB5FDF72BF9FEF7D9
:103AF00029FF4FF4FA60FCF76FFDFEF755FCFEF767
:103B00002DFDFEF74DFDEC48EA4900240160EB492C
:103B1000C0E901144FF48049C0E90349446184615C
:103B2000C4610462FCF77AFE08B172B6FEE7E548AC
:103B3000E34901604FF4E131C0E901140C21C46094
:103B4000C0E904418461C461FEF7DEF908B172B6D0
:103B5000FEE7FEF747FDFEF79BFDFEF765FDFEF76E
:103B6000CBFDFEF7FDFDFFF723FFD348FFF76AFF0C
:103B7000D548D64BDFF858A302681868C2F85B0036
:103B80009988A2F85F109B7982F861305065A2F89D
:103B9000581082F85A3092F856108AF801104823CB
:103BA0000021C548FFF75EFEDFF828B3CA49DBF8FD
:103BB0000000096AC166C849896A0167C649C96ABD
:103BC0004167C549898FA0F87810C3490A6BC0F8CE
:103BD0006620898EA0F86A10B74980F87A403622AC
:103BE0005431FCF7FDFBB4485430C18E5846006890
:103BF000C186B14F8037F9688163398A8187A7F11F
:103C00002C01C98FC187112207F114014030FCF744
:103C1000E7FBA7F12C0090F851105846006880F897
:103C20005110A7F12C01496D41653D2207F1DC01DE
:103C30007C30FCF7D5FB07F1DC0090F83D105846CE
:103C4000006880F8B91007F1DC0191F83E1080F8A7
:103C5000BA1007F1DC0191F83F1080F8BB1007F1B2
:103C6000DC0191F8401080F8BC1007F1DC0191F8FC
:103C7000411080F8BD1007F1DC0191F8421080F886
:103C8000BE1007F1DC0191F8431080F8BF1007F176
:103C9000DC0191F8441080F8C01007F1DC0191F8C4
:103CA000451080F8C11007F1DC0191F8461080F84A
:103CB000C2108A4981651021A0F85C10884901660C
:103CC0001021A0F8641000F0B3FB864D82492868EB
:103CD000496AC1668049896A01677F49C96A416743
:103CE0007D49898FA0F878107B49D1F83620C0F83B
:103CF0006620498FA0F86A1080F87A40362207F1D2
:103D00002C01FCF76DFB07F12C06F18E2868C186AB
:103D1000796E8163B7F868108187F18FC1871122AE
:103D200006F140014030FCF75BFB96F85110286823
:103D300080F85110716D41653D2206F5A0717C300F
:103D4000FCF74EFB06F5A07111F83D2F286880F8AE
:103D5000B9204A7880F8BA208A7880F8BB20CA78DF
:103D600080F8BC200A7980F8BD204A7980F8BE200E
:103D70008A7980F8BF20CA7980F8C0200A7A80F852
:103D8000C120497A80F8C210574981658A14A0F889
:103D90005C2001665100A0F8641000F049FB06F1B8
:103DA000B000FDF74BFF06F5A070FDF747FF06F5E5
:103DB000C470FDF743FF06F1F800FDF703FF00F0C4
:103DC000B2F8D2214FF4877000F014F9DFF81C81AB
:103DD0004FF4004146464046FFF779FB00224FF47E
:103DE00080413046FFF709FC5746D9464FF0010A9B
:103DF000387801283CD13048FFF724FE324E334951
:103E000030680A68C0F85B208A88A0F85F2089794A
:103E100080F8611090F85D107A788B1A002B02DC24
:103E2000521A172A03D17970016D491C01656A463F
:103E30004FF400414046FFF7E1FA70B9BDF90300C5
:103E4000B2EE041A00EE100A3168F8EEC00A80EEF5
:103E5000810A10EE100AC1F866004FF48041404616
:103E6000FFF7B0FB316810EE100AC1F862003C7039
:103E7000D9F800004E4690F87B10012904D000F0DC
:103E8000E6FA316881F87BA0306890F87A1000F08B
:103E900083F9286890F87B10012904D000F0D7FA44
:103EA000296881F87BA0286890F87A1000F074F9EE
:103EB0009EE70000005400404C000020801A0600DD
:103EC00000100140C8020020240000204000002013
:103ED00000000020380000200C03002000000240F9
:103EE000000802403C00002000040240000C024098
:103EF00010B500210F2000F06DF901210C2000F019
:103F000069F907210B2000F065F9FF21092000F075
:103F100061F908240F21204600F05CF9641E14F0BA
:103F2000FF04F7D110BD10B500210F2000F052F9A9
:103F30000A20FCF751FB01210C2000F04BF90A206C
:103F4000FCF74AFB07210B2000F044F90A20FCF79C
:103F500043FBFF21092000F03DF90A20FCF73CFB60
:103F600004210A2000F036F90A20FCF735FBFFF7A0
:103F7000BFFF0021092000F02DF90A20FCF72CFBDF
:103F8000FF21012000F026F9FF21022000F022F994
:103F9000FF21032000F01EF9FF21042000F01AF990
:103FA000FF21052000F016F9FF21062000F012F98C
:103FB000FF21072000F00EF9FF21082000F00AF988
:103FC000BDE810404FF47A70FCF706BB70B50546AB
:103FD000092040EA4110C4B2D3B20022214628464B
:103FE00000F056FB21462846BDE8704001231A46E2
:103FF00000F04EBB2DE9F04105464FF47A700C46B7
:10400000854201DA844202DB0120BDE8F08102270B
:10401000FFF76EFFEE21092000F0DCF84E210120B1
:1040200000F0D8F84E21052000F0D4F80A2645B952
:104030000021384600F0CEF80320802100F0CAF8B5
:1040400011E0032F12D0072F10D095FBF6F006FBDE
:104050001050C1B2384600F0BDF895FBF6F57F1C54
:10406000FFB2002DEDD106253CB113E095FBF6F033
:1040700006FB105040F08000EBE70021284600F0DE
:10408000A9F80720802100F0A5F811E0032D11D038
:10409000072D0FD094FBF6F006FB1040C1B2284666
:1040A00000F098F894FBF6F46D1CEDB2002CEDD105
:1040B0000020AAE794FBF6F006FB104040F08000D9
:1040C000ECE7000038B50D460446FFF7B3FC1728AF
:1040D00053D129462046FFF799FCC4F8C408E8B339
:1040E00029462046FFF77EFCB4F8C418084482B283
:1040F0002946204600F0BEF829462046FFF772FC0C
:104100000246B4F8C40804F1C40380B20090294602
:10411000204600F012FA1A4DD4E93101C5E9000138
:104120002878552829D1B5F8052004F1CC0105F1EE
:1041300008000B3AFCF754F9B5F80510C1340A1918
:1041400005F580601368836092888281B5F80C045D
:10415000A0F52A42AA3A10D1681C00E00DE0091F20
:10416000FFF72CF9D5F80814814206D105480068FC
:10417000816C491C8164002038BD012038BD0000DD
:104180001019002024000020092242EA4111402396
:10419000C9B2012200F07CBA70B50D460446FFF7A3
:1041A00091FF08B1012070BDFFF7A4F92946204610
:1041B00000F0C8F8E16F0020486270BDB0F86410EC
:1041C000006E0122FCF71FBBB0F86410006E0022E5
:1041D000FCF719BB73B50E4D4FF4805400222146F5
:1041E0002846FCF710FB4FF0FF36334601226946A4
:1041F0000848FDF766FA3346012201A90548FDF794
:1042000060FA012221462846FCF7FDFA7CBD000039
:10421000000C024050010020092242EA41112023F3
:10422000C9B2012200F034BA30B585B00C4605465B
:1042300014216846FCF70EF90020CDE9004001206A
:10424000029069462846FCF7D9F905B030BD30B573
:1042500085B00C46054614216846FCF7FBF80120A2
:10426000CDE900400020039069462846FCF7C6F9D6
:1042700005B030BD70B50646092040EA4110C5B210
:104280001446130A28222946304600F001FAE3B208
:1042900029463046BDE87040292200F0F9B970B5D2
:1042A0000646092040EA4110C5B21446130A04220A
:1042B0002946304600F0ECF9E3B229463046BDE825
:1042C0007040052200F0E4B970B50646092040EAC6
:1042D0004110C5B21446130A24222946304600F084
:1042E000D7F9E3B229463046BDE87040252200F0F8
:1042F000CFB970B50546092040EA4110C4B2032287
:104300002146284600F0FCF81328F8D170BD70B59E
:104310000546092040EA4110C4B20322214628463E
:1043200000F0EEF81428F8D170BDB0F85C10806D84
:104330000122FCF768BAB0F85C10806D0022FCF72F
:1043400062BA00002DE9F843344C0546552004F8C4
:10435000010B33488846334EB0F80310218030F803
:10436000011F61808079A07130682C4902460B30B2
:10437000A0800E39E81C51F80E3FC5F8C7344968D3
:10438000C5F8CB142549074605F2CF400831FBF7A5
:10439000E2FFA18807F2C540091FFFF70FF80146A9
:1043A000C4F807044AF6AA20A4F80B0430681E4B90
:1043B000384400F59062C0F8CC14588BA2F8500035
:1043C000306841460E30C5F8C8082846FFF770FB34
:1043D000B5F8C818084482B241462846FFF774FF72
:1043E00041462846FFF764FB0246308805F2C44385
:1043F000113080B200904146284600F064F94146F1
:104400002846FFF7C1FE41462846FFF705FFBDE8F5
:10441000F84304210548FCF7EEB900001E1D0020FA
:104420001019002048000020102100200010024038
:1044300010B50446FFF7C8FE4620FCF7CDF820462D
:10444000FFF7BCFEBDE810404620FCF7C5B810B52C
:10445000044600F000F904F16601204600F0D2F8AD
:1044600004F17001204600F076F804F17401204652
:1044700000F0ABF804F16C01204600F089F8B4F8C4
:10448000782094F87A102046FFF709FF94F87A1004
:1044900001222046FFF79AFD94F87A102046FFF794
:1044A00028FF94F87A102046FFF716FB94F87A104C
:1044B0002046FFF72CFF4FF4FA70FCF78DF894F8C4
:1044C0007A102046BDE81040FFF7B4BA2DE9F0415C
:1044D00015460E460746FFF72EFF4FF0FF342346E2
:1044E000032231463846FDF7ECF823462A4631468A
:1044F0003846FDF739F83846BDE8F041FFF715BFFB
:104500003EB5044600200190100A8DF804008DF895
:1045100005208DF806102046FFF70DFF4FF0FF3005
:104520000090042302AA01A92046FDF77DF9204648
:10453000FFF7FBFE9DF80B003EBD30B40C4619465C
:10454000182343EA4413029D8B7052BA0A802A460C
:1045500030BCFFF7BBBF70B50C4600250B78064694
:104560000122294600F094F8637802222946304659
:1045700000F08EF8A37803222946304600F088F830
:10458000E37829463046BDE87040042200F080B848
:1045900070B50C4600250B7806460F22294600F020
:1045A00077F8637810222946304600F071F8A37836
:1045B00011222946304600F06BF8E3782946304650
:1045C000BDE87040122200F063B870B50C460025BB
:1045D0000B7806460522294600F05AF86378062231
:1045E0002946304600F054F8A37807222946304681
:1045F00000F04EF8E37829463046BDE870400822C6
:1046000000F046B870B50C4600250B780646092226
:10461000294600F03DF863780A222946304600F02A
:1046200037F8A3780B222946304600F031F8E378BA
:104630000C222946304600F02BF823790D2229461A
:10464000304600F025F8637929463046BDE87040D1
:104650000E2200F01DB810B501218023002200F0C9
:1046600017F8BDE810406420FBF7B6BF70B51446DC
:104670000D460646FFF75FFE4FF0FF332246294600
:104680003046FDF71EF83046BDE87040FFF74DBEDE
:1046900038B50446100A8DF800008DF8012041F06D
:1046A00004008DF802008DF803302046FFF743FE2A
:1046B0004FF0FF33042269462046FDF702F82046FA
:1046C000FFF733FE38BD30B40C461946142343EAD5
:1046D0004413029D8B7052BA0A80ED1CAAB230BC02
:1046E000FFF7C4BF81F00041704780F00040704781
:1046F00021F00041704720F00040704710B591EA6A
:10470000030F48BF83F0004300F19883841A71EBD4
:10471000030C05D2121943EB0C03001B61EB0C01D7
:10472000DFF824E14FEA1154A4EB135C1EEA430FB7
:1047300018BF9EEA445F73D023EA0E03DCF1200E1B
:1047400021EA045143F4801332D322FA0CFE10EB19
:104750000E0023FA0CFE41EB0E01CCF1200E03FA01
:104760000EFE10EB0E0051F10001B1F5801FCCF1EF
:10477000200E32D201EB045112FA0EF2BDE81040C5
:1047800058BF7047401C38BF5FEA420218BF7047ED
:10479000002814BF20F0010041F100014FEA41035D
:1047A00013F5001F38BF7047A1F1C04100F02CBBCA
:1047B000012A43EB0302ACF1200CDCF11F0E32BFE7
:1047C0004FF0000E23FA0CF310EB030041EB045101
:1047D000B4EB115FD0D0A1EB045101F58011490871
:1047E0005FEA300001EB04510ED350F1000038BFF6
:1047F00012FA0EFE08D1BDE81040C9E7401C38BFD0
:104800005FEA4202CAD1C3E7BDE810404FEA410364
:1048100013F5001F38BF7047A1F1C04100F0F4BA92
:104820009EEA445F08D011EA5E0FBDE8104004BF65
:1048300001F0004100207047BDE8104070B500F065
:1048400095FA00BF64FBBE3E0000E0FF491058BF70
:10485000C1F140415B1058BFC3F140438B42EFF3BD
:10486000008070472DE9C04130B4DFF8A0C23CEAB7
:10487000111418BF3CEA131400F0EC8081EA030520
:104880001CEA111444EAD57418BF1CEA131500F091
:10489000C780A4EB05044FF0004545EAC12145EA75
:1048A000C32341EA505143EA525304F17F749942C1
:1048B00004F500344FEAC0204FEAC22208BF9042FC
:1048C00000F09C804FEA13650FF24016765D4FEAC8
:1048D000134506FB05F7C7F1807706FB07F74FEA9C
:1048E000D737A7FB03687642C8F58038A7FB06CE0A
:1048F00038BFA8F1010807FB08E64FF0000EA6FB41
:10490000028CE6FB03CEDCF1000CCEF1004E38BF8A
:10491000AEF1010EA6FB0C584FF000074FF000055A
:10492000E6FB0E87A1FB08C6A0FB07CE16EB0E0622
:1049300045F10005E1FB076515F1E04E7EBFA4F5EA
:1049400080345FEA46066D4116F1800745F10005A7
:104950004FEA17274FEA066647EA0567A6F1DE46E3
:10496000B6F1805F4FEA15251FD9384624F0010CB7
:1049700005EBC471BCF1FE6F01EB0C1102D8F0BC69
:10498000BDE8008124425CBF01F5801E9EEAC47F21
:1049900002D4F0BCBDE80081244238D4F0BCA1F1BF
:1049A000C041BDE8004100F02FBA4FEAD22242EAEE
:1049B00043524FEAD323A7FB02864FEAD02040EAB6
:1049C000415007FB03661EEA0E0F4FEAD12105FB9B
:1049D000026658BFA6EB0056B6EB00564FEA520EE1
:1049E0004EEAC37E18EB0E0E56EB530EBDD518EBF8
:1049F00002085E417F1C55F10005B6E74FF48015B3
:104A00004FF000074FF000064FF00008ADE7F0BC94
:104A10004FF0000001F1C04101F00041BDE800810C
:104A200011EA0C1F0CEA131500D00CE013EA0C1F5E
:104A300000F025804FF00000F0BC81EA030101F096
:104A40000041BDE80081F0BCBDE8004181EA0301FE
:104A500000F0DAB9F0BCBDE8004170B500F086F9AD
:104A6000097EFC3E00F007B881EA03014FF0000028
:104A700001F00041704781EA030100F0C5B9F0BCC4
:104A8000BDE800414FF0000021497047FFFDFBF9F0
:104A9000F7F5F4F2F0EEEDEBE9E8E6E4E3E1E0DE71
:104AA000DDDBDAD8D7D5D4D3D1D0CFCDCCCBCAC8E3
:104AB000C7C6C5C4C2C1C0BFBEBDBCBBBAB9B8B70A
:104AC000B6B5B4B3B2B1B0AFAEADACABAAA9A8A8FD
:104AD000A7A6A5A4A3A3A2A1A09F9F9E9D9C9C9BCB
:104AE0009A99999897979695959493939291919076
:104AF0008F8F8E8E8D8C8C8B8B8A89898888878707
:104B00008685858484838382828181800000FF077B
:104B10000000F87F51EA030C17D41CF5801F58BF22
:104B2000BCF5801F00F10680994218BF704708BF8E
:104B30009042704707D711F5801F58BF13F5801FAB
:104B400019D499427047894270471CF5801F08D5D7
:104B5000BCF5801FF7D58B4218BF704708BF824253
:104B600070474FF4001C1CEB410F38BF1CEB430F88
:104B700001D28B42704770B500F0F8F892244900DA
:104B80004FF000514FF08053FFF760BE4FEA4103F2
:104B90004FEA5353A3F58063D3F11E03C8BFD3F18B
:104BA000210C0CDD4FF0004242EAC12242EA505291
:104BB00032FA03FC8CEAE17CACEBE1707047102B1D
:104BC000C4BF0020704703F5787CBCF1FF3F04D0E0
:104BD0006FF0004282EA2100704770B500F0C6F81D
:104BE0004992248000207047F2E710F0004248BF4D
:104BF0004042B0FA80F310FA03F10AD0C3F11D036A
:104C000003F580634FEA415002EB035202EBD121DE
:104C100070474FF000007047DFF848C170B51CEADC
:104C2000111E1EBF1CEA13159EEA0C0F95EA0C0F0D
:104C300000F06F8081EA030423EA4C134EEAD47E2D
:104C400021EA4C1141F4801143F48013AE44A1FBDE
:104C5000024CA0FB0365AEF17F7E361955EB0C05C7
:104C6000A1FB034C4CF10003A0FB021C16EB0C064D
:104C7000654153F10003094218BF46F0010613F4E1
:104C8000007F0BD14FEA03314FEA0530340341EA8C
:104C9000155140EA16506FF003020AE04FEAC321B3
:104CA0004FEAC520F40241EA555140EA56506FF0F0
:104CB000020202EB2E4201EB025585EACE710AD0C8
:104CC0005FEA440C18BF24F0004450F1000041F1A9
:104CD000000120EAD47040F2FE7C624500D270BD33
:104CE000A84214BF4FF080444FF04044002E08BF4C
:104CF0000024BEF1806FA8BFA1F1C041BDE87040A3
:104D000080F282804FF0000001F1C04101F00041CB
:104D100070479EEA0C0F0CEA131518BF95EA0C0FAA
:104D200006D04FF0000081EA030E0EF0004170BD86
:104D300000F01CF88900013E00F007B800F009B847
:104D40004FEA430C5FEA5C5C08D081EA030100F0A3
:104D50005BB84FEA410C5FEA5C5CF6D14FF00000B3
:104D6000014970470000FF070000F87F0EF1020EB6
:104D70002EF0030E5EF8046B364205D4012A43EB95
:104D8000030515F5001F12D8012841EB010C1CF595
:104D9000001F0CD80ED14FEAD17C15F5001F0CEB8B
:104DA0004C0C0CF1020C08BF4CEBD37C04E04FF030
:104DB000080C01E04FEAD37C0CEB4C0526FA05F613
:104DC00006F00706B6F1040C06D20EEB860CBDE821
:104DD00070404CF0010C6047DFE80CF0090B020258
:104DE0004FF000414FF00000A1F5002170BD1946C1
:104DF0001046012851EB010418BFD4F5001484BFFC
:104E0000002001F0004170BD0808A0F500114FEA34
:104E10003101704791EA030F10B581F000413FF571
:104E200075AC83F0004300F009B8000010B591EABA
:104E3000030F48BF83F000433FF568AC841A71EB61
:104E4000030C07D212198CF0004C43EB0C03001B2F
:104E500061EB0C01DFF8A4E14FEA1154A4EB135C01
:104E60001EEA430F18BF9EEA445F00F0B08023EAB9
:104E70006E03524221EA0451C3EB6E0338BF5B1E3E
:104E8000DCF1200E25D322FA0CFE10EB0E0043FAC3
:104E90000CFE41EB0E01CCF1200E03FA0EFE10EBDE
:104EA0000E0051F10001CCF1200E29D412FA0EF2BD
:104EB00001EB0451BDE8104058BF7047401C1CBFB7
:104EC000B2F1004F704700280CBF491C20F00100D0
:104ED000704712EB020E43EB030218BF4FF0010EB6
:104EE0004EEA4202ACF1200CDCF11E0E54D943FA1A
:104EF0000CFE10EB0E0051F1FF31CCF11E0ED5D59A
:104F00000EF1010E12FA0EFE404141EB010101EBE0
:104F1000445C5FEA5C5C10D910EBDE7001EB04517D
:104F200038BFBEF1004FBDE8104018BF70470028E1
:104F30000CBF491C20F00100704730D24FEAD42C3E
:104F400011F5001124F400641BD0B1FA81F20B3A80
:104F5000A41AA41ED2F12003914030FA03F319439E
:104F6000904001EBCC71002C01EB0451BDE81040E6
:104F7000A8BF704701F1C0414FF0000001F00041AF
:104F80007047B0FA80F310FA03F100D110BDE41AB3
:104F9000173C4805C90AE4E701EB045110BD49106C
:104FA00001EB0451BDE810404FEA300002E04FF041
:104FB000000170474A0008BF0042F8D0B2F5001F58
:104FC00028BF704701F000414FF0000070479EEA93
:104FD000445F07D011EA5E0FBDE8104004BF002116
:104FE00000207047BDE8104070B5FFF7BFFE00BF5E
:104FF00040DFF63E83F00041104670470000E0FFBE
:105000004FF04070E1EE100A704700000000000011
:105010000000010203040607080900000000010265
:10502000030400000000000004FA97999999D93F01
:10503000AF788E1DC571CC3F9FC678D0099AC33F0B
:10504000935555555555E53F599322942449D23FE0
:10505000DE03CB966446C73F44523EDF12F1C23FA7
:105060000000000000000000885000080000002040
:105070004C000000C4010008D45000084C0000207F
:1050800044270000E00100080000C0A8012AC0A8D1
:10509000012BC0A80101FFFFFF00001542BFF04235
:1050A000001542BFF04300001F1400000C03002055
:1050B0000100000010000000000000000024F400C7
:1050C00078030020440C00200000000000000000D5
:0450D00000000000DC
:040000050800018965
:00000001FF
