:020000040800F2
:10000000802800202902000845310008D526000874
:1000100041310008D3050008C73500080000000082
:100020000000000000000000000000002533000870
:10003000D7050008000000004931000827330008F8
:10004000430200084302000843020008430200087C
:100050004302000843020008D905000835060008DD
:10006000430200084302000843020008430200085C
:10007000430200084302000843020008430200084C
:10008000430200084302000843020008430200083C
:1000900043020008430200084302000899060008D2
:1000A000430200084302000843020008430200081C
:1000B000F933000843020008213400084302000815
:1000C00043020008430200084302000843020008FC
:1000D00043020008430200084302000843020008EC
:1000E00043020008430200084302000843020008DC
:1000F00043020008430200084302000843020008CC
:100100004302000843020008493400084302000883
:10011000430200084302000861340008430200085B
:10012000430200084302000843020008430200089B
:10013000430200084302000843020008430200088B
:10014000430200084302000843020008430200087B
:10015000430200084302000843020008430200086B
:10016000430200084302000843020008430200085B
:100170004302000843020008430200080000000098
:10018000430200084302000800F002F800F03CF8C7
:100190000AA090E8000C82448344AAF10107DA45E2
:1001A00001D100F031F8AFF2090EBAE80F0013F0F8
:1001B000010F18BFFB1A43F0010318474C5D000004
:1001C0006C5D0000103A24BF78C878C1FAD8520795
:1001D00024BF30C830C144BF04680C6070470000C1
:1001E0000023002400250026103A28BF78C1FBD840
:1001F000520728BF30C148BF0B6070471FB505F0DC
:1002000051FE1FBD10B510BD00F0AEF91146FFF74D
:10021000F5FF04F03DFA00F0CCF903B4FFF7F2FF6C
:1002200003BC00F0CFF900000948804709480047A7
:10023000FEE7FEE7FEE7FEE7FEE7FEE7FEE7FEE796
:10024000FEE7FEE704480549054A064B70470000F3
:10025000E533000889010008802200208028002062
:10026000802400208024002053EA020C00F06980E2
:100270002DE9F04B4FF00006002B1FBFB3FA83F5BA
:1002800003FA05F424FA05F65E4012BF1643B2FAEB
:1002900082F502FA05F4C5F120051EBF22FA05FC1D
:1002A00044EA0C04203556EA044C4FEA144418BFC3
:1002B000641C4FF000084FF00009904271EB030CF2
:1002C00039D3002919BFB1FA81F701FA07F6B0FA5C
:1002D00080F700FA07F6C7F120071EBF20FA07FCD7
:1002E00046EA0C062037B6FBF4FCA7EB0507103FE7
:1002F00007F01F0BCBF120060CFA0BFB2CFA06F6CD
:1003000044BFB3460026202FA4BF5E464FF0000B2B
:100310005BEA060C08BF4FF0010B19EB0B09ABFBB6
:10032000027C48EB0608C01B06FB02CC0BFB03CC8F
:1003300071EB0C01C1E70B46024641464846BDE859
:10034000F08B13B54FF000004FF00001AFF30080C9
:10035000BDE81C407047032A40F2308010F0030CC7
:1003600000F0158011F8013BBCF1020F624498BF08
:1003700011F801CB00F8013B38BF11F8013BA2F1A5
:10038000040298BF00F801CB38BF00F8013B11F020
:10039000030300F02580083AC0F0088051F8043BC0
:1003A000083A51F804CBA0E80810F5E7121D5CBF2D
:1003B00051F8043B40F8043BAFF30080D20724BF60
:1003C00011F8013B11F801CB48BF11F8012B24BFF4
:1003D00000F8013B00F801CB48BF00F8012B704743
:1003E00010B5203AC0F00B80B1E81850203AA0E8D0
:1003F0001850B1E81850A0E81850BFF4F5AF5FEA04
:10040000027C24BFB1E81850A0E8185044BF18C9B6
:1004100018C0BDE810405FEA827C24BF51F8043B5D
:1004200040F8043B08BF7047D20728BF31F8023BB1
:1004300048BF11F8012B28BF20F8023B48BF00F845
:10044000012B704702F0FF0343EA032242EA024213
:1004500000F062B84FF0000200B51346944696468D
:10046000203922BFA0E80C50A0E80C50B1F12001C7
:10047000BFF4F7AF090728BFA0E80C5048BF0CC075
:100480005DF804EB890028BF40F8042B08BF7047D3
:1004900048BF20F8022B11F0804F18BF00F8012B45
:1004A000704710B5044610F0030F08BF11F0030F9A
:1004B00040F015804FF0013E121FC0F20E8051F83F
:1004C000043BA3EB0E0C2CEA030C1CEACE1C08BF69
:1004D00040F8043BF0D0A1F1040102F10402521EE5
:1004E00008DB11F8013B002B00F8013BF7D1114666
:1004F00000F010F8204610BD70477047704710B5E7
:1005000000F02AF8006810BD10B5044600F024F889
:10051000046010BD4FF000020429C0F0128010F0FA
:10052000030C3FF499AFCCF1040CBCF1020F18BFDF
:1005300000F8012BA8BF20F8022BA1EB0C01FFF75C
:100540008BBF5FEAC17C24BF00F8012B00F8012BB0
:1005500048BF00F8012B7047004870471C2200205C
:10056000004870471C2200207546FFF7F9FFAE4691
:1005700005006946534620F00700854618B020B5AF
:10058000FFF760FEBDE820404FF000064FF0000787
:100590004FF000084FF0000B21F00701AC46ACE82B
:1005A000C009ACE8C009ACE8C009ACE8C0098D4698
:1005B000704710B50446AFF300802046BDE81040F8
:1005C000FFF72BBE01491820ABBEFEE72600020054
:1005D000704700BFFEE7704710B5012000F092F8A9
:1005E00011480078F0B911480068006C00EE100A5C
:1005F000F6EE000A30EE600A10EE100A0B490968A8
:1006000008640A480068006C00EE100AB5EEC00AE3
:10061000F1EE10FA06D29FED060A10EE100A034919
:100620000968086410BD00002C0000205400002060
:1006300000000C4210B5022000F064F81248007867
:1006400000BB12480068006C00EE100AF6EE000ACB
:1006500030EE200A10EE100A0C49096808640B48B5
:100660000068006C00EE100ADFED090AB4EEE00A43
:10067000F1EE10FA06DD9FED070A10EE100A0349AD
:100680000968086410BD00002C0000205400002000
:1006900000000C420000000010B5202000F032F8ED
:1006A000802000F02FF80848007818B10020064993
:1006B000087002E00120044908700348007810B176
:1006C00001200249087010BD2C0000202A000020E3
:1006D00072B600BFFEE7000070B5044600F032F9C4
:1006E00006462546681C10B104480078054400BF42
:1006F00000F028F9801BA842FAD370BD3800002012
:100700007047000010B5044604480068204020B13E
:10071000024804602046FFF7F3FF10BD143C01407F
:10072000F8B502460B460025002400200021D6E043
:10073000012606FA01F51E6806EA0504AC4274D1EA
:100740001E7906F00306012E04D01E7906F003067A
:10075000022E13D190684F000326BE40B0434F00D5
:10076000DE68BE4030439060506801268E40B04342
:100770001E79C6F300168E40304350601E7906F095
:100780000306032E09D0D0684F000326BE40B043B5
:100790004F009E68BE403043D0601E7906F00306CD
:1007A000022E13D1CF0802F1200656F827004E077B
:1007B000F70E0F26BE40B0434F07FF0E1E69BE4026
:1007C0003043CF0802F1200646F8270010684F009A
:1007D0000326BE40B0431E7906F003064F00BE401C
:1007E000304310605E6806F44036002E76D000BFBD
:1007F000002600963C4E366846F480463A4F3E60EE
:100800003E46366806F48046009600BF00BF374E6D
:100810008F0856F827008E07370F0F26BE40B043CB
:10082000334EB24202D1002624E057E0314EB242AC
:1008300001D101261EE0304EB24201D1022619E05C
:100840002E4EB24201D1032614E02D4EB24201D108
:1008500004260FE02B4EB24201D105260AE02A4EB3
:10086000B24201D1062605E0284EB24201D1072648
:1008700000E008268F073F0FBE4030431B4E8F0815
:1008800046F82700224E3068A0435E6806F48016C2
:1008900006B120431E4E3060361D3068A0435E68AE
:1008A00006F4001606B12043194E361D3060184E6E
:1008B000361F3068A0435E6806F4003606B1204358
:1008C000134E361F3060361F3068A0435E6806F452
:1008D000803606B120430E4E083E3060491C102978
:1008E000FFF426AFF8BD000044380240083801404C
:1008F000000002400004024000080240000C0240D8
:10090000001002400014024000180240001C024087
:10091000083C0140024613690B400BB1012000E086
:100920000020704710B5426921EA020302EA01047F
:1009300043EA0443836110BD0AB1816101E00B0405
:100940008361704701480068704700003000002054
:1009500070B504460CB9012070BD94F83D0028B96B
:10096000002084F83C00204600F006FB242084F898
:100970003D002068006820F00100216808602068C0
:10098000006840F40040216808602068006820F496
:1009900000402168086000F0D1FC05465C496068B1
:1009A000884206D85B48854201D2012007E000203A
:1009B00005E05948854201D2012000E000200128CD
:1009C00000D1C9E75548B5FBF0F62068406820F033
:1009D0003F003043216848604D496068884201D833
:1009E000701C07E04FF4967070434FF47A71B0FBBF
:1009F000F1F0401C2168096A21F03F010843216899
:100A0000086243496068884214D8681E61684900DA
:100A1000B0FBF1F0401CC0F30B00042801D204200D
:100A20003DE0681E61684900B0FBF1F0401CC0F376
:100A30000B0034E0A06838B9681E616801EB410121
:100A4000B0FBF1F0401C0AE0681E616801EBC102D6
:100A500002EB0111B0FBF1F0401C40F48040C0F308
:100A60000B0008B901201AE0A06848B9681E616847
:100A700001EB4101B0FBF1F0401CC0F30B000CE0B6
:100A8000681E616801EBC10202EB0111B0FBF1F0DD
:100A9000401CC0F30B0040F4804040F4004021684B
:100AA000C9694CF6FF72914308432168C861D4E9D3
:100AB000070108432168096821F0C0010843216843
:100AC0000860D4E9031008432168896848F2FF32BE
:100AD0009143084321688860D4E9050108432168EF
:100AE000C96821F0FF0108432168C86020680068D8
:100AF00040F001002168086000202064202084F874
:100B00003D000020206384F83E0000BF24E7000081
:100B1000A086010080841E0000093D0040420F00B5
:100B20002DE9FC5F04460F4690469946DDE90CAB83
:100B30000E9EFFF707FF054694F83D00202870D170
:100B400019230122B0492046009501F033FF10B16E
:100B50000220BDE8FC9F00BF94F83C00012801D1B1
:100B60000220F6E7012084F83C0000BF20680068FE
:100B700000F0010028B92068006840F001002168F9
:100B800008602068006820F4006021680860222066
:100B900084F83D00402084F83E0000202064C4F822
:100BA00024A0A4F82AB0608D20859848E0624B46C6
:100BB000424639462046CDE9006501F0ADFD08B159
:100BC0000120C6E7208D88B900BF00200190206871
:100BD0004069019020688069019000BF00BF2068D3
:100BE000006840F400702168086040E0208D012812
:100BF00018D12068006820F480602168086000BF78
:100C0000002001902068406901902068806901906F
:100C100000BF00BF2068006840F4007021680860D1
:100C200025E0EFE0208D022816D12068006820F42E
:100C30008060216808602068006840F400602168D6
:100C4000086000BF00200190206840690190206882
:100C50008069019000BF0AE000BF00200190206879
:100C60004069019020688069019000BF00BFBAE030
:100C7000208D03287ED8208D012815D12A463146A3
:100C8000204601F03CFF08B1012062E720680069BE
:100C9000616A0870606A401C6062208D401E208579
:100CA000608D401E60859EE0208D02282AD133464B
:100CB000002257492046009501F07CFE08B1012032
:100CC00047E72068006840F40070216808602068E9
:100CD0000069616A0870606A401C6062208D401E75
:100CE0002085608D401E608520680069616A0870FB
:100CF000606A401C6062208D401E2085608D401E11
:100D0000608570E03346002241492046009501F09D
:100D100051FE08B101201CE72068006820F48060C3
:100D20002168086020680069616A0870606A401C78
:100D30006062208D401E2085608D401E6085334698
:100D4000002233492046009501F034FE08B101200D
:100D5000FFE62068006840F40070216808602068A1
:100D60000069616A0870606A401C6062208D401EE4
:100D7000208500E010E0608D401E608520680069DD
:100D8000616A0870606A401C6062208D401E208588
:100D9000608D401E608526E02A463146204601F0DF
:100DA000AEFE08B10120D4E620680069616A0870CF
:100DB000606A401C6062208D401E2085608D401E50
:100DC000608520684069C0F3800060B120680069D8
:100DD000616A0870606A401C6062208D401E208538
:100DE000608D401E6085208D00287FF441AF20205B
:100DF00084F83D00002084F83E0000BF84F83C00E9
:100E000000BFA6E60220A4E6020010000000FFFFDB
:100E1000040001002DE9FC5F04460F469046994608
:100E2000DDE90CAB0E9EFFF78DFD054694F83D0005
:100E300020287DD1192301224D492046009501F03B
:100E4000B9FD10B10220BDE8FC9F00BF94F83C0042
:100E5000012801D10220F6E7012084F83C0000BF00
:100E60002068006800F0010028B92068006840F0A0
:100E70000100216808602068006820F40060216893
:100E80000860212084F83D00402084F83E000020C6
:100E90002064C4F824A0A4F82AB0608D20853548C9
:100EA000E0624B46424639462046CDE9006501F0F6
:100EB000E3FC08B10120C6E731E02A46314620466E
:100EC00001F05DFE50B1206C042805D12068006857
:100ED00040F40070216808600120B4E7606A00787F
:100EE00021680861606A401C6062208D401E208578
:100EF000608D401E608520684069C0F3800070B13D
:100F0000208D60B1606A007821680861606A401CC9
:100F10006062208D401E2085608D401E6085208D82
:100F20000028CAD12A463146204601F015FD00E0CE
:100F30001CE050B1206C042805D12068006840F402
:100F400000702168086001207DE72068006840F497
:100F5000007021680860202084F83D00002084F89B
:100F60003E0000BF84F83C0000BF6CE702206AE747
:100F7000020010000000FFFF10B586B004461421E7
:100F800001A8FFF767FA1B49206888422FD100BFEC
:100F9000002000901848006840F0020016490860E0
:100FA0000846006800F00200009000BF00BFC020AB
:100FB000019012200290002003900220049004204F
:100FC000059001A90D48FFF7ABFB00BF0020009082
:100FD00009481030006840F40010074910310860DB
:100FE0000846006800F40010009000BF00BF06B083
:100FF00010BD0000005400403038024000040240A0
:1010000003480068034909780844014908607047AB
:10101000300000203800002010B50D48006840F472
:1010200000700B4908600846006840F48060086062
:101030000846006840F480700860032000F0A2F8C1
:101040000F2000F007F800F02BF8002010BD000082
:10105000003C024070B504460E4800784FF47A71A7
:10106000B1FBF0F00C490968B1FBF0F5284600F03F
:10107000FBFF08B1012070BD102C07D200222146D1
:10108000501E00F041F80548046001E00120F2E73D
:101090000020F0E7380000203C0000203400002051
:1010A00008B500BF002000900E48006840F4804062
:1010B0000C4908600846006800F48040009000BFBA
:1010C00000BF00BF00200090081F006840F0805063
:1010D000091F08600846006800F08050009000BFBB
:1010E00000BF08BD4438024001460846002809DB1D
:1010F00000F01F0301229A4043099B0003F1E02303
:10110000C3F8002100BF70472DE9F05F80460D460F
:101110001646002702F05AFA074639462A46334651
:1011200001F00700C0F1070ABAF1040F02D94FF02D
:10113000040A01E0C0F1070AD14600F1040ABAF13D
:10114000070F02D24FF0000A01E0A0F1030AD446D3
:101150004FF0010A0AFA09FAAAF1010A0AEA020A98
:101160000AFA0CFA4FF0010B0BFA0CFBABF1010B76
:101170000BEA030B4AEA0B042146404602F02EFA22
:10118000BDE8F09F00BF00F00702064B19684FF65C
:10119000FF031940044B0B4343EA0221014B196042
:1011A00000BF70470CED00E00000FA0570B5044682
:1011B0000D460CB9012070BD5848006800F00700CA
:1011C000A84209D255490D700846006800F0070092
:1011D000A84201D00120EEE7207800F002000228AA
:1011E0001DD1207800F00400042805D14C48006887
:1011F00040F4E0504A490860207800F008000828D0
:1012000005D14748006840F46040454908604448BB
:10121000006820F0F000A168084341490860207888
:1012200000F00100A8B36068012807D13C480838E5
:101230000068C0F34040B8B90120BCE760680228EC
:1012400002D06068032807D1354808380068C0F329
:10125000406048B90120AEE7314808380068C0F363
:10126000400008B90120A6E72D48006820F00300DF
:10127000616808432A490860FFF764FB064609E0F5
:10128000FFF760FB801B41F28831884202D90320BE
:1012900091E707E02248006800F00C006168B0EBBD
:1012A000810FEDD11D48006800F00700A84209D960
:1012B0001A490D700846006800F00700A84201D0E6
:1012C000012078E7207800F00400042807D11448B2
:1012D000006820F4E050E168084311490860207874
:1012E00000F00800082808D10D48006820F460408C
:1012F000216940EAC1000A49086000F02FF8084956
:101300000968C1F30311074A515CC84006490860E7
:1013100006480068FFF79EFE00204CE7003C0240B4
:1013200008380240AE5E00083C0000203400002077
:1013300001480068704700003C00002000B5FFF73E
:10134000F7FF04490968C1F38221034A515CC84090
:1013500000BD000008380240BE5E00082DE9F047DD
:10136000002400250026A1462548006800F00C0056
:1013700020B1042805D008283AD105E0DFF8849090
:1013800039E0DFF8849036E01D48001F006800F067
:101390003F041B48001F006800F4800078B11A4821
:1013A0001749091F0968C1F38811A0FB01700146A4
:1013B000224600233846FEF757FF05460EE0114847
:1013C0000F49091F0968C1F38811A0FB017001468C
:1013D000224600233846FEF747FF05460848001F0F
:1013E0000068C0F30140401C4600B5FBF6F902E07E
:1013F000DFF8109000BF00BF4846BDE8F08700004E
:10140000083802400024F40000127A00F8B50446BF
:101410000CB90120F8BD207800F00100002874D03C
:10142000F948006800F00C0004280DD0F648006868
:1014300000F00C00082813D1F348001F006800F4E6
:101440008000B0F5800F0BD1EF4808380068C0F37A
:101450004040002859D06068002856D10120D9E7C3
:1014600000BF6068B0F5803F08D1E74808380068E1
:1014700040F48030E449083908601EE06068B0F547
:10148000A02F0DD1E0480838006840F48020DE49E4
:10149000083908600846006840F4803008600CE0B5
:1014A000D9480838006820F48030D74908390860E6
:1014B0000846006820F48020086000BF606890B192
:1014C000FFF740FA054606E0FFF73CFA401B6428A8
:1014D00001D903209EE7CC4808380068C0F340409B
:1014E0000028F1D011E0FFF72DFA054606E0FFF7DE
:1014F00029FA401B642801D903208BE7C248083829
:101500000068C0F340400028F1D1207800F00200CC
:1015100002285FD1BC48006800F00C0058B1BA48FE
:10152000006800F00C0008281CD1B748001F0068B4
:1015300000F48000B0B9B44808380068C0F3400037
:1015400020B1E068012801D0012063E7AE480838E7
:10155000006820F0F800216940EAC100AA49083972
:10156000086037E0E06800B30120A8490860FFF791
:10157000E9F9054606E0FFF7E5F9401B022801D925
:10158000032047E7A04808380068C0F3400000285F
:10159000F1D09D480838006820F0F800216940EA41
:1015A000C10099490839086014E000209749086093
:1015B000FFF7C8F9054606E0FFF7C4F9401B02280B
:1015C00001D9032026E7904808380068C0F340009E
:1015D0000028F1D1207800F0080008282CD160699B
:1015E000A8B101208A490860FFF7ACF9054606E07A
:1015F000FFF7A8F9401B022801D903200AE7824817
:101600006C300068C0F340000028F1D014E00020E6
:101610007F490860FFF796F9054606E0FFF792F963
:10162000401B022801D90320F4E677486C3000689B
:10163000C0F340000028F1D1207800F00400042815
:1016400070D1002770483830006800F0805090B9A1
:1016500000BF002000906C483830006840F0805097
:101660006949383108600846006800F080500090F1
:1016700000BF00BF01276748006800F48070B0B960
:101680006448006840F4807062490860FFF75AF9C6
:10169000054606E0FFF756F9401B022801D9032052
:1016A000B8E65C48006800F480700028F2D000BF03
:1016B000A068012808D154486830006840F0010053
:1016C0005149683108601DE0A06805280DD14E48D9
:1016D0006830006840F004004B49683108600846F3
:1016E000006840F0010008600CE04748683000687E
:1016F00020F001004449683108600846006820F085
:101700000400086000BFA068A8B1FFF71BF90546F8
:1017100009E0FFF717F9401B41F28831884202D9EE
:10172000032077E626E0384868300068C0F34000C0
:101730000028EED013E0FFF705F9054608E0FFF7B3
:1017400001F9401B41F28831884201D9032061E64A
:101750002D4868300068C0F340000028EFD1012F09
:1017600007D129483830006820F0805026493831A8
:10177000086000BFA069002845D02348006800F039
:101780000C0008285DD0A069022845D100201F491F
:101790000866FFF7D7F8054606E0FFF7D3F8401BC9
:1017A000022801D9032035E6174808380068C0F33D
:1017B00040600028F1D1D4E907010843616A40EA9A
:1017C00081110122A06AC2EB500041EA00412C20A5
:1017D000005D41EA00600C49091F086001200B49C7
:1017E0000866FFF7AFF8054606E0FFF7ABF8401BC9
:1017F000022801D903200DE6034808380068C0F329
:1018000040600028F1D049E008380240000047421B
:10181000800E474200700040002021490866FFF713
:1018200091F8054606E0FFF78DF8401B022801D924
:101830000320EFE51B480068C0F340600028F2D1A8
:101840002CE0A069012800D1E4E51648001D0668D7
:10185000A069012820D006F48001E06981421BD1F3
:1018600006F03F01206A814216D147F6C070304031
:10187000616AB0EB811F0FD106F440310122A06AEA
:10188000C2EB5000B1EB004F06D106F070612C2086
:10189000005DB1EB006F01D00120BBE50020B9E590
:1018A000000047420038024010B504460CB9012040
:1018B00010BD606A38B96068B0F5827F00D105E07C
:1018C0000021E16102E00021216161610021A1624A
:1018D00094F8510028B9002084F85000204600F008
:1018E00047F8022084F851002068006820F040008A
:1018F00021680860A08800F48270218901F4044105
:101900000843A18901F400610843217C01F0020130
:101910000843217D01F001010843218B01F400718E
:101920000843217F01F0380108432021095D01F0BF
:1019300080010843218D01F40051084321680860AB
:101940000421A06901EA104094F8241001F010016C
:101950000843216848602068C06920F4006021685D
:10196000C86100206065012084F8510000209FE7D5
:1019700010B586B00446142101A8FEF76BFD61493D
:101980002068884230D100BF002000905E48006887
:1019900040F480505C4908600846006800F48050BC
:1019A000009000BF00BF00BF0020009056481438D0
:1019B000006840F001005449143908600846006886
:1019C00000F00100009000BF00BFE0200190022065
:1019D000029000200390022004900520059001A9A8
:1019E0004A48FEF79DFE8BE049492068884250D165
:1019F00000BF002000904448001F006840F4804071
:101A00004149091F08600846006800F480400090C2
:101A100000BF00BF00BF002000903B4814380068A2
:101A200040F004003849143908600846006800F0A6
:101A30000400009000BF00BF00BF002000900846D7
:101A4000006840F0020008600846006800F00200EC
:101A5000009000BF00BF0C200190022002900020E7
:101A60000390022004900520059001A92948FEF763
:101A700057FE4FF4806001900220029000200390F6
:101A8000022004900520059001A92348FEF748FE96
:101A900036E022492068884232D100BF0020009001
:101AA0001948001F006840F400401749091F0860EA
:101AB0000846006800F40040009000BF00BF00BF6F
:101AC0000020009010481438006840F004000E49CF
:101AD000143908600846006800F00400009000BF58
:101AE00000BF4FF4E05001900220029000200390CC
:101AF000022004900620059001A90648FEF710FE7A
:101B000006B010BD003001404438024000000240E1
:101B1000003800400008024000040240003C004041
:101B20002DE9F8430446884616461D464FF0000945
:101B30006068B0F5827F0DD1A06858B9042084F8A0
:101B400051003346424641462046009500F077F961
:101B5000BDE8F88300BF94F85000012801D10220AD
:101B6000F6E7012084F8500000BFFEF7EBFE0746C1
:101B700094F85100012802D04FF002097EE0B8F13C
:101B8000000F00D016B94FF0010977E0042084F867
:101B9000510000206065C4F83880A687E68720637E
:101BA000A086E08620646064A068B0F5004F0BD189
:101BB0002068006820F04000216808602068006804
:101BC00020F48040216808602068006800F0400030
:101BD000402805D02068006840F040002168086077
:101BE000E068F8B91AE02068806800F0010050B1A0
:101BF0002068007BA16B0870A06B401CA063E08F85
:101C0000401EE0870AE0FEF79DFEC01BA84201D3FC
:101C1000681C00B915B94FF003092FE0E08F0028C8
:101C2000E1D11EE01AE02068806800F0010050B1A8
:101C30002068C068A16B0880A06B801CA063E08F47
:101C4000401EE0870AE0FEF77DFEC01BA84201D3DC
:101C5000681C00B915B94FF003090FE0E08F0028A8
:101C6000E1D13A462946204601F06FFA08B120201A
:101C70006065606D08B14FF0010900BF012084F874
:101C8000510000BF002084F8500000BF48465FE7C5
:101C90002DE9F84F0446884616461D464FF0000AC7
:101CA00000BF94F85000012802D10220BDE8F88F4F
:101CB000012084F8500000BFFEF744FE0746B146FD
:101CC00094F85100012802D04FF0020AADE0B8F1BB
:101CD000000F00D016B94FF0010AA6E0032084F8E7
:101CE000510000206065C4F83080A686E686A063B7
:101CF000A087E08760642064A068B0F5004F0BD136
:101D00002068006820F040002168086020680068B2
:101D100040F48040216808602068006800F04000BE
:101D2000402805D02068006840F040002168086025
:101D3000E068B0F5006F2FD1606810B1B9F1010F04
:101D400009D1206B00882168C860206B801C20634B
:101D5000E08E401EE0861BE02068806800F00200F4
:101D600002280AD1206B00882168C860206B801C83
:101D70002063E08E401EE0860AE0FEF7E3FDC01B14
:101D8000A84201D3681C00B915B94FF0030A4CE012
:101D9000E08E0028E0D12EE0606810B1B9F1010FAB
:101DA00009D1206B007821680873206B401C2063E8
:101DB000E08E401EE0861BE02068806800F0020094
:101DC00002280AD1206B007821680873206B401C20
:101DD0002063E08E401EE0860AE0FEF7B3FDC01BE4
:101DE000A84201D3681C00B915B94FF0030A1CE0E2
:101DF000E08E0028E0D13A462946204601F0F0F96D
:101E000008B120206065A06850B900BF0020009094
:101E10002068C068009020688068009000BF00BF04
:101E2000606D08B14FF0010A00BF012084F8510035
:101E300000BF002084F8500000BF504636E72DE96F
:101E4000FF5F0446884691461D460E9E0120029083
:101E50000020019000BF94F85000012803D1022017
:101E600004B0BDE8F09F012084F8500000BFFEF7E9
:101E700069FD074694F851B060680390AA46BBF12B
:101E8000010F0BD00398B0F5827F04D1A06810B980
:101E9000BBF1040F02D002200190DBE0B8F1000F8B
:101EA00003D0B9F1000F00D015B901200190D1E0A5
:101EB00094F85100042802D0052084F85100002035
:101EC0006065C4F83890E587A587C4F83080E5865A
:101ED000A586206460642068006800F04000402807
:101EE00005D02068006840F0400021680860E06884
:101EF000B0F5006F4AD1606810B1BAF1010F09D195
:101F0000206B00882168C860206B801C2063E08EF5
:101F1000401EE08633E02068806800F0020002285E
:101F200010D1E08E70B1029801280BD1206B00888F
:101F30002168C860206B801C2063E08E401EE08614
:101F4000002002902068806800F0010068B1E08FF6
:101F500058B12068C068A16B0880A06B801CA0638A
:101F6000E08F401EE08701200290FEF7EBFCC01BD3
:101F7000B04204D3701C10B1032001906AE0E08EDF
:101F80000028C8D1E08F0028C5D14AE0606810B1B0
:101F9000BAF1010F09D1206B007821680873206B1A
:101FA000401C2063E08E401EE08634E0206880689C
:101FB00000F00200022810D1E08E70B102980128D2
:101FC0000BD1206B007821680873206B401C2063C4
:101FD000E08E401EE086002002902068806800F0BD
:101FE000010068B1E08F58B12068C068A16B08702B
:101FF000A06B401CA063E08F401EE0870120029090
:10200000FEF7A0FCC01BB04201D3701C00B916B98A
:10201000032001901EE0E08E0028C7D1E08F002849
:10202000C4D13A463146204601F0DAF820B1012009
:102030000190202060650DE0A06850B900BF00202D
:1020400000902068C068009020688068009000BF01
:1020500000BF00BF012084F8510000BF002084F8B9
:10206000500000BF0198FBE670B504462546681E87
:10207000B0F1807F01D301200FE0681E4FF0E02116
:1020800048610F214FF0FF3001F0A8FA00204FF017
:10209000E021886107200861002070BD704770470B
:1020A00030B502460B4600BF92F83C00012801D132
:1020B000022030BD012082F83C0000BF022082F8DF
:1020C0003D00106844681068816824F07004186846
:1020D000044310684460184D1068A8421BD0106873
:1020E000B0F1804F17D0154D1068A84213D0144D91
:1020F0001068A8420FD0134D1068A8420BD0124DA3
:102100001068A84207D0114D1068A84203D0104DA6
:102110001068A84205D121F0800158680143106879
:102120008160012082F83D0000BF002082F83C0061
:1021300000BF00BFBDE700000000014000040040F8
:1021400000080040000C0040000401400040014035
:102150000018004010B504460CB9012010BD94F8D9
:102160003D0028B9002084F83C00204600F026F805
:10217000022084F83D00211D206801F07DF9012036
:1021800084F8460000BF84F83E0001213F2001553D
:10219000402001554120015500BF00BF012084F8B7
:1021A000420043200155442001554520015500BF00
:1021B000012084F83D000020D0E7000038B5044637
:1021C0002068B0F1804F18D100BF00200090404837
:1021D000006840F001003E4908600846006800F0D1
:1021E0000100009000BF00BF002211461C20FEF736
:1021F0008BFF1C20FEF778FF69E036492068884293
:102200000FD100BF002000903148006840F002006C
:102210002F4908600846006800F00200009000BFE7
:1022200055E02D492068884218D100BF0020009059
:102230002748006840F00400254908600846006807
:1022400000F00400009000BF00BF002211461E20D5
:10225000FEF75AFF1E20FEF747FF38E01F492068AF
:10226000884218D100BF002000901948006840F053
:102270000800174908600846006800F00800009050
:1022800000BF00BF002211463220FEF73DFF322082
:10229000FEF72AFF1BE012492068884217D100BFD1
:1022A000002000900A48006840F0100008490860CB
:1022B0000846006800F01000009000BF00BF002238
:1022C00011463620FEF720FF3620FEF70DFF38BD01
:1022D000403802400004004000080040000C00406C
:1022E00000100040014691F83D00012801D0012076
:1022F0007047022081F83D001A4B086898421BD0B5
:102300000868B0F1804F17D0174B0868984213D077
:10231000164B086898420FD0154B086898420BD0AE
:10232000144B0868984207D0134B0868984203D0B2
:10233000124B086898420CD10868806800F00702C8
:10234000062A0CD00868006840F001000B6818608D
:1023500005E00868006840F001000B681860002084
:10236000C6E70000000001400004004000080040F3
:10237000000C0040000401400040014000180040F3
:10238000014691F83D00012801D00120704702204C
:1023900081F83D000868C06840F001000B68D86013
:1023A0001A4B086898421BD00868B0F1804F17D0CC
:1023B000174B0868984213D0164B086898420FD004
:1023C000154B086898420BD0144B0868984207D008
:1023D000134B0868984203D0124B086898420CD1FE
:1023E0000868806800F00702062A0CD008680068B8
:1023F00040F001000B68186005E00868006840F0D4
:1024000001000B6818600020C0E7000000000140D8
:102410000004004000080040000C0040000401409F
:1024200000400140001800402DE9F04104460D46EF
:10243000002700BF94F83C00012802D10220BDE82B
:10244000F081012084F83C0000BF022084F83D00A8
:102450002068866826F0770626F47F462068866026
:102460002868502833D00CDC202850D004DC002809
:102470004BD0102851D149E0302849D040284CD1C8
:1024800039E060282DD0702807D0B0F5805F03D0E8
:10249000B0F5005F41D10DE041E0D5E902136A6873
:1024A000206801F055F82068866846F077062068B5
:1024B000866034E0D5E902136A68206801F048F8C4
:1024C0002068806840F480402168886027E0EA68DE
:1024D0006968206801F050F85021206801F043F845
:1024E0001DE0EA686968206801F059F860212068F9
:1024F00001F039F813E0EA686968206801F03CF8F7
:102500004021206801F02FF809E000BF00BF00BFA4
:102510002968206801F027F801E0012700BF00BF0B
:10252000012084F83D0000BF002084F83C0000BF7B
:10253000384684E7704710B5044620680069C0F348
:102540004000D8B12068C068C0F34000B0B16FF05F
:10255000020021680861012020772068806900F06E
:10256000030018B12046FFF7E5FF05E0204600F024
:10257000ADF8204600F0ABF8002020772068006915
:10258000C0F38000D8B12068C068C0F38000B0B14B
:102590006FF00400216808610220207720688069BC
:1025A00000F4407018B12046FFF7C4FF05E0204654
:1025B00000F08CF8204600F08AF800202077206890
:1025C0000069C0F3C000D8B12068C068C0F3C00083
:1025D000B0B16FF0080021680861042020772068FE
:1025E000C06900F0030018B12046FFF7A3FF05E023
:1025F000204600F06BF8204600F069F800202077B4
:1026000020680069C0F30010D8B12068C068C0F32A
:102610000010B0B16FF01000216808610820207729
:102620002068C06900F4407018B12046FFF782FFAF
:1026300005E0204600F04AF8204600F048F8002067
:1026400020772068006900F0010058B12068C06858
:1026500000F0010030B16FF00100216808612046F0
:1026600000F036F820680069C0F3C01058B1206847
:10267000C068C0F3C01030B16FF0800021680861FD
:102680002046FFF70BFD20680069C0F3801058B1A9
:102690002068C068C0F3801030B16FF0400021683E
:1026A0000861204600F015F820680069C0F340106A
:1026B00058B12068C068C0F3401030B16FF02000FE
:1026C000216808612046FFF7EAFC10BD704770479B
:1026D0007047704700BFFEE7014608684069C0F3D5
:1026E0008020B0B16FF480600A68506100200863F8
:1026F000202081F83D00002081F83E00086C40F069
:102700000400086400BF002081F83C0000BF0120E5
:1027100070470020FCE700002DE9F84304460F460F
:1027200015469946DDE908862068006840F4806017
:10273000216808602068006840F4807021680860A3
:10274000434600224FF001112046009600F032F976
:1027500060B12068006800F48070B0F5807F02D11D
:102760004FF4007020640320BDE8F88307F0FE00FA
:1027700021680861334642463E49204600F05DF933
:1027800008B10120F0E700BF0020009020684069F8
:10279000009020688069009000BF00BF324641462B
:1027A000204600F0ECF950B1206C042805D12068D7
:1027B000006840F40070216808600120D4E7B9F196
:1027C000010F03D1E8B22168086117E0C5F30720C3
:1027D0002168086132464146204600F0D0F950B1E8
:1027E000206C042805D12068006840F4007021683E
:1027F00008600120B8E7E8B2216808613246414626
:10280000204600F0BCF950B1206C042805D12068A6
:10281000006840F40070216808600120A4E7206887
:10282000006840F4807021680860434600224FF041
:1028300001112046009600F0BDF858B120680068EC
:1028400000F48070B0F5807F02D14FF400702064F6
:10285000032089E7F8B240F001002168086133469F
:1028600042460449204600F0E8F808B101207BE721
:10287000002079E7020001002DE9F843044688466C
:1028800015469946DDE908672068006840F48070C5
:1028900021680860334600224FF00111204600975E
:1028A00000F088F860B12068006800F48070B0F52E
:1028B000807F02D14FF4007020640320BDE8F883CC
:1028C00008F0FE00216808613B4632462149204657
:1028D00000F0B3F808B10120F0E700BF002000903D
:1028E00020684069009020688069009000BF00BFA8
:1028F0003A463146204600F042F950B1206C042897
:1029000005D12068006840F400702168086001204B
:10291000D4E7B9F1010F03D1E8B22168086117E0EB
:10292000C5F30720216808613A463146204600F089
:1029300026F950B1206C042805D12068006840F4C5
:102940000070216808600120B8E7E8B221680861DA
:102950000020B3E70200010070B504460D4616469C
:1029600020E02046FFF7B8FE08B1012070BD681CCA
:10297000C0B1FDF7E7FF801BA84200D895B9002041
:102980002063202084F83D00002084F83E00206C65
:1029900040F02000206400BF002084F83C0000BF0D
:1029A0000120E3E720684069C0F380000028D8D008
:1029B0000020DBE72DE9F04104460D4617461E4690
:1029C000DDF818801CE0701CD0B1FDF7BBFFA0EB58
:1029D0000800B04200D89EB900202063202084F86F
:1029E0003D00002084F83E00206C40F02000206470
:1029F00000BF002084F83C0000BF0120BDE8F0814A
:102A0000C5F3074001280AD120684069A9B20840EF
:102A1000A9B2884201D101200BE0002009E0206822
:102A20008069A9B20840A9B2884201D1012000E022
:102A30000020B842C7D00020E0E72DE9F04104466D
:102A40000D4616461F463DE020684069C0F38020D1
:102A5000E8B12068006840F40070216808606FF4F5
:102A600080602168486100202063202084F83D00B8
:102A7000002084F83E00206C40F00400206400BF79
:102A8000002084F83C0000BF0120BDE8F081701CEC
:102A9000C0B1FDF757FFC01BB04200D896B9002067
:102AA0002063202084F83D00002084F83E00206C44
:102AB00040F02000206400BF002084F83C0000BFEC
:102AC0000120E2E7C5F3074001280AD120684069E8
:102AD000A9B20840A9B2884201D101200BE0002030
:102AE00009E020688069A9B20840A9B2884201D1F2
:102AF000012000E000200028A6D00020C5E770B526
:102B000004460D46164632E020684069C0F30010C6
:102B1000A0B16FF0100021684861002020632020E0
:102B200084F83D00002084F83E00206C206400BF43
:102B3000002084F83C0000BF012070BDFDF702FFBB
:102B4000801BA84200D895B900202063202084F87B
:102B50003D00002084F83E00206C40F020002064FE
:102B600000BF002084F83C0000BF0120E5E720689A
:102B70004069C0F380100028C6D00020DDE770B5A2
:102B800004460D46164620E02046FFF7A5FD08B195
:102B9000012070BD681CC0B1FDF7D4FE801BA842A7
:102BA00000D895B900202063202084F83D00002043
:102BB00084F83E00206C40F02000206400BF00201C
:102BC00084F83C0000BF0120E3E720684069C0F3BF
:102BD000C0100028D8D00020DBE7000000B587B087
:102BE000142102A8FDF736FC00BF002001908A489E
:102BF000006840F01000884908600846006800F04E
:102C00001000019000BF00BF00BF002001900846E7
:102C1000006840F0800008600846006800F080000E
:102C2000019000BF00BF00BF00200190084600686F
:102C300040F0040008600846006800F004000190BD
:102C400000BF00BF00BF002001900846006840F0B0
:102C5000010008600846006800F00100019000BF14
:102C600000BF00BF002001900846006840F002004D
:102C700008600846006800F00200019000BF00BF35
:102C800000BF002001900846006840F0080008607E
:102C90000846006800F00800019000BF00BF002255
:102CA0007C215E48FDF748FE012210215C48FDF7BB
:102CB00043FE012210215B48FDF73EFE01224FF446
:102CC00040515948FDF738FE012211035748FDF7DE
:102CD00033FE002242F2C2015448FDF72DFE0022CD
:102CE00040215048FDF728FE00224FF400414C4897
:102CF000FDF722FE002238214B48FDF71DFE7C2007
:102D000002900120039000200490059002A94348FE
:102D1000FDF706FD48F2100002900120039000200C
:102D20000490059002A93E48FDF7FAFC502002905D
:102D30000120039000200490059002A93948FDF776
:102D4000EFFC202002904FF48810039000200490A4
:102D500002A93448FDF7E4FC032002904FF404106C
:102D600003900120049002A92F48FDF7D9FC802090
:102D700002904FF4041003900120049002A9274808
:102D8000FDF7CEFC43F238000290012003900020B2
:102D90000490059002A92448FDF7C2FC4FF480502E
:102DA000029001200390002004900220059002A9C7
:102DB0001E48FDF7B5FC42F2C200029001200390CC
:102DC00000200490059002A91848FDF7A9FC4FF4D3
:102DD0004040029000200390049002A91348FDF7A0
:102DE0009FFC002211460620FEF78EF90620FEF712
:102DF0007BF9002211460720FEF786F90720FEF72F
:102E000073F9002211461720FEF77EF91720FEF70E
:102E10006BF907B000BD00003038024000100240DE
:102E2000000002400008024000040240000C024082
:102E300010B50B480B4908600B4848600021094851
:102E40008160C1604FF48041016100214161816175
:102E5000C1610162FDF77CFD08B1FDF739FC10BDD1
:102E60000054004058000020801A060010B50E489B
:102E70000E4908604FF48270486000210B48816061
:102E8000C160016141614FF4007181611021C16134
:102E900000210162416281620A21C162FEF704FDE4
:102EA00008B1FDF715FC10BD00300140AC0000205A
:102EB00010B50E480E4908604FF48270486000213A
:102EC0000B488160C160016141614FF40071816113
:102ED0000821C16100210162416281620A21C1624F
:102EE000FEF7E2FC08B1FDF7F3FB10BD003800402F
:102EF0000401002010B50E480E4908604FF482709E
:102F0000486000210B488160C160016141614FF45C
:102F1000007181611021C161002101624162816201
:102F20000A21C162FEF7C0FC08B1FDF7D1FB10BD5C
:102F3000003C00405C01002000B587B000200390F9
:102F4000049005900690019002904FF08040154942
:102F5000086042F2CF00486000211248816047F2C9
:102F60002F51C160002101618161FFF7F3F808B1C1
:102F7000FDF7AEFB4FF48050039003A90948FFF71B
:102F800053FA08B1FDF7A4FB202001900020029025
:102F900001A90448FFF784F808B1FDF799FB07B0D1
:102FA00000BD0000B401002000B587B000200390F0
:102FB000049005900690019002901448144908600E
:102FC000532048600021124881604FF6FF71C160B4
:102FD000002101618161FFF7BDF808B1FDF778FBC1
:102FE0004FF48050039003A90948FFF71DFA08B178
:102FF000FDF76EFB00200190029001A90448FFF745
:103000004FF808B1FDF764FB07B000BD00040040B5
:10301000FC01002000B587B00020039004900590CB
:1030200006900190029015481549086042F2CF00C1
:10303000486000211248816047F22F51C160002191
:1030400001618161FFF786F808B1FDF741FB4FF49C
:103050008050039003A90A48FFF7E6F908B1FDF78D
:1030600037FB00200190029001A90548FFF718F8EE
:1030700008B1FDF72DFB07B000BD000000080040BF
:103080004402002000B587B0002003900490059012
:1030900006900190029015481549086042F2CF0051
:1030A000486000211248816042F20F71C160002126
:1030B00001618161FFF74EF808B1FDF709FB4FF49C
:1030C0008050039003A90A48FFF7AEF908B1FDF755
:1030D000FFFA00200190029001A90548FEF7E0FFE9
:1030E00008B1FDF7F5FA07B000BD0000000C004084
:1030F0008C0200201CB50020009001900E480F4962
:10310000086042F2CF00486000210C48816040F224
:10311000E731C16000218161FFF71CF808B1FDF7BC
:10312000D7FA00200090019069460448FEF7B8FFE6
:1031300008B1FDF7CDFA1CBD00100040D4020020FC
:1031400000BFFEE700BFFEE77047F8B504460E4635
:1031500015466068B0F5827F0DD1A068B0F5004FCC
:1031600003D0A068B0F5806F05D12068006820F01A
:103170004000216808606068B0F5827F1FD1A068B8
:10318000B0F5806F0DD03346002280212046009597
:1031900000F05CF808B3606D40F02000606503202B
:1031A000F8BD3346002201212046009500F04EF87C
:1031B00098B1606D40F0200060650320F0E7334671
:1031C000002201212046009500F040F828B1606DF2
:1031D00040F0200060650320E2E70020E0E7000007
:1031E0007CB504460D461646164800681821B0FB0B
:1031F000F1F01549B0FBF1F04FF47A7148430190BA
:103200006068B0F5827F0DD12B46002280212046D8
:10321000009600F01BF898B1606D40F020006065EA
:1032200003207CBD00BF019800B908E00198401E52
:10323000019020688068C0F3C0100028F3D100BF5F
:103240000020EEE73C00002040420F002DE9F84F3F
:1032500004460D4690461E46DDF82890FDF772FBA9
:10326000A0EB0900371AFDF76DFB82462C48006879
:10327000C0F3CB307843009045E0701C002842D06A
:10328000FDF760FBA0EB0A00B84200D2A7BB2068A4
:10329000406820F0E000216848606068B0F5827FF7
:1032A0000DD1A068B0F5004F03D0A068B0F5806FD5
:1032B00005D12068006820F0400021680860A06AFD
:1032C000B0F5005F0DD100BF2068006820F4005009
:1032D000216808602068006840F400502168086098
:1032E00000BF012084F8510000BF002084F8500086
:1032F00000BF0320BDE8F88FFFE7009800B9002762
:103300000098401E0090206880682840A84201D1A3
:10331000012000E000204045AFD10020EAE7000096
:103320003C000020704710B5FDF76AFE10BD00009C
:1033300000B593B0302107A8FDF78CF8142102A83E
:10334000FDF788F800BF002001902448006840F095
:103350008050224908600846006800F080500190C3
:1033600000BF00BF00BF002001901D48006840F46E
:1033700080401B4908600846006800F480400190C6
:1033800000BF00BF012007900004089002200D90AC
:1033900041050E9104210F91A82110910221119154
:1033A0000421129107A8FEF731F808B1FDF790F952
:1033B0000F20029002200390002004904FF4A050B0
:1033C00005904FF480500690052102A8FDF7EEFE0F
:1033D00008B1FDF77DF913B000BD00004038024090
:1033E000007000400348006840F470000149086024
:1033F0007047000088ED00E010B50648FFF79BF825
:1034000040210548FDF78EFA00200449096881F83B
:103410007B0010BDB40100200010024040000020DD
:1034200010B50648FFF787F820210548FDF77AFA1E
:1034300000200449096881F87B0010BD4402002087
:10344000001002404400002010B50348FFF773F855
:1034500001200249087010BD8C02002029000020C4
:1034600010B50348FFF767F801200249087010BD46
:10347000D40200202B00002010B50268294B98428E
:103480000ED0B0F1804F0BD0274B984208D0274B7D
:10349000984205D0264B984202D0264B984203D141
:1034A00022F070024B681A431E4B984220D0B0F1B4
:1034B000804F1DD01C4B98421AD01C4B984217D0FD
:1034C0001B4B984214D01B4B984211D01A4B984278
:1034D0000ED01A4B98420BD0194B984208D0194B7A
:1034E000984205D0184B984202D0184B984203D10D
:1034F00022F44072CB681A4322F080034C6943EAFD
:10350000040202608B68C3620B688362054B9842B9
:1035100002D0084B984201D10B6903630123436138
:1035200010BD000000000140000400400008004001
:10353000000C0040000401400040014000440140F4
:103540000048014000180040001C004000200040DE
:1035500030B50C46816821F47F4142EA03252543BA
:103560002943816030BD0A46816821F0700142F034
:10357000070319438160704730B50B461446026A51
:10358000056A25F001050562816921F0F00141EA33
:10359000041122F00A021A438161026230BD30B583
:1035A0000B461446056A25F0100505628169026A1A
:1035B00021F4704141EA043122F0A00242EA0312F0
:1035C0008161026230BD00BFFEE700000248006872
:1035D000C0F30220704700000CED00E010B5002899
:1035E00004DB0A07130E054A135406E00A07140EFB
:1035F000034A00F00F031B1FD45410BD00E400E089
:1036000018ED00E00000000070B5D94B00242DED4E
:10361000020B2DED108BDDE91010984205DA20F039
:1036200000429A4201D809D141B19DED100BBDEC89
:10363000108B02B0BDE8704000F05EBAB0F5801F9C
:1036400026DA11430BD0002813DA0120FCF75CFFC7
:10365000BDEC108B02B0BDE8704000F059BA0220FA
:10366000FCF752FF00F030FA51EC100B01F08BFF29
:103670009EE06FF035049FEDC00B53EC102B9DEDD9
:10368000100B51EC100B02F019FACDE910010846AD
:1036900004EB2051C0F31304B948A1F2FF312044D8
:1036A00000F4801080F07F6282F04052224301EBF0
:1036B00020559FEDB50B119253EC102B9DED100B87
:1036C00051EC100B02F004FB41EC180BA01CC0F3F2
:1036D00013009FEDAFDB9FEDB0EBB14E7E440328AE
:1036E0006CD296ED000B51EC180B53EC102B02F042
:1036F00063F91DD1002D01BF96ED000BBDEC108BC1
:1037000002B070BD284602F0C2F941EC180B53EC30
:103710001D2B02F0D3F941EC190B53EC1E2B51EC8D
:10372000180B02F0CBF953EC192B01F039FF3FE0F5
:103730009FED9D0B51EC180B53EC102B02F0BEF9D2
:103740009FED9B1B53EC112B02F0B6FA41EC190BC9
:1037500053EC182B51EC180B02F0B0F953EC192B69
:1037600002F0ACF941EC190B002D04BF53EC192BFE
:1037700051EC180B1AD0284602F089F941EC1A0BCB
:1037800053EC1D2B02F09AF953EC192B02F094FA2A
:1037900053EC182B02F09CFA41EC180B53EC1E2B47
:1037A00051EC1A0B02F08AF953EC182B02F090FA44
:1037B000BDEC108B02B041EC100B70BD9FED7E0B89
:1037C00051EC180B53EC102B01F0EAFE41EC100BFE
:1037D00051EC180B53EC102B01F096FF41EC190B38
:1037E000284602F054F941EC1B0B53EC192B51EC19
:1037F000190B02F063F941EC1A0B714853EC1A2BC8
:10380000261851EC1A0B02F059F941EC1F0B6D48C8
:10381000C4F1510404F5D724B0EE4F0AF0EE6F0A5C
:103820000321784400F0D2F853EC1F2B51EC100B1D
:1038300002F044F941EC1C0B6348B0EE4F0AF0EE85
:103840006F0A0421784400F0C1F853EC1A2B51ECB4
:10385000100B02F033F9344353EC1C2B01F0A0FEA3
:1038600041EC1C0B002C4CDD9FED510B51EC180B67
:1038700053EC102B02F022F953EC182B02F01EF936
:1038800041EC1A0B55B353EC1D2B51EC1B0B02F002
:1038900015F941EC1D0B53EC1C2B51EC1A0B01F0EC
:1038A0007FFE53EC192B02F009F953EC1D2B01F0AC
:1038B00077FE53EC1A2B02F0FFF953EC182B02F0B1
:1038C00007FA41EC180B53EC1E2B51EC1B0B02F0CA
:1038D000F5F853EC182B02F0FBF969E753EC1C2BBD
:1038E00051EC1A0B01F05CFE53EC192B02F0E6F8D8
:1038F00053EC1A2B02F0E0F953EC182B02F0DCF930
:1039000056E735B353EC1D2B51EC1B0B02F0D6F8E8
:1039100041EC1A0B53EC1C2B51EC180B02F0D8F9AC
:1039200053EC192B02F0CAF853EC1A2B02F0D0F921
:1039300053EC182B02F0CCF941EC180B53EC1E2B76
:1039400051EC1B0B02F0BAF853EC182B02F0C0F943
:103950002EE753EC1C2B51EC180B02F0B9F953EC89
:10396000192B02F0ABF853EC182B02F0A5F91FE766
:103970000000F07F00000000000000000000504345
:10398000645F090000000000000000000000F03F3C
:10399000763C7935EF39EA3D0000E0FE422EE63F05
:1039A0002028000000000000555555555555D53FBD
:1039B000000000000000E03F0000000000000040A8
:1039C00086EBF9FFA22600009826000070B5044699
:1039D0002DED028B4D1E00EBC500B0EE408AF0EEDF
:1039E000608A90ED000B35F0060017D053EC182BD1
:1039F00051EC100B02F062F841EC100B6D1E04EB61
:103A0000C50090ED001B51EC100B53EC112B01F095
:103A1000C7FD41EC100B35F00600E7D1022D36D082
:103A2000042D1CD0062D1CBFBDEC028B70BD53ECC9
:103A3000182B51EC100B02F041F894ED0A1B53ECDB
:103A4000112B01F0ADFD53EC182B02F037F894ED7B
:103A5000081B53EC112B01F0A3FD41EC100B53ECB0
:103A6000182B51EC100B02F029F894ED061B53ECC7
:103A7000112B01F095FD53EC182B02F01FF894ED7B
:103A8000040B53EC102B01F08BFD41EC100B53ECAD
:103A9000182B51EC100B02F011F894ED021B53ECB3
:103AA000112B01F07DFD53EC182B02F007F894ED7B
:103AB000001B53EC112B01F073FDBDEC028B41ECAC
:103AC000100B70BD000000009FED070B10B553EC0C
:103AD000102B9FED070B51EC100B01F015FE41EC84
:103AE000100B10BD000000000000000000000000EE
:103AF000000000000000F03F10B553EC102B51EC1B
:103B0000100B01F04DFD41EC100B10BD000000004A
:103B10009FED050B10B553EC102B51EC100B01F081
:103B2000F3FD41EC100B10BD000000000000000090
:103B30002DE9FF4F2DED068B87B017461C461B9EC7
:103B40000E98012802D0022806D102E04FF0A0080A
:103B500007E04FF0A20804E007B0BDEC068BBDE81B
:103B6000FF8F00BF9FED310BFFF74EFDB0EE409A87
:103B7000F0EE609A9FED2F0BFFF746FDB0EE40AAE6
:103B8000F0EE60AA53EC192B51EC1A0B01F0BCFDBE
:103B900041EC180B01F04CFF82463D463019C1172D
:103BA00000EB916107EBA11189B206913019C117A1
:103BB00000EB91618911A0EB811119B90698401EA3
:103BC00080B206900698401B401C80B205904FF0D2
:103BD00000090020049022E005FA0AF0204380B298
:103BE00003902146304600F0C4F883460A211A9813
:103BF00048440223CDE901B100904146039A0D9853
:103C0000FCF78EFF681C85B20024A6EB0B0086B281
:103C100009EB0B001FFA80F90498401C0490DDE9C1
:103C200004018842D8DB00BF96E7000000000000D6
:103C30000000004000000000000050402DE9FF4F50
:103C40002DED068B87B017461C461B9E0E9801284B
:103C500002D0022806D102E04FF0A00807E04FF0A2
:103C6000A20804E007B0BDEC068BBDE8FF8F00BFE3
:103C70009FED320BFFF7C8FCB0EE409AF0EE609A71
:103C80009FED300BFFF7C0FCB0EE40AAF0EE60AA4B
:103C900053EC192B51EC1A0B01F036FD41EC180BCB
:103CA00001F0C6FE82463D463019C11700EB916116
:103CB00007EBA11189B206913019C11700EB916190
:103CC0008911A0EB811119B90698401E80B20690A7
:103CD0000698401B401C80B205904FF00009002060
:103CE000049025E005FA0AF0204380B203902146B3
:103CF000304600F03EF883460A211A9848440223D1
:103D0000CDE901B100904146039A0D98FDF782F884
:103D1000681C85B20024A6EB0B0086B209EB0B00F1
:103D20001FFA80F90A20FCF7D7FC0498401C049085
:103D3000DDE904018842D5DB00BF93E70000000005
:103D400000000040000000000000504010B5014697
:103D50000A46C81701EB10700011A1EB00100B46CA
:103D6000CC1701EB1474241104EB840400EB440021
:103D700010BD02465018402801DA10467047C1F1C4
:103D8000400080B2FAE7000010B502460B464FF043
:103D9000FF3108E012F8010B4840C0B2054C54F85E
:103DA000200080EA1121181EA3F10103F2D1C843BB
:103DB00010BD0000B41400200021054A12685162B1
:103DC00000BF03490968496A8142FAD3704700007D
:103DD000FC0100202DE9F0410746884615460024E5
:103DE0004146384601F0E0F8002241463846FCF7EB
:103DF000A3FD012241463846FCF79EFD6420FCF7F6
:103E00006BFC002241463846FCF796FD1220FCF779
:103E100063FC012241463846FCF78EFD4146384698
:103E200001F0AFF83C20FFF7C7FF41463846FCF7EA
:103E300071FD10B10120BDE8F0815020FFF7BCFFFB
:103E400041463846FCF766FD08B90120F3E75020EB
:103E5000FFF7B2FF00242CE00020C4F104016854F5
:103E6000002622E000BF41463846FCF753FD0028FB
:103E7000F9D02320FFF7A0FF41463846FCF74AFD62
:103E800050B1C4F10400285CC6F107020121914041
:103E90000843C4F10401685400BF41463846FCF7AA
:103EA00039FD0028F9D1701CC6B2082EDADB601C7F
:103EB000C4B2052CD0DB0020BDE770B504460D462A
:103EC0004FF4FA60FCF708FC2946204601F06CF834
:103ED000012229462046FCF72FFD70BD70B53248FF
:103EE0000068C06C401C30490968C8642F48C0791C
:103EF000072857D2DFE800F05604102336424B0063
:103F00002A48048945892A4801192A462948FCF784
:103F100022FA2948056045E0244804894589244956
:103F200008192A4621490C31FCF715FA0222012111
:103F30002048FCF787FA01201F49086032E01B483F
:103F4000048945892B4600F10C0221461B4800F0EC
:103F50002EFA032201211748FCF774FA01201649B2
:103F600008601FE0154800F05FFA042201211148A3
:103F7000FCF768FA01201049086013E020220C4980
:103F80000C48FCF7E8F920200B4908600AE04FF4E0
:103F9000A57207490748FCF7DEF94FF4A5700649FA
:103FA000086000BF00BF70BD54000020B41800209E
:103FB000D0200020CA1C0020500000205800002003
:103FC000C2F3061300EE903AF8EEE00AB0EE600A93
:103FD00002F00F0300EE903AB8EEE01AF3EE001A8A
:103FE000C1EE210A70EE800AB0EE600A7047034607
:103FF00002F4006008B1012070470020FCE70000D7
:1040000070B52DED028B84B004460D4600231A4690
:104010002946204600F05DF8002002AB0246294602
:104020000090204600F0ABF89DF808009DF80910BC
:1040300040EA0126324629462046FFF7C1FFB0EE8E
:10404000408A324629462046FFF7D1FF28B1BFEE0D
:10405000000A28EE000AB0EE408A9FED080AB4EE8E
:10406000408AF1EE10FA05D19FED050A04B0BDECCF
:10407000028B70BDB0EE480AF8E700000000AA42CB
:104080000000000070B505460E461446314628462D
:1040900000F099F808B1012070BDC4B9CC223146B6
:1040A000284600F0DBF84E223146284600F0D6F8CC
:1040B00064223146284600F0D1F89E223146284637
:1040C00000F0CCF87F223146284600F0C7F80020E7
:1040D000E2E72DE9F04105460E4614461F463146FB
:1040E000284600F070F824B9CC223146284600F06A
:1040F000B5F844223146284600F0B0F8BDE8F0811A
:1041000070B504460D4600262946204600F04CFFB7
:10411000002229462046FCF70FFC0220FFF74CFE48
:10412000012229462046FCF707FC0D20FFF744FE3C
:104130002946204600F025FF29462046FCF7EAFBE9
:1041400008B1012000E0002006462D20FFF734FED4
:10415000304670BD2DE9F04106460F46002500248B
:1041600008E039463046FFF7CBFFA0402844C5B2EF
:10417000601CC4B2072CF4DD2846BDE8F0812DE9AF
:10418000F0470746884615461E46DDF82090414612
:10419000384600F018F825B9CC224146384600F0E0
:1041A0005DF8BE224146384600F058F8002406E08B
:1041B00041463846FFF7CEFF3055601CC4B2082C8C
:1041C000F6DBBDE8F08770B504460D46294620466B
:1041D00000F0EAFE002229462046FCF7ADFB40F243
:1041E000E510FFF7E9FD012229462046FCF7A4FB74
:1041F0004120FFF7E1FD2946204600F0C2FE294696
:104200002046FCF787FB06464FF4FA70FFF7D4FD13
:104210000EB1012070BD0020FCE770B505460E46CA
:1042200014463146284600F0BFFE0022314628469B
:10423000FCF782FB0CB1032100E041210846FFF7A7
:10424000BBFD012231462846FCF776FB0CB141212B
:1042500000E003210846FFF7AFFD70BD2DE9F041F6
:1042600006460F46154600240CE045FA04F000F01F
:10427000010239463046FFF7D0FF0520FFF79CFDCD
:10428000601CC4B2082CF0DBBDE8F0812DE9F043DE
:104290002DED068B93B081460D461646012D02D0BA
:1042A000022D04D101E0A02406E0A22404E013B012
:1042B000BDEC068BBDE8F08300BF9FED1A0BFFF746
:1042C000A3F9B0EE409AF0EE609A9FED180BFFF75D
:1042D0009BF9B0EE40AAF0EE60AA53EC192B51EC1A
:1042E0001A0B01F011FA41EC180B01F0A1FB074683
:1042F00006FA07F01FFA80F8FF22402103A8FCF716
:10430000A1F80A20402103AA0223CDE9002102904E
:10431000424621464846FCF77DFD0A20FCF7DCF9C1
:1043200000BFC4E7000000000000004000000000E3
:10433000000050402DE9FC4782460C4690461E4640
:104340002046E11704EB9161C1F38F17A4EB8710AE
:1043500085B228E0C5F14000B04219DAC5F140004D
:1043600080B208EB09012B463A46CDE90010012145
:104370005046FFF7DDFBC5F14000301A86B200253C
:10438000781C87B2C5F1400048441FFA80F90AE062
:1043900008EB09002B463A460121CDE900065046BC
:1043A000FFF7C6FB00E0D5E700BFBDE8FC872DE9BD
:1043B000FC4782460C4690461E462046E11704EB19
:1043C0009161C1F38F17A4EB871085B228E0C5F186
:1043D0004000B04219DAC5F1400080B208EB090193
:1043E0002B463A46CDE9001001215046FFF726FC46
:1043F000C5F14000301A86B20025781C87B2C5F19D
:10440000400048441FFA80F90AE008EB09002B46F7
:104410003A460121CDE900065046FFF70FFC00E0C7
:10442000D5E700BFBDE8FC8730B593B0054616223E
:104430001DA101A8FCF735F8214800680990214822
:1044400000680A90204800680B90204800680C9093
:104450001F48006810901F4801680D918088ADF8D2
:1044600038001D480168CDF83A108088ADF83E004C
:104470001A4890ED000A8DED120A194890ED000AD5
:104480008DED110A002405E0A2B201211548FFF7C5
:10449000FDFE641C022CF7D3482301AA0021284604
:1044A000FFF785FF13B030BD47617320426F696C21
:1044B000657220436F6E74726F6C6C6572000000E1
:1044C0000000002004000020080000200C00002054
:1044D0001C000020100000201600002024000020F6
:1044E0002000002058000020002112E00846002291
:1044F00009E000F001031BB1074B83EA500300E021
:1045000043081846521C082AF3DB044B43F82100E9
:10451000491CFF29EADD70472083B8EDB414002060
:104520002DE9F04105460C46012000EB84000121F5
:1045300001EBC000C7B229223946284600F005FF2A
:10454000804628223946284600F0FFFE48EA002629
:104550003046BDE8F0812DE9F04105460C460027C4
:10456000012000EB8400012101EBC000C7B227222B
:104570003946284600F0E9FE80462622394628467C
:1045800000F0E3FE48EA00263046BDE8F0812DE960
:10459000F04105460C460027012000EB8400012174
:1045A00001EBC000C7B203223946284600F0CDFE19
:1045B00006463046BDE8F08110B586B004464FF49B
:1045C0007A70072104AA0123CDE90021029000227C
:1045D000D0212046FCF7A4FA9DF81000FFF7B6FBA7
:1045E000134908709DF81100FFF7B0FB104948709F
:1045F0009DF81200FFF7AAFB0D4988709DF8130083
:10460000FFF7A4FB0A49C8709DF81400FFF79EFB52
:10461000074908719DF81500FFF798FB0449487198
:104620009DF81600FFF792FB0149887106B010BD96
:10463000480000202DE9F04105460C46012000EB22
:104640008400012101EBC000C7B22522394628466B
:1046500000F07BFE804624223946284600F075FE95
:1046600048EA00263046BDE8F08170B505460C46A4
:104670000026012000EB8400012101EBC000C6B23E
:10468000022301223146284600F03EFF70BD0000A3
:104690001CB5FCF7C1FCFEF74BFE4FF4FA60FCF7CB
:1046A0001BF8FEF79BFAFEF7E1FBFEF701FCFEF7B5
:1046B000BFFBFEF71FFCFEF777FCFEF73DFCFEF7A5
:1046C000A9FCFEF7DFFCFEF715FDFFF70DFFFE4826
:1046D000FFF772FFFD480068FD490A6840F85B2F4C
:1046E0008A88828089798171F8480168F84802686F
:1046F00041F8542F82888A8080798871F348006855
:1047000090F85600F34908704823F04800210268E9
:10471000ED48FFF70FFEF0480068F049096AC166EE
:10472000ED480068ED49896A0167EB480068EB498C
:10473000C96A4167E948808FE7490968A1F87800AC
:10474000E5480068E5490A6B40F8662F898E81804C
:104750000020E149096881F87A003622E049DE4804
:104760000068FBF73DFEDE48C08EDB490968C8865D
:10477000D9480068DA498A6B8263898F8187D84873
:10478000C08FD5490968C8871122D5494031D24820
:1047900000684030FBF724FED14890F85100CE4924
:1047A000096881F85100CE48406DCB4909684865D9
:1047B0003D22CC49C84800687C30FBF711FEC9484F
:1047C00090F83D10C448006880F8B910C54890F8CA
:1047D0003E10C148006880F8BA10C24890F83F10F7
:1047E000BD48006880F8BB10BE4890F84010BA4839
:1047F000006880F8BC10BB4890F84110B6480068CB
:1048000080F8BD10B74890F84210B348006880F8AF
:10481000BE10B44890F84310AF48006880F8BF104D
:10482000B04890F84410AC48006880F8C010AD481B
:1048300090F84510A848006880F8C110A94890F881
:104840004610A548006880F8C210A748A249096828
:1048500088651020A0490968A1F85C00A3489E491A
:104860000968086610209C490968A1F864009A4804
:10487000006800F003FD9E4800689849496AC166D7
:104880009B4800689549896A01679948006893497F
:10489000C96A41679148808F95490968A1F87800F5
:1048A000934800688D49D1F8362040F8662F498F2B
:1048B000818000208E49096881F87A0036228D496E
:1048C0008B480068FBF78CFD8A48C08E88490968D0
:1048D000C8868748006887498A6B8263898F818789
:1048E0008448C08F82490968C887112281494031B4
:1048F0007F4800684030FBF773FD7E4890F8510018
:104900007B49096881F851007A48406D7849096807
:1049100048653D227849764800687C30FBF760FDA9
:10492000754890F83D107248006880F8B9107248D8
:1049300090F83E106E48006880F8BA106E4890F803
:104940003F106B48006880F8BB106B4890F840102F
:104950006748006880F8BC10674890F841106448C8
:10496000006880F8BD10644890F842106048006804
:1049700080F8BE10604890F843105D48006880F8E9
:10498000BF105D4890F844105948006880F8C01086
:10499000594890F845105648006880F8C1105648AC
:1049A00090F846105248006880F8C21053485049A9
:1049B0000968886580144E490968A1F85C004F4871
:1049C0004B49096808664FF4005049490968A1F845
:1049D00064004748006800F051FC4248FDF7D0FCF5
:1049E0004548FDF7CDFC4648FDF7CAFC4548FDF7B4
:1049F000C7FC4548FDF776FC00F026F94FF400416E
:104A00004248FFF75AFA00224FF480413F48FFF72F
:104A100039FBEEE03E480078002853D02A48FFF7E3
:104A2000CBFD2A4800682A490A6840F85B2F8A882B
:104A30008280897981712548006890F85D00254958
:104A40000978401A002808DC2048006890F85D00CA
:104A500020490978081A17280CD11C48006890F8DA
:104A60005D001C49087019480068006D401C17491A
:104A7000096808656A464FF400412448FFF7AAF91F
:104A800078B9BDF9030000EE100AF8EEC00AB2EEE4
:104A9000041A80EE810A10EE100A0C490968C1F868
:104AA00066004FF480411948FFF7AAFA10EE100A89
:104AB00006490968C1F8620000F018FB002014499B
:104AC000087000BF134827E0580000205400002061
:104AD000480000202800002040000020D0200020B6
:104AE000AC000020B4010020000002400008024099
:104AF0004400002004010020440200200004024081
:104B00008C020020D4020020FC010020000C024096
:104B1000290000202B0000200078F8B1354A1268E7
:104B2000126C00EE102AF2EE040A20EE200ABDEE0E
:104B3000C00A10EE101A2F4A1268D2F8622000EE56
:104B4000102AF2EE040A20EE200ABDEEC00A10EE92
:104B5000100A00F0B4F800202749087027480078B0
:104B6000C8B1002405E0A2B201212548FFF78EFB61
:104B7000641C022CF7D34823224A00212048FFF767
:104B800016FC48231B48002102681D48FFF7D2FB92
:104B900000201A4908701C48006890F87B00012822
:104BA00008D01948006800F078FB01201649096810
:104BB00081F87B001448006890F87A101248006869
:104BC00000F087F91148006890F87B00012808D0B0
:104BD0000E48006800F061FB01200C49096881F86B
:104BE0007B000A48006890F87A100848006800F0D6
:104BF00070F90FE7540000202B0000202A0000204D
:104C000058000020D0200020400000204400002058
:104C100010B500210F2000F083F907210B2000F0D0
:104C20007FF9FF21092000F07BF901210C2000F021
:104C300077F9082400BF0F21204600F071F9601EAB
:104C4000C0B2041EF7D110BD10B5FFF7E1FF00217F
:104C50000F2000F065F90A20FBF73EFD07210B202D
:104C600000F05EF90A20FBF737FD04210A2000F06E
:104C700057F90A20FBF730FD01210C2000F050F914
:104C80000A20FBF729FD10BD2DE9F04106460C4630
:104C900015460027012000EB8400012101EBC00034
:104CA000C7B2EBB200223946304600F02DFC01239A
:104CB0001A463946304600F027FCBDE8F0812DE960
:104CC000F04105460E46B5F57A7F02DAB6F57A7FF1
:104CD00002DB0120BDE8F0810224FFF799FFEE21FD
:104CE000092000F01DF94E21012000F019F94E2194
:104CF000052000F015F94DB90021204600F010F90B
:104D0000611CC8B2802100F00BF922E01FE0032CE7
:104D100001D0072C0CD10A2095FBF0F100FB1150BB
:104D2000C0B240F080073946204600F0F9F809E0AB
:104D30000A2095FBF0F100FB1150C7B2394620461E
:104D400000F0EEF8601CC4B20A2095FBF0F5002DCF
:104D5000DDD106244EB90021204600F0E1F8611CA7
:104D6000C8B2802100F0DCF822E01FE0032C01D063
:104D7000072C0CD10A2096FBF0F100FB1160C0B2A9
:104D800040F080073946204600F0CAF809E00A20C2
:104D900096FBF0F100FB1160C7B23946204600F0E7
:104DA000BFF8601CC4B20A2096FBF0F6002EDDD1DD
:104DB00000208FE7F8B504460E4631462046FFF73F
:104DC000E6FB17286CD131462046FFF7C4FBC4F838
:104DD000C408D4F8C40808B90120F8BD31462046FB
:104DE000FFF79EFBB4F8C418084487B23A46314630
:104DF000204600F0ECF831462046FFF791FB0746CD
:104E0000B4F8C40880B204F1C4033A4631460090B5
:104E1000204600F0BBFA234904F18000826C406C0C
:104E200005C120480078552801D00120D5E71D484C
:104E3000B0F80500A0F10B0204F1CC0119480830CC
:104E4000FBF7CEFA1748B0F8051004F1CC0008447F
:104E5000154950F80B2D8A60808888811148B0F878
:104E60000C044AF6AA21884201D00120B5E70D487A
:104E7000B0F80500011F0B48401CFEF785FF0546F2
:104E80000848D0F80804A84201D00120A5E7074847
:104E90000068806C401C05490968886400209CE714
:104EA00001209AE7B4180020B41C00205400002010
:104EB00070B505460C46012000EB8400012101EB92
:104EC000C000C6B2402301223146284600F01CFB38
:104ED00070BD70B504460D4629462046FFF76AFFAF
:104EE00008B1012070BDFEF7F9FF2946204600F009
:104EF0003FF90020E16F486200BFF3E710B50446B8
:104F0000B4F864100122206EFBF716FD10BD10B539
:104F10000446B4F864100022206EFBF70DFD10BDAE
:104F200013B500224FF480510B48FBF705FD4FF0FD
:104F3000FF33012269460948FCF7AAFE4FF0FF3310
:104F4000012201A90548FCF7A3FE01221103024832
:104F5000FBF7F2FC1CBD0000000C02405C010020CD
:104F600070B505460C46012000EB8400012101EBE1
:104F7000C000C6B2202301223146284600F0C4FA00
:104F800070BD30B585B005460C4614216846FBF768
:104F900061FA0094002001900120029069462846A1
:104FA000FBF7BEFB05B030BD30B585B005460C46FD
:104FB00014216846FBF74EFA00940120019000206E
:104FC000039069462846FBF7ABFB05B030BD2DE9E1
:104FD000F04106460D461446012000EB85000121F4
:104FE00001EBC000C7B2231228223946304600F038
:104FF0008BFAE3B229223946304600F085FABDE843
:10500000F0812DE9F04106460D461446012000EBE3
:105010008500012101EBC000C7B2231204223946EA
:10502000304600F071FAE3B205223946304600F00E
:105030006BFABDE8F0812DE9F04106460D461446B5
:10504000012000EB8500012101EBC000C7B2231253
:1050500024223946304600F057FAE3B22522394679
:10506000304600F051FABDE8F08170B505460C46B7
:105070000026012000EB8400012101EBC000C6B234
:1050800007E003223146284600F05FF9132800D1DB
:1050900000E0F6E700BF70BD70B505460C4600267F
:1050A000012000EB8400012101EBC000C6B207E043
:1050B00003223146284600F048F9142800D100E0C8
:1050C000F6E700BF70BD10B50446B4F85C100122CD
:1050D000A06DFBF731FC10BD10B50446B4F85C10B0
:1050E0000022A06DFBF728FC10BD000010B51E4883
:1050F0000068D0F8620000EE100A1B480068406C9F
:1051000000EE900A70EE200A17480068006C00EE6E
:10511000100AF4EEC00AF1EE10FA0AD80121124882
:10512000006880F86A10012240211048FBF704FC57
:1051300019E00D480068D0F8620000EE100A0A4835
:105140000068006C00EE900AB4EEE00AF1EE10FA8E
:1051500009DD00210448006880F86A10002240211F
:105160000248FBF7E9FB10BD540000200008024094
:10517000F8B504460E46032555203B4908703B48C8
:10518000B0F80300A1F801003848B0F80100A1F818
:1051900003003648C079C871354800880B30A1F843
:1051A000050004F2C44028440A680260496841606E
:1051B00004F2C441294401F108002D490A682A4932
:1051C0000831FBF7C8F8284AB2F80520111F04F28D
:1051D000C4422A44501CFEF7D7FD2349C1F80804F5
:1051E0004AF6AA212048A0F80C1404F2C44028442E
:1051F00008301F49096801441E4882680A60808996
:1052000088801B4800680E30C4F8C8083146204624
:10521000FFF710FAB4F8C818084487B23A46314686
:105220002046FFF708FF31462046FFF703FA0746FE
:1052300005F108000E4909880844801D80B204F277
:10524000C4433A4631460090204600F07CF931468E
:105250002046FFF72DFE31462046FFF781FE042150
:105260000548FBF75FFBF8BDC21C0020B418002006
:1052700050000020C22000200010024010B504465B
:105280002046FFF744FE4620FBF726FA2046FFF7AC
:1052900035FE4620FBF720FA10BD10B50446204627
:1052A00000F012F904F16601204600F0E4F804F180
:1052B0007001204600F088F804F17401204600F0E7
:1052C000BDF804F16C01204600F09BF8B4F878209A
:1052D00094F87A102046FFF794FE94F87A10012291
:1052E0002046FFF7D1FC94F87A102046FFF7BDFE68
:1052F00094F87A102046FFF7B8F994F87A1020460F
:10530000FFF7CAFE4FF4FA70FBF7E6F994F87A104B
:105310002046FFF73CF910BD70B504460D46164611
:105320002046FFF7D9FE4FF0FF33032229462046DF
:10533000FCF7AEFC4FF0FF33324629462046FCF71F
:10534000EFFB2046FFF7BFFE70BDFEB506460D46DB
:1053500014460020029020128DF80800E0B28DF86B
:1053600009008DF80A503046FFF7B6FE4FF0FF30C7
:10537000042301AA02A900903046FCF760FD3046E4
:10538000FFF7A1FE9DF807703846FEBD2DE9F047F6
:1053900080460F4615461C46DDF820902646032021
:1053A00000EB8700002141EAC000B0704FF47F405D
:1053B00000EA052040EA152030804A463146404642
:1053C000FFF7AAFFBDE8F08770B505460C4600263A
:1053D000237801223146284600F096F863780222AD
:1053E0003146284600F090F8A3780322314628463B
:1053F00000F08AF8E37804223146284600F084F869
:1054000070BD70B505460C46002623780F22314644
:10541000284600F079F8637810223146284600F0DB
:1054200073F8A37811223146284600F06DF8E3782E
:1054300012223146284600F067F870BD70B5054667
:105440000C460026237805223146284600F05CF8F9
:10545000637806223146284600F056F8A3780722E2
:105460003146284600F050F8E378082231462846B5
:1054700000F04AF870BD70B505460C46002623784A
:1054800009223146284600F03FF863780A22314667
:10549000284600F039F8A3780B223146284600F060
:1054A00033F8E3780C223146284600F02DF82379B2
:1054B0000D223146284600F027F863790E22314646
:1054C000284600F021F870BD70B50446002501257E
:1054D000802300222946204600F016F86420FBF7BE
:1054E000FBF870BD70B504460D4616462046FFF722
:1054F000F3FD4FF0FF33324629462046FCF7C8FB48
:105500002046FFF7E0FD70BDF8B507460D4614468E
:105510001E4620128DF80000E0B28DF8010045F023
:1055200004008DF802008DF803603846FFF7D4FDC3
:105530004FF0FF33042269463846FCF7A9FB384692
:10554000FFF7C1FDF8BD2DE9F04780460F4615462F
:105550001C46DDF820902646022000EB870004213F
:1055600001EBC000B0704FF47F4000EA052040EA34
:105570001520308009F1030082B231464046FFF722
:10558000B1FFBDE8F08781F00041704780F0004036
:10559000704721F00041704720F000407047000044
:1055A00010B591EA030F48BF83F0004300F19883E0
:1055B000841A71EB030C05D2121943EB0C03001B88
:1055C00061EB0C01DFF824E14FEA1154A4EB135C0A
:1055D0001EEA430F18BF9EEA445F73D023EA0E030E
:1055E000DCF1200E21EA045143F4801332D322FA75
:1055F0000CFE10EB0E0023FA0CFE41EB0E01CCF179
:10560000200E03FA0EFE10EB0E0051F10001B1F571
:10561000801FCCF1200E32D201EB045112FA0EF2AF
:10562000BDE8104058BF7047401C38BF5FEA4202D7
:1056300018BF7047002814BF20F0010041F100019D
:105640004FEA410313F5001F38BF7047A1F1C04175
:1056500000F02CBB012A43EB0302ACF1200CDCF17F
:105660001F0E32BF4FF0000E23FA0CF310EB0300B5
:1056700041EB0451B4EB115FD0D0A1EB045101F523
:10568000801149085FEA300001EB04510ED350F15C
:10569000000038BF12FA0EFE08D1BDE81040C9E77D
:1056A000401C38BF5FEA4202CAD1C3E7BDE81040E0
:1056B0004FEA410313F5001F38BF7047A1F1C04105
:1056C00000F0F4BA9EEA445F08D011EA5E0FBDE82C
:1056D000104004BF01F0004100207047BDE81040B9
:1056E00070B500F095FA00BF64FBBE3E0000E0FF1D
:1056F000491058BFC1F140415B1058BFC3F140434E
:105700008B42EFF3008070472DE9C04130B4DFF8E1
:10571000A0C23CEA111418BF3CEA131400F0EC805C
:1057200081EA03051CEA111444EAD57418BF1CEA87
:10573000131500F0C780A4EB05044FF0004545EABF
:10574000C12145EAC32341EA505143EA525304F1CF
:105750007F74994204F500344FEAC0204FEAC22218
:1057600008BF904200F09C804FEA13650FF240168C
:10577000765D4FEA134506FB05F7C7F1807706FB18
:1057800007F74FEAD737A7FB03687642C8F580389A
:10579000A7FB06CE38BFA8F1010807FB08E64FF0CB
:1057A000000EA6FB028CE6FB03CEDCF1000CCEF172
:1057B000004E38BFAEF1010EA6FB0C584FF00007AB
:1057C0004FF00005E6FB0E87A1FB08C6A0FB07CE45
:1057D00016EB0E0645F10005E1FB076515F1E04EFD
:1057E0007EBFA4F580345FEA46066D4116F180075E
:1057F00045F100054FEA17274FEA066647EA0567B5
:10580000A6F1DE46B6F1805F4FEA15251FD938466E
:1058100024F0010C05EBC471BCF1FE6F01EB0C111F
:1058200002D8F0BCBDE8008124425CBF01F5801EB7
:105830009EEAC47F02D4F0BCBDE80081244238D483
:10584000F0BCA1F1C041BDE8004100F02FBA4FEA21
:10585000D22242EA43524FEAD323A7FB02864FEA01
:10586000D02040EA415007FB03661EEA0E0F4FEAC4
:10587000D12105FB026658BFA6EB0056B6EB0056D9
:105880004FEA520E4EEAC37E18EB0E0E56EB530E45
:10589000BDD518EB02085E417F1C55F10005B6E747
:1058A0004FF480154FF000074FF000064FF000084E
:1058B000ADE7F0BC4FF0000001F1C04101F0004144
:1058C000BDE8008111EA0C1F0CEA131500D00CE0B2
:1058D00013EA0C1F00F025804FF00000F0BC81EAB5
:1058E000030101F00041BDE80081F0BCBDE80041CA
:1058F00081EA030100F0DAB9F0BCBDE8004170B5FF
:1059000000F086F9097EFC3E00F007B881EA030149
:105910004FF0000001F00041704781EA030100F000
:10592000C5B9F0BCBDE800414FF000002149704707
:10593000FFFDFBF9F7F5F4F2F0EEEDEBE9E8E6E454
:10594000E3E1E0DEDDDBDAD8D7D5D4D3D1D0CFCDDB
:10595000CCCBCAC8C7C6C5C4C2C1C0BFBEBDBCBB14
:10596000BAB9B8B7B6B5B4B3B2B1B0AFAEADACAB0F
:10597000AAA9A8A8A7A6A5A4A3A3A2A1A09F9F9EE9
:105980009D9C9C9B9A99999897979695959493939B
:10599000929191908F8F8E8E8D8C8C8B8B8A898932
:1059A00088888787868585848483838282818180B5
:1059B0000000FF070000F87F51EA030C17D41CF524
:1059C000801F58BFBCF5801F00F10680994218BFA8
:1059D000704708BF9042704707D711F5801F58BF26
:1059E00013F5801F19D499427047894270471CF5FE
:1059F000801F08D5BCF5801FF7D58B4218BF7047B4
:105A000008BF824270474FF4001C1CEB410F38BFA7
:105A10001CEB430F01D28B42704770B500F0F8F8D1
:105A2000922449004FF000514FF08053FFF760BEC1
:105A30004FEA41034FEA5353A3F58063D3F11E03AA
:105A4000C8BFD3F1210C0CDD4FF0004242EAC12265
:105A500042EA505232FA03FC8CEAE17CACEBE17092
:105A60007047102BC4BF0020704703F5787CBCF151
:105A7000FF3F04D06FF0004282EA2100704770B50A
:105A800000F0C6F84992248000207047F2E710F039
:105A9000004248BF4042B0FA80F310FA03F10AD046
:105AA000C3F11D0303F580634FEA415002EB03523B
:105AB00002EBD12170474FF000007047DFF848C17A
:105AC00070B51CEA111E1EBF1CEA13159EEA0C0FCE
:105AD00095EA0C0F00F06F8081EA030423EA4C136F
